:020000040000FA
:0400000080310D2816
:1000060008007E1480318B1A0B1D0B289A311C2296
:100016007E10090080310F2822009931D1218031CC
:10002600DE009931D2218031DF009931D321803130
:10003600E0009931D4218031E100E83084000030BD
:10004600850008309931DB2180314230840001304F
:1000560085001C309931DB218031A03084000130CD
:10006600850043309931DB21803120308400023015
:1000760085001A309931DB218031A03084000230AE
:10008600850046309931DB218031203084000330F1
:10009600850049309931DB217E1020008A31D82A2B
:1000A6002100B4000030B8000130B700AD30B60012
:1000B600B030B50000302000A3000030A2000030B0
:1000C600A1000230A0002E08213E860001308700E4
:1000D600403FA400413FA500423FA600433FA70082
:1000E60096315B268031003020072100C90006309A
:1000F6002000213D2100CA00FF302000223D2100C2
:10010600CB00FF302000233D2100CC000030200032
:10011600A3000030A2000030A1000430A00021009E
:100126004C082000A70021004B082000A600210053
:100136004A082000A500210049082000A4009631A5
:100146005B2680312308F3002208F2002108F10023
:100156002008F0000030A3000030A2000030A1000B
:100166000430A00021004C082000A70021004B0805
:100176002000A60021004A082000A5002100490809
:100186002000A40096315B2680312308F700220860
:10019600F6002108F5002008F4009C3191248031F6
:1001A60073082100BC007208BB007108BA00700811
:1001B600B90000302000A3000030A2000830A100E2
:1001C6000030A00021003C082000A70021003B08C9
:1001D6002000A60021003A082000A50021003908C9
:1001E6002000A40096315B2680312308F300220804
:1001F600F2002108F1002008F0002E08103E8600CB
:1002060001308700403FB200413FB3003208F4009E
:100216003308F500890D893B8909F600F7009C3102
:100226009124803173082100C4007208C30071084C
:10023600C2007008C10041082000B2002100420837
:100246002000B300210043082000B4002100440828
:100256002000B5002E080E3E860001308700403F84
:10026600B600413FB7003608F0003708F100890DA7
:10027600893B8909F200F30021004C08F7004B087E
:10028600F6004A08F5004908F4009C3191248031B3
:1002960070082000B8007108B9007208BA00730827
:1002A600BB000130B835B90DBA0DBB0D890B552908
:1002B6003808B2073908B33D3A08B43D3B08B53DA6
:1002C60035082100C400200034082100C3002000A6
:1002D60033082100C200200032082100C10020009E
:1002E6002E080C3E860001308700403FB200413F99
:1002F600B3003208B4003308B500B601B7011030B8
:10030600B435B50DB60DB70D890B83290030A300A2
:100316000030A2000030A1000430A00021004408F3
:100326002000A700210043082000A6002100420863
:100336002000A500210041082000A40096315B267C
:1003460080312008B4072108B53D2208B63D2308B0
:10035600B73D37082100C400200036082100C3003D
:10036600200035082100C200200034082100C10009
:1003760000302000A3000030A2000030A1000430AD
:10038600A00021004C082000A70021004B082000F7
:10039600A60021004A082000A500210049082000E7
:1003A600A40096315B2680312308F3002208F20070
:1003B6002108F1002008F0000030A3000030A20060
:1003C6000030A1000430A00021004C082000A70046
:1003D60021004B082000A60021004A082000A500A5
:1003E600210049082000A40096315B2680312308AD
:1003F600F7002208F6002108F5002008F4009C31D9
:100406009124803173082100BC007208BB0071087A
:10041600BA007008B90020002E080A3E8600013096
:100426008700403FB200413FB3003208F000330876
:10043600F100890D893B8909F200F3000030A30021
:100446000030A2002030A1000030A00021003C08AE
:100456002000A70021003B082000A60021003A0842
:100466002000A500210039082000A40096315B2653
:1004760080312308F7002208F6002108F50020083D
:10048600F4009C319124803173082100AF0072087A
:10049600AE007108AD007008AC0000302000A3006B
:1004A6000030A2000030A1000830A00021002F0873
:1004B6002000A70021002E082000A60021002D08FC
:1004C6002000A50021002C082000A40096315B2600
:1004D600803123082100A300200022082100A20069
:1004E600200021082100A100200020082100A000F2
:1004F60000302000A3000030A2000030A10002302E
:10050600A0002E08083E860001308700403FB2005A
:10051600413FB3003208F0003308F100890D893BF2
:100526008909F200F30021004C08F7004B08F60099
:100536004A08F5004908F4009C319124803173087B
:100546002000A7007208A6007108A5007008A40084
:1005560096315B26803123082100A700200022085F
:100566002100A600200021082100A5002000200867
:100576002100A40000302000A3000430A2000030B7
:10058600A1000030A0002100200824072000B200AE
:1005960021002108253D2000B30021002208263D28
:1005A6002000B40021002308273D2000B5003508AF
:1005B600A7003408A6003308A5003208A400963127
:1005C6005B26803123082100CC0020002208210070
:1005D600CB00200021082100CA00200020082100AD
:1005E600C90000302000A3000030A2008030A10026
:1005F6000030A000003021004907F00080304A3D5D
:10060600F10000304B3DF20000304C3DF30020007D
:100616002E08063E860001308700403FB200413F6B
:10062600B3003208F4003308F500F601F7019C31F7
:100636009124803173082000A7007208A600710873
:10064600A5007008A40096315B268031230821009E
:10065600CC00200022082100CB0020002108210028
:10066600CA00200020082100C9004C084B044A0497
:1006760049040319702D340886008701403F200085
:10068600B200413FB300423FB400433FB5000030E3
:10069600B6000030B7001030B8000030B90032089C
:1006A600B6023308B73B3408B83B3508B93B3908BE
:1006B6002100AB00200038082100AA0020003708DE
:1006C6002100A900200036082100A80000302000E3
:1006D600A3000030A2001030A1000030A0002100CD
:1006E60044082000A700210043082000A60021009E
:1006F60042082000A500210041082000A4009631F0
:100706005B2680312008210028022000B200210843
:100716002100293B2000B300220821002A3B2000AB
:10072600B400230821002B3B2000B5003508F30058
:100736003408F2003308F1003208F0000030F70008
:100746000030F6000C30F5003530F4009C31912471
:10075600803173082100C8007208C7007108C600FE
:100766007008C500803048020318D62B4C08F300E9
:100776004B08F2004A08F1004908F0004535F4003C
:10078600460DF500470DF600480DF700913136216C
:10079600803173082100C8007208C7007108C600BE
:1007A6007008C500F22B4C08F3004B08F2004A080B
:1007B600F1004908F0004808F7004708F600460827
:1007C600F5004508F400913136218031703521005D
:1007D600C500710DC600720DC700730DC80045082F
:1007E6002000B200210046082000B300210047087F
:1007F6002000B400210048082000B5000330B536BB
:10080600B40CB30CB20C890B022C3508F700340873
:10081600F6003308F5003208F400210045082000F0
:10082600B600210046082000B70021004708200036
:10083600B800210048082000B9000330B936B80CCA
:10084600B70CB60C890B212C3908F3003808F200D6
:100856003708F1003608F0009C3191248031700889
:100866002000BA007108BB007208BC007308BD0006
:100876000D30BD36BC0CBB0CBA0C890B3C2C3D08AC
:100886002100B30020003C082100B20020003B08F4
:100896002100B10020003A082100B00000302000FD
:1008A600A3000030A2001030A1000030A0002E08E6
:1008B600163E860001308700403FB200413FB3003C
:1008C6003208F0003308F100890D893B8909F200EE
:1008D600F30021003308F7003208F6003108F5006E
:1008E6003008F4009C319124803173082000A70061
:1008F6007208A6007108A5007008A40096315B2650
:10090600803123082100CC00200022082100CB00E2
:10091600200021082100CA00200020082100C9006B
:1009260000302000A3000030A2002030A1000030DB
:10093600A000210045082000B20021004608200042
:10094600B300210047082000B40021004808200019
:10095600B5000230B536B40CB30CB20C890BAD2C15
:100966003508F3003408F2003308F1003208F000CD
:100976002E08143E860001308700403FB600413FF6
:10098600B7003608F4003708F500890D893B890958
:10099600F600F7009C319124803173082000A700EF
:1009A6007208A6007108A5007008A40096315B269F
:1009B600803123082100C400200022082100C30042
:1009C600200021082100C200200020082100C100CB
:1009D60000302000A3000030A2000030A10010303B
:1009E600A000210041082000B2002100420820009A
:1009F600B300210043082000B40021004408200071
:100A0600B500210049082000B60021004A08200050
:100A1600B70021004B082000B80021004C08200038
:100A2600B9002E08123E860001308700403FBA000A
:100A3600413FBB003A08BC003B08BD000030BD1B6F
:100A4600FF30BE00BF003C08B6073D08B73D3E0874
:100A5600B83D3F08B93D3608B2073708B33D3808F8
:100A6600B43D3908B53D3508A7003408A60033085B
:100A7600A5003208A40096315B26803120082100AB
:100A860045072000C00021082100463D2000C10086
:100A960022082100473D2000C20023082100483DCE
:100AA6002000C30043082100C8002000420821009E
:100AB600C700200041082100C60020004008210090
:100AC600C5004808031D782D4708031D782D3030D2
:100AD60045027530463B0318782D0030C8000030BB
:100AE600C7007530C60030308A2D4808031D832D97
:100AF600B1304502AD30463B0130473B031C8B2DE0
:100B06000030C8000130C700AD30C600B030C500A7
:100B160048082000B100210047082000B00021004D
:100B260046082000AF00210045082000AE0008005E
:100B3600CC000030C7000030C6002130C50034307C
:100B4600C4002E08860001308700403FB200413FB6
:100B5600B3003208B4003308B500B601B70101305E
:100B6600B435B50DB60DB70D890BB32D4C08043E43
:100B760086008701403FB800413FB900423FBA00B6
:100B8600433FBB000330BB36BA0CB90CB80C890B1B
:100B9600C62D3408B8023508B93B3608BA3B3708C3
:100BA600BB3B3B08CB003A08CA003908C9003808E5
:100BB600C8000030A3000030A2000830A1000030B9
:100BC600A0002E08023E860001308700403FB2009A
:100BD600413FB3003208F0003308F100890D893B2C
:100BE6008909F200F3004B08F7004A08F6004908A5
:100BF600F5004808F4009C319124853173082000E3
:100C0600A7007208A6007108A5007008A400963116
:100C16005B2685312308CB002208CA002108C900BB
:100C26002008C8002E08860001308700403FB20029
:100C3600413FB3003208B4003308B500B601B7012E
:100C46004C08043E86008701403FB800413FB9008A
:100C5600423FBA00433FBB000430BB36BA0CB90C66
:100C6600B80C890B302E3408B8023508B93B360863
:100C7600BA3B3708BB3B3B08D0003A08CF003908DF
:100C8600CE003808CD000030A3000030A20010309E
:100C9600A1000030A0005008F3004F08F2004E08F3
:100CA600F1004D08F0005008F7004F08F6004E0816
:100CB600F5004D08F4009C3191248531730820001D
:100CC600A7007208A6007108A5007008A400963156
:100CD6005B2685312308BF002208BE002108BD001F
:100CE6002008BC000030A3000030A2004030A10064
:100CF6000030A0003F08F3003E08F2003D08F10076
:100D06003C08F0002E08043E860001308700403F74
:100D1600B200413FB3003208F4003308F500890DF4
:100D2600893B8909F600F7009C31912485317308C7
:100D36002000A7007208A6007108A5007008A4008C
:100D460096315B2685312308D0002208CF00210882
:100D5600CE002008CD0048084D07B20049084E3D98
:100D6600B3004A084F3DB4004B08503DB5002E086D
:100D7600213E8600013087003208C03F3308C13F5C
:100D86003408C23F3508C33F0030A3000030A2003C
:100D96000130A1000030A0008030B2000030B30066
:100DA6000030B4000030B5002E08213E8600013028
:100DB6008700403FF000413FF100423FF200433FD1
:100DC600F3000030F7000030F6000030F500053083
:100DD600F4009C319124853170082000B207710817
:100DE600B33D7208B43D7308B53D3508A700340815
:100DF600A6003308A5003208A40096315B2685318B
:100E06002308D4002208D3002108D2002008D100EC
:100E1600D41F1F2F60305102F030523BFF30533B3E
:100E2600FF30543B03181F2FFF30D400FF30D30090
:100E3600F030D2006030342FD41B352F5408031DF8
:100E46002D2F5308031D2D2F353051022130523BD3
:100E5600031C352F0030D4000030D3002130D200DF
:100E66003430D1005408B1005308B0005208AF0026
:100E76005108AE000800B801901124001614210094
:100E86006B08EF006A08EE006908ED006808EC00E0
:100E9600200090197D2F21006C0868022000B40004
:100EA60021006D08693B2000B50021006E086A3BF1
:100EB6002000B60021006F086B3B2000B700370802
:100EC600031D6E2F3608031D6E2FB93034020B300A
:100ED600353B031C4B2FC830A0000030A100C830A2
:100EE600A2000030A3000330B4003408A4009B31F4
:100EF600E1238731200090112F359F312827873134
:100F0600200030089F3128278731240096142100BD
:100F16006B08EF006A08EE006908ED006808EC004F
:100F260020009019C52F21006C0868022000B4002B
:100F360021006D08693B2000B50021006E086A3B60
:100F46002000B60021006F086B3B2000B700370871
:100F5600031DB62F3608031DB62FB93034020B30E9
:100F6600353B031C932FC830A0000030A100C830C9
:100F7600A2000030A3000330B4003408A4009B3163
:100F8600E12387312000901103142F0D9F3128276C
:100F960087312000B901BA0133083A02031DD52F63
:100FA600320839020318F92F3208FF3EB400FF3029
:100FB600333DB5003A083506031DE32F39083406DC
:100FC600031DE72F0130E82F00309631DC268731EC
:100FD600B40039083107B5003508860087013408A2
:100FE60081000130B9070030BA3DCF2F9D31E2258F
:0A0FF600380808009D31E2250800CC
:10100400FA01FB017608F1007508F0009A315622C6
:1010140088317108F9007008F8007B08803AF700FD
:101024007908803A7702031D192878087A02031890
:1010340008007A08750786007B08763D87008101E1
:101044000130FA070030FB3D0F28D9000B303C0279
:10105400031C30280A30BE003E08BC003D089B310A
:10106400172388312000BE003E08D8005808031D0D
:10107400C12859080319C1283B080319C1283C0891
:101084000319BC283B08860087010108BE003E08FE
:10109400C1003D08023E86000130870001030319A8
:1010A4006E28D7013C08570203186E2857085907C1
:1010B400BE003E088600870101087F39BF0057083B
:1010C4005907C0004008860087013F0881000130AD
:1010D400BE003E08D707542802303C02031C8D286A
:1010E4004130BE003E08F0003B08BF003F08F1005D
:1010F4003C08C0004008F20059089C31372488316C
:101104003C08BE00BF01BE35BF0D3E08FF3ED50002
:10111400FF303F3D93283C08BE00BF013E08D50088
:101124003F08D6003D088600013087000130413F6A
:10113400AF005908860087010108BE003E08B000D0
:101144004130BF003F08B1005608B3005508B20053
:101154003D08053E860001308700413F8A00403F3C
:101164000A008831C0004008D80058080319C32871
:10117400FC30BD28FD30BE003E08D800C328D8018D
:10118400D80358080800F3007008093EF1007108FC
:10119400F200730A840085010008F10073088400DA
:1011A400850172088600013087000008C03F71087D
:1011B400C13F7308033E840085010008F1007308F1
:1011C400023E840085017208023E860001308700D9
:1011D4000008C03F7108C13F7308053E84008501C3
:1011E4000008F1007308043E840085017208043E7F
:1011F4008600013087000008C03F7108C13F7308B2
:10120400073E840085010008F1007308063E84004F
:1012140085017208063E8600013087000008C03F41
:101224007108C13F7308093E840085010008F1007C
:101234007308083E840085017208083E8600013068
:1012440087000008C03F7108C13F73080B3E84004B
:1012540085010008F10073080A3E840085017208C4
:101264000A3E8600013087000008C03F7108C13F74
:1012740073080D3E840085010008F10073080C3EDC
:101284008400850172080C3E860001308700000846
:10129400C03F7108C13F73080F3E840085010008F8
:1012A400F10073080E3E8400850172080E3E86002C
:1012B400013087000008C03F7108C13F7308113E28
:1012C400840085010008F1007308103E8400850144
:1012D4007208103E8600013087000008C03F710884
:1012E400C13F7308133E840085010008F1007308B0
:1012F400123E840085017208123E86000130870088
:101304000008C03F7108C13F7308153E8400850181
:101314000008F1007308143E840085017208143E2D
:101324008600013087000008C03F7108C13F730880
:10133400173E840085010008F1007308163E8400FE
:1013440085017208163E8600013087000008C03F00
:101354007108C13F7308193E860087010108F10036
:101364007208183E86000130870071088100080069
:10137400AC002C08860087010108F100F201F3019A
:10138400F4010C30F135F20DF30DF40D890BC42981
:101394007408AB007308AA007208A9007108A800B9
:1013A4002C0A860087010108F100F201F301F4011F
:1013B4000430F135F20DF30DF40D890BDB297408BB
:1013C400A7007308A6007208A5007108A4002C08E1
:1013D400023E860087010108F1000430F136890BD2
:1013E400F0297108F200F301F401F5017508A30076
:1013F4007408A2007308A1007208A0002008F1007C
:101404002108F2002208F3002308F4002808240429
:10141400F50029082504F6002A082604F7002B08FD
:101424002704F8007508F1047608F2047708F30439
:101434007808F4047008860087017108C03F7208B8
:10144400C13F7308C23F7408C33F2C08033E8600A3
:1014540087010108F100F201F301F4010C30F135C8
:10146400F20DF30DF40D890B312A7408AB007308E7
:10147400AA007208A9007108A8002C08043E86007E
:1014840087010108F100F201F301F4010430F135A0
:10149400F20DF30DF40D890B492A7408A7007308A3
:1014A400A6007208A5007108A4002C08053E860059
:1014B40087010108F1000430F136890B5E2A7108B6
:1014C400F200F301F401F5017508A3007408A20009
:1014D4007308A1007208A0002008F1002108F2009E
:1014E4002208F3002308F40028082404F50029083E
:1014F4002504F6002A082604F7002B082704F80020
:101504007508F1047608F2047708F3047808F40403
:101514007008043E860087017108C03F7208C13F0D
:101524007308C23F7408C33F2C08063E8600870137
:101534000108F100F201F301F4010830F135F20D74
:10154400F30DF40D890BA02A7408A7007308A600F4
:101554007208A5007108A4002C08073E86008701C4
:101564000108F100F201F301F4017408AB007308FF
:10157400AA007208A9007108A80028082404F10030
:1015840029082504F2002A082604F3002B0827045E
:10159400F4007008083E860087017108C03F720895
:1015A400C13F7308C23F7408C33F08009A31102238
:1015B4008A319931E8218A3193315B238A312200BF
:1015C4005F08F6005E08F500883102208A312200A7
:1015D4006108F6006008F500883102208A31343051
:1015E4002100E30063082000E100B0302100E400A2
:1015F40064082000E2000730923133228A3122004D
:101604005F08F6005E08F500883102208A31220066
:101614006108F6006008F500883102208A31203024
:1016240086000130870010302100E30000301E00E6
:10163400E30B192B22003908FC003808FB0020308A
:101644002100E3006308FD009331C3238A312200A3
:101654006108F1006008F0009A3156228A3171085D
:101664002200C1007008C00061082000A10022000F
:1016740060082000A0002030A2000130A300220056
:1016840041082000A500220040082000A4004630A4
:10169400A6000030A700903194208A31210822004E
:1016A400C100200020082200C0006108F100600889
:1016B400F0002C302100E3006308F200220041080E
:1016C400F4004008F3004630F5000030F600953190
:1016D40001258A3171082200C1007008C000203041
:1016E400F5000130F600883102208A3122003708E3
:1016F4002000AC00220036082000AB002200350890
:101704002000AA00220034082000A9002030210073
:10171400E30063082000AD00913188218A31220062
:1017240061082000A100220060082000A0002030F1
:10173400A2000130A300220041082000A5002200DD
:1017440040082000A4004630A6000030A7009031D5
:1017540094208A3121082200C100200020082200A0
:10176400C0006108F1006008F0002C302100E300A3
:101774006308F20022004108F4004008F3004630F8
:10178400F5000030F600953101258A3171082200F8
:10179400C1007008C0002030F5000130F600883127
:1017A40002208A310830343E860001308700403FF1
:1017B4002000A900413FAA00423FAB00433FAC00D8
:1017C40020302100E30063082000AD00913188211E
:1017D4008A31220061082000A10022006008200054
:1017E400A0002030A2000130A30022004108200004
:1017F400A500220040082000A4004630A6000030C6
:10180400A700903194208A3121082200C1002000D1
:1018140020082200C0004108B1004008B0005F0861
:101824002000A10022005E082000A0000030A200D9
:101834009830A3000030A400A5004630A600003074
:10184400A700903194208A3121082200C100200091
:1018540020082200C0002030F5000130F600883155
:1018640002208A3122005708FC005608FB00203071
:101874002100E3006308FD009331C3238A31220071
:101884005F082000A10022005E082000A000203094
:10189400A2000130A300220041082000A50022007C
:1018A40040082000A4004630A6000030A700903174
:1018B40094208A3121082200C1002000200822003F
:1018C400C0005F08F1005E08F0002C302100E30046
:1018D4006308F20022004108F4004008F300463097
:1018E400F5000030F600953101258A3102302000E0
:1018F400A1000030A2005E309F31B8278A31210850
:101904002100E300200022082100E400E501E601B3
:1019140066082000AD00210065082000AC0021000D
:1019240064082000AB00210063082000AA0058309E
:101934002100E70067082000AE009531E4258A31D4
:1019440022005F082000A10022005E082000A00001
:101954000630A2009830A3000030A400A500463051
:10196400A6000030A700903194208A31220061083B
:10197400F1006008F0002A302100E3006308F2005F
:1019840022003108F4003008F3004630F50000303E
:10199400F600953101258A3171082200C1007008D2
:1019A400C00061082000A100220060082000A000FF
:1019B4005830A2000130A300220041082000A500F5
:1019C400220040082000A4004630A6000030A700F2
:1019D400903194208A3121082200C100200020087F
:1019E4002200C0006108F1006008F0000A30210004
:1019F400E3006308F20022004108F4004008F30009
:101A04004630F5000030F600953101258A31710821
:101A14002200C1007008C0000130D6070030D73D55
:101A24000C155F08F7005E08F6009B3164238A31C9
:101A340022006108F7006008F6009B3164238A31B4
:101A440022000C11B201B30107302100E3007D3004
:101A5400890B2A2DE30B2A2D01302200B207003016
:101A6400B33D3308803A2100E30083306302031D51
:101A74003E2DE830220032020318F12A262DBE0042
:101A84002E08213E860001308700403FB200413FCE
:101A9400B300423FB400433FB50000303207C700F3
:101AA400D430333DC800FE30343DC900FF30353DED
:101AB400CA003E08083E86008701403FB200413F0D
:101AC400B300423FB400433FB5000E30B235B30D0E
:101AD400B40DB50D890B682D3508CE003408CD0042
:101AE4003308CC003208CB002E081C3E860001309F
:101AF4008700403FB200413FB3003208B4003308CE
:101B0400B500B601B7011430B435B50DB60DB70D37
:101B1400890B862D3708DA003608D9003508D80035
:101B24003408D7002E081E3E860001308700403F4F
:101B3400B200413FB3003208F0003308F100890DD0
:101B4400893B8909F200F3004A08F7004908F600C6
:101B54004808F5004708F4009C3191248D3173083E
:101B64002000D2007208D1007108D0007008CF00A4
:101B74000030A3000030A2008030A1000030A0009B
:101B84004B08B2004C08B3004D08B4004E08B50031
:101B94005709B6005809B7005909B8005A09B900DD
:101BA400B60A0319B70A0319B80A0319B90A4F0880
:101BB400B6025008B73B5108B83B5208B93B360847
:101BC400B2073708B33D3808B43D3908B53D003095
:101BD4003207A4004030333DA5000030343DA60058
:101BE4000030353DA70096315B268D312308D600A1
:101BF4002208D5002108D4002008D3000030A30017
:101C04000030A2000430A1000030A0002E08203EC5
:101C14008600013087000108F0008039031DFF3081
:101C2400F100F200F3004A08F7004908F6004808FA
:101C3400F5004708F4009C3191248D31730820008D
:101C4400A7007208A6007108A5007008A4009631C8
:101C54005B268D312308CE002208CD002108CC005C
:101C64002008CB000030A3000030A2000830A100FF
:101C74000030A0002E081B3E8600013087000108BA
:101C8400B200B301B401B5013508F3003408F20021
:101C94003308F1003208F0004A08F7004908F6005A
:101CA4004808F5004708F4009C3191248D317308ED
:101CB4002000A7007208A6007108A5007008A400FF
:101CC40096315B268D312308DA002208D9002108D9
:101CD400D8002008D7000030A3000030A200043050
:101CE400A1000030A00000305707F0008030583DBC
:101CF400F1000030593DF20000305A3DF3004E0827
:101D0400F7004D08F6004C08F5004B08F4009C3130
:101D140091248D3173082000A7007208A600710871
:101D2400A5007008A40096315B268D310030200791
:101D3400CF000030213DD0002030223DD1000030C2
:101D4400233DD2000030A3000030A2004030A100A7
:101D54000030A0000030B2002030B3000030B400E6
:101D64000030B5002E08193E860001308700403F40
:101D7400B600413FB7003608F0003708F100890D7E
:101D8400893B8909F200F3005208F7005108F60074
:101D94005008F5004F08F4009C3191248D317008EF
:101DA4002000B2077108B33D7208B43D7308B53D15
:101DB4003508A7003408A6003308A5003208A4009B
:101DC40096315B268D312308CE002208CD002108F0
:101DD400CC002008CB005608F3005508F200540844
:101DE400F1005308F0004E08F7004D08F6004C08C7
:101DF400F5004B08F4009C3191248D3173082000C8
:101E0400DA007208D9007108D8007008D7000030D1
:101E1400A3000030A2008030A1000030A0005A08C6
:101E2400A7005908A6005808A5005708A400963131
:101E34005B268D312308F3002208F2002108F1000B
:101E44002008F0000030A3000030A2008030A10080
:101E54000030A0005A08A7005908A6005808A50099
:101E64005708A40096315B268D312308F700220819
:101E7400F6002108F5002008F4009C3191248D31EE
:101E840073082000BD007208BC007108BB00700814
:101E9400BA000030A3000030A2000030A10080305E
:101EA400A0003D08A7003C08A6003B08A5003A088E
:101EB400A40096315B268D312308D2002208D1007C
:101EC4002108D0002008CF000030A3000030A20079
:101ED4000030A1001030A0002E08183E860001300A
:101EE40087000108B200B301B401B5013508F3005D
:101EF4003408F2003308F1003208F0005208F70009
:101F04005108F6005008F5004F08F4009C31912464
:101F14008D3173082000A7007208A6007108A5007F
:101F24007008A40096315B268D3120085702B60054
:101F34002108583BB7002208593BB80023085A3BF4
:101F4400B9003908D6003808D5003708D400360857
:101F5400D300D61FB52F0030D6000030D500003096
:101F6400D4000030D300D61BC92F013053020030F7
:101F7400543B0030553B1930563B031CC92F1930D4
:101F8400D6000030D5000030D4000030D30000303B
:101F9400A3000030A2001030A1000030A0005608B9
:101FA400A7005508A6005408A5005308A4009631BC
:101FB4005B268D312308C6002208C5002108C40011
:101FC4002008C3004608031DEF2F01304302903060
:101FD400443B0130453B031CF72F0030C600013061
:101FE400C5009030C4000030C3004608B100450865
:0C1FF400B0004408AF004308AE00080035
:10200200F601F31F0B28F209F309F20A0319F30A86
:10201200F601F60AF11F1228F009F109F00A031974
:10202200F10A7008710403193928F501F50AF11B48
:1020320024280130F035F10D890B1B280130F40002
:102042007408F507182871087302031D2A287008FE
:102052007202031C30287008F2027108F33B01304F
:10206200F136F00C890B31280130F502031D2428CA
:10207200760803194128F209F309F20A0319F30A4F
:102082007308F1007208F0000800F230DD005D080C
:10209200E3005A0886005B088700423101080739CD
:1020A200DD005D08E0006030DD005D08BB00BC01C2
:1020B200BC0A5C08DE005E08BD0063308831272060
:1020C2009031DF005F08E2006208031D9228F430BD
:1020D200DD005D08E3006130DD005D08BB0001301A
:1020E200BC000030BD005C08DE005E08BE00630874
:1020F2009E3162269031DF005F08E2006208031D14
:1021020092286130DD005D08BB00BC01BC0A5C089E
:10211200DE005E08BD00633088312720DF005F08E3
:10212200E20062080800AA01AB012308F1002208BC
:10213200F0009A315622903171082000A9007008EF
:10214200A800D32820002508803AFB002708803AFF
:102152007B02031DAE28260824020318DF28200074
:102162002108F1002008F00022082A078400230831
:102172002B3D85000008FB007B08F2002508F400D7
:102182002408F3002708F6002608F50095310125FA
:10219200903101302000A4070030A53D0130AA078C
:1021A2000030AB3D2B08803AFB002908803A7B02C5
:1021B200031DDD2828082A02031CA3282000250865
:1021C200A1002408A0000800F601F11FEF28F00981
:1021D200F109F00A0319F10AF601F60AF31FFA28C7
:1021E200F209F309F20A0319F30A0130F400740840
:1021F200F606F701F8017008710403192929F5019F
:10220200F50AF11B0E290130F035F10D890B052974
:102212000130F4007408F50702290130F735F80D92
:10222200890B0F2971087302031D192970087202A4
:10223200031C20297008F2027108F33B7714013065
:10224200F136F00C890B21290130F502031D0E290C
:10225200760803193129F709F809F70A0319F80A68
:102262007808F1007708F00008000030FC00003028
:10227200FB000030FA000030F900730872047104A8
:10228200700403197F29FD01FD0AF31B5429013053
:10229200F035F10DF20DF30D890B49290130F800EB
:1022A2007808FD0746290130F935FA0DFB0DFC0DC2
:1022B200890B552973087702031D69297208760272
:1022C200031D692971087502031D692970087402CA
:1022D200031C74297008F4027108F53B7208F63B7E
:1022E2007308F73B79140130F336F20CF10CF00C61
:1022F200890B75290130FD02031D54297C08F30066
:102302007B08F2007A08F1007908F0000800B001B9
:10231200B1010030F3000030F2000030F1000A3069
:10232200F0002C08F7002B08F6002A08F50029080F
:10233200F4009E31E62691317008303EAE0030083E
:102342002D07AF002F088600013087002E0881007C
:102352000130B0070030B13D0030F3000030F20030
:102362000030F1000A30F0002C08F7002B08F600CC
:102372002A08F5002908F4009131362191317308B9
:102382002000AC007208AB007108AA007008A90016
:102392002C082B042A042904031D8A2930082D073E
:1023A200AE002E0886000130870081012D0892318F
:1023B20090220800F300730886008701010807399C
:1023C200F1007008023E86008701710881007308DF
:1023D200023E860087010108F1000230F136890BC6
:1023E200EF2971080739F200700886008701720828
:1023F20081007308023E860087010108F100053062
:10240200F136890B012A71080739F200700A860039
:102412008701720881007308033E86008701010864
:10242200F1000230F136890B132A71080739F200E4
:102432007008033E86008701720881007308033E1C
:10244200860087010108F1000530F136890B262A42
:1024520071080739F2007008043E8600870172088D
:10246200810008002100D500CD30860000308700B1
:1024720008302000E30000301E00E30B3D2A42300A
:10248200860001308700D7308400003085000C3090
:10249200E30016001A00E30B4A2A62089B31172355
:1024A20092312000E30063082100D6005608031D84
:1024B20008002000610803190800CD30E30063081A
:1024C200BB000830BC000030BD006208E4006408B4
:1024D200BE00F7309E3162269231E5006508210088
:1024E200D6005608031D0800D7302000E300630819
:1024F200F000CD308931BA219231D730E300630840
:10250200DB006108E4006408DC006208093EE500C3
:102512006508DD002100550895316E250800A800E8
:102522002808F0000130F1009A31562292317108E8
:102532002000A5007008A400A601A7010230F00047
:102542000030F1002508F3002408F2009031E52064
:1025520092317108A1007008A0002708803AF900A2
:102562002108803A7902031DB82A2008260203189E
:10257200E92A200026082807F90079088600013098
:1025820087000108FA007A08A20026082802240718
:10259200FF3EF9007908A300230886000130870076
:1025A2000108F90026082807FA007A088600013097
:1025B2008700790881002208F9002308860001308B
:1025C2008700790881000130A6070030A73DAE2AB6
:1025D200200024082807F9007908860001308700C6
:1025E200810108002000EA000530E4006408E700E9
:1025F200E8016A089B31172392312000E400640845
:10260200E900690803194F2B592B6830E40064086C
:10261200BB000130BC000030BD006A08E50065085F
:10262200BE00D0309E3162269231E6006608E90093
:102632006908031D3A2B60306806031D3A2B6808AF
:10264200E4006A08860001308700640881006A0895
:102652009D312F259231E4006408E9006908031DC9
:10266200522B6A089F3170279231E4006408E90016
:10267200522B0030F3000030F2000030F100013044
:10268200F0006A08073E860001308700413F8A0059
:10269200403F0A00933101302000E7026708031D22
:1026A200062B6708031D592BFE30E4006408E9007D
:1026B200690808009A312C22933176302100B40047
:1026C20034082300B100B201B20A3E30B300073031
:1026D200B4002B30B5001430B600B630B7001B3052
:1026E200B800B0309231F32293312100B4003408A3
:1026F200B7003708031DB12B2300E001E00A0530C3
:102702002100B40034082300DE0002302100B400AE
:1027120034082300DF0004302100B4003408230011
:10272200E100E201E20A2100B601B60AB61436154A
:102732003616B615B030B4003408AE0036089431FF
:1027420094249331B030B4003408AE0003309C318D
:10275200F7249331B5003508B7003708031908008C
:10276200C8302000A0000030A100C830A200003014
:10277200A30003302100B40034082000A4009B31E0
:10278200E12308002000AC01AD01FC1FCA2B01307F
:10279200CB2B0030A9002908AB002B080319D62B3C
:1027A200FB09FC09FB0A0319FC0A0A30F00000309D
:1027B200F1007C08F3007B08F20090310120933194
:1027C2007008303E2000A9002C087D07AA002A08C4
:1027D200860001308700290881000130AC070030F3
:1027E200AD3D0A30F0000030F1007C08F3007B08B8
:1027F200F2009031E52093317108FC007008FB0073
:102802007C08803AA90080302902031D0A2C01307D
:102812007B020318D62B20002B0803191F2C2D3006
:10282200A9002C087D07AA002A088600013087002B
:10283200290881000130AC070030AD3D2C087D072E
:10284200A900290886000130870081017D089231A4
:1028520090220800B80190112400161421006B0880
:10286200EF006A08EE006908ED006808EC0020003D
:1028720090196A2C21006C0868022000B400210023
:102882006D08693B2000B50021006E086A3B2000FC
:10289200B60021006F086B3B2000B7003708031D0C
:1028A2005B2C3608031D5B2CB93034020B30353BF0
:1028B200031C382CC830A0000030A100C830A20090
:1028C2000030A3000330B4003408A4009B31E1239C
:1028D2009431200090112F359F3128279431200008
:1028E20030089F31282794312000B901BA013308FA
:1028F2003A02031D7E2C320839020318902C390843
:102902003107B40034088600870101089F31282767
:10291200943101302000B9070030BA3D782C9D3146
:10292200E22538080800B1002E089B3117239431A4
:102932002100AF002F08B3003308031DFF2C2E081F
:10294200AF002F082000C400B2309C310C24943117
:102952002100B0003008B3003308031DBA2C32083E
:102962000319BA2C2E089D316A259431AF002F0825
:10297200B3003308031DFF2C3108AF002F08F0000D
:1029820007309931FA219431003A0319DD2C2E08CF
:102992002E3E2000E4000130E50021002E08AF00A9
:1029A2002F082000E600210031089B313C2394319E
:1029B2002100B0003008B3003308031DFF2C31089A
:1029C200AF002F08F00018309931FA219431003A03
:1029D2000319FF2C2E082E3E2000DA000130DB0006
:1029E20021002E08AF002F082000DC002100310852
:1029F2009E31A4262100B0003008B300330808003D
:102A02007308700786007408713D87000108F7009B
:102A12007708F90073087007F7007408713DF80031
:102A220077088600780887007208810073087007AB
:102A3200F7007408713DF80077088600780887006F
:102A420041310108031D2C2D7308013EF0000030B6
:102A5200743DF10008000130F3070030F43D7408C2
:102A6200803AF7007608803A7702031D3A2D7508FE
:102A720073020318692D7308700786007408713D8C
:102A820087000108F7007708FA0073087007F7005B
:102A92007408713DF8007708860078088700790885
:102AA20081007A08F7007708F9000130F307003057
:102AB200F43D7A08031D302D73087007F70074087F
:102AC200713DF80077088600780887007A0881004F
:102AD2007408F1007308F00008002000E000DF0134
:102AE2005B080319E02D5C080319E02D5D0803194A
:102AF200E02D5C08043E8600013087000030C03FB4
:102B02000030C13FC23FC33F5C08860001308700EE
:102B12000030C03FC13FC23FC33F5C08083E860051
:102B2200013087000030C03F0030C13FC23FC33F89
:102B3200600807390319B22D5D08DE005E08AE0099
:102B42005B0885319B2595315C08043E8600013087
:102B520087002E08C03F2F08C13F3008C23F31080E
:102B6200C33F601CC82D5D08DE005E08AE005B0836
:102B72008031532095315C088600013087002E0891
:102B8200C03F2F08C13F3008C23F3108C33F601D1C
:102B9200E22D5D08DE005E08AE005B088D31412546
:102BA20095315C08083E8600013087002E08C03F40
:102BB2002F08C13F3008C23F3108C33FE22DDF0179
:102BC200DF035F0808000030BC000030BB000030AB
:102BD200BA000030B9000F302A05B50000302B05CD
:102BE200B60000302C05B70000302D05B8003808BB
:102BF200031D0D2E3708031D0D2E3608031D0D2E45
:102C02000A30350203180D2E0030B4000030B30034
:102C12000030B2003030142E0030B4000030B30067
:102C22000030B2003730B10031083507AF00390843
:102C32002E07B00030088600013087002F0881007F
:102C42000130B9070030BA3D0030BB3D0030BC3D19
:102C52000430AD36AC0CAB0CAA0C890B2A2E2D0815
:102C62002C042B042A0403194A2EEC2D3030AF0019
:102C720039082E07B00030088600013087002F087F
:102C820081000130B9070030BA3D0030BB3D003051
:102C9200BC3D3C08031D572E3B08031D572E3A0826
:102CA200031D572E04303902031C372E2E08923191
:102CB20090220800A901A31F6B2EA009A109A20955
:102CC200A309A00A0319A10A0319A20A0319A30A54
:102CD200A901A90AA71F7C2EA409A509A609A7096B
:102CE200A40A0319A50A0319A60A0319A70A01309F
:102CF200FC007C08A9060030AD000030AC000030BA
:102D0200AB000030AA002308220421042004031986
:102D1200C52EA801A80AA31B9A2E0130A035A10D29
:102D2200A20DA30D890B8F2E0130FC007C08A80791
:102D32008C2E0130AA35AB0DAC0DAD0D890B9B2E3F
:102D420023082702031DAF2E22082602031DAF2EE1
:102D520021082502031DAF2E20082402031CBA2ECF
:102D62002008A4022108A53B2208A63B2308A73B72
:102D72002A140130A336A20CA10CA00C890BBB2E85
:102D82000130A802031D9A2E29080319D32EAA097D
:102D9200AB09AC09AD09AA0A0319AB0A0319AC0ABB
:102DA2000319AD0A2D08A3002C08A2002B08A100CC
:102DB2002A08A0000800AB002400961521006B0829
:102DC200EF006A08EE006908ED006808EC002000D8
:102DD20090191A2F21006C0868022000A700210018
:102DE2006D08693B2000A80021006E086A3B2000A4
:102DF200A90021006F086B3B2000AA002A08031DCE
:102E02000B2F2908031D0B2FB93027020B30283B4B
:102E1200031CE82EC830A0000030A100C830A20078
:102E22000030A3000330A7002708A4009B31E12350
:102E3200963120009011240011082000A7002708D5
:102E4200AC002B0C2400031C9612031896161616BF
:102E520021006B08EF006A08EE006908ED006808BF
:102E6200EC0020009019632F21006C0868022000FA
:102E7200A70021006D08693B2000A80021006E0810
:102E82006A3B2000A90021006F086B3B2000AA00CA
:102E92002A08031D552F2908031D552FB930270273
:102EA2000B30283B031C322FC830A0000030A10099
:102EB200C830A2000030A3000330A7002708A400F6
:102EC2009B31E123200090112C080800FD007008BE
:102ED200093EF1007108FC007D0A840085010008AA
:102EE200F1007D08840085017C08193E86000130CE
:102EF20087000008C03F7108C13F7D08023E86007E
:102F020087010108F1007C081B3E86000130870022
:102F1200710881007D08033E860087010108F100E7
:102F2200F201F11BF203F10EF20EF030F20571081C
:102F32000F39F204F030F1057108F6007208F7005B
:102F42007D08043E8600870101080F39F100F20175
:102F52007108F4007208F50074087604F10075082F
:102F62007704F2007C081C3E86000130870071085D
:102F7200C03F7208C13F7D08053E860087010108F7
:102F8200F100F201F11BF203F10EF20EF030F20544
:102F920071080F39F204F030F1057108FA00720875
:102FA200FB007D08043E860087010108F100043021
:102FB200F136890BD92F7108F200F3017208F8007B
:102FC2007308F90078087A04F10079087B04F200AA
:102FD2007C081E3E8600013087007108C03F7208DF
:102FE200C13F7D08063E860087010108F1007C088A
:102FF200203E8600013087007108810008005434A9
:103002004534533454342C340034243424340034BE
:1033A200A03402342034033471082200E300700890
:1033B200E2000800640080010131890BDC2900343D
:1033C20068302100990098012200960108008B17AD
:1033D200F030F0001930F1009931D52108000130A8
:1033E2002100E8070030E93D0030EA3D0030EB3DC6
:1033F2000800F100710870050319022AF201F20AAD
:10340200032AF20172080800083023009F0090305E
:103412009D0024309E0067309B009C0108009B3178
:103422008C239A319931E1219A319A3140229A3191
:103432009A31052208000B11220064082000950031
:103442002200620863040319080063088A00620804
:103452000A009A3108000E303C00A0000C30A10096
:1034620010303D009E0011309C00803024009400FA
:103472002830950096014F309200951608002100E1
:103482001508C0391238950083302000950083302A
:10349200F20072082200E4000B118B160330F000D8
:1034A2000030F1009931D52108007108F40070084C
:1034B200F300700884007108850012000319662A5F
:1034C2000130F0070030F13D5A2A73087002F00013
:1034D2007408713BF1000800F10071080319742AA5
:1034E20022000C16762A22000C120D30F000FC305D
:1034F200890B792AF00B792A0D30F000FC30890B08
:10350200802AF00B802A0800F500700886007108F6
:1035120087000108F2000230F235890B8D2A1C3037
:103522007205F3007508860087010108E339730408
:10353200F400750886008701740881000800F50010
:10354200700886007108870043310108F2000230DA
:10355200F235890BA92A1C307205F3007508860022
:1035620087010108E3397304F400750886008701B6
:10357200740881000800F500700886007108870051
:1035820044310108F2000530F235890BC52AE030DA
:103592007205F30075088600870101081F3973045C
:1035A200F400750886008701740881000800F500A0
:1035B200700886007108870041310108F200053069
:1035C200F235890BE12AE0307205F30075088600B6
:1035D200870101081F397304F4007508860087010A
:1035E200740881000800EE006E08E4000030E50077
:1035F2006B08EC006C08E6001F309B313C239A31CB
:10360200ED006D08EF006F08031D152B6E08DA0040
:103612000030DB006B08EC006C08DC001F309E31D0
:10362200A426ED006D08EF006F080800F300730890
:103632000319362B7308033E8600013087001600FB
:1036420001040319362B7308053E860001308700FA
:10365200160001040319362B7308073E8600013059
:10366200870016000104031D392BF201F2033A2BE5
:10367200F201720808002000EA00E901E90A6A1D65
:10368200502B6508DB006408DA006608E70067086B
:10369200DC00903146209B31E8006808E9006A08A6
:1036A20003390319622B6508DB006408DA00660837
:1036B200E7006708DC006A089E312126E8006808F6
:1036C200E90069080800FB01FC017708F1007608AF
:1036D200F0009A3156229B317108FA007008F90005
:1036E2007C08803AF8007A08803A7802031D7B2B26
:1036F20079087B02031808007B08760786007C089D
:10370200773D870001089C3164249B310130FB071F
:103712000030FC3D712B22008C018D018E010330A3
:1037220021008C0070308D00DF308E004F3023007E
:103732008E0080308D0003308C0024008D018C01BE
:103742008E012100951725008C018D018E013730E5
:1037520026008C00F0308D00FF308E000D303C00D2
:10376200A40012303D009F00080021006B08FB00FE
:103772006A08FA006908F9006808F8007808210068
:103782006802F4007908693BF5007A086A3BF600A2
:103792007B086B3BF70073087702031DDA2B720874
:1037A2007602031DDA2B71087502031DDA2B7008ED
:1037B200740203180800C8300032890BDD2BBF2BBE
:1037C200A501A6012608803AFC0080307C02031D78
:1037D200EC2B240825020318080022008E16200074
:1037E2002008F0002108F100F201F3019B31B62319
:1037F2009B3122008E1220002208F0002308F100E3
:10380200F201F3019B31B6239B3101302000A50761
:103812000030A63DE32BC90044089B3117239C319D
:103822002000C5004508C8004808031D352C49087A
:10383200C5004508BB000130BC000030BD00440893
:10384200C6004608BE00F4309E316226C700470813
:10385200C80049088600870101080339C5004908E4
:10386200860087014508810048080800F600F70134
:10387200F70A720877020318080077087607F30040
:103882007308860087010108F40077357007F50098
:103892007508FF3E8600870174088100770871076A
:1038A200F3007308860087010108F400773570077A
:1038B200F500750886008701740881000130F30065
:1038C2007308F7073A2CF30000309A316D229C31CD
:1038D200F401F5017308F200740A702CF236890BB8
:1038E2006F2C721C762C0130772C00309A316D22AD
:1038F2009C310130F4070030F53D7508803AF20042
:1039020080307202031D872C07307402031C6B2C5B
:1039120001309A316D229C3101309A316D220800BA
:103922000030FB000030FA000030F9000030F800EF
:10393200701CA32C7408F8077508F93D7608FA3D47
:103942007708FB3D0130F435F50DF60DF70D890BC7
:10395200A42C0130F336F20CF10CF00C890BAB2CD9
:103962007308720471047004031D992C7B08F30020
:103972007A08F2007908F1007808F00008002000C7
:10398200DE00F430DB005B08E0006130DB005B0846
:10399200BB000130BC000030BD005A08DC005C08EE
:1039A200BE0060089E3162269C31DD005D08DF00AA
:1039B2005F08031DF52C03305E05DB006108FC394E
:1039C2005B04DC005C08E1006130DB005B08BB00EB
:1039D200BC01BC0A5A08DC005C08BD0060308831BA
:1039E2002720DD005D08DF005F080800B1002E0817
:1039F2009B3117239C312100AF002F08B3003308FD
:103A0200031D2D2D2E08AF002F082000C400B23058
:103A12009C310C249C312100B0003008B3003308E3
:103A2200031D1D2D320803191D2D2E089D316A25F7
:103A32009C31AF002F08B3003308031D2D2D2E0833
:103A4200AF002F082000DA00210031089C31C02489
:103A52002100B0003008B300330808002000E00065
:103A6200E030DA005A08DF00B630DA005A08DD002A
:103A720060089B3117239D312000DA005A08DE00CE
:103A82005E08031D672D5D30DA005A08BB00BC01D9
:103A9200BC0A6008DB005B08BD005F30883127206C
:103AA2009D31DC005C08DE000030F3000030F200E3
:103AB2000030F1000230F0006008073E860001305D
:103AC2008700413F8A00403F0A009D3120005E0886
:103AD2000800A800A330A00020082000BB0004308A
:103AE200BC000030BD0021002808A10021082000F0
:103AF200BE00F2309E3162269D312100A2002208D2
:103B0200A7002708031DA42DA930A0002008F0005B
:103B1200A3309131DB219D3128089D312F259D3124
:103B22002100A0002008A7002708031DA42D2808B3
:103B3200A00020082000EB00A9309A31F4222100D5
:103B4200A1002108A70027080800FF30F707FF306F
:103B5200F83D770A0319780A0319DD2D75088600E6
:103B6200760887000108FB00FC017B08FC00FB01D2
:103B72007B08F9067C08FA060130F5070030F63DAD
:103B8200A001FA1BC82D7935F9007A0DD32D7A08D8
:103B9200FC007908FB00FB35FC0D21307B06F900A7
:103BA20010307C06FA000130FB007B08A0070830C9
:103BB20020020318A62DC22D7A08F6007908F50016
:103BC20008002400161521006B08EF006A08EE00B9
:103BD2006908ED006808EC00200090191E2E2100F3
:103BE2006C0868022000A70021006D08693B2000D4
:103BF200A80021006E086A3B2000A90021006F087E
:103C02006B3B2000AA002A08031D102E2908031D61
:103C1200102EB93027020B30283B031CED2DC83083
:103C2200A0000030A100C830A2000030A300033081
:103C3200A7002708A4009B31E1232000901108006F
:103C4200E000F430DD005D08E2006330DD005D0875
:103C5200BB000130BC000030BD005C08DE005E0825
:103C6200BE0062089E3162269E31DF005F08E100DD
:103C72006108031D602E601C462E5B08F1005A0885
:103C8200F00063309A3185229E31E01C502E5B0891
:103C9200F1005A08F00063309A31D8229E31633025
:103CA200DD005D08BB00BC01BC0A5C08DE005E08EA
:103CB200BD00623088312720DF005F08E100610823
:103CC2000800C2003E089B3117239E312000BF002E
:103CD2003F08C3004308031DA22E3E08023E860091
:103CE20001308700010303197B2E42088038BF0090
:103CF2003F08C2003E088600013087000130413F84
:103D0200AF004208BF003F08B0003B08C0004008B7
:103D1200B1003D08B3003C08B2003E08033E8600F5
:103D220001308700413F8A00403F0A009E31C100B6
:103D32004108C30043080319A22EFC30BF003F080C
:103D4200C300430808002000E000F530DD005D08F4
:103D5200E2006330DD005D08BB000130BC000030D2
:103D6200BD005C08DE005E08BE0062089E3162266D
:103D72009E31DF005F08E1006108031DE42EE01DB3
:103D8200CA2E5B08F1005A08F00063309A31A02273
:103D92009E31601ED42E5B08F1005A08F000633099
:103DA2009A31BC229E316330DD005D08BB00BC014C
:103DB200BC0A5C08DE005E08BD0062308831272044
:103DC200DF005F08E10061080800730872047104F3
:103DD200700403191F2FF901F90AF31BFC2E01309D
:103DE200F035F10DF20DF30D890BF12E0130F800D3
:103DF2007808F907EE2E73087702031D0A2F72085E
:103E02007602031D0A2F71087502031D0A2F70081E
:103E12007402031C142F7008F4027108F53B720837
:103E2200F63B7308F73B0130F336F20CF10CF00C61
:103E3200890B152F0130F902031DFC2E7708F300C0
:103E42007608F2007508F1007408F0000800FD0021
:103E52007D082400910021006B08EF006A08EE0043
:103E62006908ED006808EC0020009019672F210016
:103E72006C0868022000AB0021006D08693B20003D
:103E8200AC0021006E086A3B2000AD0021006F08E3
:103E92006B3B2000AE002E08031D582F2D08031D7A
:103EA200582FB9302B020B302C3B031C352FC83056
:103EB200A0000030A100C830A2000030A3000330EF
:103EC200AB002B08A4009B31E1239F31200090110D
:103ED2002400161F080001308731FD270800E30087
:103EE20047308600003087001A30C40000301E00C0
:103EF200C40B782F4730C4004408BB001A30BC0002
:103F02000030BD006308C5004508BE0088309E3100
:103F120062269F31C6004608E2006208031DB62FE2
:103F22006308C4004408F00047308831C5209F313F
:103F32004730C4004408BB000730BC000030BD005D
:103F42006308C5004508BE00E1309E3162269F31FC
:103F5200C6004608E2006208031DB62F6308C400CB
:103F62004408F00047309731672762080800A5002F
:103F7200FF30A600FF30A700A801A9012908803A56
:103F8200A3002208803A2302031DC92F2108280218
:103F92000318FA2F200028352507A30023088600DE
:103FA20001308700403FF500413FF60028352507E4
:103FB200A4002408860001308700403FF000413F02
:103FC200F1009A3156229F317108F8007008F7000B
:103FD20020002708FA002608F9009D31A6259F3106
:103FE2007608A7007508A6000130A8070030A93D91
:0E3FF200BF2F20002708A2002608A10008000B
:020000040001F9
:06000E00FC3FFF3E9F3F96
:00000001FF
