:020000040000FA
:0400000080310D2816
:1000060008007E1480318B1A0B1D0B289631712641
:100016007E10090080310F2810308400963085004C
:10002600E830860000308700043096312A26803179
:1000360037308400963085006430860001308700B2
:10004600073096312A268031F030840088308500CA
:1000560020308600023087002C3096312A268031E7
:10006600ED01EE01EF01E03084000030850008303C
:1000760096312426803120308400013085004430BA
:10008600963124268031A0308400013085003D3031
:100096009631242680314C30840002308500203091
:1000A600963124268031A030840002308500463007
:1000B6009631242680312030840003308500493073
:1000C600963124267E1020008D31632D2100D40127
:1000D60022008E1621006308CE006208CD0061085A
:1000E600CC006008CB00D801D901D601D701BA30BF
:1000F60086000030870007302000E90000301E002F
:10010600E90B82282100D501C13086000030870026
:100116000A302000E90000301E00E90B8F28C130AC
:10012600F4000130F5009731B5278031B130F40085
:100136000130F5009731B5278031D130F400013018
:10014600F5009731B52780316030F4000130F500B5
:100156009731B52780315230F4000130F5009731E0
:10016600B52780314A30F4000130F5009731B527C4
:1001760080313630F4000130F5009731B5278031F3
:100186002C30F4000130F5009731B527803122304C
:10019600F4000130F5009731B5278031C5302000D5
:1001A600E3009830E400963181268031210054081E
:1001B600031DF82A4B0860022000E90021004C08C4
:1001C600613B2000EA0021004D08623B2000EB0065
:1001D60021004E08633B2000EC006C08031DF82A42
:1001E6006B08031DF82AB93069020B306A3B031805
:1001F600F82A963114268031003A0319BA2A963124
:10020600502680312000E90069082100DA00D30178
:10021600D30A5F292100D501D50AD301422921003D
:1002260056085704031D3A29BA30F0000030F10091
:100236009631D02680317108F5007008F400DA3066
:10024600F6009830F7000430F8000030F900BA30B4
:100256008931D6218031003A031D3A292100D50182
:10026600BA30F4000030F5009731B527803121000F
:100276005508031942290130D6070030D73DD80169
:10028600D901732921005708803A2000E9008030FF
:100296006902031D51290E3021005602031C5529FF
:1002A6000130562900302000EA006A082100D400F7
:1002B60073292100D30173295A082000E900EA01B5
:1002C6006A08003A031968295C2969080A3A031979
:1002D60045292E3A03190D29083A031912295C29D2
:1002E6005308031DBA2A5508031D872ABA2ABA30AD
:1002F600F0000030F1000730F2000030F30059083A
:10030600F5005808F4005A082000E9006908F600CC
:10031600883171208031B52AC130F0000030F100FB
:100326000A30F2000030F3005908F5005808F400CE
:100336005A082000E9006908F600883171208031EA
:10034600B52AC130F0000130F1001030F200003063
:10035600F3005808013EF4000030593DF5005A08F4
:100366002000E9006908F600883171208031B52A3D
:100376004E305A060319C1292D30C2292B30CF0021
:100386000030D0004F082000E90069082300C100B2
:10039600B52AB130F0000130F1001030F200003023
:1003A600F3005808013EF4000030593DF5005A08A4
:1003B6002000E9006908F600883171208031B52AED
:1003C60045305A060319E9292D30EA292B30D10088
:1003D6000030D20051082000E90069082300B1006E
:1003E600B52AD130F0000130F1000C30F2000030B7
:1003F600F3005908F5005808F4005A082000E900EF
:100406006908F600883171208031B52A5230F00033
:100416000130F1000830F2000030F3005908F50011
:100426005808F4005A082000E9006908F6008831E7
:1004360071208031B52A4A30F0000130F1000830D1
:10044600F2000030F3005908F5005808F4005A0885
:100456002000E9006908F600883171208031B52A4C
:100466006030F0000130F1000430F2000030F3009B
:100476005908F5005808F4005A082000E9006908F0
:10048600F600883171208031B52A3630F00001300F
:10049600F1000A30F2000030F3005908F500580860
:1004A600F4005A082000E9006908F6008831712036
:1004B6008031B52A2C30F0000130F1000A30F2000C
:1004C6000030F3005908F5005808F4005A082000D7
:1004D600E9006908F600883171208031B52A22309A
:1004E600F0000130F1000A30F2000030F300590844
:1004F600F5005808F4005A082000E9006908F600DB
:10050600883171208031B52A5708003A03198C2AA0
:10051600B52A5608003A03197A29023A03198F298F
:10052600013A0319A429073A0319BB29013A031909
:10053600CC29033A0319E329013A0319F4290F3A9E
:100546000319332A013A0319092A033A03191E2A01
:10055600013A0319482A073A03195D2A013A031991
:10056600722AB52A01302100D8070030D93D403023
:10057600F4000130F5009731B5278031210041089C
:100586002000E90069082200C0002100420820007E
:10059600E90069082200C1003A302000E900690834
:1005A6002200C200210043082000E9006908220059
:1005B600C300210044082000E90069082200C400A5
:1005C6003A302000E90069082200C50021004508EC
:1005D6002000E90069082200C60021004608200024
:1005E600E90069082200C700D9282100540808003C
:1005F6002100B7002000530886008701403FD50040
:10060600413FD60055088400560885001200253A59
:10061600031D282D530886008701013081074131CB
:100626000318810A2100E401E5012000ED01EE0135
:10063600FF302100E600FF30E700B301B4013A2B9A
:100646006D14530886008701013081074131031874
:10065600810A3A2BED14242B6D15242BED15242B32
:100666006D16242B01302100B3000030B4002100A8
:1006760033083404031D652B2000530886008701C8
:10068600403FD500413FD6005508840056088500F6
:100696000008D700D8015808003A0319532B352B08
:1006A6005708203A0319312B033A0319332B083A1A
:1006B60003192F2B063A0319232B1D3A03192D2B49
:1006C600352B3A2B20006D1C6C2BFD30ED05FF30D1
:1006D600EE05530886008701403FD500413FD6000E
:1006E600550884005608850012002A3A031D9B2BE4
:1006F6005308860087010130810741310318810ABA
:1007060054088600870101088400850102308107AC
:10071600003F2100E400013FE500E51FDE2B20003D
:100726006D142100E409E509E40A0319E50ADE2B44
:10073600530886008701403FF600413FF7008B31A2
:10074600FF23823177082100E5007608E400B42B08
:1007560020005308860087010130810741310318C4
:10076600810A2000530886008701403FD500413F9B
:10077600D60055088400560885000008D03ED700EC
:10078600FF3003180030D800003058020A30031931
:1007960057020318D02B0130D12B0030D900DA01D3
:1007A60059082100B50020005A082100B600350876
:1007B6003604031DAB2B2000530886008701403FFB
:1007C600D500413FD6005508840056088500120022
:1007D600643A0319FD2B530886008701403FD50074
:1007E600413FD60055088400560885001200693A34
:1007F600031D4A2C530886008701013081074131C9
:100806000318810A540886008701010884008501BF
:1008160002308107003FD500013FD6005508210070
:10082600A000200056082100A100890D893B8909F6
:10083600A200A300A400A500A600A700200820008F
:10084600B000210021082000B1002100220820006C
:10085600B200210023082000B30021002408200054
:10086600B400210025082000B5002100260820003C
:10087600B600210027082000B7002100370886317E
:10088600A22620003108D4003008D30008005308FF
:1008960086008701403FD500413FD60055088400B9
:1008A600560885001200733A031D7B2C53088600F8
:1008B60087010130810741310318810A54088600F7
:1008C600870101088400850102308107003F21006D
:1008D600B000013FB1003108FB003008FA003708CC
:1008E6008C31A0247B082000D4007A08D3000800AD
:1008F600530886008701403FD500413FD600550882
:100906008400560885001200783A0319992C53087A
:1009160086008701403FD500413FD6005508840038
:10092600560885001200583A031DF42C5308860019
:100936008701403FD500413FD60055088400560840
:1009460085000008D70057082100B2002000530890
:10095600860087010130810741310318810A540856
:100966008600870101088400850102308107003F67
:100976002100A800013FA900AA01AB01AC01AD010D
:10098600AE01AF0128082000AD0021002908200093
:10099600AE0021002A082000AF0021002B0820000D
:1009A600B00021002C082000B10021002D082000F5
:1009B600B20021002E082000B30021002F082000DD
:1009C600B400210032082000D5005508B5002100EA
:1009D600370885314D2520002E08D4002D08D30078
:1009E6000800530886008701403FD500413FD600E6
:1009F60055088400560885001200253A031D1D2D52
:100A06005308860087010130810741310318810AA6
:100A16002530F2000030F300210037082000D50011
:100A26005508F4008A31122201302000D30000302C
:100A3600D400080053088600870101308107413140
:100A46000318810AD301D4010800530886008701E0
:100A5600403FD500413FD600550884005608850022
:100A66000008D700D8015708F2005808F300210003
:100A760037082000D9005908F4008A311222823141
:100A86002000530886008701013081074131031891
:100A9600810A172D2000BE002100E71B572DFD30CF
:100AA6002000ED05FF30EE0521006708803A2000A2
:100AB600B60080303602031D632D01302100660228
:100AC60003186B2D01302000C3000030C400732DC5
:100AD600210067082000C400210066082000C3002A
:100AE600210065082000C600210064082000C5001A
:100AF6006D1E812DFE30C507FF30C63D2D08C7008F
:100B06002E08C8002F08C9003008CA003108CB00DB
:100B16003208CC003308CD003408CE001F30CF0099
:100B26000030D0002400EB01422EFF302000CF071A
:100B3600FF30D03D0F304705D10000304805D200C8
:100B46005208803AB60080303602031DAC2D0A30BA
:100B56005102031CB22D20005108573EB52D20002E
:100B66005108303ED1000030523DD2003508BF3E1C
:100B7600B600FF3003180030B700003037021A30D5
:100B8600031936020318C92D0130CA2D0030B800EA
:100B9600B9013808BF003908C0003F0840040319EE
:100BA600002E20305104B60000305204B70036083B
:100BB6009F3EB800FF30373DB900003039021A3089
:100BC600031938020318E92D0130EA2D0030BA0066
:100BD600BB013A08C1003B08C200410842040319A0
:100BE600002E5208F7005108F600883101208531A1
:100BF60077082000D2007608D1005108B6004F08C9
:100C06004C3E86000230870036088100FF30C3075D
:100C1600FF30C43DFF30C507FF30C63D4730860074
:100C260000308700403FB600413FB700423FB80062
:100C3600433FB900443FBA00453FBB00463FBC00B6
:100C4600473FBD0004302000BD36BC0CBB0CBA0CBF
:100C5600B90CB80CB70CB60C890B262E20003D0833
:100C6600CE003C08CD003B08CC003A08CB00390842
:100C7600CA003808C9003708C8003608C70020006F
:100C86005008803AB60080303602031D4C2E0230E2
:100C96004F02031C732E20004708480449044A04E7
:100CA6004B044C044D044E04031D982D4408803A11
:100CB600B60080303602031D622E0130430203184F
:100CC600982D20004608803AB60080303602031D73
:100CD6006E2E01304502031C732E2000ED18982D50
:100CE60020006D1E902EFF30CF07FF30D03D350817
:100CF600B6004F084C3E8600023087003608810059
:100D0600FF30CF07FF30D03D3030B6004F084C3EA5
:100D1600860002308700360881004F084C3EB60038
:100D26003608A4004608A6004508A5003E088A31F4
:100D36005D2220002508AE002408AD000800200032
:100D4600BB003008C4003108C5003208C6003308AD
:100D5600C7003408C8003508C9003608CA00370875
:100D6600CB004430860000308700473FB800B81FEC
:100D7600BE2E0130BF2E00302000B900BA0139085E
:100D8600C2003A08C300420843040319E82EC40906
:100D9600C509C609C709C809C909CA09CB09C40AC8
:100DA600031DE82EC50A031DE82EC60A031DE82EFC
:100DB600C70A031DE82EC80A031DE82EC90A031D2B
:100DC600E82ECA0A031DE82ECB0A2100E71BF02EE7
:100DD600FD302000ED05FF30EE0521006708803A62
:100DE6002000B80080303802031DFC2E013021009F
:100DF60066020318042F01302000BE000030BF0039
:100E06000C2F210067082000BF0021006608200083
:100E1600BE00210065082000C100210064082000F2
:100E2600C00042084304031D1A2F6D1D1E2FFF30FC
:100E3600C007FF30C13D1F30CC000030CD0024007C
:100E4600EB01B32F20004408450446044704480438
:100E560049044A044B04031D4A2F3F08803AB80050
:100E660080303802031D392F01303E0203184A2F05
:100E760020004108803AB80080303802031D452F13
:100E860001304002031CBF2F2000ED1CBF2FFF3096
:100E96002000CC07FF30CD3D0A30A000A101A20101
:100EA600A301A401A501A601A7014408A8004508BD
:100EB600A9004608AA004708AB004808AC00490844
:100EC600AD004A08AE004B08AF008E3131268631A0
:100ED60020002108F4002008F3009631FE26863112
:100EE6007308303E2000B8004C084C3E86000230A5
:100EF600870038088100FF30BE07FF30BF3DFF3056
:100F0600C007FF30C13D0A30A000A101A201A30124
:100F1600A401A501A601A7014408A8004508A90047
:100F26004608AA004708AB004808AC004908AD00CF
:100F36004A08AE004B08AF008F310D2786312000DE
:100F46002008C4002108C5002208C6002308C700DF
:100F56002408C8002508C9002608CA002708CB00AF
:100F660020004D08803AB80080303802031DBD2F9E
:100F760001304C020318252F200042084304031DAC
:100F8600C62F6D1DDD2FFF30CC07FF30CD3D42084B
:100F96004304031DD02F2B30D12F2D30BC00003041
:100FA600BD003C08B8004C084C3E86000230870065
:100FB600380881004C084C3EB8003808A4004108A7
:100FC600A6004008A5003B088A315D2220002508BE
:100FD600B1002408B0000800F10071080319F62FCB
:100FE60022000C16F82F22000C120D30F000FC30F7
:0A0FF600890BFB2FF00BFB2F080006
:1010020076089F3EF800FF30773DF9000030790204
:101012001A30031978020318102801301128003001
:10102200FA00FB017A08FC007B08FD007C087D04C5
:10103200031908005F307605F60000307705F700E7
:101042000800F900F701F8017908963192268831F3
:101052007108F6007008F5007808803AF400760806
:10106200803A7402031D37287508770203180800B6
:1010720077087907F40074088600023087000108B7
:1010820096313E2688310130F7070030F83D2D2891
:10109200FB01FC017708F1007608F0009631D026BA
:1010A20088317108FA007008F9007C08803AF8006B
:1010B2007A08803A7802031D602879087B020318B7
:1010C20008007B08760786007C08773D87000108C8
:1010D20089311C2188310130FB070030FC3D562844
:1010E2007208FF3EF700FF30733DF8007808750282
:1010F200031D7D287708740203188C287408700772
:10110200F7007508713DF8007708860078088700B7
:1011120076088100080072087007F7007308713DB5
:10112200F8007708FF3E8600FF30783D8700810196
:10113200080022008C018D018E01033021008C00F9
:1011420070308D00DF308E004F3023008E00B030C3
:101152008D0003308C0024008D018C018E01210052
:10116200951725008C018D018E01373026008C00E9
:10117200F0308D00FF308E000E303C00A4001230A3
:101182003D009F000800F201F30122008E1602309A
:10119200F1004530F000AA30890BCD28F00BCD28A4
:1011A200F10BCD2822008E120230F1004530F00002
:1011B200AA30890BDA28F00BDA28F10BDA28013091
:1011C200F2070030F33D7308803AF000803070027D
:1011D200031DED280330720203180800C628B53437
:1011E20062340634243424340034FF34FF340634A9
:1011F2000334003400340034003410342734003413
:10120200003405340034FA340034FA3400346434DF
:1012120000342C34013400340034003400340034FF
:10122200003400340034003400340034003400341C
:1012320000341634DC34F30000308731EF27893173
:10124200F401F5017308F200740A2829F236890BB9
:101252002729721C2E2901302F2900308731EF27D0
:1012620089310130F4070030F53D7508803AF2000B
:1012720080307202031D3F2907307402031C2329A8
:1012820001308731EF27893101308731EF2708009C
:10129200BC302000E3006308E6002100390820008A
:1012A200E800210038082000E700E901EA01EB012B
:1012B200EC0121003B082000DC0021003A0820005C
:1012C200DB006630E3006308DD0067308931762198
:1012D2000230673E86008701403F210038078400C4
:1012E200413F393D8500800108002000E0005C0894
:1012F200E2005B08E1002200A001A10120006108D8
:10130200840062088500120003199C296130DE0006
:101312005E08D3005D08DF005F08D40060088231F8
:10132200FB228931200053082200A0072000540824
:101332002200A13D7F29220021082000DC0022009A
:1013420020082000DB0008007208F300F401730893
:10135200F400F30170087306F00071087406F100DE
:10136200F601F701F11FC2297108F4007008F300B9
:10137200F335F40D21307306F00010307406F100DD
:10138200C7290130F035F10D890BC3290130F60769
:101392000030F73D7708803AF3008030730208305E
:1013A2000319760203180800B3292000A000A30144
:1013B200A401A101A2012208803AFA007508803A2C
:1013C2007A02031DE629740821020318102A7608FE
:1013D2002000230784007708243D85000008FA00D6
:1013E20021082007FB007B088600870101087A0696
:1013F200031D092A0130A3070030A43D7908240601
:10140200031D052A78082306031D0B2A0130080054
:10141200A301A4010130A1070030A23DDC29003064
:1014220008007408031D7408031D1B2A72089631F4
:10143200192608007408043E86008701160001047C
:1014420003193F2A7408043E86008701403FF500D5
:10145200413FF6007408023E86008701403FF700D4
:10146200413FF8007808803AF9007608803A79021C
:10147200031D3D2A75087702031808007408023E0E
:1014820086008701740884008501403F0007F5004B
:101492000131413F003DF60075088600760887005D
:1014A200720881007408023E8600870101308107BC
:1014B20041310318810A08002000AC006D1C692A22
:1014C2002C08A7002708FA0024089731DA278A3166
:1014D2002000A61B712A2608AB002508AA00732A41
:1014E200AA01AB01A801A9012908803AA7002B088B
:1014F200803A2702031D7F2A2A0828020318932A0A
:101502002030F2000030F30020002C08A70027084A
:10151200F4008A3112228A3101302000A8070030FB
:10152200A93D752A20006D189E2A2C08A7002708BD
:10153200FA0024089731DA278A3120002408F000C3
:101542000230F1009631D02620002A087007A4004C
:101552002B08713DA500080020006F08031DCF2A4B
:1015620022008C122030883122208A3120308B31A7
:101572006D238A312000E9006908EF0022008C16F1
:1015820003302000EA008A30E9005530890BC72A6F
:10159200E90BC72AEA0BC72A0032AD2AEF014E3007
:1015A200E3009830E400963181268A3134302000FD
:1015B200E3009830E400963181268A31823020009F
:1015C200E3009830E400963181268A311A302000F7
:1015D200E3009830E400963181268A316830200099
:1015E200E3009830E400963181268A3100302000F1
:1015F200E3009830E4009631812608002000A20022
:10160200FF30A400FF30A500A601A7012708803AF9
:10161200FA007908803A7A02031D112B7808260213
:101622000318672B200026352207FA007A08860065
:101632008701403FA800413FA9002908F10028087E
:10164200F0009631D0268A3171082000A10070087E
:10165200A0002A08280786002B08293D870024308D
:1016620001060319372BAA01AB013B2B0230AA005A
:101672000030AB0021082B02031D412B20082A0257
:101682000318622B2A08280786002B08293D8700A9
:101692000108FA007A08A3002508F1002408F000E6
:1016A2002308FA007A08F2008931A5218A317108EB
:1016B2002000A5007008A4000130AA070030AB3D4D
:1016C2003B2B0130A6070030A73D072B2000250841
:1016D200F9002408F80008002000AF002100630888
:1016E2002000A300210062082000A200210061085E
:1016F2002000A100210060082000A000B530F00009
:101702007008A5006230F0007008A6000530F000F5
:101712007008A700A801A80A0230F0007008A9000A
:10172200AA012F088600023087000230423FAB0038
:101732002F088600023087000230433FAC00AD0123
:10174200AE010230F0007008B1003108253E86007B
:1017520087012D080107F0007008AD002E082D0743
:10176200F0007008AE000130F0007008B1070830D8
:101772003102031CA62BB0010A3020003002031CE8
:10178200C42B01300800200821006002F000200074
:1017920021082100613BF100200022082100623B68
:1017A200F200200023082100633BF3007308031DAD
:1017B200E32B7208031DE32BB93070020B30713B2F
:1017C200031CE52B00300800963114268B31003AB9
:1017D2000319BD2B963150268B31F0007008200082
:1017E200A4003008253E8600870101082406031D57
:1017F200BC2B0130F0007008B007BD2B2000A70100
:10180200A801A001A101A601A60A76088400770812
:1018120085001200203A0319202C760884007708EC
:1018220085000008F73EF800FF3003180030F90089
:10183200003079020530031978020318A601260840
:10184200F800F9017808A2007908A300220823040D
:101852000319352C0130F6070030F73D042C013016
:10186200A0000030A100682C76088400770885006B
:101872000008F800F9017908003A0319412C6C2C90
:1018820078082B3A0319682C063A0319302C6C2C71
:1018920076088400770885000008F8002808F1001F
:1018A2002708F0000A30F2000030F3009731432796
:1018B2008B317108FA0078087002F900031CFA03F0
:1018C2007908303E2000A70000307A3DA8000130A0
:1018D200F6070030F73D7608840077088500000897
:1018E200D03EF800FF3003180030F90000307902D2
:1018F2000A30031978020318802C0130812C003041
:10190200FA00FB017A08A4007B08A500240825043C
:10191200031D492C20082104031D9B2C2709F800D4
:101922002809F900F80A0319F90A7808F600790873
:10193200F70008002808F7002708F6000800200032
:10194200AE0064308600013087002330840000300E
:1019520085000730A00016001A00A00BAC2C7B08F3
:10196200B0007A08AF002F083004031DBC2C2330CE
:10197200AF000030B0003008F1002F08F0009631BF
:10198200D0268C3171082000B4007008B300210009
:1019920067082000B200210066082000B100B21BD7
:1019A200E32C3208803AA0003408803A2002031D5A
:1019B200DC2C330831020318E32C20003208B40077
:1019C2003108B30020003408B2003308B10021000E
:1019D20065082000AD00210064082000AC006D1CE9
:1019E200042D102D2030F2000030F30020002E08CC
:1019F200A0002008F4008A3112228C31013020002C
:101A0200B3070030B43D3408803AA0002D08803A74
:101A12002002031D0E2D2C083302031CF32C200080
:101A2200AA01AB012B08803AA0003208803A2002BA
:101A3200031D1D2D31082A0203183C2D20002F08FA
:101A42008600300887000108A000A1012008F200EA
:101A52002108F3002E08A2002208F4008A31122283
:101A62008C3101302000AF070030B03D0130AA07B1
:101A72000030AB3D132D20006D18512D5D2D20300F
:101A8200F2000030F30020002E08A0002008F4002D
:101A92008A3112228C3101302000B3070030B43D6C
:101AA2003408803AA0002D08803A2002031D5B2DE5
:101AB2002C083302031C402D20003408FB0033089D
:101AC200FA000800963165268D318B174630F000FA
:101AD2001630F10096311E268D318A31AD228D31BC
:101AE2002100DC01DD0121006908F5006808F4002D
:101AF2009731B5278D3121006B08F5006A08F40093
:101B02009731B5278D31803169208D31003A031923
:101B1200122E21006908B9006808B8009C30BA008A
:101B22009830BB005D08BD005C08BC004030BE00C0
:101B32000130BF00C130C0000130C100B130C2006D
:101B42000130C300D130C4000130C50089314921C0
:101B52008D3121006B08B9006A08B800B330BA00B1
:101B62009830BB003630BC000130BD002C30BE00C6
:101B72000130BF002230C0000130C1006030C2001D
:101B82000130C3005230C4000130C5004A30C600E3
:101B92000130C700893149218D315A302100B80006
:101BA2000130B900D330BA009830BB000230F800DF
:101BB2000030F900E8308A31FF228D3179082100A6
:101BC200BD007808BC00893149218D3121006B08A4
:101BD2002000A10021006A082000A0005A30210044
:101BE200DB005B082000A2009631BA268D3101305D
:101BF2002100DC070030DD3D22000C1521006908C0
:101C0200F7006808F600883149208D3121006B0801
:101C1200F7006A08F600883149208D3122000C1144
:101C2200152E8831C4208D312100DE01DF010730FD
:101C32002100DB007D30890B1C2EDB0B1C2E0130BA
:101C42002100DE070030DF3D5F08803ADB00833091
:101C52005B02031D2E2EE8305E020318742D182E2F
:101C6200F2012830860000308700473FF000F01F65
:101C72005B2E2000A809A909AA09AB09AC09AD0984
:101C8200AE09AF09A80A031D592EA90A031D592E30
:101C9200AA0A031D592EAB0A031D592EAC0A031DB5
:101CA200592EAD0A031D592EAE0A031D592EAF0A35
:101CB200F201F20A2030860000308700473FF00030
:101CC200F01F822E2000A009A109A209A309A409DC
:101CD200A509A609A709A00A031D822EA10A031DB0
:101CE200822EA20A031D822EA30A031D822EA40A9B
:101CF200031D822EA50A031D822EA60A031D822E13
:101D0200A70A200020082104220423042404250415
:101D1200260427040319DA2EF101F10AA71B9E2ECD
:101D2200A035A10DA20DA30DA40DA50DA60DA70D05
:101D32000130F0007008F1078F2E27082F02031DD3
:101D4200BC2E26082E02031DBC2E25082D02031DC3
:101D5200BC2E24082C02031DBC2E23082B02031DBB
:101D6200BC2E22082A02031DBC2E21082902031DB3
:101D7200BC2E20082802031CCE2E2008A80221080F
:101D8200A93B2208AA3B2308AB3B2408AC3B25080D
:101D9200AD3B2608AE3B2708AF3BA736A60CA50CE9
:101DA200A40CA30CA20CA10CA00C0130F102031D87
:101DB2009E2E72080319FB2EA809A909AA09AB09CC
:101DC200AC09AD09AE09AF09A80A031DFB2EA90A89
:101DD200031DFB2EAA0A031DFB2EAB0A031DFB2EBD
:101DE200AC0A031DFB2EAD0A031DFB2EAE0A031D1A
:101DF200FB2EAF0A20002808A0002908A1002A080B
:101E0200A2002B08A3002C08A4002D08A5002E0870
:101E1200A6002F08A7000800F2012030860000303B
:101E22008700473FF000F01F372F2000A009A109CB
:101E3200A209A309A409A509A609A709A00A031DC5
:101E4200352FA10A031D352FA20A031D352FA30A20
:101E5200031D352FA40A031D352FA50A031D352F97
:101E6200A60A031D352FA70AF201F20A28308600BE
:101E720000308700473FF000F01F622F2000A809C2
:101E8200A909AA09AB09AC09AD09AE09AF09A80AAB
:101E9200031D5E2FA90A031D5E2FAA0A031D5E2FD2
:101EA200AB0A031D5E2FAC0A031D5E2FAD0A031D94
:101EB2005E2FAE0A031D5E2FAF0A0130F0007008DC
:101EC200F20673308600003087000830F0000030E0
:101ED2001E00F00B692F2000200821042204230495
:101EE20024042504260427040319CD2FF101F10A45
:101EF200A71B882FA035A10DA20DA30DA40DA50D22
:101F0200A60DA70D0130F0007008F107792FF33507
:101F1200F40DF50DF60DF70DF80DF90DFA0D270874
:101F22002F02031DAE2F26082E02031DAE2F2508F9
:101F32002D02031DAE2F24082C02031DAE2F2308F1
:101F42002B02031DAE2F22082A02031DAE2F2108E9
:101F52002902031DAE2F20082802031CC12F2008CE
:101F6200A8022108A93B2208AA3B2308AB3B24086C
:101F7200AC3B2508AD3B2608AE3B2708AF3B7314AC
:101F8200A736A60CA50CA40CA30CA20CA10CA00CA9
:101F92000130F102031D882F72080319EE2FF30995
:101FA200F409F509F609F709F809F909FA09F30A32
:101FB200031DEE2FF40A031DEE2FF50A031DEE2F6B
:101FC200F60A031DEE2FF70A031DEE2FF80A031D72
:101FD200EE2FF90A031DEE2FFA0A73082000A00063
:101FE2007408A1007508A2007608A3007708A4006F
:0E1FF2007808A5007908A6007A08A700080064
:102C2000A0340234203403342000100E890C013902
:102C30000800F100710896313E2608007108220054
:102C4000EC007008EB000800640080010131890B82
:102C5000252E0034FE0012001E00FE0B2B2E003429
:102C6000683021009900980122009601080028345C
:102C70006E3475346C346C3429340034F000200028
:102C8000101E3F2E700823009A000800013021001A
:102C9000E0070030E13D0030E23D0030E33D080058
:102CA0002000901E502E23009D1C582E1D121D1614
:102CB00019080800083023009F0090309D00243040
:102CC0009E0067309B009C01080088319A20963155
:102CD0009631302696319631A426963196315A2671
:102CE00008000B1121006C082000950022006B08E1
:102CF0006C04031908006C088A006B080A009631FE
:102D0000080065302000E5006508E8006408DC0084
:102D10006308DB006830E5006508DD0000308931BC
:102D200076210800F3007308053E86000230870014
:102D30007308043E8400023085000008083EF0005D
:102D40000030013DF100080021001508C03912389B
:102D500095008330200095008330F2007208210036
:102D6000EC000B118B160330F0000030F1009631AF
:102D70001E26080020002108F1002008F0009631EE
:102D8000D0269631700820002007F4007108213DFC
:102D9000F5002208FC007C08F60097319727080010
:102DA0007108F3007008F20070088600710887004F
:102DB00001080319E02E0130F0070030F13DD42E58
:102DC00072087002F0007308713BF100080070088F
:102DD000D03EF200FF30713DF300003073020A3044
:102DE000031972020318F62E0130F72E0030F4009A
:102DF000F5017408F0007508F10008007408803AC5
:102E0000F50080307502031D072F0130730203188F
:102E100008007309F5007409F600F50A0319F60AAB
:102E20007508F3007608F40008007008BF3EF20051
:102E3000FF30713DF300003073021A300319720243
:102E40000318242F0130252F0030F400F5017408F9
:102E5000F0007508F100080070089F3EF200FF3096
:102E6000713DF300003073021A3003197202031827
:102E70003B2F01303C2F0030F400F5017408F000C6
:102E80007508F1000800F401F501701C4B2F720861
:102E9000F4077308F53D0130F235F30D890B4C2F23
:102EA0000130F136F00C890B512F70087104031DAD
:102EB000452F7508F1007408F0000800F401F40AC9
:102EC0002030700671040319722F7008F73EF2006B
:102ED000FF30713DF30000307302053003197202B8
:102EE0000318F4017408F200F3017208F00073088B
:102EF000F100080020307004F20000307104F3008B
:102F000072089F3EF400FF30733DF50000307502FB
:102F10001A300319740203188F2F0130902F0030DC
:102F2000F600F7017608F0007708F100080076084F
:102F3000F7007708FB007508FA007408F9007A08B2
:102F4000F8007908F700F90A0319FA0A77088600E9
:102F5000780887007B08840001308500FB0A0008A0
:102F6000C03F8908031908009F2FF901FA0175086D
:102F7000F1007408F0009631D02697317108F800FE
:102F80007008F7007A08803AF6007808803A7602EE
:102F9000031DCC2F770879020318080079087407FD
:102FA00086007A08753D870081010130F9070030FD
:102FB000FA3DC22F2000A300A101A201210823078E
:102FC000FB007B088600023087000108FC007C08BB
:102FD000A0002008031908002008FB00FC017B0862
:102FE000F2007C08F3007A08FD007D08F4008A31C5
:102FF0001222973101302000A1070030A23DDE2FC0
:10300000243450345534423458342C34343430342D
:103010002C3452344D3443342C3430342C3430344A
:103020002C3430342C3430342A34343437340D34A6
:103030000A340034243450345534423458342C3457
:10304000343430342C344734533456342C34303404
:103050002C3430342C3430342C3430342A3435345D
:1030600039340D340A340034243450345534423465
:1030700058342C34343430342C34473447344134CD
:103080002C3430342C3430342C3430342C34303430
:103090002A34353441340D340A3400342434503465
:1030A0005534423458342C34343430342C3447348E
:1030B0004C344C342C3430342C3430342C343034C4
:1030C0002C3430342A34353443340D340A3400344B
:1030D000243450345534423458342C34343430345D
:1030E0002C344734533441342C3430342C34303481
:1030F0002C3430342C3430342A34343445340D34C8
:103100000A340034243450345534423458342C3486
:10311000343430342C345634543447342C34303432
:103120002C3430342C3430342C3430342A3435348C
:1031300045340D340A3400342434243454344534B2
:10314000533454342C34253464342C3425347334BF
:103150002C34253473342C34253473342C342534F6
:1031600073342C340034253473342C3425347334C4
:103170002C34253473342C34253473342C342534D6
:1031800073342C342534733400342434503455349F
:10319000423458342C34303430342A3433343334D9
:1031A0000D340A3400342A3425343034343458345D
:1031B0000A34003450345534423458340034E8343E
:0A31C00003343234003405340034C7
:020000040001F9
:06000E00FC3FFF3E9F3F96
:00000001FF
