:020000040000FA
:10000000803123282034A0347E1480318B1A0B1DBC
:100010000D2899319921803121280B1F2128210099
:10002000911D19282000911D192890310020803140
:1000300021282100901D21282000901D2128843195
:1000400029247E100900803125288031022080314A
:10005000FB00803103208031FC00003084009C30A4
:100060008500A0308600023087002C30993159215C
:100070008031F901FA0157308400013085001630D3
:10008000993153218031D330840001308500123002
:10009000993153218031203084000230850037307F
:1000A000993153218031CC308400023085001A30E0
:1000B000993153218031203084000330850046304F
:1000C000993153218031A0308400033085004930BC
:1000D000993153217E1020009631422E2000DA0102
:1000E00022008E165F082000D80022005E08200043
:1000F000D70022005D082000D60022005C08200006
:10010000D500E001E101DE01DF014E308600003064
:1001100087000730BE0000301E00BE0B8C28DD01BA
:100120007B08A2000330A3009A31E02280317C08D2
:100130002000A2000330A3009A31E0228031200089
:10014000E301E401FF30DB00FF30DC009C30A20063
:100150009830A3009B315523803120005A08031D9D
:10016000852A550822005C022000BE0056082200A5
:100170005D3B2000BF00570822005E3B2000C0000E
:10018000580822005F3B2000C1004108031D852A5A
:100190004008031D852AB9303E020B303F3B03184F
:1001A000852A993148218031003A0319AD289931C7
:1001B000762180312000BE003E08E200D901D90A34
:1001C000AD29DD01DD0AD90195295E085F04031D13
:1001D0006D294E30F5000030F6009A31072280314B
:1001E0007608A3007508A200AF30A4009830A500DF
:1001F0000430A6000030A7004E309D31912580319B
:10020000003A031D0D292000DD014E30A200003010
:10021000A3009A31E02280316D2924302000BE00F5
:100220007B088600033087003E0881002430BE0032
:100230007B0A8600033087003E088100AA30A800B0
:100240009830A9000230AA000030AB004630AC0064
:100250000030AD007B089E31992680317B08F50087
:100260000330F6009A31072280317608E4007508E1
:10027000E30042308600003087000C30BE000030C2
:100280001E00BE0B4029230054082000B5002300A7
:1002900053082000B4004230B6000030B70092315D
:1002A000052280314230A8000030A9006408AB006C
:1002B0006308AA004630AC000030AD007B089E31D8
:1002C000992680317B08F5000330F6009A31072229
:1002D00080317608E4007508E30020005D0803190A
:1002E00095290130DE070030DF3D2C30BE005F086D
:1002F000803ABF0080303F02083003195E02031CC1
:1003000083290130842900307B3E8600870120004C
:1003100063080107C00040088600033087003E08DC
:1003200081000130E3070030E43DE001E101C02934
:100330005F08803ABE0080303E02031DA1290E30C6
:100340005E02031CA5290130A62900302000BF0051
:100350003F08DA00C029D901C0296208BE00BF01E8
:100360003F08003A0319B529AB293E080A3A031998
:1003700098292E3A0319E128083A0319E528AB29F0
:100380005908031DAD285D08031D4D2AAD2807300F
:10039000A0000030A1006108A3006008A20062086C
:1003A000BE003E08A4004E309A31982280317B2A4C
:1003B0006108803ABE0080303E02031DE12906300C
:1003C000600203187B2A02302000600661040319D2
:1003D000EE29043060066104031DFD293A30BE0099
:1003E00063087B07BF003F088600033087003E0894
:1003F00081000130E3070030E43D6208BE0063087D
:100400007B07402A60086104031DFD296408DC00A5
:100410006308DB00FD294E30620603197B2A2D306C
:10042000BE003E08A0005C08A2005B08A1004630A8
:10043000A3000030A4007B089E31532680317B2A24
:10044000022A4530620603197B2A2D30BE003E0881
:10045000A0005C08A2005B08A1004630A3000030A9
:10046000A4007B089E31532680317B2A60086104FA
:10047000031D3C2AE301E4016208BE0063087C0717
:10048000BF003F088600033087003E0881007B2ABA
:10049000FF30E307FF30E43D7B2A5F08003A031991
:1004A000522A482A5E08003A0319C729023A03195A
:1004B000D829013A0319022A073A03190B2A013AEB
:1004C0000319202A033A0319212A013A0319FD29A5
:1004D0000F3A03193C2A013A0319362A033A031941
:1004E0003C2A013A03193C2A073A03193C2A013AEB
:1004F00003193C2A482A01302000E0070030E13D82
:100500000130E3070030E43DAD285A080800200020
:10051000D5000030D0000030CF002130CE00343084
:10052000CD003708860001308700403FBB00413FC7
:10053000BC003B08BD003C08BE00BF01C00101304B
:10054000BD35BE0DBF0DC00D890BA02A5508043E58
:10055000860001308700403FC100413FC200423F5A
:10056000C300433FC4000330C436C30CC20CC10CEB
:10057000890BB42A3D08C1023E08C23B3F08C33B79
:100580004008C43B4408D4004308D3004208D200CA
:100590004108D1000030AB000030AA000830A900AB
:1005A0000030A8003708023E860001308700403F37
:1005B000BB00413FBC003B08A0003C08A100890DE6
:1005C000893B8909A200A3005408A7005308A6008C
:1005D0005208A5005108A4009C31862482312308CA
:1005E000AF002208AE002108AD002008AC00933116
:1005F000582382312B08D4002A08D3002908D200BE
:100600002808D1003708860001308700403FBB0032
:10061000413FBC003B08BD003C08BE00BF01C0011B
:100620005508043E860001308700403FC100413F2D
:10063000C200423FC300433FC4000430C436C30C71
:10064000C20CC10C890B1E2B3D08C1023E08C23BE7
:100650003F08C33B4008C43B4408D9004308D800C6
:100660004208D7004108D6000030AB000030AA0095
:100670001030A9000030A8005908A3005808A200B3
:100680005708A1005608A0005908A7005808A6005E
:100690005708A5005608A4009C31862482312308FF
:1006A000AF002208AE002108AD002008AC00933155
:1006B000582382312B08C8002A08C7002908C60021
:1006C0002808C5000030AB000030AA004030A90067
:1006D0000030A8004808A3004708A2004608A1006F
:1006E0004508A0003708043E860001308700403FDF
:1006F000BB00413FBC003B08A4003C08A500890D9D
:10070000893B8909A600A7009C31862482312308F1
:10071000AF002208AE002108AD002008AC009331E4
:10072000582382312B08D9002A08D8002908D7007D
:100730002808D60051085607BB005208573DBC0098
:100740005308583DBD005408593DBE003708213EAE
:100750008600013087003B08C03F3C08C13F3D0890
:10076000C23F3E08C33F0030AB000030AA0001305A
:10077000A9000030A8008030BB000030BC00003071
:10078000BD000030BE003708213E860001308700E2
:10079000403FA000413FA100423FA200433FA300D1
:1007A0000030A7000030A6000030A5000530A400EE
:1007B0009C31862482312008BB072108BC3D2208D9
:1007C000BD3D2308BE3D3E08AF003D08AE003C08DD
:1007D000AD003B08AC009331582382312B08DD007B
:1007E0002A08DC002908DB002808DA00DD1F0A2CB3
:1007F00060305A02F0305B3BFF305C3BFF305D3BCA
:1008000003180A2CFF30DD00FF30DC00F030DB0085
:1008100060301F2CDD1B202C5D08031D182C5C088C
:10082000031D182C35305A0221305B3B031C202C51
:100830000030DD000030DC002130DB003430DA0035
:100840005D08BA005C08B9005B08B8005A08B70038
:10085000080090112400951F492D95132200E801EE
:100860006508023E860001308700403FF300413FAB
:10087000F400730886007408870001308100E501E8
:100880000800D91808005808F3007308E500580854
:100890008600013087000108F3007308E70058085C
:1008A0008600013087000130413FE6000430F3004C
:1008B0007308D80758086D3A031D622C6930F3009D
:1008C0007308D8005910580857060319D914240082
:1008D00016140230F30073082200E8000800F22C1E
:1008E0002400161F7C2C0130F30073082200DB0764
:1008F00004309A31392208007A08F4007908F300AC
:10090000F436F30C73089100791C8C2C0B30F30037
:1009100073082200E80008000330F3007308220087
:10092000E80008002400161F9E2C0130F300730815
:100930002200DB0704309A31392208009614063071
:100940007A05F300F0307304F9000030FA007914EE
:100950002200E301E30A692C63030319C72C66082C
:10096000860001308700403FF900413FFA006608E9
:10097000033E860001308700403FE000413FE10038
:1009800066088600013087000130423FE4007908A4
:1009900024009100791C8C2C0530F3007308220090
:1009A000E80008002400161FE02C0130F300730853
:1009B0002200DB072400161305309A313922080083
:1009C00001302200E402640A031DF52C0530F30017
:1009D0007308E6070130E702031DF22C00309A315C
:1009E0003922080024009614692C600886006108EA
:1009F000870001082400910001302200E007003048
:100A0000E13D08002400161F102D0130F30073088B
:100A10002200DB0704309A31392224001613080023
:100A200096150830F30073082200E800080008302B
:100A3000F3007308E800240096150800600886009B
:100A40006108870024001108810001302200E007BE
:100A50000030E13D0130E4020319362D24009612E6
:100A60000630F30073082200E8003A2D24009616A1
:100A70009931A92124001616080000309A31392234
:100A800008000130F3007308DB0706309A31392281
:100A9000080022006808F300F4017408003A031902
:100AA000522D412D7308003A0319412C013A0319C4
:100AB0006F2C033A0319AC2C013A0319D22C073AD4
:100AC00003193D2D013A0319022D033A0319172D7D
:100AD000013A03193D2D0F3A03191E2D023A03194D
:100AE000702C013A0319922C412D08002000B4000B
:100AF00034088600013087000108A000A101A2018E
:100B0000A3010C30A035A10DA20DA30D890B822DE0
:100B10002308B3002208B2002108B1002008B00069
:100B2000340A8600013087000108A000A101A2015B
:100B3000A3010430A035A10DA20DA30D890B9A2DA0
:100B40002308AF002208AE002108AD002008AC0049
:100B50003408023E8600013087000108A0000430FE
:100B6000A036890BB02D2008A100A201A301A40189
:100B70002408AB002308AA002208A9002108A80025
:100B80002808A0002908A1002A08A2002B08A30019
:100B900030082C04A40031082D04A50032082E04CE
:100BA000A60033082F04A7002408A0042508A104E8
:100BB0002608A2042708A3047508860001308700D0
:100BC0002008C03F2108C13F2208C23F2308C33F7D
:100BD0003408033E8600013087000108A000A1010F
:100BE000A201A3010C30A035A10DA20DA30D890B0C
:100BF000F32D2308B3002208B2002108B100200819
:100C0000B0003408043E8600013087000108A000CF
:100C1000A101A201A3010430A035A10DA20DA30DD5
:100C2000890B0C2E2308AF002208AE002108AD006E
:100C30002008AC003408053E86000130870001081A
:100C4000A0000430A036890B222E2008A100A201AA
:100C5000A301A4012408AB002308AA002208A900CC
:100C60002108A8002808A0002908A1002A08A2003D
:100C70002B08A30030082C04A40031082D04A50083
:100C800032082E04A60033082F04A7002408A0046D
:100C90002508A1042608A2042708A3047508043E19
:100CA0008600013087002008C03F2108C13F22088C
:100CB000C23F2308C33F3408063E86000130870048
:100CC0000108A000A101A201A3010830A035A10DD7
:100CD000A20DA30D890B662E2308AF002208AE00DB
:100CE0002108AD002008AC003408073E8600013022
:100CF00087000108A000A101A201A3012308B300FD
:100D00002208B2002108B1002008B00030082C04ED
:100D1000A00031082D04A10032082E04A2003308DF
:100D20002F04A3007508083E8600013087002008C4
:100D3000C03F2108C13F2208C23F2308C33F08002B
:100D4000F8007508093EF6007608F700780A840076
:100D500085010008F6007808840085017708860080
:100D6000013087000008C03F7608C13F7808033E85
:100D7000840085010008F6007808023E84008501A1
:100D80007708023E8600013087000008C03F7608E1
:100D9000C13F7808053E840085010008F600780808
:100DA000043E840085017708043E860001308700F8
:100DB0000008C03F7608C13F7808073E84008501DF
:100DC0000008F6007808063E840085017708063E94
:100DD0008600013087000008C03F7608C13F7808D0
:100DE000093E840085010008F6007808083E84006A
:100DF00085017708083E8600013087000008C03F63
:100E00007608C13F78080B3E840085010008F60093
:100E100078080A3E8400850177080A3E8600013082
:100E200087000008C03F7608C13F78080D3E840067
:100E300085010008F60078080C3E840085017708DB
:100E40000C3E8600013087000008C03F7608C13F95
:100E500078080F3E840085010008F60078080E3EF1
:100E60008400850177080E3E860001308700000867
:100E7000C03F7608C13F7808113E84008501000814
:100E8000F6007808103E840085017708103E860041
:100E9000013087000008C03F7608C13F7808133E44
:100EA000840085010008F6007808123E8400850160
:100EB0007708123E8600013087000008C03F7608A0
:100EC000C13F7808153E840085010008F6007808C7
:100ED000143E840085017708143E860001308700A7
:100EE0000008C03F7608C13F7808173E840085019E
:100EF0000008F6007808163E840085017708163E43
:100F00008600013087000008C03F7608C13F78089E
:100F1000193E860087010108F6007708183E860012
:100F2000013087007608810008002608F6002508B1
:100F3000F5009A31072287317608B1007508B000B4
:100F4000B201B3010230F5000030F6003108F800BC
:100F50003008F7009031322087317608AC007508F0
:100F6000AB003308803AA7002C08803A2702031D03
:100F7000BB2F2B0832020318F72F20003208250759
:100F800086003308263D87000108A7002708AD002A
:100F900032082502A7003308263BA800300827079F
:100FA000A9003108283DAA002908FF3EAE00FF3005
:100FB0002A3DAF002E0886002F0887000108A700F1
:100FC00032082507A8003308263DA9002808860016
:100FD00029088700270881002E0886002F0887002F
:100FE0002D0881000130B2070030B33DB12F200041
:100FF0003008250786003108263D8700810108005A
:101000007708A000A1012008A100A0017508200612
:10101000F50076082106F600A301A401F61F1E289C
:1010200076082000A1007508A000A035A10D213090
:101030002006F50010302106F60023280130F53592
:10104000F60D890B1F2801302000A3070030A43DB6
:101050002408803AA00080302002083003192302BF
:10106000031808000E282100C100200021082100DB
:10107000C200200022082100C30020002308210014
:10108000C400200024082100C500200025082100FC
:10109000C600200026082100C700200027082100E4
:1010A000C80041082000A000210042082000A10043
:1010B000210043082000A200210044082000A300D2
:1010C000210045082000A400210046082000A500BA
:1010D000210047082000A600210048082000A700A2
:1010E00021005D082000A80021005E082000A90062
:1010F00021005F082000AA00210060082000AB004A
:10110000210061082000AC00210062082000AD0031
:10111000210063082000AE00210064082000AF0019
:101120009E31DF26883120082100CD0020002108D3
:101130002100CE00200022082100CF00200023083B
:101140002100D000200024082100D1002000250823
:101150002100D200200026082100D300200027080B
:101160002100D400CD30860000308700403F2000B1
:10117000D600413FD700423FD800433FD900443F0B
:10118000DA00453FDB00463FDC00473FDD00520808
:101190000E3E860001308700403FDE00413FDF0009
:1011A0005E08A0005F08A100890D893B8909A200A3
:1011B000A300A400A500A600A70021005D08200050
:1011C000A80021005E082000A90021005F0820007F
:1011D000AA00210060082000AB0021006108200067
:1011E000AC00210062082000AD002100630820004F
:1011F000AE00210064082000AF009E31DF26883158
:101200002030860000308700403FE000413FE10091
:10121000423FE200433FE300443FE400453FE50036
:10122000463FE600473FE70011302000E035E10D82
:10123000E20DE30DE40DE50DE60DE70D890B152933
:1012400020006008D6076108D73D6208D83D6308D2
:10125000D93D6408DA3D6508DB3D6608DC3D67087A
:10126000DD3D5D082100D40020005C082100D30092
:1012700020005B082100D20020005A082100D10084
:10128000200059082100D000200058082100CF007C
:10129000200057082100CE00200056082100CD0074
:1012A000CD30860000308700403F2000D600413F0F
:1012B000D700423FD800433FD900443FDA00453FC2
:1012C000DB00463FDC00473FDD0052080C3E860055
:1012D00001308700403FDE00413FDF005E08E00054
:1012E0005F08E1000030E11BFF30E200E300E400B2
:1012F000E500E600E70023302000E035E10DE20DD7
:10130000E30DE40DE50DE60DE70D890B7C292000CA
:101310006008D6076108D73D6208D83D6308D93D0B
:101320006408DA3D6508DB3D6608DC3D6708DD3DA5
:101330005D082100D40020005C082100D3002000BB
:101340005B082100D20020005A082100D1002000B3
:1013500059082100D000200058082100CF002000AB
:1013600057082100CE00200056082100CD002000A3
:1013700052080A3E860001308700403FD600413FB8
:10138000D7005608A0005708A100890D893B89099C
:10139000A200A300A400A500A600A70021005D08EC
:1013A0002000A80021005E082000A90021005F089D
:1013B0002000AA00210060082000AB002100610885
:1013C0002000AC00210062082000AD00210063086D
:1013D0002000AE00210064082000AF009E31DF260F
:1013E000883120082100C100200021082100C2000E
:1013F000200022082100C300200023082100C4008F
:10140000200024082100C500200025082100C60076
:10141000200026082100C700200027082100C8005E
:1014200020005208083E860001308700403FD60069
:10143000413FD7005608A0005708A100890D893BFD
:101440008909A200A300A400A500A600A70021000E
:101450005D082000A80021005E082000A9002100EE
:101460005F082000AA00210060082000AB002100D6
:1014700061082000AC00210062082000AD002100BE
:1014800063082000AE00210064082000AF009E31F8
:10149000DF2688312030860000308700403FD800AA
:1014A000413FD900423FDA00433FDB00443FDC00CC
:1014B000453FDD00463FDE00473FDF000C302000A7
:1014C000D835D90DDA0DDB0DDC0DDD0DDE0DDF0DB0
:1014D000890B5F2A00302000BF000030BE000030C2
:1014E000BD000030BC000030BB000030BA0001304D
:1014F000B9000030B800210041082000A000210000
:1015000042082000A100210043082000A200210081
:1015100044082000A300210045082000A400210069
:1015200046082000A500210047082000A600210051
:1015300048082000A70021005D082000A800210025
:101540005E082000A90021005F082000AA002100F9
:1015500060082000AB00210061082000AC002100E1
:1015600062082000AD00210063082000AE002100C9
:1015700064082000AF009E31DF2688312008C000BB
:101580002108C1002208C2002308C3002408C400A7
:101590002508C5002608C6002708C70097310B2775
:1015A00088313830860000308700403FD807413FFF
:1015B000D93D423FDA3D433FDB3D443FDC3D453FC3
:1015C000DD3D463FDE3D473FDF3D5F082100E40053
:1015D00020005E082100E30020005D082100E200F9
:1015E00020005C082100E10020005B082100E000F1
:1015F00020005A082100DF00200059082100DE00E9
:10160000200058082100DD0000302000BF0000301D
:10161000BE000030BD000230BC000030BB00003016
:10162000BA000030B9000030B8000030D6000030F9
:10163000D7000030D8000030D9000030DA00803008
:10164000DB000030DC000030DD00DD3086000030E3
:101650008700403FD607413FD73D423FD83D433FFB
:10166000D93D443FDA3D453FDB3D463FDC3D473F0A
:10167000DD3D5D08A7005C08A6005B08A5005A08D0
:10168000A4005908A3005808A2005708A100560852
:10169000A0005208063E860001308700403FA800A7
:1016A000413FA900AA01AB01AC01AD01AE01AF0100
:1016B0009E31DF2688312008C0002108C1002208A1
:1016C000C2002308C3002408C4002508C50026085A
:1016D000C6002708C70097310B278831380821003A
:1016E000DD00200039082100DE0020003A0821003A
:1016F000DF0020003B082100E00020003C08210022
:10170000E10020003D082100E20020003E08210009
:10171000E30020003F082100E4005D085E045F0450
:10172000600461046204630464040319D72F380859
:10173000860001308700403F2000D600413FD7009F
:10174000423FD800433FD9000030DA000030DB00D0
:101750001030DC000030DD005608DA025708DB3BB1
:101760005808DC3B5908DD3B5A08DE005B08DF0007
:101770005C08E0005D08E100E201E301E401E5014D
:1017800065082100DC00200064082100DB00200047
:1017900063082100DA00200062082100D90020003F
:1017A00061082100D800200060082100D700200037
:1017B0005F082100D60020005E082100D5005D08EA
:1017C0002000B80021005E082000B90021005F0859
:1017D0002000BA00210060082000BB002100610841
:1017E0002000BC00210062082000BD002100630829
:1017F0002000BE00210064082000BF00D530860014
:1018000000308700403FD600413FD700423FD8001C
:10181000433FD900443FDA00453FDB00463FDC0050
:10182000473FDD001F302000D635D70DD80DD90D2C
:10183000DA0DDB0DDC0DDD0D890B132C21004D08BD
:101840002000D60221004E082000D73B21004F087F
:101850002000D83B210050082000D93B210051082E
:101860002000DA3B210052082000DB3B2100530816
:101870002000DC3B210054082000DD3B5D08A70070
:101880005C08A6005B08A5005A08A4005908A3003C
:101890005808A2005708A1005608A0000030AF0069
:1018A0000030AE000030AD000030AC000030AB00C6
:1018B0000030AA000C30A9003530A8009E31DF2688
:1018C00088312008C0002108C1002208C200230876
:1018D000C3002408C4002508C5002608C600270840
:1018E000C70097310B27883138082100D500200028
:1018F00039082100D60020003A082100D700200036
:101900003B082100D80020003C082100D90020001D
:101910003D082100DA0020003E082100DB00200005
:101920003F082100DC0020005208163E86000130EE
:101930008700403FD600413FD7005608A000570817
:10194000A100890D893B8909A200A300A400A5007C
:10195000A600A7000030BF000030BE000030BD0070
:101960000030BC000030BB000030BA002030B900AD
:101970000030B800210055082000C00021005608A2
:101980002000C100210057082000C2002100580893
:101990002000C300210059082000C40021005A087B
:1019A0002000C50021005B082000C60021005C0863
:1019B0002000C70097310B2788313808A800390864
:1019C000A9003A08AA003B08AB003C08AC003D085F
:1019D000AD003E08AE003F08AF009E31DF268831E3
:1019E00020082100C100200021082100C2002000A1
:1019F00022082100C300200023082100C400200089
:101A000024082100C500200025082100C600200070
:101A100026082100C700200027082100C80041082F
:101A20002000A000210042082000A100210043085E
:101A30002000A200210044082000A3002100450846
:101A40002000A400210046082000A500210047082E
:101A50002000A600210048082000A7000030BF0099
:101A60000030BE000030BD000030BC000030BB00C4
:101A70000030BA002030B9000030B800210055080D
:101A80002000C000210056082000C1002100570896
:101A90002000C200210058082000C300210059087E
:101AA0002000C40021005A082000C50021005B0866
:101AB0002000C60021005C082000C70097310B27DA
:101AC00088313808A8003908A9003A08AA003B085C
:101AD000AB003C08AC003D08AD003E08AE003F083E
:101AE000AF009E31DF26883120082100A8002000A9
:101AF00021082100A900200022082100AA002000BE
:101B000023082100AB00200024082100AC002000A5
:101B100025082100AD00200026082100AE0020008D
:101B200027082100AF0000302000BF000030BE00B9
:101B30000030BD000030BC000230BB000030BA00F5
:101B40000030B9000030B800210028082000C00093
:101B5000210029082000C10021002A082000C2001D
:101B600021002B082000C30021002C082000C40005
:101B700021002D082000C50021002E082000C600ED
:101B800021002F082000C70097310B278831380823
:101B90002100DD00200039082100DE0020003A0885
:101BA0002100DF0020003B082100E00020003C086D
:101BB0002100E10020003D082100E20020003E0855
:101BC0002100E30020003F082100E4000030200055
:101BD000BF000030BE000030BD000030BC0000304F
:101BE000BB000830BA000030B9000030B80052081D
:101BF000143E860001308700403FD600413FD700A9
:101C00005608A0005708A100890D893B8909A20048
:101C1000A300A400A500A600A700210055082000ED
:101C2000A800210056082000A90021005708200024
:101C3000AA00210058082000AB002100590820000C
:101C4000AC0021005A082000AD0021005B082000F4
:101C5000AE0021005C082000AF009E31DF268831F5
:101C60002008C0002108C1002208C2002308C300C8
:101C70002408C4002508C5002608C6002708C70098
:101C800097310B27883138082100CD002000390812
:101C90002100CE0020003A082100CF0020003B08A0
:101CA0002100D00020003C082100D10020003D0888
:101CB0002100D20020003E082100D30020003F0870
:101CC0002100D40020005208123E86000130870017
:101CD000403FD600413FD7005608D8005708D900EA
:101CE0000030D91BFF30DA00DB00DC00DD00DE0055
:101CF000DF0004302000D835D90DDA0DDB0DDC0D06
:101D0000DD0DDE0DDF0D890B7A2E00302000BF00C7
:101D10000030BE000030BD000030BC000030BB0011
:101D20000030BA000130B9000030B800CD30860074
:101D300000308700403FE000413FE100423FE200C9
:101D4000433FE300443FE400453FE500463FE600F3
:101D5000473FE700210055085D072000E80021000B
:101D600056085E3D2000E900210057085F3D200035
:101D7000EA0021005808603D2000EB0021005908CE
:101D8000613D2000EC0021005A08623D2000ED007A
:101D900021005B08633D2000EE0021005C08643DEB
:101DA0002000EF006808E0076908E13D6A08E23DAD
:101DB0006B08E33D6C08E43D6D08E53D6E08E63DCB
:101DC0006F08E73D6708C7006608C6006508C500DC
:101DD0006408C4006308C3006208C2006108C1004F
:101DE0006008C00097310B278831383086000030FA
:101DF0008700403FD807413FD93D423FDA3D433F4E
:101E0000DB3D443FDC3D453FDD3D463FDE3D473F5A
:101E1000DF3D5F082100DC0020005E082100DB00C0
:101E200020005D082100DA0020005C082100D900B4
:101E300020005B082100D80020005A082100D700AC
:101E4000200059082100D600200058082100D500A4
:101E500002302000B800B901BA01BB01BC01BD01CC
:101E6000BE01BF01210055082000C0002100560816
:101E70002000C100210057082000C200210058089E
:101E80002000C300210059082000C40021005A0886
:101E90002000C50021005B082000C60021005C086E
:101EA0002000C70097310B2788313808A000390877
:101EB000A1003A08A2003B08A3003C08A4003D088A
:101EC000A5003E08A6003F08A7006430A800A901AD
:101ED000AA01AB01AC01AD01AE01AF019E31DF261D
:101EE000883120082100B000200021082100B10025
:101EF000200022082100B200200023082100B300A6
:101F0000200024082100B400200025082100B5008D
:101F1000200026082100B600200027082100B70075
:101F200080302000B800B901BA01BB01BC01BD017D
:101F3000BE01BF01210030082000C000210031088F
:101F40002000C100210032082000C2002100330817
:101F50002000C300210034082000C40021003508FF
:101F60002000C500210036082000C60021003708E7
:101F70002000C70097310B2788313B082100CC0097
:101F800020003A082100CB00200039082100CA00B7
:101F9000200038082100C9004C08031DDD2FC03087
:101FA0004902C6304A3B2D304B3B0318DD2F003031
:101FB000CC002D30CB00C630ED2F4C08031DE82F90
:101FC000C1304902D8304A3BA7304B3B031CF02FAD
:101FD0000030CC00A730CB00D830CA00C030C900D8
:101FE0004C082000D50021004B082000D40021001F
:101FF0004A082000D300210049082000D200080030
:1020000091110800A00000309931BA2190312000D0
:10201000A101A20120002008F700210A1028F736AC
:10202000890B0F28771C16280130172800309931AA
:10203000BA21903101302000A1070030A23D2208D2
:10204000803AF70080307702031D282807302102EC
:10205000031C0A2801309931BA219031013099319D
:10206000BA210800A201F61F3C28F509F609F50A75
:102070000319F60AA201A20AF81F4728F709F8096E
:10208000F70A0319F80A0130A0002008A206A301EC
:10209000A4017508760403197628A101A10AF61B8C
:1020A0005B280130F535F60D890B52280130A00070
:1020B0002008A1074F280130A335A40D890B5C2807
:1020C00076087802031D662875087702031C6D28C0
:1020D0007508F7027608F83B23140130F636F50C44
:1020E000890B6E280130A102031D5B282208031909
:1020F0007E28A309A409A30A0319A40A2408F60048
:102100002308F500080022006208031DA4288C1291
:10211000A0309B317F239031A0309331D92390316F
:102120002000B20032082200E2008C1603302000AA
:10213000B3008A30B2005530890B9C28B20B9C2822
:10214000B30B9C2800328328E2014E302000A2000D
:102150009830A3009B315523903134302000A200E9
:102160009830A3009B315523903182302000A2008B
:102170009830A3009B31552390311A302000A200E3
:102180009830A3009B315523903168302000A20085
:102190009830A3009B315523903100302000A200DD
:1021A0009830A3009B31552308002200A80020305E
:1021B00086000130870008302100ED0000301E004D
:1021C000ED0BDF283C308600023087002A30840087
:1021D000013085000C30ED0016001A00ED0BEC28E4
:1021E0006C089A31BB2290312100ED006D0822006D
:1021F000A9002908031D080021006B080319080025
:1022000020302000B8000130B9000830BA0000309A
:10221000BB0021006C08ED006D082000BC00F73009
:102220009D31CC2590312100EE006E082200A900DE
:102230002908031D08002A302100ED006D08F50073
:1022400020308531762590312A302100ED006D084F
:10225000E5006B08EE006E08E6006C08093EEF0032
:102260006F08E700220028089231E0220800BD0133
:10227000BE010F3020003405BB0000303505BC0026
:102280003C08803AB70080303702031D49290A30E4
:102290003B0203184D2930304E2937302000B90059
:1022A0000030BA0039083B07B7003D083607B800D0
:1022B0003808860001308700370881000130BD07EB
:1022C0000030BE3D1030F5000030F6003508F80053
:1022D0003408F7009031322091317608B500750846
:1022E000B4003508803AB70080303702031D7A29E0
:1022F00001303402031C8A29392920003D083607A1
:10230000B700370886000130870081010130BD0722
:102310000030BE3D20003E08803AB70080303702D2
:10232000031D942904303D02031C7D29200036083A
:10233000A5000130A6008731952708002000E500A0
:102340000530E0006008E200E30165089A31BB2235
:1023500091312000E0006008E40064080319F929C5
:10236000032A6330B8000030B9000130BA000030F1
:10237000BB006508E0006008BC00D0309D31CC2572
:102380009131E1006108E4006408031DE529603033
:102390006306031DE5296308E00065088600013037
:1023A00087006008810065089D311E259131E0009D
:1023B0006008E4006408031DFC2965089F316E274E
:1023C0009131E0006008E400FC290030F8000030A2
:1023D000F7000030F6000130F5006508073E860082
:1023E00001308700413F8A00403F0A0091310130AF
:1023F000E2026208031DB1296208031D032AFE30B0
:10240000E0006008E40064080800BC01BD01B51FDD
:102410000B2A01300C2A0030B8003808BB003B08FA
:102420000319172AB409B509B40A0319B50A0A3001
:10243000F5000030F60020003508F8003408F700F9
:102440009E310E2692317508303EB8003C083607A2
:10245000B9003D08373DBA00390886003A088700C0
:10246000380881000130BC070030BD3D0A30F5005E
:102470000030F6003508F8003408F70090313220BB
:1024800092317608B5007508B4003508803AB80076
:1024900080303802031D4E2A013034020318172AF7
:1024A00020003B080319642A3C083607B8003D08A1
:1024B000373DB90038088600390887002D30810083
:1024C0000130BC070030BD3D3C08360786003D08A2
:1024D000373D870081013708A6003608A5008731FF
:1024E00095270800AB00FF30AD00FF30AE00AF0114
:1024F000B0013008803AA7002608803A2702031D61
:10250000832A25082F020318DA2A20002F082B0718
:10251000A7002708860087010108A8002808B10045
:102520003108F5000330F6009A310722923176081F
:10253000AA007508A90032083107A70027088600FD
:1025400003308700243001060319A92AB201B30120
:10255000AD2A0230B2000030B3002A083302031D56
:10256000B32A290832020318D52A32083107A700F6
:1025700027088600033087000108A8002808AC005F
:102580002E08F6002D08F5002C08A7002708F700F4
:1025900088310020923176082000AE007508AD0029
:1025A0000130B2070030B33DAD2A0130AF07003033
:1025B000B03D792A20002E08A6002D08A5000800AD
:1025C0002100EA00E90165080319542B6608031984
:1025D000542B67080319542B6608043E860001300B
:1025E00087000030C03F0030C13FC23FC33F660894
:1025F0008600013087000030C03FC13FC23FC33F6B
:102600006608083E8600013087000030C03F003079
:10261000C13FC23FC33F6A0807390319282B670827
:10262000E80068082000B700210065088231872291
:10263000923121006608043E8600013087002000A8
:102640003708C03F3808C13F3908C23F3A08C33F86
:1026500021006A1C432B6708E80068082000D200AC
:10266000210065089531A125923121006608860078
:102670000130870020005208C03F5308C13F540872
:10268000C23F5508C33F21006A1D562B6608083E0D
:10269000860001308700FF30C03FFF30C13F00306F
:1026A000C23F0030C33F562BE901E9036908080027
:1026B000B201AB1F682BA809A909AA09AB09A80A8E
:1026C0000319A90A0319AA0A0319AB0AB201B20A2B
:1026D000AF1F792BAC09AD09AE09AF09AC0A0319DC
:1026E000AD0A0319AE0A0319AF0A0130B000300871
:1026F000B2060030B6000030B5000030B400003043
:10270000B3002B082A04290428040319C22BB101A1
:10271000B10AAB1B972B0130A835A90DAA0DAB0D43
:10272000890B8C2B0130B0003008B107892B0130A8
:10273000B335B40DB50DB60D890B982B2B082F02B0
:10274000031DAC2B2A082E02031DAC2B29082D02D9
:10275000031DAC2B28082C02031CB72B2808AC0245
:102760002908AD3B2A08AE3B2B08AF3B33140130A0
:10277000AB36AA0CA90CA80C890BB82B0130B102FE
:10278000031D972B32080319D02BB309B409B509DF
:10279000B609B30A0319B40A0319B50A0319B60A2C
:1027A0003608AB003508AA003408A9003308A80091
:1027B00008002000AF0022005F082000A3002200D4
:1027C0005E082000A20022005D082000A100220077
:1027D0005C082000A000B530F5007508A500623047
:1027E000F5007508A6000530F5007508A700A801DA
:1027F000A80A0230F5007508A900AA012F08860072
:10280000023087000230423FAB002F0886000230C2
:1028100087000230433FAC00AD01AE010230F5004D
:102820007508B1003108253E860087012D08010793
:10283000F5007508AD002E082D07F5007508AE00EF
:102840000130F5007508B10708303102031C122C65
:10285000B0010A303002031C2F2C01300800200880
:1028600022005C02F5002000210822005D3BF600FA
:102870002000220822005E3BF700200023082200EF
:102880005F3BF8007808031D4E2C7708031D4E2C83
:10289000B93075020B30763B031C502C0030080019
:1028A000993148219331003A0319292C9931762125
:1028B0009331F50075082000A4003008253E8600FD
:1028C000870101082406031D282C0130F500750836
:1028D000B007292CA9007508093EF6007608A80063
:1028E000290A840085010008F60029088400850172
:1028F0002808193E8600013087000008C03F76088E
:10290000C13F2908023E860087010108F600280819
:102910001B3E860001308700760881002908033EAF
:10292000860087010108F600F701F61BF703F60E93
:10293000F70EF030F70576080F39F704F030F6059A
:102940007608A2007708A3002908043E86008701C4
:1029500001080F39F600F7017608A0007708A100FA
:1029600020082204F60021082304F70028081C3E52
:102970008600013087007608C03F7708C13F2908EC
:10298000053E860087010108F600F701F61BF703F4
:10299000F60EF70EF030F70576080F39F704F03031
:1029A000F6057608A6007708A7002908043E8600E9
:1029B00087010108F6000430F636890BDC2C760816
:1029C000F700F8017708A4007808A5002408260479
:1029D000F60025082704F70028081E3E860001306F
:1029E00087007608C03F7708C13F2908063E860069
:1029F00087010108F6002808203E86000130870084
:102A0000760881000800D3000B303602031C0C2D21
:102A10000A30B8003808B60037089A31BB22953121
:102A20002000B8003808D2005208031D9D2D53081D
:102A300003199D2D350803199D2D36080319982D6E
:102A40003508860087010108B8003808BB00370840
:102A5000023E860001308700010303194A2DD1018F
:102A60003608510203184A2D51085307B800380898
:102A70008600870101087F39B90051085307BA0061
:102A80003A0886008701390881000130B80038080B
:102A9000D107302D02303602031C692D3B30B800BF
:102AA0003808F5003508B9003908F6003608BA00CC
:102AB0003A08F70053089C31592495313608B8007C
:102AC000B901B835B90D3808FF3ECF00FF30393DA8
:102AD0006F2D3608B800B9013808CF003908D0008A
:102AE00037088600013087000130413FAA005308B3
:102AF000860087010108B8003808AB003B30B900F8
:102B00003908AC005008AE004F08AD003708053E4C
:102B1000860001308700413F8A00403F0A0095311E
:102B2000BA003A08D200520803199F2DFC30992DA3
:102B3000FD30B8003808D2009F2DD201D2035208D0
:102B40000800B8000030BC00A730BB00D830BA0085
:102B5000C030B90000302000D6000C30D700FE3065
:102B6000D800FF30D900FF30DA00FF30DB00FF3043
:102B7000DC00FF30DD005208213E86000130870076
:102B8000403FDE00413FDF00423FE000433FE100C5
:102B90005E08E2005F08E3006008E4006108E50009
:102BA0000030E51BFF30E600E700E800E9006208BE
:102BB000D6076308D73D6408D83D6508D93D660847
:102BC000DA3D6708DB3D6808DC3D6908DD3D5D08EE
:102BD0002100E40020005C082100E30020005B08E5
:102BE0002100E20020005A082100E10020005908DD
:102BF0002100E000200058082100DF0020005708D5
:102C00002100DE00200056082100DD0020005208CF
:102C1000103E860001308700403FD600413FD7007C
:102C20005608A0005708A100890D893B8909A20018
:102C3000A300A400A500A600A70021005D082000B5
:102C4000A80021005E082000A90021005F082000E4
:102C5000AA00210060082000AB00210061082000CC
:102C6000AC00210062082000AD00210063082000B4
:102C7000AE00210064082000AF009E31DF2620084E
:102C80008831332899318A2196318B176D30F500C0
:102C90001930F60099314D2196317630B60036085C
:102CA0002300A100A201A20AE830A3001C30A40066
:102CB000B630A5001F30A6005730A7001D30A80071
:102CC000A03091319E219631903183209631803110
:102CD0006E209631003A0319EC2E4B302200B600DC
:102CE00036082100EB00A0302200B7003708210091
:102CF000EC0007309031D520963138308600013015
:102D0000870010302200B60000301E00B60B852E62
:102D100050082000B50022004F082000B4003830D1
:102D2000B6000130B7009231052296313830AA0042
:102D30000130AB007C089931F2219631B430AA0001
:102D40009830AB007C089931F221963122004C0872
:102D50002000B50022004B082000B4003830B60037
:102D60000130B7009231052296313830AA00013087
:102D7000AB007C089931F22196310230A500003079
:102D8000A6007B309231722296312608B5002508C4
:102D9000B400D5302200B60036082000B6009131CC
:102DA00037219631D530AA000130AB007C0899312B
:102DB000F221963101302300D3070030D43D2200A8
:102DC0000C157B089C312C2496317C089C312C24DA
:102DD000963122000C11EF2E9B31D4239631220024
:102DE000C901CA0107302200B6007D30890BF62EDA
:102DF000B60BF62E01302200C9070030CA3D4A0842
:102E0000803AB60083303602031D082FE8304902AD
:102E10000318672EF22EC901383086000030870073
:102E2000473FF600F61F362F2000B809B909BA0946
:102E3000BB09BC09BD09BE09BF09B80A031D332F70
:102E4000B90A031D332FBA0A031D332FBB0A031D12
:102E5000332FBC0A031D332FBD0A031D332FBE0AB7
:102E6000031D332FBF0A2000C901C90A4030860064
:102E700000308700473FF600F61F622F2000C00990
:102E8000C109C209C309C409C509C609C709C00ADD
:102E9000031D5D2FC10A031D5D2FC20A031D5D2F97
:102EA000C30A031D5D2FC40A031D5D2FC50A031D40
:102EB0005D2FC60A031D5D2FC70A0130F600760894
:102EC0002000C9064A308600003087000830F6002E
:102ED00000301E00F60B692F2000380839043A0430
:102EE0003B043C043D043E043F040319CD2FC801BC
:102EF000C80ABF1B882FB835B90DBA0DBB0DBC0D64
:102F0000BD0DBE0DBF0D0130F6007608C807792F44
:102F1000CA35CB0DCC0DCD0DCE0DCF0DD00DD10DB5
:102F20003F084702031DAE2F3E084602031DAE2F89
:102F30003D084502031DAE2F3C084402031DAE2F81
:102F40003B084302031DAE2F3A084202031DAE2F79
:102F500039084102031DAE2F38084002031CC12F5F
:102F60003808C0023908C13B3A08C23B3B08C33BA2
:102F70003C08C43B3D08C53B3E08C63B3F08C73B39
:102F80004A14BF36BE0CBD0CBC0CBB0CBA0CB90C41
:102F9000B80C0130C802031D882F49080319EE2F11
:102FA000CA09CB09CC09CD09CE09CF09D009D1096D
:102FB000CA0A031DEE2FCB0A031DEE2FCC0A031DF8
:102FC000EE2FCD0A031DEE2FCE0A031DEE2FCF0AE2
:102FD000031DEE2FD00A031DEE2FD10A20004A0850
:102FE000B8004B08B9004C08BA004D08BB004E08A9
:102FF000BC004F08BD005008BE005108BF000800CB
:10300000243450345534423458342C34343430342D
:103010002C3452344D3443342C3430342C3430344A
:103020002C3430342C3430342A34343437340D34A6
:103030000A340034243450345534423458342C3457
:10304000343430342C344734533456342C34303404
:103050002C3430342C3430342C3430342A3435345D
:1030600039340D340A340034243450345534423465
:1030700058342C34343430342C34473447344134CD
:103080002C3430342C3430342C3430342C34303430
:103090002A34353441340D340A3400342434503465
:1030A0005534423458342C34343430342C3447348E
:1030B0004C344C342C3430342C3430342C343034C4
:1030C0002C3430342A34353443340D340A3400344B
:1030D000243450345534423458342C34343430345D
:1030E0002C344734533441342C3430342C34303481
:1030F0002C3430342C3430342A34343445340D34C8
:103100000A340034243450345534423458342C3486
:10311000343430342C345634543447342C34303432
:103120002C3430342C3430342C3430342A3435348C
:1031300045340D340A340034243450345534423488
:1031400058342C34303430342A34333433340D345E
:103150000A34003454344534533454340034503435
:0C31600055344234583400342C34003410
:10328600080068080319080044292000100E890C5C
:103296000139080076082200EE007508ED000800E6
:1032A600640080010131890B54290034FE001200AC
:1032B6001E00FE0B5A290034F500101E6029750801
:1032C60023009A0008006830210099009801220026
:1032D600960108000130DC070030DD3D0030DE3DA0
:1032E6000030DF3D0800901E762923009D1C7D29B5
:1032F6001D121D1619080800083023009F00903083
:103306009D0024309E0067309B009C0108009C3184
:10331600B52499319931662199319A312022993112
:103326009931DD21993199317F2108000B11220055
:103336006F082000950022006D086E04031908002E
:103346006E088A006D080A00993108000530F00001
:1033560070082200E6070130E702031DB729043092
:10336600F0007008E8000800E801E80A0800F60026
:1033760076080319C12922000C16C32922000C1253
:103386000D30F500FC30890BC629F50BC62908005F
:10339600F8007808053E8600023087007808043E6B
:1033A6008400023085000008083EF5000030013D2B
:1033B600F60008001508C039123895008330200041
:1033C60095008330F70077082200EF000B118B166B
:1033D6004330F5001930F60099314D210800F80008
:1033E6002B08A3002A08A2007808F5000330F6008F
:1033F6009A31072299317508AC007608AD00780835
:103406002C079A315722080076082000A10075087B
:10341600A000750884007608850012000319182A92
:103426000130F5070030F63D0C2A20002008750211
:10343600F5002108763BF60008006930F5007508AE
:10344600D8006930F5007508D700D9145910DB018A
:103456002400940128309500970103309200200043
:10346600901191112100901591150800F200240089
:10347600161522006508023E8600013087001600F8
:1034860001040319552A6508023E860001308700AB
:10349600403FF000413FF100700886007108870048
:1034A60072088100E8010800A9002308A700220885
:1034B600A6002908A4002408A800280886000330CE
:1034C6008700A80A2708A5002608A400A60A03194B
:1034D600A70A24088400250885000008C03F89083B
:1034E60003190800602AA2007808A1007708A00046
:1034F600A035A10D22088600013087002008C03FB4
:103506002108C13F7608A0002208023E860001304D
:103516008700200881002208033E860001308700CC
:103526007508C03F0030C13F0800F7002008FF3E85
:10353600F500FF30213DF60076082302031DA52A7B
:10354600750822020318B22A2408F5002208770714
:10355600F6007608860087017508810008002008B5
:103566007707F5007508FF3E860087018101080090
:10357600F80078080319DA2A7808033E8600013035
:103586008700160001040319DA2A7808053E86002A
:1035960001308700160001040319DA2A7808073E6D
:1035A60086000130870016000104031DDD2AF7019D
:1035B600F703DE2AF70177080800A601A70123080A
:1035C600F6002208F5009A3107229A317608A500FE
:1035D6007508A4002708803AF8002508803A780282
:1035E600031DF72A240826020318080020002608CF
:1035F600220786002708233D870081010130A607A0
:103606000030A73DED2A22005918262B2000260857
:10361600A1002508A0002708AB002B08A200290856
:10362600A4002808A300DB309B31A9239B31DB30A3
:10363600AB002B08F5002A08AC002C08F600013078
:103646009F312627080020002A088600870181016D
:10365600810A0800A900220059184E2B20002908CB
:10366600A7002708F5002308A8002808F600250863
:10367600F8002408F700E0309A3176229B31E030DA
:10368600A7002708F5002608A8002808F60001303C
:103696009F31262708002000260886008701810121
:1036A600810A0800A601A7012308F6002208F500F2
:1036B6009A3107229B317608A5007508A4002508D3
:1036C600803AF8002708803A7802031D6C2B2608FA
:1036D6002402031C08002000220826078400230871
:1036E600273D8500000899315F219B31013020007C
:1036F600A6070030A73D622B2000A300A401A50168
:1037060023089931CB219B317608A2007508A100C8
:103716002508803AA0002208803A2002031D952B36
:103726002108240203180800200024082307A0000B
:103736002008860002308700010899315F219B31FD
:1037460001302000A4070030A53D8B2BF70024088C
:10375600F6002308F500F535F60D770886000130EA
:1037660087007508C03F7608C13F7708860001309C
:103776008700013081044131003081042208F500C0
:103786007708023E860001308700750881007708B9
:10379600033E8600013087002008C03F2108C13F54
:1037A6000800F701F80122008E160230F6004530B7
:1037B600F500AA30890BDD2BF50BDD2BF60BDD2B87
:1037C60022008E120230F6004530F500AA30890B31
:1037D600EA2BF50BEA2BF60BEA2B0130F707003044
:1037E600F83D7808803AF50080307502031DFD2B00
:1037F6000330770203180800D62BB534623406343A
:10380600243424340034FF34FF34063403340034C3
:1038160000340034003410342734003400340534C6
:103826000034FA340034FA340034643400342C346E
:1038360001340034003400340034003400340034E1
:1038460000340034003400340034003400341634BC
:10385600DC342000A700A501A6012708F5000330E7
:10386600F6009A3107229C317608A4007508A30059
:103876002608803AF8002408803A7802031D452C71
:103886002308250203180800200025082707F8004A
:1038960078088600033087000108903102209C31A9
:1038A60001302000A5070030A63D3B2CA300A40153
:1038B600A40A770824020318080024082307A00096
:1038C6002008860087010108A10024357507A2009B
:1038D6002208FF3E8600870121088100240876071A
:1038E600A0002008860087010108A100243575077D
:1038F600A200220886008701210881000130A0006D
:103906002008A4075C2C0030F8000030F7000030D7
:10391600F6000030F500201C982C2408F507250831
:10392600F63D2608F73D2708F83D0130A435A50DDC
:10393600A60DA70D890B992C0130A336A20CA10C5C
:10394600A00C890BA02C2308220421042004031DAB
:103956008E2C7808A3007708A2007608A1007508C7
:10396600A000080022008C018D018E010330210089
:103976008C0070308D00DF308E004F3023008E00BB
:1039860080308D0003308C0024008D018C018E0167
:103996002100951725008C018D018E0137302600F8
:1039A6008C00F0308D00FF308E000D303C00A400FE
:1039B6000C30A10010303D009E0012309F001130E7
:1039C6009C000E303C00A0000800B701A301A30A2A
:1039D6002D08B300B4013308A4003408A50037301D
:1039E600B5003508A6002E309B312D239C312000D2
:1039F6003708031D182D3008A6002F08A50031082A
:103A0600B3003308A7002D08B400B5013408A80098
:103A16003508A9003730B6003608AA009B310623C0
:103A26009C312000370803191C2DFC30B3003308E5
:103A3600B70037080800DA00E030D4005408D9008F
:103A4600B630D4005408D7005A089A31BB229D31AB
:103A56002000D4005408D8005808031D552D5730AF
:103A6600D4005408B500B601B60A5A08D500550860
:103A7600B7005930953103259D31D6005608D80038
:103A86000030F8000030F7000030F6000230F50094
:103A96005A08073E860001308700413F8A00403FB2
:103AA6000A009D315808080022005F082000A70080
:103AB60022005E082000A60022005D082000A50066
:103AC60022005C082000A4002000240822005C02DA
:103AD6002000A000250822005D3B2000A10026084A
:103AE60022005E3B2000A200270822005F3B200048
:103AF600A30078082302031D8A2D77082202031DDE
:103B06008A2D76082102031D8A2D750820020318C6
:103B16000800C8300032890B8D2D672DAA00AD0133
:103B2600AE01AB01AC012C08803AA8002308803A0C
:103B36002802031DA02D22082B020318CA2D2000DF
:103B460024082D07840025082E3D85000008A800BE
:103B56002B082A07A90029088600870101082806DC
:103B6600031DC32D0130AD070030AE3D27082E06DC
:103B7600031DBF2D26082D06031DC52D0130080087
:103B8600AD01AE010130AB070030AC3D962D0030E3
:103B96000800BF003C089A31BB229D312000BD00C1
:103BA6003D08C0004008031D0C2E3C08023E86005E
:103BB6000130870001030319E52D3F088038BD0059
:103BC6003D08BF003C088600013087000130413FB8
:103BD600AD003F08BD003D08AE003908B00038080A
:103BE600AF003B08B2003A08B1003C08033E86002D
:103BF60001308700413F8A00403F0A009E31BE00E7
:103C06003E08C000400803190C2EFC30BD003D08DC
:103C1600C00040080800A201F81F182EF709F8098D
:103C2600F70A0319F80AA201A20AF61F1F2EF509C0
:103C3600F609F50A0319F60A750876040319462EDD
:103C4600A101A10AF61B312E0130F535F60D890BBF
:103C5600282E0130A0002008A107252E760878021C
:103C6600031D372E75087702031C3D2E7508F702D3
:103C76007608F83B0130F636F50C890B3E2E0130FE
:103C8600A102031D312E220803194E2EF709F80949
:103C9600F70A0319F80A7808F6007708F50008000D
:103CA600A70021082707F50075088600033087005E
:103CB6000108F6007608A5002008F5002108270768
:103CC600F60076088600033087007508810001300B
:103CD600A1070030A23D2208803AF5002408803A68
:103CE6007502031D782E2308210203180800200000
:103CF60021082707F50075088600033087000108AC
:103D0600F6007608A6002508F50021082707F60024
:103D16007608860003308700750881002608F500BE
:103D26007508A5002608031908006A2EB000B1011F
:103D3600B2012908F6002808F5009A3107229E31BB
:103D46007608AF007508AE003208803AF8002F08F2
:103D5600803A7802031DB12E2E083102031808009E
:103D660020002B08803AF8002D08803A7802031DBF
:103D7600BE2E2C082A020318080020002808310746
:103D860084002908323D85000008F8007808A00064
:103D960031082A07A10032082B3DA2002D08A400F5
:103DA6002C08A30030089E3153269E310130200096
:103DB600B1070030B23DA72E3030860000308700B4
:103DC6000830F50000301E00F50BE62E201CFB2EF9
:103DD6002808B0072908B13D2A08B23D2B08B33D93
:103DE6002C08B43D2D08B53D2E08B63D2F08B73D2D
:103DF600A835A90DAA0DAB0DAC0DAD0DAE0DAF0DD1
:103E0600A736A60CA50CA40CA30CA20CA10CA00C06
:103E1600200821042204230424042504260427045C
:103E2600031DE92E3008A0003108A1003208A200C7
:103E36003308A3003408A4003508A5003608A600F8
:103E46003708A7000800F800220059185D2F023035
:103E5600F700760886008701770881007508F70065
:103E6600570A860001308700770881007808F70036
:103E76005708860001308700770881005708023E00
:103E86008600013087007608C03F0030C13F04300D
:103E9600F7007708D70757086D3A031D562F693084
:103EA600F7007708D700D91058085706031D622F68
:103EB6005914622F7608860087018101810A7608E7
:103EC6008600870102300106031D0800993144214E
:103ED600200090150800DF00433086000030870080
:103EE6001A30C10000301E00C10B762F4330B800D7
:103EF6000030B9001A30BA000030BB005F08C100BC
:103F06004108BC0088309D31CC259F31C200420853
:103F1600DE005E08031DB42F5F08C1004108F500EE
:103F260043308631A0269F314330B8000030B900B7
:103F36000730BA000030BB005F08C1004108BC0072
:103F4600E1309D31CC259F31C2004208DE005E087B
:103F5600031DB42F5F08C1004108F50043309431BA
:103F66006A245E080800B4012B08AF002F08B300CE
:103F76003308AF00B0013008B2002B082F02B100A1
:103F8600031CB2032E083202031DCB2F2D0831026B
:103F96000318FE2FA301A30A2A08AF00B0012F08B9
:103FA600A4003008A5003430B1003108A600333033
:103FB6009B312D239F3120003408031DF72FA301C9
:103FC600A30A2A08AF00B0012F08A4003008A500F4
:103FD6003430B1003108A6002C089B312D239F31C7
:103FE600200034080319F92FFC3008000130AF0017
:0A3FF6002F08B307BB2F00300800AE
:020000040001F9
:06000E00FC3FFF3E9F3F96
:00000001FF
