:020000040000FA
:1000000080310D282034A0347E1480318B1A0B1DD2
:100010000B28993168217E10090080310F282200B9
:10002000803102208031ED00803103208031EE00EC
:100030008E3084009B308500A0308600023087001F
:100040002C309931272180312100EA01EB01EC01AC
:10005000ED01EE01583084000130850013309931F4
:1000600021218031A0308400013085004730993152
:1000700021218031203084000230850036309931D2
:1000800021218031203084000330850046309931B1
:1000900021218031A030840003308500493099311E
:1000A00021217E1020008031552899315C2180313A
:1000B00099313421803191319121803122006D08B4
:1000C000F5000330F6009A316C22803122006E0870
:1000D000F5000330F6009A316C2280314A3021005D
:1000E000E50065082000EA00B4302100E60066085B
:1000F0002000EB0007309031CC20803122006D08C9
:10010000F5000330F6009A316C22803122006E082F
:10011000F5000330F6009A316C22803136308600CB
:100120000130870010302100E50000301E00E50B93
:10013000962822004F082000AE0022004E08200022
:10014000AD003630AF000130B00093313B23803139
:1001500022006E08F0000330F1009931A2218031B5
:1001600071082200D7007008D60036302000A000A9
:100170000130A100220057082000A30022005608E9
:100180002000A2004630A4000030A50022006E0826
:100190009F315F27803121082200D70020002008EE
:1001A0002200D6002C302100E5006508F000220076
:1001B0005708F2005608F1004630F3000030F40012
:1001C0006E089131F921803171082200D700700842
:1001D000D6003630F5000130F6009A316C228031BD
:1001E00022004B082000AE0022004A082000AD008B
:1001F0003630AF000130B00093313B2380313630D0
:10020000A0000130A100220057082000A300220016
:1002100056082000A2004630A4000030A5002200AD
:100220006E089F315F27803121082200D70020000F
:1002300020082200D6005708C7005608C600AA307A
:100240002000A0009830A1000030A200A30046309A
:10025000A4000030A50022006D089F315F27803187
:1002600021082200D700200020082200D6003630C6
:10027000F5000130F6009A316C22803122006408CA
:100280002000AE00220063082000AD003630AF0031
:100290000130B00093313B2380313630A000013073
:1002A000A100220057082000A300220056082000C9
:1002B000A2004630A4000030A50022006D089F3146
:1002C0005F27803121082200D7002000200822006B
:1002D000D6002C302100E5006508F0002200570808
:1002E000F2005608F1004630F3000030F4006D08CB
:1002F0009131F921803102302000A0000030A100AE
:100300006D308731BA27803120082100E5002000B8
:1003100021082100E600E701E80168082000B0009C
:10032000210067082000AF00210066082000AE0011
:10033000210065082000AD0065302100E900690852
:100340002000B10094318B248031BA30A000983065
:10035000A1000030A200A3004630A4000030A50098
:1003600022006D089F315F2780312A302100E5008F
:100370006508F00022004708F2004608F100463008
:10038000F3000030F4006E089131F92180317108DA
:100390002200D7007008D60065302000A000013090
:1003A000A100220057082000A300220056082000C8
:1003B000A2004630A4000030A50022006E089F3144
:1003C0005F27803121082200D7002000200822006A
:1003D000D6000A302100E5006508F0002200570829
:1003E000F2005608F1004630F3000030F4006E08C9
:1003F0009131F921803171082200D7007008D600B0
:100400000130E3070030E43D0C156D089A31E3221A
:10041000803122006E089A31E322803122000C11D3
:10042000C801C90107302100E5007D30890B162A7B
:10043000E50B162A01302200C8070030C93D4908E3
:10044000803A2100E50083306502031D2A2AE83046
:100450002200480203186E28122ACC000030C70080
:100460000030C6002130C5003430C4002E0886009C
:1004700001308700403FB200413FB3003208B40072
:100480003308B500B601B7010130B435B50DB60D6E
:10049000B70D890B452A4C08043E860001308700C1
:1004A000403FB800413FB900423FBA00433FBB0064
:1004B0000330BB36BA0CB90CB80C890B592A340876
:1004C000B8023508B93B3608BA3B3708BB3B3B0896
:1004D000CB003A08CA003908C9003808C800003003
:1004E000A3000030A2000830A1000030A0002E08B8
:1004F000023E860001308700403FB200413FB3001A
:100500003208F0003308F100890D893B8909F200B7
:10051000F3004B08F7004A08F6004908F5004808C0
:10052000F4009C31142482317308A7007208A600DD
:100530007108A5007008A4009531052582312308B3
:10054000CB002208CA002108C9002008C8002E08D4
:10055000860001308700403FB200413FB3003208BF
:10056000B4003308B500B601B7014C08043E86005C
:1005700001308700403FB800413FB900423FBA0018
:10058000433FBB000430BB36BA0CB90CB80C890B26
:10059000C32A3408B8023508B93B3608BA3B3708D5
:1005A000BB3B3B08D0003A08CF003908CE003808E2
:1005B000CD000030A3000030A2001030A1000030B8
:1005C000A0005008F3004F08F2004E08F1004D085B
:1005D000F0005008F7004F08F6004E08F5004D08EF
:1005E000F4009C31142482317308A7007208A6001D
:1005F0007108A5007008A4009531052582312308F3
:10060000BF002208BE002108BD002008BC00003049
:10061000A3000030A2004030A1000030A0003F083D
:10062000F3003E08F2003D08F1003C08F0002E08FF
:10063000043E860001308700403FB200413FB300D6
:100640003208F4003308F500890D893B8909F6006A
:10065000F7009C31142482317308A7007208A600A9
:100660007108A5007008A400953105258231230882
:10067000D0002208CF002108CE002008CD00480875
:100680004D07B20049084E3DB3004A084F3DB40043
:100690004B08503DB5002E08213E860001308700F2
:1006A0003208C03F3308C13F3408C23F3508C33F5A
:1006B0000030A3000030A2000130A1000030A000F3
:1006C0008030B2000030B3000030B4000030B5001C
:1006D0002E08213E860001308700403FF000413F58
:1006E000F100423FF200433FF3000030F7000030DA
:1006F000F6000030F5000530F4009C3114248231FE
:100700007008B2077108B33D7208B43D7308B53D77
:100710003508A7003408A6003308A5003208A40055
:100720009531052582312308D4002208D300210801
:10073000D2002008D100D41FAF2B60305102F0301E
:10074000523BFF30533BFF30543B0318AF2BFF307D
:10075000D400FF30D300F030D2006030C42BD41B63
:10076000C52B5408031DBD2B5308031DBD2B35306D
:1007700051022130523B031CC52B0030D400003005
:10078000D3002130D2003430D1005408B1005308D6
:10079000B0005208AF005108AE000800AC002C08B1
:1007A0008600013087000108F100F201F301F40135
:1007B0000C30F135F20DF30DF40D890BD92B7408C3
:1007C000AB007308AA007208A9007108A8002C0ADF
:1007D0008600013087000108F100F201F301F40105
:1007E0000430F135F20DF30DF40D890BF12B740883
:1007F000A7007308A6007208A5007108A4002C08C1
:10080000023E8600013087000108F1000430F13615
:10081000890B072C7108F200F301F401F50175084A
:10082000A3007408A2007308A1007208A0002008A9
:10083000F1002108F2002208F3002308F400280840
:100840002404F50029082504F6002A082604F700E8
:100850002B082704F8007508F1047608F2047708DD
:10086000F3047808F40470088600013087007108EA
:10087000C03F7208C13F7308C23F7408C33F2C08D1
:10088000033E8600013087000108F100F201F30108
:10089000F4010C30F135F20DF30DF40D890B4A2CF7
:1008A0007408AB007308AA007208A9007108A800B8
:1008B0002C08043E8600013087000108F100F20197
:1008C000F301F4010430F135F20DF30DF40D890B51
:1008D000632C7408A7007308A6007208A5007108AD
:1008E000A4002C08053E8600013087000108F100B5
:1008F0000430F136890B792C7108F200F301F40110
:10090000F5017508A3007408A2007308A10072081D
:10091000A0002008F1002108F2002208F3002308BB
:10092000F40028082404F50029082504F6002A0804
:100930002604F7002B082704F8007508F104760850
:10094000F2047708F3047808F4047008043E860083
:10095000013087007108C03F7208C13F7308C23F71
:100960007408C33F2C08063E86000130870001084A
:10097000F100F201F301F4010830F135F20DF30D4D
:10098000F40D890BBD2C7408A7007308A60072082B
:10099000A5007108A4002C08073E860001308700DE
:1009A0000108F100F201F301F4017408AB007308CF
:1009B000AA007208A9007108A80028082404F10000
:1009C00029082504F2002A082604F3002B0827042E
:1009D000F4007008083E8600013087007108C03FAF
:1009E0007208C13F7308C23F7408C33F0800C101C9
:1009F0003030860000308700473FF900F91F222D74
:100A00002000B009B109B209B309B409B509B609A2
:100A1000B709B00A031D1F2DB10A031D1F2DB20A0D
:100A2000031D1F2DB30A031D1F2DB40A031D1F2D07
:100A3000B50A031D1F2DB60A031D1F2DB70A20007E
:100A4000C101C10A3830860000308700473FF900F5
:100A5000F91F4E2D2000B809B909BA09BB09BC0914
:100A6000BD09BE09BF09B80A031D492DB90A031DF6
:100A7000492DBA0A031D492DBB0A031D492DBC0A85
:100A8000031D492DBD0A031D492DBE0A031D492D15
:100A9000BF0A0130F90079082000C1064230860003
:100AA000003087000830F90000301E00F90B552D8A
:100AB0002000300831043204330434043504360491
:100AC00037040319B92DC001C00AB71B742DB03506
:100AD000B10DB20DB30DB40DB50DB60DB70D01309E
:100AE000F9007908C007652DC235C30DC40DC50DC9
:100AF000C60DC70DC80DC90D37083F02031D9A2D3D
:100B000036083E02031D9A2D35083D02031D9A2D1D
:100B100034083C02031D9A2D33083B02031D9A2D15
:100B200032083A02031D9A2D31083902031D9A2D0D
:100B300030083802031CAD2D3008B8023108B93B2B
:100B40003208BA3B3308BB3B3408BC3B3508BD3BDD
:100B50003608BE3B3708BF3B4214B736B60CB50C5F
:100B6000B40CB30CB20CB10CB00C0130C002031DBC
:100B7000742D41080319DA2DC209C309C409C50936
:100B8000C609C709C809C909C20A031DDA2DC30A63
:100B9000031DDA2DC40A031DDA2DC50A031DDA2D43
:100BA000C60A031DDA2DC70A031DDA2DC80A031D64
:100BB000DA2DC90A20004208B0004308B1004408F9
:100BC000B2004508B3004608B4004708B50048081D
:100BD000B6004908B7000800F3007008093EF100AC
:100BE0007108F200730A840085010008F10073089F
:100BF0008400850172088600013087000008C03F2C
:100C00007108C13F7308033E840085010008F100AC
:100C10007308023E840085017208023E860001309E
:100C200087000008C03F7108C13F7308053E84007B
:100C300085010008F1007308043E840085017208F4
:100C4000043E8600013087000008C03F7108C13FA4
:100C50007308073E840085010008F1007308063E12
:100C6000840085017208063E860001308700000876
:100C7000C03F7108C13F7308093E84008501000828
:100C8000F1007308083E840085017208083E860062
:100C9000013087000008C03F7108C13F73080B3E58
:100CA000840085010008F10073080A3E8400850174
:100CB00072080A3E8600013087000008C03F7108B4
:100CC000C13F73080D3E840085010008F1007308E0
:100CD0000C3E8400850172080C3E860001308700BE
:100CE0000008C03F7108C13F73080F3E84008501B2
:100CF0000008F10073080E3E8400850172080E3E64
:100D00008600013087000008C03F7108C13F7308AA
:100D1000113E840085010008F1007308103E840034
:100D200085017208103E8600013087000008C03F30
:100D30007108C13F7308133E840085010008F1006B
:100D40007308123E840085017208123E860001304D
:100D500087000008C03F7108C13F7308153E84003A
:100D600085010008F1007308143E840085017208B3
:100D7000143E8600013087000008C03F7108C13F63
:100D80007308173E840085010008F1007308163EC1
:100D9000840085017208163E860001308700000835
:100DA000C03F7108C13F7308193E860087010108E2
:100DB000F1007208183E860001308700710881003A
:100DC0000800B90190112400161421006D082200BA
:100DD000E20021006C082200E10021006B082200E3
:100DE000E00021006A082200DF00200090192B2F6C
:100DF00022005F0821006A022000B500220060087E
:100E000021006B3B2000B6002200610821006C3BF2
:100E10002000B7002200620821006D3B2000B800CE
:100E20003808031D1C2F3708031D1C2FB93035024D
:100E30000B30363B031CF52EC830A0000030A1005B
:100E4000C830A2000030A3000330B5003508A4006C
:100E50009B3138238631200090112F35903121208D
:100E600086312000300890312120863124009614EC
:100E700021006D082200E20021006C082200E10040
:100E800021006B082200E00021006A082200DF0038
:100E9000200090197E2F22005F0821006A022000A6
:100EA000B5002200600821006B3B2000B600220044
:100EB000610821006C3B2000B7002200620821007D
:100EC0006D3B2000B8003808031D6F2F3708031D45
:100ED0006F2FB93035020B30363B031C482FC8301A
:100EE000A0000030A100C830A2000030A3000330F1
:100EF000B5003508A4009B313823863120009011BD
:100F000003142F0D9031212086312000BA01BB013E
:100F100034083B02031D8E2F33083A020318B62F04
:100F20003308FF3EB500FF30343DB6003B083606BF
:100F3000031D9C2F3A083506031DA02F0130A12F59
:100F400000309631BD268631B5003A083107B6002B
:100F50003B08323DB7003608860037088700350861
:100F600081000130BA070030BB3D882F9E31C72673
:100F700039080800A600FF30A400FF30A500A70133
:100F8000A8012808803AA2002108803A2202031D05
:100F9000CB2F200827020318F92F20002708260747
:100FA000A20022088600013087000108F00003300B
:100FB000F1009931A22187317108F6007008F5001F
:100FC00020002508F8002408F70027082607A300BA
:100FD000230886000130870001089C31F124873105
:100FE0007608A5007508A4000130A7070030A83DC9
:100FF000C12F20002508A1002408A0000800080037
:10100400B0002D089A31472288312100AE002E0805
:10101400B2003208031D38282D08AE002E08200027
:10102400C500B1309B31632388312100AF002F0804
:10103400B2003208031D28283108031928282D0876
:101044009C31B5248831AE002E08B2003208031D4D
:1010540038282D08AE002E082000DA0021003008C0
:101064009C3143242100AF002F08B200320808004D
:101074002100C100200021082100C2002000220814
:101084002100C300200023082100C40020002408FC
:101094002100C500200025082100C60020002608E4
:1010A4002100C700200027082100C80041082000B3
:1010B400A000210042082000A100210043082000D4
:1010C400A200210044082000A300210045082000BC
:1010D400A400210046082000A500210047082000A4
:1010E400A600210048082000A70021005D08200078
:1010F400A80021005E082000A90021005F0820004C
:10110400AA00210060082000AB0021006108200033
:10111400AC00210062082000AD002100630820001B
:10112400AE00210064082000AF009E3138268831CB
:1011340020082100CD00200021082100CE0020003D
:1011440022082100CF00200023082100D000200025
:1011540024082100D100200025082100D20020000D
:1011640026082100D300200027082100D400CD3018
:10117400860000308700403F2000CA00413FCB007A
:10118400423FCC00433FCD00443FCE00453FCF001B
:10119400463FD000473FD1007A080E3E860001301A
:1011A4008700403FD200413FD3005208A0005308BB
:1011B400A100890D893B8909A200A300A400A50010
:1011C400A600A70021005D082000A80021005E08F9
:1011D4002000A90021005F082000AA002100600867
:1011E4002000AB00210061082000AC00210062084F
:1011F4002000AD00210063082000AE002100640837
:101204002000AF009E31382688312030860000301F
:101214008700403FD400413FD500423FD600433FC2
:10122400D700443FD800453FD900463FDA00473F46
:10123400DB0011302000D435D50DD60DD70DD80DD7
:10124400D90DDA0DDB0D890B1C2920005408CA07BF
:101254005508CB3D5608CC3D5708CD3D5808CE3DEA
:101264005908CF3D5A08D03D5B08D13D51082100B3
:10127400D400200050082100D30020004F08210092
:10128400D20020004E082100D10020004D0821008A
:10129400D00020004C082100CF0020004B08210082
:1012A400CE0020004A082100CD00CD308600003059
:1012B4008700403F2000CA00413FCB00423FCC00A2
:1012C400433FCD00443FCE00453FCF00463FD000D2
:1012D400473FD1007A080C3E860001308700403F2A
:1012E400D200413FD3005208D4005308D500003047
:1012F400D51BFF30D600D700D800D900DA00DB00B8
:1013040023302000D435D50DD60DD70DD80DD90DE9
:10131400DA0DDB0D890B832920005408CA07550810
:10132400CB3D5608CC3D5708CD3D5808CE3D590815
:10133400CF3D5A08D03D5B08D13D51082100D4006F
:10134400200050082100D30020004F082100D200C3
:1013540020004E082100D10020004D082100D000BB
:1013640020004C082100CF0020004B082100CE00B3
:1013740020004A082100CD007A080A3E8600013088
:101384008700403F2000CA00413FCB004A08A0002C
:101394004B08A100890D893B8909A200A300A40080
:1013A400A500A600A70021005D082000A8002100D8
:1013B4005E082000A90021005F082000AA00210087
:1013C40060082000AB00210061082000AC0021006F
:1013D40062082000AD00210063082000AE00210057
:1013E40064082000AF009E3138268831200821008F
:1013F400C100200021082100C20020002208210091
:10140400C300200023082100C40020002408210078
:10141400C500200025082100C60020002608210060
:10142400C700200027082100C8007A08083E86006B
:1014340001308700403F2000CA00413FCB004A08EA
:10144400A0004B08A100890D893B8909A200A300D3
:10145400A400A500A600A70021005D082000A800A4
:1014640021005E082000A90021005F082000AA00D6
:10147400210060082000AB00210061082000AC00BE
:10148400210062082000AD00210063082000AE00A6
:10149400210064082000AF009E31382688312030B6
:1014A400860000308700403FCC00413FCD00423FE2
:1014B400CE00433FCF00443FD000453FD100463FDC
:1014C400D200473FD3000C302000CC35CD0DCE0DDB
:1014D400CF0DD00DD10DD20DD30D890B662A00305E
:1014E4002000B7000030B6000030B5000030B40072
:1014F4000030B3000030B2000130B1000030B00061
:10150400210041082000A000210042082000A10081
:10151400210043082000A200210044082000A30069
:10152400210045082000A400210046082000A50051
:10153400210047082000A600210048082000A70039
:1015440021005D082000A80021005E082000A900F9
:1015540021005F082000AA00210060082000AB00E1
:10156400210061082000AC00210062082000AD00C9
:10157400210063082000AE00210064082000AF00B1
:101584009E31382688312008B8002108B900220885
:10159400BA002308BB002408BC002508BD002608A7
:1015A400BE002708BF008431F7248831303086001C
:1015B40000308700403FCC07413FCD3D423FCE3D08
:1015C400433FCF3D443FD03D453FD13D463FD23DD3
:1015D400473FD33D53082100E40020005208210076
:1015E400E300200051082100E200200050082100FF
:1015F400E10020004F082100E00020004E082100F7
:10160400DF0020004D082100DE0020004C082100EE
:10161400DD0000302000B7000030B6000030B50017
:101624000230B4000030B3000030B2000030B1002A
:101634000030B0000030CA000030CB000030CC00D5
:101644000030CD000030CE008030CF000030D0001C
:101654000030D100DD30860000308700403FCA07EB
:10166400413FCB3D423FCC3D433FCD3D443FCE3D4A
:10167400453FCF3D463FD03D473FD13D5108A700B0
:101684005008A6004F08A5004E08A4004D08A3006A
:101694004C08A2004B08A1004A08A0007A08063EA4
:1016A400860001308700403FA800413FA900AA01FD
:1016B400AB01AC01AD01AE01AF019E3138268831DA
:1016C4002008B8002108B9002208BA002308BB008A
:1016D4002408BC002508BD002608BE002708BF005A
:1016E4008431F724883130082100DD0020003108DE
:1016F4002100DE00200032082100DF002000330832
:101704002100E000200034082100E1002000350819
:101714002100E200200036082100E3002000370801
:101724002100E4005D085E045F0460046104620457
:10173400630464040319DE2F38088600013087002F
:10174400403F2000CA00413FCB00423FCC00433F12
:10175400CD000030CE000030CF001030D00000307B
:10176400D1004A08CE024B08CF3B4C08D03B4D0871
:10177400D13B4E08D2004F08D3005008D400510882
:10178400D500D601D701D801D90159082100DC00C0
:10179400200058082100DB00200057082100DA004F
:1017A400200056082100D900200055082100D80047
:1017B400200054082100D700200053082100D6003F
:1017C400200052082100D5005D082000B00021004F
:1017D4005E082000B10021005F082000B200210053
:1017E40060082000B300210061082000B40021003B
:1017F40062082000B500210063082000B600210023
:1018040064082000B700D530860000308700403FD0
:10181400CA00413FCB00423FCC00433FCD00443F90
:10182400CE00453FCF00463FD000473FD1001F3098
:101834002000CA35CB0DCC0DCD0DCE0DCF0DD00D66
:10184400D10D890B1A2C21004D082000CA02210059
:101854004E082000CB3B21004F082000CC3B210048
:1018640050082000CD3B210051082000CE3B210030
:1018740052082000CF3B210053082000D03B210018
:1018840054082000D13B5108A7005008A6004F0877
:10189400A5004E08A4004D08A3004C08A2004B0864
:1018A400A1004A08A0000030AF000030AE000030B4
:1018B400AD000030AC000030AB000030AA000C30AA
:1018C400A9003530A8009E31382688312008B80098
:1018D4002108B9002208BA002308BB002408BC0070
:1018E4002508BD002608BE002708BF008431F72460
:1018F400883130082100D500200031082100D600AD
:10190400200032082100D700200033082100D8002D
:10191400200034082100D900200035082100DA0015
:10192400200036082100DB00200037082100DC00FD
:101934007A08163E860001308700403F2000CA0026
:10194400413FCB004A08A0004B08A100890D893B08
:101954008909A200A300A400A500A600A7000030E6
:10196400B7000030B6000030B5000030B4000030DD
:10197400B3000030B2002030B1000030B0002100CC
:1019840055082000B800210056082000B9002100A5
:1019940057082000BA00210058082000BB0021008D
:1019A40059082000BC0021005A082000BD00210075
:1019B4005B082000BE0021005C082000BF008431C9
:1019C400F72488313008A8003108A9003208AA0099
:1019D4003308AB003408AC003508AD003608AE005F
:1019E4003708AF009E313826883120082100C10015
:1019F400200021082100C200200022082100C30089
:101A0400200023082100C400200024082100C50070
:101A1400200025082100C600200026082100C70058
:101A2400200027082100C80041082000A000210050
:101A340042082000A100210043082000A200210048
:101A440044082000A300210045082000A400210030
:101A540046082000A500210047082000A600210018
:101A640048082000A7000030B7000030B60000305E
:101A7400B5000030B4000030B3000030B2002030B4
:101A8400B1000030B000210055082000B80021004A
:101A940056082000B900210057082000BA00210090
:101AA40058082000BB00210059082000BC00210078
:101AB4005A082000BD0021005B082000BE00210060
:101AC4005C082000BF008431F72488313008A80066
:101AD4003108A9003208AA003308AB003408AC006E
:101AE4003508AD003608AE003708AF009E31382601
:101AF400883120082100A800200021082100A90025
:101B0400200022082100AA00200023082100AB00A5
:101B1400200024082100AC00200025082100AD008D
:101B2400200026082100AE00200027082100AF0075
:101B340000302000B7000030B6000030B50000309F
:101B4400B4000230B3000030B2000030B100003005
:101B5400B000210028082000B80021002908200036
:101B6400B90021002A082000BA0021002B08200017
:101B7400BB0021002C082000BC0021002D082000FF
:101B8400BD0021002E082000BE0021002F082000E7
:101B9400BF008431F724883130082100DD002000A3
:101BA40031082100DE00200032082100DF0020007F
:101BB40033082100E000200034082100E100200067
:101BC40035082100E200200036082100E30020004F
:101BD40037082100E40000302000B7000030B600D0
:101BE4000030B5000030B4000030B3000830B2005B
:101BF4000030B1000030B0007A08143E8600013095
:101C04008700403FCA00413FCB004A08A0004B0870
:101C1400A100890D893B8909A200A300A400A500A5
:101C2400A600A700210055082000A800210056089E
:101C34002000A900210057082000AA00210058080C
:101C44002000AB00210059082000AC0021005A08F4
:101C54002000AD0021005B082000AE0021005C08DC
:101C64002000AF009E31382688312008B8002108B2
:101C7400B9002208BA002308BB002408BC002508C8
:101C8400BD002608BE002708BF008431F724883130
:101C940030082100CD00200031082100CE002000B2
:101CA40032082100CF00200033082100D00020009A
:101CB40034082100D100200035082100D200200082
:101CC40036082100D300200037082100D4007A0808
:101CD400123E860001308700403F2000CA00413F89
:101CE400CB004A08CC004B08CD000030CD1BFF30A0
:101CF400CE00CF00D000D100D200D30004302000A9
:101D0400CC35CD0DCE0DCF0DD00DD10DD20DD30DC3
:101D1400890B812E00302000B7000030B60000305F
:101D2400B5000030B4000030B3000030B200013020
:101D3400B1000030B000CD30860000308700403F55
:101D4400D400413FD500423FD600433FD700443F33
:101D5400D800453FD900463FDA00473FDB00210069
:101D640055085D072000DC00210056085E3D200078
:101D7400DD00210057085F3D2000DE0021005808E7
:101D8400603D2000DF0021005908613D2000E00093
:101D940021005A08623D2000E10021005B08633DF8
:101DA4002000E20021005C08643D2000E3005C08A0
:101DB400D4075D08D53D5E08D63D5F08D73D600871
:101DC400D83D6108D93D6208DA3D6308DB3D5B0814
:101DD400BF005A08BE005908BD005808BC00570887
:101DE400BB005608BA005508B9005408B80084313D
:101DF400F72488313030860000308700403FCC071C
:101E0400413FCD3D423FCE3D433FCF3D443FD03D9A
:101E1400453FD13D463FD23D473FD33D5308210086
:101E2400DC00200052082100DB00200051082100C2
:101E3400DA00200050082100D90020004F082100BA
:101E4400D80020004E082100D70020004D082100B2
:101E5400D60020004C082100D50002302000B0003C
:101E6400B101B201B301B401B501B601B70121005A
:101E740055082000B800210056082000B9002100B0
:101E840057082000BA00210058082000BB00210098
:101E940059082000BC0021005A082000BD00210080
:101EA4005B082000BE0021005C082000BF008431D4
:101EB400F72488313008A0003108A1003208A200BC
:101EC4003308A3003408A4003508A5003608A6008A
:101ED4003708A7006430A800A901AA01AB01AC012E
:101EE400AD01AE01AF019E313826883120082100B2
:101EF400B000200021082100B100200022082100A8
:101F0400B200200023082100B3002000240821008F
:101F1400B400200025082100B50020002608210077
:101F2400B600200027082100B70080302000B00050
:101F3400B101B201B301B401B501B601B701210089
:101F440030082000B800210031082000B900210029
:101F540032082000BA00210033082000BB00210011
:101F640034082000BC00210035082000BD002100F9
:101F740036082000BE00210037082000BF0084314D
:101F8400F724883133082100CC00200032082100D6
:101F9400CB00200031082100CA00200030082100B5
:101FA400C9004C08031DE42FC0304902C6304A3B27
:101FB4002D304B3B0318E42F0030CC002D30CB00E8
:101FC400C630F42F4C08031DEF2FC1304902D8301E
:101FD4004A3BA7304B3B031CF72F0030CC00A73003
:101FE400CB00D830CA00C030C9004C08FD004B08F3
:0C1FF400FC004A08FB004908FA00080045
:102004009E31C7260800F500700886007108870015
:1020140041310108F2000530F235890B0E28E03019
:102024007205F30075088600870101081F397304DF
:10203400F400750886008701740881000800FD001B
:102044007D082400910021006D082200E200210097
:102054006C082200E10021006B082200E00021004E
:102064006A082200DF00200090196B2822005F0814
:1020740021006A022000AB002200600821006B3BB3
:102084002000AC002200610821006C3B2000AD0060
:102094002200620821006D3B2000AE002E08031DC3
:1020A4005C282D08031D5C28B9302B020B302C3B17
:1020B400031C3528C830A0000030A100C830A2009D
:1020C4000030A3000330AB002B08A4009B3138235D
:1020D4009031200090112400161F08000130903127
:1020E40002200800F30073088600870101080739FD
:1020F400F1007008023E86008701710881007308B0
:10210400023E860087010108F1000230F136890B96
:10211400882871080739F200700886008701720860
:1021240081007308023E860087010108F100053032
:10213400F136890B9A2871080739F200700A860073
:102144008701720881007308033E86008701010835
:10215400F1000230F136890BAC2871080739F2001E
:102164007008033E86008701720881007308033EED
:10217400860087010108F1000530F136890BBF287C
:1021840071080739F2007008043E8600870172085E
:10219400810008002200A80020308600013087005A
:1021A40008302000EC0000301E00EC0BD628A030D4
:1021B4008600013087002A308400013085000C300D
:1021C400EC0016001A00EC0BE3286B089A31472246
:1021D40090312000EC006C082200A9002908031D9E
:1021E400080020006A08031908002030BC000130F0
:1021F400BD000830BE000030BF006B08EC006C0866
:10220400C000F7309D316F259031ED006D0822003C
:10221400A9002908031D08002A302000EC006C08DE
:10222400F00020308331CE2390312A30EC006C084A
:10223400E4006A08ED006D08E5006B08093EEE0055
:102244006E08E600220028089331A8230800200025
:10225400E9000530E4006408E600E70169089A3102
:10226400472291312000E4006408E800680803195B
:1022740085298F296730BC000030BD000130BE00C5
:102284000030BF006908E4006408C000D0309D310C
:102294006F259131E5006508E8006808031D702981
:1022A40060306706031D70296708E400690886002A
:1022B400013087006408810069089C317A249131D7
:1022C400E4006408E8006808031D882969089E3151
:1022D4007F269131E4006408E80088290030F30087
:1022E4000030F2000030F1000130F0006908073ED0
:1022F400860001308700413F8A00403F0A00913147
:1023040001302000E6026608031D3C296608031D0F
:102314008F29FE30E4006408E80068080800993159
:102324007821913176302100B30033082300B500C1
:10233400B601B60AE130B7000630B8001730B9006C
:102344001430BA000D30BB001B30BC00B4309131E6
:10235400292191312100B3003308B6003608031D4A
:10236400E7292300E401E40A05302100B30033081F
:102374002300E20002302100B30033082300E3000D
:1023840004302100B30033082300E500E601E60A27
:102394002100B501B50AB51435153516B515B43097
:1023A400B3003308AD0035089231CE229131B430F8
:1023B400B3003308AD000330883102209131B400FA
:1023C4003408B600360803190800C8302000A000FD
:1023D4000030A100C830A2000030A3000330210067
:1023E400B30033082000A4009B3138230800F9000F
:1023F40071087907F5007508860003308700010825
:10240400F6007608F7007008F50071087907F60001
:102414007608860003308700750881007108790703
:10242400F500750A8600033087000108031D212A80
:102434007108013EF0000030723DF10008000130E7
:10244400F1070030F23D7208803AF5007408803AD2
:102454007502031D2F2A7308710203185D2A71087F
:102464007907F50075088600033087000108F60037
:102474007608F8007708F50071087907F600760801
:10248400860003308700750881007808F500750818
:10249400F7000130F1070030F23D7808031D252ACA
:1024A4007808F50071087907F6007608860003308D
:1024B4008700750881007108F0007208F1000800B7
:1024C4007A08F1007908F0009931A221923171085B
:1024D4002000AA007008A900AB01AC010230F00092
:1024E4000030F1002A08F3002908F2009F31AF27D9
:1024F40092317108A5007008A4002C08803AA0004D
:102504002508803A2002031D892A24082B02031877
:10251400C52A20002B08790786002C087A3D8700FD
:102524000108A0002008A6002B087902A0002C08AE
:102534007A3BA10029082007A2002A08213DA30014
:102544002208FF3EA700FF30233DA800270886008D
:10255400280887000108A0002B087907A1002C088F
:102564007A3DA20021088600220887002008810005
:102574002708860028088700260881000130AB0759
:102584000030AC3D7F2A20002908790786002A08FC
:102594007A3D870081010800B0002D089A31472256
:1025A40092312100AE002E08B2003208031D392BEF
:1025B4002D08AE002E082000C500B1309B316323E6
:1025C40092312100AF002F08B2003208031DF42A13
:1025D40031080319F42A2D089C31B5249231AE0038
:1025E4002E08B2003208031D392B3008AE002E0825
:1025F400F0000730993146219231003A0319172B24
:102604002D082E3E2000E4000130E50021002D08B5
:10261400AE002E082000E600210030089A319122F5
:1026240092312100AF002F08B2003208031D392B6C
:102634003008AE002E08F00018309931462192314E
:10264400003A0319392B2D082E3E2000DA00013000
:10265400DB0021002D08AE002E082000DC00210044
:1026640030089D31B1252100AF002F08B200320897
:102674000800B201B301AE1F412B0130422B0030E0
:10268400FB007B08B100310803194D2BAD09AE09DD
:10269400AD0A0319AE0A0A30F0000030F100200040
:1026A4002E08F3002D08F2009D31F32593317008B4
:1026B400303EFB0032082F07FC003308303DFD009C
:1026C4007C0886007D0887007B0881000130B20702
:1026D4000030B33D0A30F0000030F1002E08F30062
:1026E4002D08F2009F31AF2793317108AE007008B6
:1026F400AD002E08803AFB0080307B02031D842B42
:1027040001302D0203184D2B2000310803199A2B98
:1027140032082F07FB003308303DFC007B0886009D
:102724007C0887002D3081000130B2070030B33DB2
:1027340032082F0786003308303D870081013008B6
:10274400FA002F08F9009231622208002000E90003
:10275400E80164080319132C65080319132C66088F
:102764000319132C6508043E8600013087000030ED
:10277400C03F0030C13FC23FC33F650886000130FF
:1027840087000030C03FC13FC23FC33F6508083ED9
:102794008600013087000030C03F0030C13FC23F97
:1027A400C33F690807390319EC2B6608E70067087B
:1027B400AE00640882312D2293316508043E860000
:1027C400013087002E08C03F2F08C13F3008C23FA8
:1027D4003108C33F691C032C6608E7006708FA0048
:1027E400640897315E279331200065088600013024
:1027F40087007A08C03F7B08C13F7C08C23F7D0840
:10280400C33F691D152C6508083E8600013087000A
:10281400FF30C03FFF30C13F0030C23F0030C33FF4
:10282400152CE801E80368080800B8019011240099
:10283400161421006D082200E20021006C08220019
:10284400E10021006B082200E00021006A08220058
:10285400DF0020009019612C22005F0821006A0229
:102864002000B4002200600821006B3B2000B5006A
:102874002200610821006C3B2000B600220062089F
:1028840021006D3B2000B7003708031D522C360889
:10289400031D522CB93034020B30353B031C2B2C56
:1028A400C830A0000030A100C830A2000030A3004E
:1028B4000330B4003408A4009B3138239431200041
:1028C40090112F359031212094312000300890311F
:1028D400212094312000B901BA0133083A02031DC2
:1028E400752C320839020318872C39083107B400D3
:1028F4003408860087010108903121209431013089
:102904002000B9070030BA3D6F2C9E31C726380825
:1029140008000030BF000030BE000030BD000030B1
:10292400BC000F302D05B80000302E05B900003072
:102934002F05BA0000303005BB003B08031DB42C42
:102944003A08031DB42C3908031DB42C0A3038028C
:102954000318B42C0030B7000030B6000030B500C6
:102964003030BB2C0030B7000030B6000030B5006A
:102974003730B40034083807B2003C083107B300DC
:102984003308860001308700320881000130BC071B
:102994000030BD3D0030BE3D0030BF3D0430B03698
:1029A400AF0CAE0CAD0C890BD12C30082F042E04C7
:1029B4002D040319F12C932C3030B2003C0831075C
:1029C400B3003308860001308700320881000130EB
:1029D400BC070030BD3D0030BE3D0030BF3D3F0868
:1029E400031DFE2C3E08031DFE2C3D08031DFE2C7A
:1029F40004303C02031CDE2C3108F9000130FA00DB
:102A0400923162220800A901A31F152DA009A10972
:102A1400A209A309A00A0319A10A0319A20A031906
:102A2400A30AA901A90AA71F262DA409A509A60975
:102A3400A709A40A0319A50A0319A60A0319A70AD0
:102A44000130FC007C08A9060030AD000030AC0069
:102A54000030AB000030AA00230822042104200423
:102A640003196F2DA801A80AA31B442D0130A0351A
:102A7400A10DA20DA30D890B392D0130FC007C089A
:102A8400A807362D0130AA35AB0DAC0DAD0D890B61
:102A9400452D23082702031D592D22082602031D54
:102AA400592D21082502031D592D20082402031C39
:102AB400642D2008A4022108A53B2208A63B230874
:102AC400A73B2A140130A336A20CA10CA00C890B3D
:102AD400652D0130A802031D442D290803197D2DFD
:102AE400AA09AB09AC09AD09AA0A0319AB0A03196F
:102AF400AC0A0319AD0A2D08A3002C08A2002B0868
:102B0400A1002A08A0000800FD007008093EF10099
:102B14007108FC007D0A840085010008F1007D082D
:102B2400840085017C08193E860001308700000876
:102B3400C03F7108C13F7D08023E8600870101083D
:102B4400F1007C081B3E860001308700710881007B
:102B54007D08033E860087010108F100F201F11BA4
:102B6400F203F10EF20EF030F20571080F39F2049F
:102B7400F030F1057108F6007208F7007D08043E94
:102B84008600870101080F39F100F2017108F40091
:102B94007208F50074087604F10075087704F200F1
:102BA4007C081C3E8600013087007108C03F720813
:102BB400C13F7D08053E860087010108F100F2014E
:102BC400F11BF203F10EF20EF030F20571080F3929
:102BD400F204F030F1057108FA007208FB007D0878
:102BE400043E860087010108F1000430F136890BA8
:102BF400F82D7108F200F3017208F8007308F90067
:102C040078087A04F10079087B04F2007C081E3EFF
:102C14008600013087007108C03F7208C13F7D08FB
:102C2400063E860087010108F1007C08203E8600EC
:102C340001308700710881000800D9000B303C0284
:102C4400031C282E0A30BE003E08BC003D089A3101
:102C5400472296312000BE003E08D8005808031DC4
:102C6400B92E59080319B92E3B080319B92E3C088B
:102C74000319B42E3B08860087010108BE003E08F4
:102C8400C1003D08023E860001308700010303199C
:102C9400662ED7013C0857020318662E57085907B9
:102CA400BE003E088600870101087F39BF0057082F
:102CB4005907C0004008860087013F0881000130A1
:102CC400BE003E08D7074C2E02303C02031C852E62
:102CD4004130BE003E08F0003B08BF003F08F10051
:102CE4003C08C0004008F20059089B31BA239631D1
:102CF4003C08BE00BF01BE35BF0D3E08FF3ED500F7
:102D0400FF303F3D8B2E3C08BE00BF013E08D5007E
:102D14003F08D6003D088600013087000130413F5E
:102D2400AF005908860087010108BE003E08B000C4
:102D34004130BF003F08B1005608B3005508B20047
:102D44003D08053E860001308700413F8A00403F30
:102D54000A009631C0004008D80058080319BB2E59
:102D6400FC30B52EFD30BE003E08D800BB2ED80185
:102D7400D80358080800AB002400961521006D08FC
:102D84002200E20021006C082200E10021006B080F
:102D94002200E00021006A082200DF0020009019D0
:102DA400062F22005F0821006A022000A7002200EB
:102DB400600821006B3B2000A8002200610821006C
:102DC4006C3B2000A9002200620821006D3B20001A
:102DD400AA002A08031DF72E2908031DF72EB9306F
:102DE40027020B30283B031CD02EC830A000003033
:102DF400A100C830A2000030A3000330A7002708B8
:102E0400A4009B313823963120009011240011082E
:102E14002000A7002708AC002B0C2400031C9612EA
:102E240003189616161621006D082200E2002100F0
:102E34006C082200E10021006B082200E000210060
:102E44006A082200DF00200090195A2F22005F0830
:102E540021006A022000A7002200600821006B3BC9
:102E64002000A8002200610821006C3B2000A9007A
:102E74002200620821006D3B2000AA002A08031DDD
:102E84004C2F2908031D4C2FB93027020B30283B47
:102E9400031C252FC830A0000030A100C830A200B8
:102EA4000030A3000330A7002708A4009B31382377
:102EB400200090112C0808002100B8000030BC004C
:102EC400A730BB00D830BA00C030B90000302000B1
:102ED400CA000C30CB00FE30CC00FF30CD00FF30F8
:102EE400CE00FF30CF00FF30D000FF30D1007A0891
:102EF400213E860001308700403FD200413FD3008D
:102F0400423FD400433FD5005208D6005308D700AF
:102F14005408D8005508D9000030D91BFF30DA0016
:102F2400DB00DC00DD005608CA075708CB3D580813
:102F3400CC3D5908CD3D5A08CE3D5B08CF3D5C08D9
:102F4400D03D5D08D13D51082100E4002000500827
:102F54002100E30020004F082100E20020004E0879
:102F64002100E10020004D082100E00020004C0871
:102F74002100DF0020004B082100DE0020004A0869
:102F84002100DD007A08103E860001308700403FB2
:102F94002000CA00413FCB004A08A0004B08A10012
:102FA400890D893B8909A200A300A400A500A600FD
:102FB400A70021005D082000A80021005E08200071
:102FC400A90021005F082000AA0021006008200059
:102FD400AB00210061082000AC0021006208200041
:102FE400AD00210063082000AE0021006408200029
:102FF400AF009E313826200888313A2824345034D2
:103004005534423458342C34343430342C3452341F
:103014004D3443342C3430342C3430342C34303468
:103024002C3430342A34343437340D340A340034F4
:10303400243450345534423458342C3434343034F9
:103044002C344734533456342C3430342C34303408
:103054002C3430342C3430342A34353439340D346F
:103064000A340034243450345534423458342C3423
:10307400343430342C344734473441342C343034F1
:103084002C3430342C3430342C3430342A34353429
:1030940041340D340A340034243450345534423429
:1030A40058342C34343430342C3447344C344C3489
:1030B4002C3430342C3430342C3430342C343034FC
:1030C4002A34353443340D340A340034243450342F
:1030D4005534423458342C34343430342C3447345A
:1030E400533441342C3430342C3430342C34303494
:1030F4002C3430342A34343445340D340A34003416
:10310400243450345534423458342C343434303428
:103114002C345634543447342C3430342C34303436
:103124002C3430342C3430342A34353445340D3492
:103134000A340034243450345534423458342C3452
:10314400303430342A34333433340D340A340034D4
:1031540054344534533454342C34003454344534C6
:1031640053345434003450345534423458340034D5
:0631740024342434003471
:1032360071082200EC007008EB00080064008001B1
:103246000131890B22290034FE0012001E00FE0BFC
:10325600282900346830210099009801220096013F
:1032660008008B173C30F0001930F10099311B2112
:10327600080001302100EA070030EB3D0030EC3D4C
:103286000030ED3D0800F1007108700503194E2964
:10329600F201F20A4F29F2017208080008302300F1
:1032A6009F0090309D0024309E0067309B009C015B
:1032B60008009A31B922993199312D2199319931E4
:1032C6008C2199319931512108000B1121006F0889
:1032D6002000950022006B086C04031908006C0896
:1032E6008A006B080A00993108000E303C00A000E5
:1032F6000C30A10010303D009E0011309C00803043
:10330600240094002830950096014F3092009516BF
:10331600080021001508C0391238950083302000B6
:1033260095008330F20072082100EF000B118B1616
:10333600FF30F0000730F10099311B2108007108B9
:10334600F4007008F300700884007108850012000C
:103356000319B2290130F0070030F13DA6297308A0
:103366007002F0007408713BF1000800F10071086A
:103376000319C02922000C16C22922000C120D3096
:10338600F000FC30890BC529F00BC5290D30F00083
:10339600FC30890BCC29F00BCC290800F50070080D
:1033A6008600710887000108F2000230F235890BA9
:1033B600D9291C307205F3007508860087010108BB
:1033C600E3397304F40075088600870174088100E8
:1033D6000800F5007008860071088700433101086F
:1033E600F2000230F235890BF5291C307205F30024
:1033F6007508860087010108E3397304F40075082F
:1034060086008701740881000800F50070088600B0
:103416007108870044310108F2000530F235890B46
:10342600112AE0307205F30075088600870101084D
:103436001F397304F400750886008701740881003B
:103446000800EE006E08E4000030E5006B08EC00B2
:103456006C08E6001F309A3191229A31ED006D0812
:10346600EF006F08031D452A6E08DA000030DB0006
:103476006B08EC006C08DC001F309D31B125ED00B7
:103486006D08EF006F080800F30073080319662A39
:103496007308033E860001308700160001040319F5
:1034A600662A7308053E860001308700160001046F
:1034B6000319662A7308073E860001308700160046
:1034C6000104031D692AF201F2036A2AF201720855
:1034D6000800FA01FB017608F1007508F000993141
:1034E600A2219A317108F9007008F8007B08803A29
:1034F600F7007908803A7702031D832A78087A0252
:10350600031808007A08750786007B08763D870051
:1035160081010130FA070030FB3D792A2000EA00DC
:10352600E901E90A6A1DA52A6508DB006408DA00D4
:103536006608E7006708DC009F3111279A31E8002A
:103546006808E9006A0803390319B72A6508DB0029
:103556006408DA006608E7006708DC006A089D313F
:103566002E25E8006808E9006908080022008C0199
:103576008D018E01033021008C0070308D00DF300C
:103586008E004F3023008E0080308D0003308C007B
:1035960024008D018C018E012100951725008C01D8
:1035A6008D018E01373026008C00F0308D00FF3003
:1035B6008E000D303C00A40012303D009F00080034
:1035C600FB00F901FA017B08F0000330F1009931A4
:1035D600A2219A317108F8007008F7007A08803A3B
:1035E600F6007808803A7602031DFB2A77087902EE
:1035F6000318080079087B07F60076088600033072
:10360600870001089B31E7239A310130F907003022
:10361600FA3DF12A21006D08FB006C08FA006B08E0
:10362600F9006A08F800780821006A02F4007908AF
:103636006B3BF5007A086C3BF6007B086D3BF700A8
:1036460073087702031D312B72087602031D312B96
:1036560071087502031D312B7008740203180800E7
:10366600C8300032890B342B162BA501A60126087B
:10367600803AFC0080307C02031D432B240825027F
:103686000318080022008E1620002008F0002108EA
:10369600F100F201F3019B310D239B3122008E12C2
:1036A60020002208F0002308F100F201F3019B310B
:1036B6000D239B3101302000A5070030A63D3A2B93
:1036C600C90045089A3147229B312000C6004608AA
:1036D600C8004808031D8C2B4908BC000030BD00FB
:1036E6000130BE000030BF004508C6004608C000D5
:1036F600F4309D316F25C7004708C8004908860089
:10370600870101080339C600490886008701460873
:10371600810048080800B534623406342434243461
:103726000034FF34FF3406340334003400340034EC
:103736000034103427340034003405340034FA34AD
:103746000034FA340034643400342C340134003448
:1037560000340034003400340034003400340034C3
:10376600003400340034003400341634DC34F600FF
:10377600F701F70A72087702031808007708760738
:10378600F3007308860087010108F4007735700797
:10379600F5007508FF3E86008701740881007708EA
:1037A6007107F3007308860087010108F400773576
:1037B6007007F500750886008701740881000130DE
:1037C600F3007308F707BD2BF30000309931B921D8
:1037D6009B31F401F5017308F200740AF32BF236FB
:1037E600890BF22B721CF92B0130FA2B0030993120
:1037F600B9219B310130F4070030F53D7508803A58
:10380600F20080307202031D0A2C07307402031C7A
:10381600EE2B01309931B9219B3101309931B92113
:1038260008000030FB000030FA000030F9000030DC
:10383600F800701C262C7408F8077508F93D760800
:10384600FA3D7708FB3D0130F435F50DF60DF70D21
:10385600890B272C0130F336F20CF10CF00C890B96
:103866002E2C7308720471047004031D1C2C7B0833
:10387600F3007A08F2007908F1007808F0000800F1
:103886002000DE00F430DB005B08E0006130BC00A5
:103896000030BD000130BE000030BF005A08DB001A
:1038A6005B08C00060089D316F259C31DC005C0818
:1038B600DF005F08031D782C03305E05DB0061081E
:1038C600FC395B04DC005C08E1006130DB005B086E
:1038D600BB00BC01BC0A5A08DC005C08BD006030B5
:1038E60096311F26DD005D08DF005F080800200016
:1038F600E000E030DA005A08DF00B630DA005A0895
:10390600DD0060089A3147229C312000DA005A080F
:10391600DE005E08031DB22C5D30DA005A08BB00DB
:10392600BC01BC0A6008DB005B08BD005F30963155
:103936001F269C31DC005C08DE000030F3000030FE
:10394600F2000030F1000230F0006008073E860009
:1039560001308700413F8A00403F0A009C31200029
:103966005E080800A700A2302000BC000030BD00A1
:103976000430BE000030BF0021002708A000200848
:103986002000C000F2309D316F259C312100A1003E
:103996002108A6002608031DEF2CA830A000200849
:1039A600F000A230903174209C3127089C317A2493
:1039B6009C312100A0002008A6002608031DEF2C3C
:1039C6002708A00020082000EB00A8309A31242206
:1039D6002100A1002108A60026080800FC00FF30EF
:1039E600F507FF30F63D750A0319760A0319292DE6
:1039F6007C088600033087000108F900FA0179087F
:103A0600FA00F9017908F7067A08F8060130F90094
:103A16007908FC07FD01F81B142D7735F700780DA2
:103A26001F2D7808FA007708F900F935FA0D2130CC
:103A36007906F70010307A06F8000130F9007908A7
:103A4600FD0708307D020318F22C0E2D7808F600CB
:103A56007708F5000800E000F430DD005D08E200BC
:103A66006330BC000030BD000130BE000030BF0036
:103A76005C08DD005D08C00062089D316F259D3140
:103A8600DE005E08E1006108031D6D2D601C532DEC
:103A96005B08F1005A08F00063309931D1219D315D
:103AA600E01C5D2D5B08F1005A08F0006330903190
:103AB60005209D316330DD005D08BB00BC01BC0AFA
:103AC6005C08DE005E08BD00623096311F26DF000E
:103AD6005F08E10061080800C30040089A314722E8
:103AE6009D312000C1004108C4004408031DAF2DCC
:103AF6004008023E86000130870001030319882D25
:103B060043088038C1004108C300400886000130E0
:103B160087000130413FAF004308C1004108B000B3
:103B26003D08B2003C08B1003F08B4003E08B300AF
:103B36004008033E860001308700413F8A00403F2F
:103B46000A009D31C2004208C40044080319AF2D83
:103B5600FC30C1004108C400440808002000E00011
:103B6600F530DD005D08E2006330BC000030BD00CA
:103B76000130BE000030BF005C08DD005D08C000FB
:103B860062089D316F259D31DE005E08E100610807
:103B9600031DF12DE01DD72D5B08F1005A08F0003A
:103BA60063309931EC219D31601EE12D5B08F100F7
:103BB6005A08F00063309A3108229D316330DD00E7
:103BC6005D08BB00BC01BC0A5C08DE005E08BD00E7
:103BD600623096311F26DF005F08E10061080800A9
:103BE600F601F31FFD2DF209F309F20A0319F30A90
:103BF600F601F60AF11F042EF009F109F00A03197D
:103C0600F10A7008710403192B2EF501F50AF11B50
:103C1600162E0130F035F10D890B0D2E0130F40012
:103C26007408F5070A2E71087302031D1C2E70080E
:103C36007202031C222E7008F2027108F33B013057
:103C4600F136F00C890B232E0130F502031D162EDA
:103C560076080319332EF209F309F20A0319F30A57
:103C66007308F1007208F000080071308600003019
:103C760087000830F00000301E00F00B3F2E201C9D
:103C8600542E2808F1072908F23D2A08F33D2B088F
:103C9600F43D2C08F53D2D08F63D2E08F73D2F087E
:103CA600F83DA835A90DAA0DAB0DAC0DAD0DAE0DA9
:103CB600AF0DA736A60CA50CA40CA30CA20CA10C48
:103CC600A00C20082104220423042404250426042D
:103CD6002704031D422E7108A0007208A100730874
:103CE600A2007408A3007508A4007608A50077084A
:103CF600A6007808A7000800E300473086000030D9
:103D060087001A30C50000301E00C50B872E4730CD
:103D1600BC000030BD001A30BE000030BF00630892
:103D2600C5004508C00088309D316F259E31C6000C
:103D36004608E2006208031DC52E6308C500450853
:103D4600F00047308531EC259E314730BC0000300D
:103D5600BD000730BE000030BF006308C50045083F
:103D6600C000E1309D316F259E31C6004608E20055
:103D76006208031DC52E6308C5004508F0004730DC
:103D860095318625620808002400161521006D0865
:103D96002200E20021006C082200E10021006B08ED
:103DA6002200E00021006A082200DF0020009019AE
:103DB6000E2F22005F0821006A022000A7002200C1
:103DC600600821006B3B2000A8002200610821004A
:103DD6006C3B2000A9002200620821006D3B2000F8
:103DE600AA002A08031D002F2908031D002FB93039
:103DF60027020B30283B031CD92EC830A000003008
:103E0600A100C830A2000030A3000330A700270895
:103E1600A4009B313823200090110800F230DD0009
:103E26005D08E3005A0886005B08870042310108F6
:103E36000739DD005D08E0006030DD005D08BB008D
:103E4600BC01BC0A5C08DE005E08BD00633096312A
:103E56001F269F31DF005F08E2006208031D5D2F09
:103E6600F430DD005D08E3006130BC000030BD00C9
:103E76000130BE000030BF005C08DD005D08C000F8
:103E860063089D316F259F31DE005E08E2006208FF
:103E9600031D5D2F6130DD005D08BB00BC01BC0A5F
:103EA6005C08DE005E08BD00633096311F26DF0029
:103EB6005F08E200620808002000AA00A801A90124
:103EC6002108F1002008F0009931A2219F317108E4
:103ED6002000A7007008A6009D2F20002308803A26
:103EE600FA002508803A7A02031D7B2F2408220255
:103EF6000318A92F20002008280784002108293D3F
:103F060085000008FA007A08F0002308F20022086B
:103F1600F1002508F4002408F3002A089131F9215C
:103F26009F3101302000A2070030A33D0130A807D1
:103F36000030A93D2908803AFA002708803A7A021B
:103F4600031DA72F26082802031C702F2000230814
:103F5600A1002208A0000800F601F11FB92FF00900
:103F6600F109F00A0319F10AF601F60AF31FC42F44
:103F7600F209F309F20A0319F30A0130F40074088E
:103F8600F606F701F801700871040319F32FF5011D
:103F9600F50AF11BD82F0130F035F10D890BCF2F23
:103FA6000130F4007408F507CC2F0130F735F80D11
:103FB600890BD92F71087302031DE32F7008720253
:103FC600031CEA2F7008F2027108F33B77140130E4
:103FD600F136F00C890BEB2F0130F502031DD82FBB
:103FE60076080319FB2FF709F809F70A0319F80AE7
:0A3FF6007808F1007708F0000800D9
:020000040001F9
:06000E00FC3FFF3E9F3F96
:00000001FF
