:020000040000FA
:0400000080310D2816
:1000060008007E1480318B1A0B1D0B288C31DF24DF
:100016007E10090080310F28A53084008C308500C1
:10002600E53086000030870007308C319824803117
:100036003C3084008E308500A03086000230870078
:100046002C308C3198248031A0308400003085001B
:100056002B308C3192248031E630840001308500CB
:100066000A308C31922480312030840002308500A1
:100076004C308C3192247E1020008631E42E2000F4
:10008600BB003008C4003108C5003208C60033087A
:10009600C7003408C8003508C9003608CA00370842
:1000A600CB004430860000308700473FB800B81FB9
:1000B6005E2801305F2800302000B900BA013908F7
:1000C600C2003A08C3004208430403198828C40939
:1000D600C509C609C709C809C909CA09CB09C40A95
:1000E600031D8828C50A031D8828C60A031D8828FB
:1000F600C70A031D8828C80A031D8828C90A031DC4
:100106008828CA0A031D8828CB0A2100AD1B8F2820
:10011600FD30AE05FF30AF052D08803A2000B8004F
:1001260080303802031D9A28013021002C02031862
:10013600A22801302000BE000030BF00AA282100FE
:100146002D082000BF0021002C082000BE00210041
:100156002B082000C10021002A082000C000420808
:100166004304031DB92821002E1DBE28FF302000A0
:10017600C007FF30C13D1F302000CC000030CD004D
:100186002400BF01542920004408450446044704BE
:10019600480449044A044B04031DEB283F08803AEF
:1001A600B80080303802031DDA2801303E020318F9
:1001B600EB2820004108803AB80080303802031D41
:1001C600E62801304002031C60292100AE1C60298C
:1001D600FF302000CC07FF30CD3D0A30A000A10142
:1001E600A201A301A401A501A601A7014408A80034
:1001F6004508A9004608AA004708AB004808AC0015
:100206004908AD004A08AE004B08AF008431B0245F
:10021600803120002108F4002008F3008D313F25AD
:1002260080317308303E2000B8004C08203E86001E
:100236000230870038088100FF30BE07FF30BF3D1F
:10024600FF30C007FF30C13D0A30A000A101A20166
:10025600A301A401A501A601A7014408A800450819
:10026600A9004608AA004708AB004808AC004908A0
:10027600AD004A08AE004B08AF008331BD23803184
:1002860020002008C4002108C5002208C600230853
:10029600C7002408C8002508C9002608CA00270880
:1002A600CB0020004D08803AB80080303802031D8C
:1002B6005E2901304C020318C62820004208430478
:1002C600031D682921002E1D8029FF302000CC0740
:1002D600FF30CD3D42084304031D73292B3074299A
:1002E6002D30BC000030BD003C08B8004C08203E54
:1002F6008600023087003808810020004C08203E26
:10030600B8003808A4004108A6004008A5003B082C
:100316008F31592720002508B1002408B0000800B5
:100326002000AD0122008E16210027082000A30020
:10033600210026082000A200210025082000A10097
:10034600210024082000A000AE01AF01A901AA01E6
:1003560020002D08031D8A2A200821002402F0000F
:10036600200021082100253BF10020002208210061
:10037600263BF200200023082100273BF3007308E8
:10038600031D8A2A7208031D8A2AB93070020B30AF
:10039600713B03188A2A8C31BE248131243A031D0D
:1003A600AB298C31BE248131F00070082000B000EA
:1003B600A801A80AFA290130A9070030AA3DAE0112
:1003C600AF010A2A2A08803AF00080307002031D25
:1003D600EE290E302902031CF2290130F3290030E0
:1003E600F10071082000AD000A2AA8010A2A300887
:1003F600F000F1017108003A0319022AF829700881
:100406000A3A0319E529263A0319DE29F8292808A4
:1004160003195F2AAB293008F0002E08B13E5A2A8C
:100426003008F0002E08513E412A4E30300603199E
:100436001E2A2D301F2A2B30A4000030A5002408C8
:10044600F00070082400D000842A3008F0002E083E
:10045600413E412A453030060319332A2D30342ACD
:100466002B30A6000030A7002608F00070082400F4
:10047600C000842A3008F0002E08603E8600023054
:100486004F2A3008F0002E08A03E5A2A3008F00005
:100496002E08E83E8600013087005C2A3008F0000E
:1004A6002E08C33E5A2A3008F0002E08BB3E8600AE
:1004B600870170088100842A2A08003A0319642AF1
:1004C600842A2908023A03190E2A013A0319132A23
:1004D600073A0319182A013A0319282A033A031975
:1004E6002D2A013A03193D2A0F3A0319442A033AE1
:1004F6000319492A073A0319512A013A0319562AB8
:10050600842A01302000AE070030AF3DAB29200021
:100516002D08031DBA2AAB01AC010230F1004530AB
:10052600F000AA30890B952AF00B952AF10B952A33
:1005360022008E120230F1004530F000AA30890BFD
:10054600A22AF00BA22AF10BA22A22008E16013053
:100556002000AB070030AC3D2C08803AF00080301C
:100566007002031DB82A04302B02031C902A2200B5
:100576008E1208002000DF004E0886008701403FEB
:10058600D000413FD1005008840051088500120078
:10059600253A031D9A2B4E088600870101308107F4
:1005A60041310318810A2100AA01AB01AE01AF0156
:1005B600FF30AC00FF30AD0020004E0886008701FA
:1005C600403FD000413FD1005008840051088500CB
:1005D6001200643A0319FE2A4E0886008701403F3E
:1005E600D000413FD1005008840051088500120018
:1005F600693A031D382B4E088600870101308107B2
:1006060041310318810A4F088600870101088400DA
:10061600850102308107003FD000013FD10050081C
:10062600D5005108D600890D893B8909D700D80025
:10063600D900DA00DB00DC005508B0005608B1002E
:100646005708B2005808B3005908B4005A08B50054
:100656005B08B6005C08B7005F08803142202000C6
:100666003108CF003008CE0008004E08860087010A
:10067600403FD000413FD10050088400510885001A
:100686001200733A031D682B4E088600870101305D
:10069600810741310318810A4F0886008701010846
:1006A6008400850102308107003FDD00013FDE0046
:1006B6005E08FB005D08FA005F0885318C257B0823
:1006C6002000CF007A08CE0008004E088600870179
:1006D600403FD000413FD1005008840051088500BA
:1006E6001200253A031D8F2B4E0886008701013024
:1006F600810741310318810A2530F2000030F300EA
:100706005F08D0005008F4008E31C6260130200064
:10071600CE000030CF0008004E0886008701013069
:10072600810741310318810ACE01CF0108004E0826
:1007360086008701403FD000413FD1005008840029
:10074600510885000008D200D3015208F200530870
:10075600F3005F08D4005408F4008E31C6268231B7
:1007660020004E08860087010130810741310318B9
:10077600810A892BF2012030860000308700473F2E
:10078600F000F01FE72B2000A009A109A209A30988
:10079600A409A509A609A709A00A031DE52BA10A14
:1007A600031DE52BA20A031DE52BA30A031DE52B5A
:1007B600A40A031DE52BA50A031DE52BA60A031DA6
:1007C600E52BA70AF201F20A2830860000308700DE
:1007D600473FF000F01F122C2000A809A909AA091A
:1007E600AB09AC09AD09AE09AF09A80A031D0E2C69
:1007F600A90A031D0E2CAA0A031D0E2CAB0A031D03
:100806000E2CAC0A031D0E2CAD0A031D0E2CAE0ACF
:10081600031D0E2CAF0A0130F0007008F20673308B
:100826008600003087000830F00000301E00F00B14
:10083600192C200020082104220423042404250462
:100846002604270403197D2CF101F10AA71B382C75
:10085600A035A10DA20DA30DA40DA50DA60DA70DE6
:100866000130F0007008F107292CF335F40DF50D71
:10087600F60DF70DF80DF90DFA0D27082F02031DD9
:100886005E2C26082E02031D5E2C25082D02031D54
:100896005E2C24082C02031D5E2C23082B02031D4C
:1008A6005E2C22082A02031D5E2C21082902031D44
:1008B6005E2C20082802031C712C2008A80221089F
:1008C600A93B2208AA3B2308AB3B2408AC3B2508DE
:1008D600AD3B2608AE3B2708AF3B7314A736A60CE4
:1008E600A50CA40CA30CA20CA10CA00C0130F102C7
:1008F600031D382C720803199E2CF309F409F50917
:10090600F609F709F809F909FA09F30A031D9E2CF5
:10091600F40A031D9E2CF50A031D9E2CF60A031DE0
:100926009E2CF70A031D9E2CF80A031D9E2CF90A1D
:10093600031D9E2CFA0A73082000A0007408A1006B
:100946007508A2007608A3007708A4007808A50019
:100956007908A6007A08A7000800F2012830860068
:1009660000308700473FF000F01FDA2C2000A8096E
:10097600A909AA09AB09AC09AD09AE09AF09A80ACC
:10098600031DD82CA90A031DD82CAA0A031DD82C8E
:10099600AB0A031DD82CAC0A031DD82CAD0A031DC7
:1009A600D82CAE0A031DD82CAF0AF201F20A203069
:1009B600860000308700473FF000F01F012D200021
:1009C600A009A109A209A309A409A509A609A709BD
:1009D600A00A031D012DA10A031D012DA20A031D54
:1009E600012DA30A031D012DA40A031D012DA50A2D
:1009F600031D012DA60A031D012DA70A20002008AC
:100A060021042204230424042504260427040319AC
:100A1600592DF101F10AA71B1D2DA035A10DA20D1F
:100A2600A30DA40DA50DA60DA70D0130F0007008AD
:100A3600F1070E2D27082F02031D3B2D26082E0237
:100A4600031D3B2D25082D02031D3B2D24082C02DA
:100A5600031D3B2D23082B02031D3B2D22082A02D2
:100A6600031D3B2D21082902031D3B2D20082802CA
:100A7600031C4D2D2008A8022108A93B2208AA3BE9
:100A86002308AB3B2408AC3B2508AD3B2608AE3B10
:100A96002708AF3BA736A60CA50CA40CA30CA20CEA
:100AA600A10CA00C0130F102031D1D2D72080319C3
:100AB6007A2DA809A909AA09AB09AC09AD09AE099D
:100AC600AF09A80A031D7A2DA90A031D7A2DAA0AC1
:100AD600031D7A2DAB0A031D7A2DAC0A031D7A2D50
:100AE600AD0A031D7A2DAE0A031D7A2DAF0A20002A
:100AF6002808A0002908A1002A08A2002B08A300A4
:100B06002C08A4002D08A5002E08A6002F08A70073
:100B160008002000AE00E530860000308700233054
:100B26008400003085000730A00016001A00A00BD4
:100B3600982D7B08B0007A08AF002F083004031DFB
:100B4600A82D2330AF000030B0003008F1002F0888
:100B5600F0008D312825853171082000B400700819
:100B6600B30021002D082000B20021002C0820002F
:100B7600B100B21BCF2D3208803AA0003408803A6B
:100B86002002031DC82D330831020318CF2D200083
:100B96003208B4003108B30020003408B20033082C
:100BA600B10021002B082000AD0021002A082000FA
:100BB600AC0021002E1CF12DFE2D2030F20000305D
:100BC600F30020002E08A0002008F4008E31C6266F
:100BD600853101302000B3070030B43D20003408D1
:100BE600803AA0002D08803A2002031DFC2D2C0817
:100BF6003302031CE02D2000AA01AB012B08803A2A
:100C0600A0003208803A2002031D0B2E31082A026A
:100C160003182A2E20002F088600300887000108B6
:100C2600A000A1012008F2002108F3002E08A2006E
:100C36002208F4008E31C626853101302000AF0728
:100C46000030B03D0130AA070030AB3D012E210037
:100C56002E183F2E4C2E2030F2000030F3002000DC
:100C66002E08A0002008F4008E31C62685310130FA
:100C76002000B3070030B43D20003408803AA000BD
:100C86002D08803A2002031D4A2E2C083302031C2D
:100C96002E2E20003408FB003308FA00080020003E
:100CA600AF00210027082000A3002100260820000D
:100CB600A200210025082000A10021002408200010
:100CC600A000B530F0007008A5006230F000700892
:100CD600A6000530F0007008A700A801A80A023097
:100CE600F0007008A900AA012F08860002308700CC
:100CF6000230423FAB002F088600023087000230E8
:100D0600433FAC00AD01AE010230F0007008B10007
:100D16003108253E860087012D080107F00070087E
:100D2600AD002E082D07F0007008AE000130F0006F
:100D36007008B10708303102031C8B2EB0010A304F
:100D460020003002031CA92E0130080020082100D3
:100D56002402F000200021082100253BF10020009C
:100D660022082100263BF200200023082100273B11
:100D7600F3007308031DC82E7208031DC82EB93070
:100D860070020B30713B031CCA2E003008008C31F8
:100D960082248631003A0319A22E8C31BE24863174
:100DA600F00070082000A4003008253E8600870168
:100DB60001082406031DA12E0130F0007008B007BB
:100DC600A22E8C31D32486318B17B430F0000C3030
:100DD600F1008C318C2486318F31AC27863121008D
:100DE600E301E401A030DE005E08E3002030DE000F
:100DF6005E08E400DF01E0018131932186319C30F9
:100E06002100CB009030CC006008CE005F08CD00FA
:100E1600B130CF000030D0005030D1000230D200C7
:100E26004030D3000230D40063088D31E525863189
:100E3600B3302100CB009030CC006030CD000230C2
:100E4600CE00E830CF000130D000C330D1000030F2
:100E5600D200BB30D3000030D40064088D31E525C4
:100E6600863101302100DF070030E03D0230F80016
:100E76000030F900E3308731712786317908200088
:100E8600AA007808A900210064088F310C27863152
:100E9600210063088E3110268631210064088E31C8
:100EA600102686312100E101E20107302100DE0033
:100EB6007D30890B5C2FDE0B5C2F01302100E107B2
:100EC6000030E23D6208803ADE0083305E02031D98
:100ED6006E2FE83061020318FF2E582F2000A00065
:100EE600FF30A500FF30A600A701A8012808803A18
:100EF600FA007908803A7A02031D832F78082702C0
:100F06000318CB2F200027082007FA007A0886004E
:100F160087010108FB007B08A2000230A300003015
:100F2600A4002208F000FF39031D0130F1008D31C5
:100F360028258731710820002402031DA42F70087C
:100F460023020318C62F23082207FA007A08860010
:100F5600013087000108FB007B08A1002608F1008C
:100F66002508F0002108FA007A08F2008E3195264D
:100F7600873171082000A6007008A5000130A3077C
:100F86000030A43D942F0130A7070030A83D792FEB
:100F960020002608F9002508F80008002000E500D2
:100FA6006108E7006008E6002100A801A901200009
:100FB600660884006708850012000319F72F66305B
:100FC600E3006308CE006208E4006408CF00650809
:100FD6008231BD22873120004E082100A80720005B
:100FE6004F082100A93DDA2F210029082000E10041
:0A0FF600210028082000E000080098
:101904002000100E890C01390800F10071088C3197
:10191400AC24080071082100ED007008EC000800F8
:10192400640080010131890B932C0034FE00120005
:101934001E00FE0B992C0034683021009900980198
:1019440022009601080028346E3475346C346C34EB
:1019540029340034F0002000101EAD2C7008230040
:101964009A00080001302100A4070030A53D003092
:10197400A63D0030A73D08002000901EBE2C230089
:101984009D1CC62C1D121D161908080008302300C2
:101994009F0090309D0024309E0067309B009C0186
:1019A40008008D31BB258C318C319E248C318D31D6
:1019B40012258C318C31C82408000B1121006E08CB
:1019C4002000950021006C086D04031908006D08BF
:1019D4008A006C080A008C3108006A302000EA0092
:1019E4006A08ED006908E1006808E0006D30EA006B
:1019F4006A08E20000308731D1270800F300730839
:101A0400053E8600023087007308043E84000230DD
:101A140085000008083EF0000030013DF100080098
:101A240021001508C0391238950083302000950034
:101A34008330F20072082100EE000B118B16033084
:101A4400F0000030F1008C318C2408007108F300A0
:101A54007008F200700886007108870001080319F5
:101A6400382D0130F0070030F13D2C2D7208700242
:101A7400F0007308713BF10008007408803AF50027
:101A840080307502031D482D0130730203180800CD
:101A94007309F5007409F600F50A0319F60A7508C6
:101AA400F3007608F4000800F100710803195D2DB5
:101AB40022000C165F2D22000C120D30F000FC30B9
:101AC400890B622DF00B622D0D30F000FC30890B78
:101AD400692DF00B692D08002000A300A101A201CB
:101AE40021082307FB007B088600023087000108D9
:101AF400FC007C08A0002008031908002008FB0053
:101B0400FC017B08F2007C08F3007A08FD007D08E4
:101B1400F4008E31C6268D3101302000A10700303B
:101B2400A23D722DF700F801F90177088D310025E7
:101B34008D317108F6007008F5007908803AF400D8
:101B44007608803A7402031DA92D750878020318DB
:101B5400080078087707F4007408860002308700CC
:101B640001088C31AC248D310130F8070030F93D87
:101B74009F2D22008C018D018E01073021008C00E5
:101B840070308D00DF308E004F3023008E00B03077
:101B94008D0007308C0024008D018C018E01210002
:101BA400951725008C018D018E01373026008C009D
:101BB400F0308D00FF308E000E303C00A400123057
:101BC4003D009F0008002100D800CD302000E8002F
:101BD40068082100D70058082000E80068082100A0
:101BE400D900DA01DB01DC01DD014C082000E10051
:101BF40021004B082000E000D730E8006808E2002C
:101C0400D9308731D12721005A0858072000E8002D
:101C1400680886000130870081010800FB00F90193
:101C2400FA017B08F000FF39031D0130F1008D310A
:101C340028258E317108F8007008F7007A08803A78
:101C4400F6007808803A7602031D2A2E7708790276
:101C54000318080079087B07F6007608860001302F
:101C6400870001088E3168268E310130F907003073
:101C7400FA3D202EB534623406342434243400343E
:101C8400FF34FF34063403340034003400340034A9
:101C9400103427340034003405340034FA3400346A
:101CA400FA340034643400342C3401340034003405
:101CB4000034003400340034003400340034003480
:101CC40000340034003400341634DC34F3000030C3
:101CD4008D3156258E31F401F5017308F200740A32
:101CE400742EF236890B732E721C7A2E01307B2EE1
:101CF40000308D3156258E310130F4070030F53D2A
:101D04007508803AF20080307202031D8B2E073072
:101D14007402031C6F2E01308D3156258E31013033
:101D24008D31562508007208F300F4017308F4009D
:101D3400F30170087306F00071087406F100F601EF
:101D4400F701F11FB22E7108F4007008F300F335A7
:101D5400F40D21307306F00010307406F100B72E34
:101D64000130F035F10D890BB32E0130F607003048
:101D7400F73D7708803AF300803073020830031986
:101D8400760203180800A32E7408031D7408031DAB
:101D9400CF2E72088C31872408007408033E860015
:101DA4008701160001040319F22E7408033E86000D
:101DB4008701403FF500413FF600740A8600870121
:101DC400403FF700413FF8007808803AF900760870
:101DD400803A7902031DF02E750877020318080073
:101DE4007208F500740886008701740A840085016E
:101DF40000080107F60076088600013087007508A0
:101E04008100740A8600870101308107413103187B
:101E1400810A08002000AD002D08F000FF39031DE1
:101E24000130F1008D3128258F3171082000AC007C
:101E34007008AB002C08803AFC0080307C02031D43
:101E4400252F45302B02031C2C2F44302000AB00DF
:101E54000030AC0020002A08FC002B082D07FD00F0
:101E64007D088600013087007C0881002908FC0079
:101E74002B082D07FD007D0A8600013087007C08B1
:101E840081000A30FC002B082D07FD007D08023E6E
:101E94008600013087007C0881002B082D07FC0098
:101EA4007C08033E86000130870081010800200081
:101EB400AC0021002E1C672F20002C08A700270847
:101EC400FA0024088D316E258F312000A61B6F2F58
:101ED4002608AB002508AA00712FAA01AB01A801AE
:101EE400A9012908803AA7002B08803A2702031D7C
:101EF4007D2F2A0828020318912F2030F200003089
:101F0400F30020002C08A7002708F4008E31C62611
:101F14008F3101302000A8070030A93D732F210024
:101F24002E189D2F20002C08A7002708FA0024084B
:101F34008D316E258F3120002408F0000230F1002D
:101F44008D31282520002A087007A4002B08713D34
:101F5400A500080021003008031DCF2F22008C1299
:101F6400A0308D3194258F31A030863152268F31A7
:101F74002000EE006E082100B00022008C16033011
:101F84002000EF008A30EE005530890BC72FEE0B8E
:101F9400C72FEF0BC72F0032AC2FB0014E302000FB
:101FA400E8009030E9008C31EF248F3100302000BC
:101FB400E8009030E9008C31EF248F31823020002A
:101FC400E8009030E9008C31EF248F313430200068
:101FD400E8009030E9008C31EF248F316830200024
:101FE400E8009030E9008C31EF248F311A30200062
:101FF400E8009030E9008C31EF2408002434503498
:102004005534423458342C34343430342C3447343A
:10201400473441342C3430342C3430342C34303480
:102024002C3430342A34343434340D340A34003407
:10203400243450345534423458342C343434303409
:102044002C3452344D3443342C3430342C34303426
:102054002C3430342C3430342A34343437340D3482
:102064000A340034243450345534423458342C3433
:10207400343430342C344734533456342C343034E0
:102084002C3430342C3430342C3430342A34353439
:1020940039340D340A340034243450345534423441
:1020A40058342C34343430342C3447344C344C3499
:1020B4002C3430342C3430342C3430342C3430340C
:1020C4002A34353443340D340A340034243450343F
:1020D4005534423458342C34343430342C3447346A
:1020E400533441342C3430342C3430342C343034A4
:1020F4002C3430342A34343445340D340A34003426
:10210400243450345534423458342C343434303438
:102114002C345634543447342C3430342C34303446
:102124002C3430342C3430342A34353445340D34A2
:102134000A340034243424344834413442346E3470
:102144006F34763461342C34253464342C3425349F
:1021540073342C34253473342C34253473342C34B4
:102164000034253473342C34253473342C3425341E
:1021740073342C34253473342A340034E83403346F
:0821840032340034053400344C
:020000040001F9
:06000E00FC3FFF3E9F3F96
:00000001FF
