:020000040000FA
:040000008031122811
:1000060008007E1480310B1F10282100101C1028B8
:100016002000101C10288731F3277E10090080313C
:1000260014286F3084008C308500E2308600003062
:10003600870007308C31622480310F3084008E3087
:100046008500A0308600023087002C308C31622477
:100056008031FA01FB01A030840000308500253094
:100066008C315C248031E6308400013085000A3012
:100076008C315C24803120308400023085004C3085
:100086008C315C247E1020008631D82E2000C500DD
:100096003A08CE003B08CF003C08D0003D08D1000E
:1000A6003E08D2003F08D3004008D4004108D500DE
:1000B6004E30860000308700473FC200C21F6528C9
:1000C6000130662800302000C300C4014308CC007C
:1000D6004408CD004C084D0403198F28CE09CF09DA
:1000E600D009D109D209D309D409D509CE0A031DED
:1000F6008F28CF0A031D8F28D00A031D8F28D10A07
:10010600031D8F28D20A031D8F28D30A031D8F28AB
:10011600D40A031D8F28D50A2100A91B9628FD3075
:10012600FA05FF30FB052908803A2000C20080301E
:100136004202031DA1280130210028020318A92824
:1001460001302000C8000030C900B128210029086C
:100156002000C900210028082000C8002100270827
:100166002000CB00210026082000CA004C084D04C0
:10017600031DBF287A1DC328FF30CA07FF30CB3DB9
:100186001F30D6000030D7002400BF0156292000BA
:100196004E084F04500451045204530454045504A9
:1001A600031DED284908803AC20080304202031D33
:1001B600DE28013048020318ED2820004B08803A5B
:1001C600C20080304202031DEA2801304A020318A9
:1001D600FA1C6229FF302000D607FF30D73D0A30CF
:1001E600A000A101A201A301A401A501A601A701E6
:1001F6004E08A8004F08A9005008AA005108AB00F5
:100206005208AC005308AD005408AE005508AF00C4
:100216008431AE24803120002108F6002008F50044
:100226008D31022580317508303E2000C200560807
:10023600203E86000230870042088100FF30C80752
:10024600FF30C93DFF30CA07FF30CB3D0A30A00062
:10025600A101A201A301A401A501A601A7014E08BF
:10026600A8004F08A9005008AA005108AB00520880
:10027600AC005308AD005408AE005508AF008331FA
:10028600B823803120002008CE002108CF002208A4
:10029600D0002308D1002408D2002508D300260860
:1002A600D4002708D50020005708803AC2008030C5
:1002B6004202031D6029013056020318CA28200095
:1002C6004C084D04031D69297A1D8029FF30D60785
:1002D600FF30D73D4C084D04031D73292B3074297C
:1002E6002D30C6000030C7004608C2005608203E22
:1002F600860002308700420881005608203EC20070
:100306004208AA004B08AC004A08AB0045088F31EA
:100316005E2720002B08BB002A08BA000800200030
:10032600B50122008E168D314C25813172082000D0
:10033600A8007308A900AA01AB01B601B701B10173
:10034600B20120003508031D822A8D314C258131EA
:1003560072082000A4007308A500A601A7012808BA
:10036600A4022908A53B2A08A63B2B08A73B270879
:10037600031D822A2608031D822AB93024020B3067
:10038600253B0318822A8C314C248131003A03190B
:10039600A4298C317E2481312000A4002408B800D1
:1003A600B001B00AF2290130B1070030B23DB60102
:1003B600B701022A3208803AA40080302402031DC5
:1003C600E6290E303102031CEA290130EB29003000
:1003D6002000A5002508B500022AB001022A380827
:1003E600A400A5012508003A0319FA29F0292408D2
:1003F6000A3A0319DD29263A0319D629F0293008C5
:100406000319572AA4293808A4003608AB3E522AF5
:100416003808A4003608513E392A4E3038060319EA
:10042600162A2D30172A2B30AC000030AD002C08D0
:10043600A40024082400D0007C2A3808A40036082A
:10044600413E392A4530380603192B2A2D302C2AED
:100456002B30AE000030AF002E08A4002408240084
:10046600C0007C2A3808A4003608603E86000230A8
:10047600472A3808A4003608A03E522A3808A400A5
:100486003608E83E860001308700542A3808A40062
:100496003608BD3E522A3808A4003608B53E860006
:1004A6008701240881007C2A3208003A03195C2A55
:1004B6007C2A3108023A0319062A013A03190B2A43
:1004C600073A0319102A013A0319202A033A031995
:1004D600252A013A0319352A0F3A03193C2A033A09
:1004E6000319412A073A0319492A013A03194E2AE0
:1004F6007C2A01302000B6070030B73DA429350814
:10050600031DB52AB301B40102302000A500453011
:10051600A400A930890B8D2AA40B8D2AA50B8D2A40
:10052600003222008E1202302000A5004530A400C1
:10053600A930890B9C2AA40B9C2AA50B9C2A003265
:1005460022008E1601302000B3070030B43D340877
:10055600803AA40080302402031DB32A04303302FB
:10056600031C872A22008E1208002000E900580882
:1005760086008701403FDA00413FDB005A088400CD
:100586005B0885001200253A031D952B5808860046
:1005960087010130810741310318810A2100A60134
:1005A600A701FA01FB01FF30A800FF30A9002000D7
:1005B600580886008701403FDA00413FDB005A08B1
:1005C60084005B0885001200643A0319F92A58086A
:1005D60086008701403FDA00413FDB005A0884006D
:1005E6005B0885001200693A031D332B5808860004
:1005F60087010130810741310318810A59088600B5
:10060600870101088400850102308107003FDA0076
:10061600013FDB005A08DF005B08E000890D893BDB
:100626008909E100E200E300E400E500E6005F0876
:10063600BA006008BB006108BC006208BD00630820
:10064600BE006408BF006508C0006608C1006908EE
:100656008031492020003B08D9003A08D80008001C
:10066600580886008701403FDA00413FDB005A0800
:1006760084005B0885001200733A031D632B58083B
:10068600860087010130810741310318810A590824
:100696008600870101088400850102308107003F3A
:1006A600E700013FE8006808A6006708A50069089A
:1006B60085318A2520002608D9002508D80008009B
:1006C600580886008701403FDA00413FDB005A08A0
:1006D60084005B0885001200253A031D8A2B580802
:1006E600860087010130810741310318810A2530D0
:1006F600F4000030F5006908DA005A08F6008E3179
:10070600C92601302000D8000030D900080058085A
:10071600860087010130810741310318810AD8011B
:10072600D9010800580886008701403FDA00413F9A
:10073600DB005A0884005B0885000008DC00DD0148
:100746005C08F4005D08F5006908DE005E08F60046
:100756008E31C92682312000580886008701013073
:10076600810741310318810A842B2000B101203012
:10077600860000308700473FF200F21FE42B20007E
:10078600A009A109A209A309A409A509A609A709FF
:10079600A00A031DE12BA10A031DE12BA20A031DDA
:1007A600E12BA30A031DE12BA40A031DE12BA50AD5
:1007B600031DE12BA60A031DE12BA70A2000B101A8
:1007C600B10A2830860000308700473FF200F21F4A
:1007D600102C2000A809A909AA09AB09AC09AD0982
:1007E600AE09AF09A80A031D0B2CA90A031D0B2C81
:1007F600AA0A031D0B2CAB0A031D0B2CAC0A031D06
:100806000B2CAD0A031D0B2CAE0A031D0B2CAF0AD5
:100816000130F20072082000B10632308600003046
:1008260087000830F20000301E00F20B172C200063
:100836002008210422042304240425042604270472
:1008460003197B2CB001B00AA71B362CA035A10DCD
:10085600A20DA30DA40DA50DA60DA70D0130F20046
:100866007208B007272CB235B30DB40DB50DB60D11
:10087600B70DB80DB90D27082F02031D5C2C2608ED
:100886002E02031D5C2C25082D02031D5C2C24085A
:100896002C02031D5C2C23082B02031D5C2C220852
:1008A6002A02031D5C2C21082902031D5C2C20084A
:1008B6002802031C6F2C2008A8022108A93B220845
:1008C600AA3B2308AB3B2408AC3B2508AD3B2608D6
:1008D600AE3B2708AF3B3214A736A60CA50CA40CDA
:1008E600A30CA20CA10CA00C0130B002031D362CE7
:1008F600310803199C2CB209B309B409B509B60924
:10090600B709B809B909B20A031D9C2CB30A031D1D
:100916009C2CB40A031D9C2CB50A031D9C2CB60AFC
:10092600031D9C2CB70A031D9C2CB80A031D9C2C86
:10093600B90A20003208A0003308A1003408A2003A
:100946003508A3003608A4003708A5003808A60015
:100956003908A7000800F401283086000030870017
:10096600473FF200F21FD82C2000A809A909AA09BE
:10097600AB09AC09AD09AE09AF09A80A031DD62C0F
:10098600A90A031DD62CAA0A031DD62CAB0A031DE1
:10099600D62CAC0A031DD62CAD0A031DD62CAE0AE6
:1009A600031DD62CAF0AF401F40A2030860000306D
:1009B6008700473FF200F21FFF2C2000A009A10983
:1009C600A209A309A409A509A609A709A00A031D46
:1009D600FF2CA10A031DFF2CA20A031DFF2CA30A4C
:1009E600031DFF2CA40A031DFF2CA50A031DFF2CC3
:1009F600A60A031DFF2CA70A2000200821042204B2
:100A0600230424042504260427040319572DF3017F
:100A1600F30AA71B1B2DA035A10DA20DA30DA40D36
:100A2600A50DA60DA70D0130F2007208F3070C2DD7
:100A360027082F02031D392D26082E02031D392DE6
:100A460025082D02031D392D24082C02031D392DDE
:100A560023082B02031D392D22082A02031D392DD6
:100A660021082902031D392D20082802031C4B2DBD
:100A76002008A8022108A93B2208AA3B2308AB3B71
:100A86002408AC3B2508AD3B2608AE3B2708AF3B08
:100A9600A736A60CA50CA40CA30CA20CA10CA00CAA
:100AA6000130F302031D1B2D74080319782DA809C4
:100AB600A909AA09AB09AC09AD09AE09AF09A80A8B
:100AC600031D782DA90A031D782DAA0A031D782D6A
:100AD600AB0A031D782DAC0A031D782DAD0A031D44
:100AE600782DAE0A031D782DAF0A20002808A00035
:100AF6002908A1002A08A2002B08A3002C08A4009C
:100B06002D08A5002E08A6002F08A7000800200023
:100B1600B200E230860000308700273084000030C3
:100B260085000730F70016001A00F70B962D2608E9
:100B3600B4002508B30033083404031DA62D27305E
:100B4600B3000030B4003408F3003308F2008C31EF
:100B5600EB24853173082000B8007208B700210025
:100B660029082000B600210028082000B500B61B81
:100B7600CD2D3608803AF7003808803A7702031DF3
:100B8600C62D370835020318CD2D20003608B800CB
:100B96003508B70020003808B6003708B500210030
:100BA60027082000B100210026082000B0007A1C8A
:100BB600EE2DFA2D2030F4000030F500200032082A
:100BC600F7007708F6008E31C926853101302000FE
:100BD600B7070030B83D3808803AF7003108803A48
:100BE6007702031DF82D30083702031CDD2D200087
:100BF600AE01AF012F08803AF7003608803A770237
:100C0600031D072E35082E020318262E2000330852
:100C16008600340887000108F700F8017708F40019
:100C26007808F5003208F9007908F6008E31C926F1
:100C3600853101302000B3070030B43D0130AE07E6
:100C46000030AF3DFD2D7A183A2E472E2030F400A5
:100C56000030F50020003208F7007708F6008E31E4
:100C6600C926853101302000B7070030B83D200085
:100C76003808803AF7003108803A7702031D452E7E
:100C860030083702031C292E20003808A600370832
:100C9600A50008002000B7008D314C25863172086A
:100CA6002000A8007308A900AA01AB01B530A40072
:100CB6002408AD006230A4002408AE000530A4006C
:100CC6002408AF00B001B00A0230A4002408B10025
:100CD600B20137088600023087000230423FB30077
:100CE60037088600023087000230433FB400B50162
:100CF600B6010230A4002408B90039082D3E86004A
:100D0600870135080107A4002408B5003608350711
:100D1600A4002408B6000130A4002408B90708304E
:100D26003902031C802EB8010A3020003802031C49
:100D36009E2E013008008D314C2586317208200028
:100D4600A4007308A500A601A7012808A402290883
:100D5600A53B2A08A63B2B08A73B2708031DBC2E4C
:100D66002608031DBC2EB93024020B30253B031C7C
:100D7600BE2E003008008C314C248631003A03190F
:100D8600972E8C317E2486312000A4002408AC00E6
:100D960038082D3E8600870101082C06031D962E75
:100DA6000130A4002408B807972E8C31A924863177
:100DB6008C319E2486318F31AE2786312100E001A9
:100DC600E101A030DB005B08E0002030DB005B08BF
:100DD600E100DC01DD018131922186319C30210068
:100DE600C8009030C9005D08CB005C08CA00AB3073
:100DF600CC000030CD005030CE000230CF00403065
:100E0600D0000230D10060088D31E4258631B33040
:100E16002100C8009030C9006030CA000230CB0003
:100E2600E830CC000130CD00BD30CE000030CF0020
:100E3600B530D0000030D10061088D31E42586310F
:100E460001302100DC070030DD3D02302000A0002B
:100E56000030A100E030873161278631200021086B
:100E6600AE002008AD00210061088F3111278631C0
:100E7600210060088E3168268631210061088E3196
:100E8600682686312100DE01DF0107302100DB0004
:100E96007D30890B4C2FDB0B4C2F01302100DE07F8
:100EA6000030DF3D5F08803ADB0083305B02031DC4
:100EB6005E2FE8305E020318EE2E482F2000A400B5
:100EC600FF30A900FF30AA00AB01AC012C08803A24
:100ED600A2002108803A2202031D732F20082B024C
:100EE6000318BB2F20002B082407A2002208860027
:100EF60087010108A3002308A6000230A7000030DE
:100F0600A8002608F200FF39031D0130F3008C31DA
:100F1600EB248731730820002802031D942F7208E2
:100F260027020318B62F27082607A20022088600E4
:100F3600013087000108A3002308A5002A08F30052
:100F46002908F2002508A2002208F4008E3198260E
:100F5600873173082000AA007208A9000130A7078C
:100F66000030A83D842F0130AB070030AC3D692F1F
:100F760020002A08A1002908A00008002100C500B9
:100F860020006B082100C70020006A082100C60067
:100F9600A401A5014608840047088500120003192C
:100FA600EB2FC6302000ED006D08D8006C08EE006F
:100FB6006E08D900210045088231B8228731200009
:100FC60058082100A407200059082100A53DCD2F6F
:100FD60025082000EB00210024082000EA00080074
:100FE6002000101021006C08F1006B08F0008C3115
:0A0FF600B52487318C3188240800EF
:101892002000181408002000100E890C01390800DD
:1018A200F30073088C317624080073082100EA00E3
:1018B2007208E9000800640080010131890B5D2C87
:1018C2000034FE0012001E00FE0B632C0034683050
:1018D20021009900980122009601080028346E34F4
:1018E20075346C346C3429340034F2002000101E3C
:1018F200772C720823009A0008002000901E7E2C8C
:1019020023009D1C862C1D121D161908080021009B
:1019120069086A04031908006A088A0069080A004B
:101922008C310800083023009F0090309D00243045
:101932009E0067309B009C010800200010102100CF
:1019420010140B178B17200018148C31492408002F
:101952008D318F258C318C3168248C318D3131253C
:101962008C318C31932408002000181DBF2C1810D4
:101972007108970070089600181408007108970003
:10198200700896000800F5007508053E86000230D2
:1019920087007508043E8400023085000008083E76
:1019A200F2000030013DF3000800CA302000EF00D1
:1019B2006F082100CC0049082000EB0021004808F4
:1019C2002000EA00CC30EF006F08EC0000308731D5
:1019D200C12708007308F5007208F4007208860037
:1019E2007308870001080319FB2C0130F20700304D
:1019F200F33DEF2C74087202F2007508733BF3009A
:101A020008007608803AF70080307702031D0B2D1C
:101A120001307502031808007509F7007609F8000D
:101A2200F70A0319F80A7708F5007808F6000800A3
:101A3200F30073080319202D22000C16222D220018
:101A42000C120D30F200FC30890B252DF20B252DE6
:101A52000D30F200FC30890B2C2DF20B2C2D0800DE
:101A620020009901FF3097000630960017082100E8
:101A7200EC00200016082100EB00200010102100CD
:101A820010140330F2000030F3008C315624213060
:101A920020009800080020001608F4007408A30033
:101AA2001708F4007408A2002308F400F5012208C4
:101AB200F600F7017608F700F60174087604A00034
:101AC20075087704A1002108F3002008F20008003D
:101AD2002000A900A701A80127082907F700770815
:101AE2008600023087000108F8007808A600260860
:101AF200031908002608F700F8017708F4007808AF
:101B0200F5002508F9007908F6008E31C9268D31D5
:101B120001302000A7070030A83D6D2D22008C0166
:101B22008D018E01073021008C0070308D00DF3076
:101B32008E004F3023008E00B0308D0007308C00B5
:101B420024008D018C018E012100951725008C0146
:101B52008D018E01373026008C00F0308D00FF3071
:101B62008E000E303C00A40012303D009F000800A1
:101B72002000A200A301A40122088C31C4248D31CB
:101B820073082000A1007208A0002408803AF60021
:101B92002108803A7602031DD02D20082302031863
:101BA2000800200023082207F6007608860002308B
:101BB200870001088C3176248D3101302000A30783
:101BC2000030A43DC62D2100D500CA302000EF0010
:101BD2006F082100D40055082000EF006F08210093
:101BE200D600D701D801D901DA0149082000EB005B
:101BF200210048082000EA00D430EF006F08EC0012
:101C0200D6308731C1272100570855072000EF0041
:101C12006F0886000130870081010800B534623404
:101C22000634243424340034FF34FF3406340334BD
:101C320000340034003400341034273400340034CB
:101C420005340034FA340034FA3400346434003495
:101C52002C340134003400340034003400340034B5
:101C620000340034003400340034003400340034D2
:101C72001634DC34F50000308D3119258E31F60131
:101C8200F7017508F400760A472EF436890B462EC2
:101C9200741C4D2E01304E2E00308D3119258E319F
:101CA2000130F6070030F73D7708803AF4008030C3
:101CB2007402031D5E2E07307602031C422E013091
:101CC2008D3119258E3101308D3119250800200002
:101CD200A400A201A3012408F200FF39031D013070
:101CE200F3008C31EB248E3173082000A1007208BE
:101CF200A0002308803AF8002108803A7802031DE8
:101D0200842E20082202031808002000220824073B
:101D1200F800780886000130870001088E313B26E2
:101D22008E3101302000A2070030A33D7A2E7408C4
:101D3200F500F6017508F600F50172087506F20065
:101D420073087606F300F801F901F31FB52E730844
:101D5200F6007208F500F535F60D21307506F20031
:101D620010307606F300BA2E0130F235F30D890BEE
:101D7200B62E0130F8070030F93D7908803AF500B7
:101D82008030750208300319780203180800A62E65
:101D92007608031D7608031DD22E74088C31512457
:101DA20008007608033E8600870116000104031925
:101DB200F62E7608033E86008701403F2000A000F1
:101DC200413FA100760A86008701403FA200413FC1
:101DD200A3002308803AA4002108803A2402031DAC
:101DE200F42E200822020318080074082000A00024
:101DF200760886008701760A8400850100080107BB
:101E0200A100210886000130870020088100760A9F
:101E1200860087010130810741310318810A0800D9
:101E22002000B3003308F200FF39031D0130F30034
:101E32008C31EB248F3173082000B2007208B1009C
:101E42003208803AAF0080302F02031D2A2F45301E
:101E52003102031C312F44302000B1000030B200A7
:101E620020002E08AF0031083307B000300886008A
:101E7200013087002F0881002D08AF003108330799
:101E8200B000300A8600013087002F0881000A3036
:101E9200AF0031083307B0003008023E860001303F
:101EA20087002F08810031083307AF002F08033E57
:101EB200860001308700810108002000B2007A1CF0
:101EC2006A2F3208AD002D08A5002A088D31692538
:101ED2008F312000AC1B722F2C08B1002B08B000F0
:101EE200742FB001B101AE01AF012F08803AAD00ED
:101EF2003108803A2D02031D802F30082E0203186C
:101F0200942F2030F4000030F50020003208AD009C
:101F12002D08F6008E31C9268F3101302000AE0720
:101F22000030AF3D762F7A189F2F20003208AD0087
:101F32002D08A5002A088D3169258F3120002A0835
:101F4200F2000230F3008C31EB24200030087207DB
:101F5200AA003108733DAB00080021002A08031DC6
:101F6200D02F22008C12A0308D31B9258F31A030B4
:101F720086314D268F312100CD004D08AA00220066
:101F82008C1603302100CE008A30CD005530890BEB
:101F9200C82FCD0BC82FCE0BC82F0032AE2FAA01EF
:101FA2004E30C8009030C9008C31D6248F310030B9
:101FB2002100C8009030C9008C31D6248F31823084
:101FC2002100C8009030C9008C31D6248F313430C2
:101FD2002100C8009030C9008C31D6248F3168307E
:101FE2002100C8009030C9008C31D6248F311A30BC
:101FF2002100C8009030C9008C31D6240800243456
:1020020050345534423458342C34343430342C3433
:102012004734473441342C3430342C3430342C346B
:1020220030342C3430342A34343434340D340A34D9
:102032000034243450345534423458342C3434343B
:1020420030342C3452344D3443342C3430342C3428
:1020520030342C3430342C3430342A343434373461
:102062000D340A3400342434503455344234583454
:102072002C34343430342C344734533456342C34E6
:1020820030342C3430342C3430342C3430342A3440
:10209200353439340D340A34003424345034553450
:1020A200423458342C34343430342C3447344C34A5
:1020B2004C342C3430342C3430342C3430342C34F2
:1020C20030342A34353443340D340A340034243461
:1020D20050345534423458342C34343430342C3463
:1020E2004734533441342C3430342C3430342C348F
:1020F20030342C3430342A34343445340D340A34F8
:102102000034243450345534423458342C3434346A
:1021120030342C345634543447342C3430342C3448
:1021220030342C3430342C3430342A343534453481
:102132000D340A34003424342434483441344234D3
:102142006E346F34763461342C34253464342C3458
:10215200253473342C34253473342C3425347334BD
:102162002C340034253473342C34253473342C3419
:10217200253473342C34253473342A340034E8344F
:0A2182000334323400340534003415
:020000040001F9
:06000E00FC3FFF3E9F3F96
:00000001FF
