:020000040000FA
:08000000803102288731EA2F4C
:10025A0008008131C321813181313A2108006400CB
:10026A0080010131890B3529003468302100990059
:10027A0098012200960108007108F3007008F20044
:10028A007008860071088700010803195129013096
:10029A00F0070030F13D452972087002F00073083A
:1002AA00713BF1000800F100710803195F2922006F
:1002BA000C16612922000C121A30F000F830890B52
:1002CA006429F00B6429003214302100DC07003065
:1002DA00DD3D08007408803AF50080307502031D80
:1002EA00782901307302031808007309F5007409AC
:1002FA00F600F50A0319F60A7508F3007608F40001
:10030A000800F300F401F501731C8D2901308E29D0
:10031A0000308131582181310130F4070030F53D38
:10032A007508803AF20080307202083003197402AC
:10033A000318080089292100A3006830FD007D0800
:10034A00A2002308FD007D08A400A501A601A701BB
:10035A00A80120006708DF006608DE00A230FD0061
:10036A007D08E000A43082313622210025082307C7
:10037A00FD007D08860087018101080022008C01AA
:10038A008D018E01273021008C00F0308D00FF3066
:10039A008E00CF3023008E00F0308D0007308C00A5
:1003AA0024008D018C018E012100951725008C01F6
:1003BA008D018E01373026008C00F0308D00FF3021
:1003CA008E0008002000A300A101A2012108230732
:1003DA00F90079088600013087000108FA007A08D6
:1003EA00A0002008031908002008F900FA0179087A
:1003FA00F0007A08F1007808FB007B08F2008231ED
:10040A00A922813101302000A1070030A23DEB2949
:10041A00F900FA01FB017908F0000030F10081319E
:10042A00412182317108F8007008F7007B08803A90
:10043A00F6007808803A7602031D252A77087A02A0
:10044A00031808007A087907F600760886008701FB
:10045A0001088131862182310130FA070030FB3DE3
:10046A001B2A2000E3005F08E5005E08E400210083
:10047A00D801D901200064088400650885001200AB
:10048A0003195C2A6430E1006108CE006008E200CA
:10049A006208CF00630884310524823120004E08A7
:1004AA002100D80720004F082100D93D3F2A21000A
:1004BA0059082000DF00210058082000DE0008004B
:1004CA002000AB002B08F0000030F10081314121FF
:1004DA00823171082000AD007008AC002D08803A06
:1004EA00FB0080307B02031D7C2A27302C02031C70
:1004FA00832A26302000AC000030AD0020002C08F2
:10050A002B07FB007B088600870181017908FB0025
:10051A002C082B07FC007C0A860087017B088100D7
:10052A000A30FB002C082B07FC007C08023E8600E0
:10053A0087017B0881002C082B07FB007B08033E00
:10054A0086008701810108007208031D7208031DD5
:10055A00B22A700881312D2108007208033E8600F4
:10056A008701160001040319D52A7208033E860082
:10057A008701403FF300413FF400720A8600870179
:10058A00403FF500413FF6007608803AF7007408CC
:10059A00803A7702031DD32A7308750203180800EC
:1005AA007008F300720886008701720A84008501C8
:1005BA0000080107F40074088600870173088100A7
:1005CA00720A860087010130810741310318810AC6
:1005DA0008002000AB006D1CFA2A2B08FC007C08DE
:1005EA00F80024088131E72182312000A61B022B62
:1005FA002608AA002508A900042BA901AA01A70117
:10060A00A8012808803AFC002A08803A7C02031DC7
:10061A00102B290827020318242B2030F000003061
:10062A00F10020002B08FC007C08F2008231A9228C
:10063A00823101302000A7070030A83D062B200098
:10064A006D182F2B2B08FC007C08F8002408813138
:10065A00E721823120002408F0000130F1008131C5
:10066A004121200029087007A4002A08713DA5002D
:10067A00080081312E2183318131C3218331210048
:10068A00D401D50102302000E6008830E7002100BD
:10069A0055082000E900210054082000E800A9308C
:1006AA008131A021833101302100D4070030D53DAA
:1006BA000830F4008430F500A93083319623833161
:1006CA007508FA007408F900A9308231652283316D
:1006DA00A93082310D228331003081315821833192
:1006EA002100D601D70107302000EA007D30890BAE
:1006FA007C2BEA0B7C2B01302100D6070030D73D3A
:10070A005708803A2000EA0083306A02031D902BC2
:10071A00E83021005602031C782B2100DC01DD01A0
:10072A00472B2000A800FF30A900FF30AA002808A4
:10073A00F0000030F10081314121833170087104E9
:10074A00031DAA2BF401F50108002000A401A5014C
:10075A002808F0000030F10081314121833171080D
:10076A002000A2007008A10022082502031DBF2B49
:10077A00210824020318002C24082807F60076080A
:10078A00860087010108F7007708A3002308F6000E
:10079A00F7017608F700F60129087606A9002A0863
:1007AA007706AA00A601A7012000AA1FE82B2A089B
:1007BA00F7002908F600F635F70D74087606A90041
:1007CA0075087706EB2B2935A9002A0DAA000130F6
:1007DA00A6070030A73D2708803AF6008030760247
:1007EA00083003192602031CD92B01302000A40764
:1007FA000030A53DB92B2A08F5002908F4000800A5
:10080A002000DD004E0886008701403FD000413FAE
:10081A00D10050088400510885001200253A031DB2
:10082A00B22C4E0886008701013081074131031836
:10083A00810A2100DA01DB012000ED01EE01FF301F
:10084A00EB00FF30EC004E0886008701403FD000E5
:10085A00413FD10050088400510885001200643AD3
:10086A000319462C4E0886008701403FD000413FBD
:10087A00D10050088400510885001200693A031D0E
:10088A00802C4E0886008701013081074131031808
:10089A00810A4F0886008701010884008501023019
:1008AA008107003FD000013FD1005008D500510810
:1008BA00D600890D893B8909D700D800D900DA000A
:1008CA00DB00DC005508B0005608B1005708B2003A
:1008DA005808B3005908B4005A08B5005B08B600B6
:1008EA005C08B7005D088631A42620003108CF00D5
:1008FA003008CE0008004E0886008701403FD0002D
:10090A00413FD10050088400510885001200253A61
:10091A00031DA72C4E08860087010130810741314B
:10092A000318810A2530F0000030F1005D08D0007C
:10093A005008F2008231A92201302000CE00003096
:10094A00CF0008004E088600870101308107413137
:10095A000318810ACE01CF0108004E0886008701DC
:10096A00403FD000413FD100500884005108850023
:10097A000008D200D3015208F0005308F1005D08C4
:10098A00D4005408F2008231A922843120004E0892
:10099A00860087010130810741310318810AA12CA1
:1009AA00F2012830860000308700473FF000F01F30
:1009BA00FF2C2000A809A909AA09AB09AC09AD09AD
:1009CA00AE09AF09A80A031DFD2CA90A031DFD2CB7
:1009DA00AA0A031DFD2CAB0A031DFD2CAC0A031D3C
:1009EA00FD2CAD0A031DFD2CAE0A031DFD2CAF0A1A
:1009FA00F201F20A2030860000308700473FF000FB
:100A0A00F01F262D2000A009A109A209A309A40903
:100A1A00A509A609A709A00A031D262DA10A031DD7
:100A2A00262DA20A031D262DA30A031D262DA40A7C
:100A3A00031D262DA50A031D262DA60A031D262DF4
:100A4A00A70A2000200821042204230424042504E0
:100A5A002604270403197E2DF101F10AA71B422D52
:100A6A00A035A10DA20DA30DA40DA50DA60DA70DD0
:100A7A000130F0007008F107332D27082F02031DFB
:100A8A00602D26082E02031D602D25082D02031D48
:100A9A00602D24082C02031D602D23082B02031D40
:100AAA00602D22082A02031D602D21082902031D38
:100ABA00602D20082802031C722D2008A802210894
:100ACA00A93B2208AA3B2308AB3B2408AC3B2508D8
:100ADA00AD3B2608AE3B2708AF3BA736A60CA50CB4
:100AEA00A40CA30CA20CA10CA00C0130F102031D52
:100AFA00422D720803199F2DA809A909AA09AB0951
:100B0A00AC09AD09AE09AF09A80A031D9F2DA90AB0
:100B1A00031D9F2DAA0A031D9F2DAB0A031D9F2D9E
:100B2A00AC0A031D9F2DAD0A031D9F2DAE0A031D9E
:100B3A009F2DAF0A20002808A0002908A1002A0832
:100B4A00A2002B08A3002C08A4002D08A5002E083B
:100B5A00A6002F08A7000800F20120308600003006
:100B6A008700473FF000F01FDB2D2000A009A109F4
:100B7A00A209A309A409A509A609A709A00A031D90
:100B8A00D92DA10A031DD92DA20A031DD92DA30A05
:100B9A00031DD92DA40A031DD92DA50A031DD92D7C
:100BAA00A60A031DD92DA70AF201F20A28308600E7
:100BBA0000308700473FF000F01F062E2000A809EA
:100BCA00A909AA09AB09AC09AD09AE09AF09A80A76
:100BDA00031D022EA90A031D022EAA0A031D022EB4
:100BEA00AB0A031D022EAC0A031D022EAD0A031D19
:100BFA00022EAE0A031D022EAF0A0130F000700861
:100C0A00F20673308600003087000830F0000030AA
:100C1A001E00F00B0D2E20002008210422042304BC
:100C2A0024042504260427040319712EF101F10A6C
:100C3A00A71B2C2EA035A10DA20DA30DA40DA50D49
:100C4A00A60DA70D0130F0007008F1071D2EF3352F
:100C5A00F40DF50DF60DF70DF80DF90DFA0D27083F
:100C6A002F02031D522E26082E02031D522E25087E
:100C7A002D02031D522E24082C02031D522E230876
:100C8A002B02031D522E22082A02031D522E21086E
:100C9A002902031D522E20082802031C652E200853
:100CAA00A8022108A93B2208AA3B2308AB3B240837
:100CBA00AC3B2508AD3B2608AE3B2708AF3B731477
:100CCA00A736A60CA50CA40CA30CA20CA10CA00C74
:100CDA000130F102031D2C2E72080319922EF3091A
:100CEA00F409F509F609F709F809F909FA09F30AFD
:100CFA00031D922EF40A031D922EF50A031D922E4D
:100D0A00F60A031D922EF70A031D922EF80A031DF6
:100D1A00922EF90A031D922EFA0A73082000A000E7
:100D2A007408A1007508A2007608A3007708A40039
:100D3A007808A5007908A6007A08A700080020000C
:100D4A00BB003008C4003108C5003208C6003308A9
:100D5A00C7003408C8003508C9003608CA00370871
:100D6A00CB004430860000308700473FB800B81FE8
:100D7A00C02E0130C12E00302000B900BA01390856
:100D8A00C2003A08C300420843040319EA2EC40900
:100D9A00C509C609C709C809C909CA09CB09C40AC4
:100DAA00031DEA2EC50A031DEA2EC60A031DEA2EF2
:100DBA00C70A031DEA2EC80A031DEA2EC90A031D23
:100DCA00EA2ECA0A031DEA2ECB0A2000EC1BF12EDA
:100DDA00FD30ED05FF30EE056C08803AB800803032
:100DEA003802031DFA2E01306B020318022F01305C
:100DFA002000BE000030BF00072F20006C08BF0093
:100E0A006B08BE0021005B082000C10021005A08BF
:100E1A002000C00042084304031D152F6D1D192F21
:100E2A00FF30C007FF30C13D1F30CC000030CD007D
:100E3A002200BF01AE2F200044084504460447049F
:100E4A00480449044A044B04031D452F3F08803ACD
:100E5A00B80080303802031D342F01303E020318D7
:100E6A00452F20004108803AB80080303802031D1F
:100E7A00402F01304002031CBA2F2000ED1CBA2F6C
:100E8A00FF302000CC07FF30CD3D0A30A000A10181
:100E9A00A201A301A401A501A601A7014408A80073
:100EAA004508A9004608AA004708AB004808AC0054
:100EBA004908AD004A08AE004B08AF008431D5247A
:100ECA00863120002108F4002008F30081316F21C7
:100EDA0086317308303E2000B8004C08203E860058
:100EEA000130870038088100FF30BE07FF30BF3D60
:100EFA00FF30C007FF30C13D0A30A000A101A201A6
:100F0A00A301A401A501A601A7014408A800450858
:100F1A00A9004608AA004708AB004808AC004908DF
:100F2A00AD004A08AE004B08AF008531B1258631C5
:100F3A0020002008C4002108C5002208C600230892
:100F4A00C7002408C8002508C9002608CA002708BF
:100F5A00CB0020004D08803AB80080303802031DCB
:100F6A00B82F01304C020318202F200042084304F6
:100F7A00031DC12F6D1DD82FFF30CC07FF30CD3D8B
:100F8A0042084304031DCB2F2B30CC2F2D30BC003D
:100F9A000030BD003C08B8004C08203E86000130F5
:100FAA008700380881004C08203EB8003808A400A1
:100FBA004108A6004008A5003B088231EE22200025
:100FCA002508B1002408B00008002000EB01EC015C
:100FDA00ED01EE012100D801D901DA01DB01DC01C2
:100FEA00DD01203084000130850020308131342138
:100FFA00200083313E2B1434003452345434543498
:10100A00593420345434723461346E3473346D3448
:10101A0069347334733469346F346E34203454341D
:10102A006534733474342C342034483465346C3465
:10103A006C346F34203457346F3472346C34643403
:10104A0021342034493444343A3420342534643445
:0A105A0020340034003400348034E8
:020000040001F9
:06000E00FC3FFF3E9F3F96
:00000001FF
