:020000040000FA
:040000008031122811
:100008007E1480310B1F10282100101C102820009E
:10001800101C10288731F2277E100900803114281F
:10002800A43084008C3085005C3086000130870065
:1000380007308C3197248031443084008E3085001D
:1000480020308600023087002C308C319724803194
:10005800FA01FB012100BF01C001C1012030840069
:10006800013085003C308C3191248031A0308400EF
:100078000130850050308C3191247E10200086316B
:10008800D92E2000C5003A08CE003B08CF003C0816
:10009800D0003D08D1003E08D2003F08D3004008F8
:1000A800D4004108D5004E30860000308700473F15
:1000B800C200C21F61280130622800302000C3003E
:1000C800C4014308CC004408CD004C084D04031972
:1000D8008B28CE09CF09D009D109D209D309D4096F
:1000E800D509CE0A031D8B28CF0A031D8B28D00AF9
:1000F800031D8B28D10A031D8B28D20A031D8B28C8
:10010800D30A031D8B28D40A031D8B28D50A210086
:10011800C01B9228FD30FA05FF30FB054008803AE5
:100128002000C20080304202031D9D2801302100BA
:100138003F020318A52801302000C8000030C9007C
:10014800AD28210040082000C90021003F082000F8
:10015800C800220027082000CB0022002608200023
:10016800CA004C084D04031DBB287A1DBF28FF3068
:10017800CA07FF30CB3D1F30D6000030D700230020
:10018800BF01522920004E084F0450045104520464
:10019800530454045504031DE9284908803AC20051
:1001A80080304202031DDA28013048020318E9288A
:1001B80020004B08803AC20080304202031DE62826
:1001C80001304A020318FA1C5E29FF302000D607C6
:1001D800FF30D73D0A30A000A101A201A301A4016C
:1001E800A501A601A7014E08A8004F08A9005008BC
:1001F800AA005108AB005208AC005308AD005408DF
:10020800AE005508AF008431AF24803120002108AA
:10021800F6002008F5008D31372580317508303E0D
:100228002000C2005608A03E860001308700420820
:100238008100FF30C807FF30C93DFF30CA07FF30D3
:10024800CB3D0A30A000A101A201A301A401A50190
:10025800A601A7014E08A8004F08A9005008AA0047
:100268005108AB005208AC005308AD005408AE006A
:100278005508AF008331B923803120002008CE0013
:100288002108CF002208D0002308D1002408D2007A
:100298002508D3002608D4002708D50020005708D1
:1002A800803AC20080304202031D5C2901305602A8
:1002B8000318C62820004C084D04031D65297A1D23
:1002C8007C29FF30D607FF30D73D4C084D04031D6D
:1002D8006F292B3070292D30C6000030C700460822
:1002E800C2005608A03E86000130870042088100FF
:1002F8005608A03EC2004208AA004B08AC004A08B3
:10030800AB0045088F315E2720002B08BB002A0868
:10031800BA0008002000B50122008E168D31812513
:10032800813172082000A8007308A900AA01AB0156
:10033800B601B701B101B20120003508031D822AB8
:100348008C31B32481318D318125813172082000AF
:10035800A4007308A500A601A7012808A40229087B
:10036800A53B2A08A63B2B08A73B2708031D822A82
:100378002608031D822AB93024020B30253B0318B6
:10038800822A8C3181248131003A0319A0298C31C9
:10039800B32481312000A4002408B800B001B00AB9
:1003A800F1290130B1070030B23DB601B701012A89
:1003B8003208803AA40080302402031DE5290E305B
:1003C8003102031CE9290130EA2900302000A50088
:1003D8002508B500012AB001012A3808A400A501A2
:1003E8002508003A0319F929EF2924080A3A0319BC
:1003F800DC29263A0319D529EF2930080319572A89
:10040800A0293808A4003608283E4C2A3808A40039
:100418003608E13E4C2A4E3038060319152A2D308D
:10042800162A2B30AC000030AD002C08A40024089C
:100438002300E0007C2A3808A4003608D13E4C2A64
:100448004530380603192A2A2D302B2A2B30AE00C6
:100458000030AF002E08A40024082300D0007C2A16
:100468003808A4003608C03E4C2A3808A4003608CC
:10047800203E4C2A3808A4003608503E4C2A38083A
:10048800A4003608443E4C2A3808A4003608383EF2
:10049800860001308700240881007C2AFF30B600DE
:1004A800FF30B7007C2A3208003A03195C2A522A26
:1004B8003108023A0319052A013A03190A2A073AA8
:1004C80003190F2A013A03191F2A033A0319242A88
:1004D800013A0319342A0F3A0319392A033A03193E
:1004E8003E2A073A0319432A013A0319482A522A8D
:1004F80001302000B6070030B73DA0293508031D9C
:10050800B52AB301B40102302000A5004530A4008B
:10051800A930890B8D2AA40B8D2AA50B8D2A0032B0
:1005280022008E1202302000A5004530A400A93018
:10053800890B9C2AA40B9C2AA50B9C2A003222001A
:100548008E1601302000B3070030B43D3408803ADD
:10055800A40080302402031DB32A04303302031C94
:10056800872A22008E1208002000E9005808860019
:100578008701403FDA00413FDB005A0884005B08EE
:1005880085001200253A031D962B5808860087011E
:100598000130810741310318810A2200A601A70111
:1005A800FA01FB01FF302100BF00FF30C00020002E
:1005B800580886008701403FDA00413FDB005A08AF
:1005C80084005B0885001200643A0319FA2A580867
:1005D80086008701403FDA00413FDB005A0884006B
:1005E8005B0885001200693A031D342B5808860001
:1005F80087010130810741310318810A59088600B3
:10060800870101088400850102308107003FDA0074
:10061800013FDB005A08DF005B08E000890D893BD9
:100628008909E100E200E300E400E500E6005F0874
:10063800BA006008BB006108BC006208BD0063081E
:10064800BE006408BF006508C0006608C1006908EC
:100658008031452020003B08D9003A08D80008001E
:10066800580886008701403FDA00413FDB005A08FE
:1006780084005B0885001200733A031D642B580838
:10068800860087010130810741310318810A590822
:100698008600870101088400850102308107003F38
:1006A800E700013FE8006808A6006708A500690898
:1006B80085318B2520002608D9002508D800080098
:1006C800580886008701403FDA00413FDB005A089E
:1006D80084005B0885001200253A031D8B2B5808FF
:1006E800860087010130810741310318810A2530CE
:1006F800F4000030F5006908DA005A08F6008E3177
:10070800CB2601302000D8000030D9000800580856
:10071800860087010130810741310318810AD80119
:10072800D9010800580886008701403FDA00413F98
:10073800DB005A0884005B0885000008DC00DD0146
:100748005C08F4005D08F5006908DE005E08F60044
:100758008E31CB268231200058088600870101306F
:10076800810741310318810A852B2000B10120300F
:10077800860000308700473FF200F21FE52B20007B
:10078800A009A109A209A309A409A509A609A709FD
:10079800A00A031DE22BA10A031DE22BA20A031DD6
:1007A800E22BA30A031DE22BA40A031DE22BA50AD0
:1007B800031DE22BA60A031DE22BA70A2000B101A4
:1007C800B10A2830860000308700473FF200F21F48
:1007D800112C2000A809A909AA09AB09AC09AD097F
:1007E800AE09AF09A80A031D0C2CA90A031D0C2C7D
:1007F800AA0A031D0C2CAB0A031D0C2CAC0A031D02
:100808000C2CAD0A031D0C2CAE0A031D0C2CAF0AD0
:100818000130F20072082000B10632308600003044
:1008280087000830F20000301E00F20B182C200060
:100838002008210422042304240425042604270470
:1008480003197C2CB001B00AA71B372CA035A10DC9
:10085800A20DA30DA40DA50DA60DA70D0130F20044
:100868007208B007282CB235B30DB40DB50DB60D0E
:10087800B70DB80DB90D27082F02031D5D2C2608EA
:100888002E02031D5D2C25082D02031D5D2C240856
:100898002C02031D5D2C23082B02031D5D2C22084E
:1008A8002A02031D5D2C21082902031D5D2C200846
:1008B8002802031C702C2008A8022108A93B220842
:1008C800AA3B2308AB3B2408AC3B2508AD3B2608D4
:1008D800AE3B2708AF3B3214A736A60CA50CA40CD8
:1008E800A30CA20CA10CA00C0130B002031D372CE4
:1008F800310803199D2CB209B309B409B509B60921
:10090800B709B809B909B20A031D9D2CB30A031D1A
:100918009D2CB40A031D9D2CB50A031D9D2CB60AF7
:10092800031D9D2CB70A031D9D2CB80A031D9D2C81
:10093800B90A20003208A0003308A1003408A20038
:100948003508A3003608A4003708A5003808A60013
:100958003908A7000800F401283086000030870015
:10096800473FF200F21FD92C2000A809A909AA09BB
:10097800AB09AC09AD09AE09AF09A80A031DD72C0C
:10098800A90A031DD72CAA0A031DD72CAB0A031DDD
:10099800D72CAC0A031DD72CAD0A031DD72CAE0AE1
:1009A800031DD72CAF0AF401F40A2030860000306A
:1009B8008700473FF200F21F002D2000A009A1097F
:1009C800A209A309A409A509A609A709A00A031D44
:1009D800002DA10A031D002DA20A031D002DA30A44
:1009E800031D002DA40A031D002DA50A031D002DBB
:1009F800A60A031D002DA70A2000200821042204AE
:100A0800230424042504260427040319582DF3017C
:100A1800F30AA71B1C2DA035A10DA20DA30DA40D33
:100A2800A50DA60DA70D0130F2007208F3070D2DD4
:100A380027082F02031D3A2D26082E02031D3A2DE2
:100A480025082D02031D3A2D24082C02031D3A2DDA
:100A580023082B02031D3A2D22082A02031D3A2DD2
:100A680021082902031D3A2D20082802031C4C2DB9
:100A78002008A8022108A93B2208AA3B2308AB3B6F
:100A88002408AC3B2508AD3B2608AE3B2708AF3B06
:100A9800A736A60CA50CA40CA30CA20CA10CA00CA8
:100AA8000130F302031D1C2D74080319792DA809C0
:100AB800A909AA09AB09AC09AD09AE09AF09A80A89
:100AC800031D792DA90A031D792DAA0A031D792D65
:100AD800AB0A031D792DAC0A031D792DAD0A031D40
:100AE800792DAE0A031D792DAF0A20002808A00031
:100AF8002908A1002A08A2002B08A3002C08A4009A
:100B08002D08A5002E08A6002F08A7000800200021
:100B1800B2005C3086000130870027308400003046
:100B280085000730F70016001A00F70B972D2608E6
:100B3800B4002508B30033083404031DA72D27305B
:100B4800B3000030B4003408F3003308F2008D31EC
:100B58002025853173082000B8007208B7002100ED
:100B680040082000B60021003F082000B500B61B51
:100B7800CE2D3608803AF7003808803A7702031DF0
:100B8800C72D370835020318CE2D20003608B800C7
:100B98003508B70020003808B6003708B50022002D
:100BA80027082000B100220026082000B0007A1C87
:100BB800EF2DFB2D2030F4000030F5002000320826
:100BC800F7007708F6008E31CB26853101302000FA
:100BD800B7070030B83D3808803AF7003108803A46
:100BE8007702031DF92D30083702031CDE2D200083
:100BF800AE01AF012F08803AF7003608803A770235
:100C0800031D082E35082E020318272E200033084E
:100C18008600340887000108F700F8017708F40017
:100C28007808F5003208F9007908F6008E31CB26ED
:100C3800853101302000B3070030B43D0130AE07E4
:100C48000030AF3DFE2D7A183B2E482E2030F400A0
:100C58000030F50020003208F7007708F6008E31E2
:100C6800CB26853101302000B7070030B83D200081
:100C78003808803AF7003108803A7702031D462E7B
:100C880030083702031C2A2E20003808A60037082F
:100C9800A50008002000B7008D3181258631720833
:100CA8002000A8007308A900AA01AB01B530A40070
:100CB8002408AD006230A4002408AE000530A4006A
:100CC8002408AF00B001B00A0230A4002408B10023
:100CD800B20137088600023087000230423FB30075
:100CE80037088600023087000230433FB400B50160
:100CF800B6010230A4002408B90039082D3E860048
:100D0800870135080107A4002408B500360835070F
:100D1800A4002408B6000130A4002408B90708304C
:100D28003902031C812EB8010A3020003802031C46
:100D38009F2E013008008D318125863172082000F0
:100D4800A4007308A500A601A7012808A402290881
:100D5800A53B2A08A63B2B08A73B2708031DBD2E49
:100D68002608031DBD2EB93024020B30253B031C79
:100D7800BF2E003008008C3181248631003A0319D7
:100D8800982E8C31B32486312000A4002408AC00AE
:100D980038082D3E8600870101082C06031D972E72
:100DA8000130A4002408B807982E8C31DE2486313F
:100DB8008C31D32486318F31AE2786312500CB0183
:100DC800CC0181318E21863100302100A300903082
:100DD800A40025004C082100A60025004B0821008E
:100DE800A5002830A7000130A800E030A900013094
:100DF800AA00D030AB000130AC00C030AD000130EB
:100E0800AE005030AF000130B0004430B1000130C6
:100E1800B2003830B3000130B400A0308E3119264A
:100E2800863101302500CB070030CC3D2130F6005B
:100E38001030F700A03087314D2786317708200021
:100E4800AE007608AD00A0308F3113278631A03070
:100E58008E319D2686312500CD01CE010730210037
:100E6800BE007D30890B362FBE0B362F0130250092
:100E7800CD070030CE3D4E08803A2100BE008330B9
:100E88003E02031D4A2FE83025004D020318E52EC7
:100E9800322F2000AA00FF30AB00FF30AC002A0838
:100EA800F2000230F3008D31202587317208730477
:100EB800031D612FF601F70108002000A601A70114
:100EC8002A08F2000230F3008D312025873173089B
:100ED8002000A4007208A30024082702031D762F0F
:100EE800230826020318B82F26082A07A00020087E
:100EF8008600023087000108A1002108A500250806
:100F0800A000A1012008A100A0012B082006AB0029
:100F18002C082106AC00A801A9012000AC1FA02FB5
:100F28002C08A1002B08A000A035A10D76082006EA
:100F3800AB0077082106A32F2B35AB002C0DAC0096
:100F48000130A8070030A93D2908803AA000803068
:100F58002002083003192802031C912F01302000B9
:100F6800A6070030A73D702F2C08F7002B08F600C5
:100F780008002100A00020006B082100A20020002A
:100F88006A082100A1002200A401A501210021086E
:100F980084002208850012000319E92FA1302000DF
:100FA800ED006D08D8006C08EE006E08D90021002D
:100FB80020088231B8228731200058082200A4076F
:100FC800200059082200A53DCA2F2200250820002C
:100FD800EB00220024082000EA000800200010107E
:100FE80022006608F1006508F0008C31EA24873198
:080FF8008C31BD240800080043
:1018FC002000181408002000100E890C0139080073
:10190C00F30073088C31AB24080073082200E40048
:10191C007208E3000800640080010131890B922CED
:10192C000034FE0012001E00FE0B982C00346830B0
:10193C0021009900980122009601080028346E3489
:10194C0075346C346C3429340034F2002000101ED1
:10195C00AC2C720823009A0008002000901EB32CB7
:10196C0023009D1CBB2C1D121D16190808002200FB
:10197C00630864040319080064088A0063080A00F9
:10198C008C310800083023009F0090309D002430DB
:10199C009E0067309B009C01080020001010210065
:1019AC0010140B178B17200018148C317E24080090
:1019BC008D31C4258C318C319D248C318D31662533
:1019CC008C318C31C82408002000181DF42C181000
:1019DC007108970070089600181408007108970099
:1019EC00700896000800F5007508053E8600023068
:1019FC0087007508043E8400023085000108083E0B
:101A0C00F2000030003DF3000800A5302000EF008C
:101A1C006F082100A70024082000EB0021002308F8
:101A2C002000EA00A730EF006F08EC00003087318F
:101A3C00BD2708007308F5007208F40072088600D0
:101A4C007308870001080319302D0130F2070030AC
:101A5C00F33D242D74087202F2007508733BF300F9
:101A6C0008007608803AF70080307702031D402D7D
:101A7C0001307502031808007509F7007609F800A3
:101A8C00F70A0319F80A7708F5007808F600080039
:101A9C00F30073080319552D22000C16572D220044
:101AAC000C120D30F200FC30890B5A2DF20B5A2D12
:101ABC000D30F200FC30890B612DF20B612D08000A
:101ACC0020009901FF30970006309600170822007D
:101ADC00E600200016082200E5002000101021006E
:101AEC001014FF30F2000730F3008C318B242130BE
:101AFC0020009800080020001608F4007408A300C9
:101B0C001708F4007408A2002308F400F501220859
:101B1C00F600F7017608F700F60174087604A000C9
:101B2C0075087704A1002108F3002008F2000800D2
:101B3C002000A900A701A80127082907F7007708AA
:101B4C008600013087000108F8007808A6002608F6
:101B5C00031908002608F700F8017708F400780844
:101B6C00F5002508F9007908F6008E31CB268D3169
:101B7C0001302000A7070030A83DA22D22008C01C7
:101B8C008D018E01073021008C0070308D00DF300C
:101B9C008E004F3023008E00B0308D0007308C004B
:101BAC0024008D018C018E012100951725008C01DC
:101BBC008D018E01373026008C00F0308D00FF3007
:101BCC008E000E303C00A40012303D009F00080037
:101BDC002000A200A301A40122088C31F9248D312C
:101BEC0073082000A1007208A0002408803AF600B7
:101BFC002108803A7602031D052E200823020318C3
:101C0C000800200023082207F60076088600023020
:101C1C00870001088C31AB248D3101302000A307E3
:101C2C000030A43DFB2D2100B700A5302000EF00B3
:101C3C006F082100B80037082000EF006F08210062
:101C4C00B900BA01BB01BC01BD0124082000EB00A6
:101C5C00210023082000EA00B830EF006F08EC00E8
:101C6C00B9308731BD2721003A0837072000EF0033
:101C7C006F0886000230870081010800B534623499
:101C8C000634243424340034FF34FF340634033453
:101C9C000034003400340034103427340034003461
:101CAC0005340034FA340034FA340034643400342B
:101CBC002C3401340034003400340034003400344B
:101CCC000034003400340034003400340034003468
:101CDC001634DC34F50000308D314E258E31F60192
:101CEC00F7017508F400760A7C2EF436890B7B2EEE
:101CFC00741C822E0130832E00308D314E258E3196
:101D0C000130F6070030F73D7708803AF400803058
:101D1C007402031D932E07307602031C772E0130BC
:101D2C008D314E258E3101308D314E25080020002D
:101D3C00A200A301A4012208F2000230F3008D31AD
:101D4C0020258E3173082000A1007208A000240801
:101D5C00803AF8002108803A7802031DB72E20083B
:101D6C00230203180800200023082207F800780833
:101D7C0086000230870001088E3170268E310130CA
:101D8C002000A3070030A43DAD2E7608031D760875
:101D9C00031DD42E74088C31862408007608033E6B
:101DAC0086008701160001040319F82E7608033EFD
:101DBC0086008701403F2000A000413FA100760A29
:101DCC0086008701403FA200413FA3002308803AD0
:101DDC00A4002108803A2402031DF62E20082202BA
:101DEC000318080074082000A000760886008701FC
:101DFC00760A8400850100080107A10021088600ED
:101E0C000230870020088100760A860087010130A5
:101E1C00810741310318810A08002000AF002F0808
:101E2C00F2000230F3008D3120258F317308200031
:101E3C00B1007208B0003108803AF80080307802A6
:101E4C00031D2A2F27303002031C312F263020008F
:101E5C00B0000030B10020002E08F80030082F0729
:101E6C00F9007908860002308700780881002D0877
:101E7C00F80030082F07F900790A86000230870035
:101E8C00780881000A30F80030082F07F90079082B
:101E9C00023E8600023087007808810030082F0748
:101EAC00F8007808033E86000230870081010800A4
:101EBC002000B2007A1C6A2F3208AD002D08A50054
:101ECC002A088D319E258F312000AC1B722F2C08D7
:101EDC00B1002B08B000742FB001B101AE01AF01FD
:101EEC002F08803AAD003108803A2D02031D802F57
:101EFC0030082E020318942F2030F4000030F50027
:101F0C0020003208AD002D08F6008E31CB268F3123
:101F1C0001302000AE070030AF3D762F7A189F2F8E
:101F2C0020003208AD002D08A5002A088D319E2511
:101F3C008F3120002A08F2000130F3008D3120256A
:101F4C00200030087207AA003108733DAB0008006E
:101F5C0021004108031DD02F22008C1220308D311E
:101F6C00EE258F31203086314E268F312100A8008E
:101F7C002808C10022008C1603302100A9008A30E9
:101F8C00A8005530890BC82FA80BC82FA90BC82F38
:101F9C000032AE2FC1017130A3009030A4008D31FE
:101FAC000B258F3123302100A3009030A4008D31FC
:101FBC000B258F31A5302100A3009030A4008D316A
:101FCC000B258F3157302100A3009030A4008D31A8
:101FDC000B258F318B302100A3009030A4008D3164
:101FEC000B258F313D302100A3009030A4008D31A2
:101FFC000B250800243424344834413442346E34E4
:10200C006F34763461342C34253464342C342534D8
:10201C0073342C34253473342C34253473342C34ED
:10202C00253473342C34253473342C3425347334E4
:10203C002C34253473342A3400342434503455343D
:10204C00423458342C34343430342C344734473400
:10205C0041342C3430342C3430342C3430342C3453
:10206C0030342A34343434340D340A3400342434C7
:10207C0050345534423458342C34343430342C34B9
:10208C0052344D3443342C3430342C3430342C34DE
:10209C0030342C3430342A34343437340D340A345C
:1020AC000034243450345534423458342C343434C1
:1020BC0030342C344734533456342C3430342C34A0
:1020CC0030342C3430342C3430342A3435343934E4
:1020DC000D340A34003424345034553442345834DA
:1020EC002C34343430342C3447344C344C342C347D
:1020FC0030342C3430342C3430342C3430342A34C6
:10210C00353443340D340A340034243450345534CB
:10211C00423458342C34343430342C344734533423
:10212C0041342C3430342C3430342C3430342C3482
:10213C0030342A34343445340D340A3400342434E5
:10214C0050345534423458342C34343430342C34E8
:10215C005634543447342C3430342C3430342C34FE
:10216C0030342C3430342A34353445340D340A347C
:10217C00003400348034E834033432340034053411
:02218C0000341D
:020000040001F9
:06000E00FC3FFF3E9F3F96
:00000001FF
