:020000040000FA
:10000000803123282034A0347E1480318B1A0B1DBC
:100010000D289A31C422803121280B1F212821006C
:10002000911D19282000911D192890310020803140
:1000300021282100901D21282000901D2128843195
:1000400023247E10090080312528230080310220DE
:100050008031EB00803103208031EC00DB30840004
:100060009C308500A0308600023087002C309A3109
:100070008E228031F901FA01FB01FC015E3084001F
:100080000130850010309A3188228031D3308400CD
:100090000130850016309A3188228031203084006A
:1000A0000230850037309A3188228031CC3084008C
:1000B000023085001A309A31882280312030840045
:1000C0000330850046309A3188228031A030840088
:1000D0000330850049309A3188227E10200080311B
:1000E00071289A31B52280318B17AB30F5001A3068
:1000F000F6009A318222803177302200B60036082D
:100100002300A100A201A20AC030A3001D30A40058
:100110005430A5001030A6002F30A7001E30A800D4
:100120006B082000A2000330A3009B31BB23803169
:1001300023006C082000A2000330A3009B31BB23E6
:100140008031A0309131F121803191313D218031D8
:1001500050302200B60036082100EB00A03022000B
:10016000B70037082100EC00073091318F21803132
:1001700023006B082000A2000330A3009B31BB23A7
:10018000803123006C082000A2000330A3009B31C3
:10019000BB2380313B3086000130870010302200C5
:1001A000B60000301E00B60BD22855082000B5005E
:1001B000220054082000B4003B30B6000130B700E4
:1001C00087318F27803123006C08F5000330F6005B
:1001D0009B312423803176082200DD007508DC0085
:1001E0003B302000A8000130A90022005D0820005B
:1001F000AB0022005C082000AA004630AC000030B2
:10020000AD0023006C0890319E2080312908220027
:10021000DD00200028082200DC002C30B600360863
:100220002000A00022005D082000A20022005C083F
:100230002000A1004630A3000030A40023006C0879
:100240009231C322803121082200DD0020002008E5
:100250002200DC003B302000A2000130A3009B31D3
:10026000BB238031220051082000B5002200500835
:100270002000B4003B30B6000130B70087318F2733
:1002800080313B30A8000130A90022005D08200029
:10029000AB0022005C082000AA004630AC00003011
:1002A000AD0023006C0890319E2080312908220087
:1002B000DD00200028082200DC005D08CD005C087D
:1002C000CC00AA302000A8009830A9000030AA0075
:1002D000AB004630AC000030AD0023006B0890311D
:1002E0009E20803129082200DD00200028082200FD
:1002F000DC003B302000A2000130A3009B31BB2377
:100300008031230054082000B5002300530820004A
:10031000B4003B30B6000130B70087318F27803101
:100320003B30A8000130A90022005D082000AB008E
:1003300022005C082000AA004630AC000030AD006E
:1003400023006B0890319E20803129082200DD00B7
:10035000200028082200DC002C30B60036082000DF
:10036000A00022005D082000A20022005C082000FE
:10037000A1004630A3000030A40023006B08923196
:10038000C32280310230AB000030AC00EB309E3134
:10039000E82680312B082200B60020002C0822001D
:1003A000B700B801B90139082000B70022003808A9
:1003B0002000B600220037082000B50022003608D1
:1003C0002000B400D5302200BA003A082000B8005E
:1003D0009331A7238031BA30A8009830A9000030AB
:1003E000AA00AB004630AC000030AD0023006B0823
:1003F00090319E2080312A302200B600360820003D
:10040000A00022004D082000A20022004C0820007D
:10041000A1004630A3000030A40023006C089231F4
:10042000C322803121082200DD00200020082200A4
:10043000DC00D5302000A8000130A90022005D08B2
:100440002000AB0022005C082000AA004630AC006F
:100450000030AD0023006C0890319E2080312908C7
:100460002200DD00200028082200DC000A30B6004F
:1004700036082000A00022005D082000A200220013
:100480005C082000A1004630A3000030A400230037
:100490006C089231C322803121082200DD00200047
:1004A00020082200DC0001302300D3070030D43DB7
:1004B00022000C1523006B089D3107258031230095
:1004C0006C089D310725803122000C11CE01CF012F
:1004D00007302200B6007D30890B6C2AB60B6C2ADF
:1004E00001302200CE070030CF3D4F08803AB600E1
:1004F00083303602031D7E2AE8304E020318A828F6
:10050000682A2000D5000030D0000030CF00213014
:10051000CE003430CD003708860001308700403FE0
:10052000BB00413FBC003B08BD003C08BE00BF0112
:10053000C0010130BD35BE0DBF0DC00D890B9A2A1B
:100540005508043E860001308700403FC100413F0E
:10055000C200423FC300433FC4000330C436C30C53
:10056000C20CC10C890BAE2A3D08C1023E08C23B39
:100570003F08C33B4008C43B4408D4004308D300B1
:100580004208D2004108D1000030AB000030AA0080
:100590000830A9000030A8003708023E860001306C
:1005A0008700403FBB00413FBC003B08A0003C0827
:1005B000A100890D893B8909A200A3005408A70066
:1005C0005308A6005208A5005108A4009D316125DA
:1005D00082312308AF002208AE002108AD002008B8
:1005E000AC009431212482312B08D4002A08D30096
:1005F0002908D2002808D10037088600013087007A
:10060000403FBB00413FBC003B08BD003C08BE0072
:10061000BF01C0015508043E860001308700403FFD
:10062000C100413FC200423FC300433FC400043009
:10063000C436C30CC20CC10C890B182B3D08C10277
:100640003E08C23B3F08C33B4008C43B4408D900B6
:100650004308D8004208D7004108D6000030AB005C
:100660000030AA001030A9000030A8005908A300EB
:100670005808A2005708A1005608A0005908A70072
:100680005808A6005708A5005608A4009D3161250A
:1006900082312308AF002208AE002108AD002008F7
:1006A000AC009431212482312B08C8002A08C700ED
:1006B0002908C6002808C5000030AB000030AA0099
:1006C0004030A9000030A8004808A3004708A20055
:1006D0004608A1004508A0003708043E8600013006
:1006E0008700403FBB00413FBC003B08A4003C08E2
:1006F000A500890D893B8909A600A7009D316125C8
:1007000082312308AF002208AE002108AD00200886
:10071000AC009431212482312B08D9002A08D8005A
:100720002908D7002808D60051085607BB005208F0
:10073000573DBC005308583DBD005408593DBE000C
:100740003708213E8600013087003B08C03F3C0847
:10075000C13F3D08C23F3E08C33F0030AB00003000
:10076000AA000130A9000030A8008030BB00003092
:10077000BC000030BD000030BE003708213E8600BE
:1007800001308700403FA000413FA100423FA2004E
:10079000433FA3000030A7000030A6000030A500B2
:1007A0000530A4009D31612582312008BB07210856
:1007B000BC3D2208BD3D2308BE3D3E08AF003D08BC
:1007C000AE003C08AD003B08AC00943121248231DE
:1007D0002B08DD002A08DC002908DB002808DA00E5
:1007E000DD1F042C60305A02F0305B3BFF305C3B75
:1007F000FF305D3B0318042CFF30DD00FF30DC00D0
:10080000F030DB006030192CDD1B1A2C5D08031D55
:10081000122C5C08031D122C35305A0221305B3B30
:10082000031C1A2C0030DD000030DC002130DB001E
:100830003430DA005D08BA005C08B9005B08B80023
:100840005A08B700080090112400951F432D9513F6
:100850002200ED017908023E860001308700403F0A
:10086000F300413FF40073088600740887000130EC
:100870008100F9010800E01808005F08F300730820
:10088000F9005F088600013087000108F300730853
:10089000EC005F088600013087000130413FFA001C
:1008A0000430F3007308DF075F08E93A031D5C2C8E
:1008B000E530F3007308DF0060105F085E0603197F
:1008C000E014240016140230F30073082200ED0037
:1008D0000800EC2C2400161F762C0130F30073085E
:1008E0002200E20704309B31562308007C08F40004
:1008F0007B08F300F436F30C730891007B1C862C04
:100900000B30F30073082200ED0008000330F30001
:1009100073082200ED0008002400161F982C0130F7
:10092000F30073082200E20704309B3156230800CD
:10093000961406307C05F300F0307304FB000030A1
:10094000FC007B142200EA01EA0A632C6A03031903
:10095000C12C7A08860001308700403FFB00413FF0
:10096000FC007A08033E860001308700403FE70024
:10097000413FE8007A088600013087000130423F9D
:10098000EB007B08240091007B1C862C0530F300D3
:1009900073082200ED0008002400161FDA2C013035
:1009A000F30073082200E2072400161305309B3180
:1009B0005623080001302200EB026B0A031DEF2CC6
:1009C0000530F3007308FA070130EC02031DEC2C2C
:1009D00000309B315623080024009614632C6708CE
:1009E0008600680887000108240091000130220079
:1009F000E7070030E83D08002400161F0A2D0130EB
:100A0000F30073082200E20704309B3156232400D0
:100A10001613080096150830F30073082200ED0045
:100A200008000830F3007308ED0024009615080054
:100A300067088600680887002400110881000130DB
:100A40002200E7070030E83D0130EB020319302DAA
:100A5000240096120630F30073082200ED00342DB6
:100A6000240096169A31D42224001616080000306D
:100A70009B31562308000130F3007308E20706306B
:100A80009B315623080022006D08F300F40174081E
:100A9000003A03194C2D3B2D7308003A03193B2CE7
:100AA000013A0319692C033A0319A62C013A0319D8
:100AB000CC2C073A0319372D013A0319FC2C033AC1
:100AC0000319112D013A0319372D0F3A0319182D67
:100AD000023A03196A2C013A03198C2C3B2D0800A9
:100AE0002000B40034088600013087000108A0000F
:100AF000A101A201A3010C30A035A10DA20DA30DEF
:100B0000890B7C2D2308B3002208B2002108B10014
:100B10002008B000340A8600013087000108A000D8
:100B2000A101A201A3010430A035A10DA20DA30DC6
:100B3000890B942D2308AF002208AE002108AD00D8
:100B40002008AC003408023E86000130870001080E
:100B5000A0000430A036890BAA2D2008A100A20114
:100B6000A301A4012408AB002308AA002208A900BD
:100B70002108A8002808A0002908A1002A08A2002E
:100B80002B08A30030082C04A40031082D04A50074
:100B900032082E04A60033082F04A7002408A0045E
:100BA0002508A1042608A2042708A30475088600C6
:100BB000013087002008C03F2108C13F2208C23F02
:100BC0002308C33F3408033E860001308700010834
:100BD000A000A101A201A3010C30A035A10DA20D1E
:100BE000A30D890BED2D2308B3002208B2002108C4
:100BF000B1002008B0003408043E860001308700B0
:100C00000108A000A101A201A3010430A035A10D9B
:100C1000A20DA30D890B062E2308AF002208AE00FB
:100C20002108AD002008AC003408053E86000130E4
:100C300087000108A0000430A036890B1C2E200874
:100C4000A100A201A301A4012408AB002308AA006B
:100C50002208A9002108A8002808A0002908A1004E
:100C60002A08A2002B08A30030082C04A400310895
:100C70002D04A50032082E04A60033082F04A70077
:100C80002408A0042508A1042608A2042708A30418
:100C90007508043E8600013087002008C03F210807
:100CA000C13F2208C23F2308C33F3408063E8600E6
:100CB000013087000108A000A101A201A3010830B2
:100CC000A035A10DA20DA30D890B602E2308AF0046
:100CD0002208AE002108AD002008AC003408073E11
:100CE0008600013087000108A000A101A201A30134
:100CF0002308B3002208B2002108B1002008B00088
:100D000030082C04A00031082D04A10032082E0464
:100D1000A20033082F04A3007508083E86000130A6
:100D200087002008C03F2108C13F2208C23F230896
:100D3000C33F0800F8007508093EF6007608F70082
:100D4000780A840085010008F6007808840085018F
:100D500077088600013087000008C03F7608C13F51
:100D60007808033E840085010008F6007808023EFA
:100D7000840085017708023E860001308700000864
:100D8000C03F7608C13F7808053E84008501000811
:100D9000F6007808043E840085017708043E86004A
:100DA000013087000008C03F7608C13F7808073E41
:100DB000840085010008F6007808063E840085015D
:100DC0007708063E8600013087000008C03F76089D
:100DD000C13F7808093E840085010008F6007808C4
:100DE000083E840085017708083E860001308700B0
:100DF0000008C03F7608C13F78080B3E840085019B
:100E00000008F60078080A3E8400850177080A3E4B
:100E10008600013087000008C03F7608C13F78088F
:100E20000D3E840085010008F60078080C3E840021
:100E3000850177080C3E8600013087000008C03F1E
:100E40007608C13F78080F3E840085010008F6004F
:100E500078080E3E8400850177080E3E860001303A
:100E600087000008C03F7608C13F7808113E840023
:100E700085010008F6007808103E84008501770897
:100E8000103E8600013087000008C03F7608C13F51
:100E90007808133E840085010008F6007808123EA9
:100EA000840085017708123E860001308700000823
:100EB000C03F7608C13F7808153E840085010008D0
:100EC000F6007808143E840085017708143E8600F9
:100ED000013087000008C03F7608C13F7808173E00
:100EE000840085010008F6007808163E840085011C
:100EF0007708163E8600013087000008C03F76085C
:100F0000C13F7808193E860087010108F60077087E
:100F1000183E860001308700760881000800BC0179
:100F2000BD01B51F952F0130962F0030B80038084D
:100F3000BB003B080319A12FB409B509B40A031972
:100F4000B50A0A30F5000030F60020003508F80038
:100F50003408F7009F312C2787317508303EB800E0
:100F60003C083607B9003D08373DBA00390886000D
:100F70003A088700380881000130BC070030BD3DC9
:100F80000A30F5000030F6003508F8003408F700A4
:100F90009031EC2087317608B5007508B40035082B
:100FA000803AB80080303802031DD82F0130340257
:100FB0000318A12F20003B080319EE2F3C08360729
:100FC000B8003D08373DB900380886003908870069
:100FD0002D3081000130BC070030BD3D3C08360794
:100FE00086003D08373D870081013708A600360896
:100FF000A5009231582208006D0803190800FC2F43
:1010000022008C018D018E01033021008C00703094
:101010008D00DF308E004F3023008E0080308D0039
:1010200003308C0024008D018C018E012100951766
:1010300025008C018D018E01373026008C00F030A8
:101040008D00FF308E000D303C00A4000C30A1005C
:1010500010303D009E0012309F0011309C000E3079
:101060003C00A00008002100C10020002108210050
:10107000C200200022082100C30020002308210014
:10108000C400200024082100C500200025082100FC
:10109000C600200026082100C700200027082100E4
:1010A000C80041082000A000210042082000A10043
:1010B000210043082000A200210044082000A300D2
:1010C000210045082000A400210046082000A500BA
:1010D000210047082000A600210048082000A700A2
:1010E00021005D082000A80021005E082000A90062
:1010F00021005F082000AA00210060082000AB004A
:10110000210061082000AC00210062082000AD0031
:10111000210063082000AE00210064082000AF0019
:101120009F317127883120082100CD00200021083F
:101130002100CE00200022082100CF00200023083B
:101140002100D000200024082100D1002000250823
:101150002100D200200026082100D300200027080B
:101160002100D400CD30860000308700403F2000B1
:10117000D600413FD700423FD800433FD900443F0B
:10118000DA00453FDB00463FDC00473FDD00520808
:101190000E3E860001308700403FDE00413FDF0009
:1011A0005E08A0005F08A100890D893B8909A200A3
:1011B000A300A400A500A600A70021005D08200050
:1011C000A80021005E082000A90021005F0820007F
:1011D000AA00210060082000AB0021006108200067
:1011E000AC00210062082000AD002100630820004F
:1011F000AE00210064082000AF009F3171278831C4
:101200002030860000308700403FE000413FE10091
:10121000423FE200433FE300443FE400453FE50036
:10122000463FE600473FE70011302000E035E10D82
:10123000E20DE30DE40DE50DE60DE70D890B152933
:1012400020006008D6076108D73D6208D83D6308D2
:10125000D93D6408DA3D6508DB3D6608DC3D67087A
:10126000DD3D5D082100D40020005C082100D30092
:1012700020005B082100D20020005A082100D10084
:10128000200059082100D000200058082100CF007C
:10129000200057082100CE00200056082100CD0074
:1012A000CD30860000308700403F2000D600413F0F
:1012B000D700423FD800433FD900443FDA00453FC2
:1012C000DB00463FDC00473FDD0052080C3E860055
:1012D00001308700403FDE00413FDF005E08E00054
:1012E0005F08E1000030E11BFF30E200E300E400B2
:1012F000E500E600E70023302000E035E10DE20DD7
:10130000E30DE40DE50DE60DE70D890B7C292000CA
:101310006008D6076108D73D6208D83D6308D93D0B
:101320006408DA3D6508DB3D6608DC3D6708DD3DA5
:101330005D082100D40020005C082100D3002000BB
:101340005B082100D20020005A082100D1002000B3
:1013500059082100D000200058082100CF002000AB
:1013600057082100CE00200056082100CD002000A3
:1013700052080A3E860001308700403FD600413FB8
:10138000D7005608A0005708A100890D893B89099C
:10139000A200A300A400A500A600A70021005D08EC
:1013A0002000A80021005E082000A90021005F089D
:1013B0002000AA00210060082000AB002100610885
:1013C0002000AC00210062082000AD00210063086D
:1013D0002000AE00210064082000AF009F3171277B
:1013E000883120082100C100200021082100C2000E
:1013F000200022082100C300200023082100C4008F
:10140000200024082100C500200025082100C60076
:10141000200026082100C700200027082100C8005E
:1014200020005208083E860001308700403FD60069
:10143000413FD7005608A0005708A100890D893BFD
:101440008909A200A300A400A500A600A70021000E
:101450005D082000A80021005E082000A9002100EE
:101460005F082000AA00210060082000AB002100D6
:1014700061082000AC00210062082000AD002100BE
:1014800063082000AE00210064082000AF009F31F7
:10149000712788312030860000308700403FD80017
:1014A000413FD900423FDA00433FDB00443FDC00CC
:1014B000453FDD00463FDE00473FDF000C302000A7
:1014C000D835D90DDA0DDB0DDC0DDD0DDE0DDF0DB0
:1014D000890B5F2A00302000BF000030BE000030C2
:1014E000BD000030BC000030BB000030BA0001304D
:1014F000B9000030B800210041082000A000210000
:1015000042082000A100210043082000A200210081
:1015100044082000A300210045082000A400210069
:1015200046082000A500210047082000A600210051
:1015300048082000A70021005D082000A800210025
:101540005E082000A90021005F082000AA002100F9
:1015500060082000AB00210061082000AC002100E1
:1015600062082000AD00210063082000AE002100C9
:1015700064082000AF009F31712788312008C00027
:101580002108C1002208C2002308C3002408C400A7
:101590002508C5002608C6002708C70097310B2775
:1015A00088313830860000308700403FD807413FFF
:1015B000D93D423FDA3D433FDB3D443FDC3D453FC3
:1015C000DD3D463FDE3D473FDF3D5F082100E40053
:1015D00020005E082100E30020005D082100E200F9
:1015E00020005C082100E10020005B082100E000F1
:1015F00020005A082100DF00200059082100DE00E9
:10160000200058082100DD0000302000BF0000301D
:10161000BE000030BD000230BC000030BB00003016
:10162000BA000030B9000030B8000030D6000030F9
:10163000D7000030D8000030D9000030DA00803008
:10164000DB000030DC000030DD00DD3086000030E3
:101650008700403FD607413FD73D423FD83D433FFB
:10166000D93D443FDA3D453FDB3D463FDC3D473F0A
:10167000DD3D5D08A7005C08A6005B08A5005A08D0
:10168000A4005908A3005808A2005708A100560852
:10169000A0005208063E860001308700403FA800A7
:1016A000413FA900AA01AB01AC01AD01AE01AF0100
:1016B0009F31712788312008C0002108C10022080D
:1016C000C2002308C3002408C4002508C50026085A
:1016D000C6002708C70097310B278831380821003A
:1016E000DD00200039082100DE0020003A0821003A
:1016F000DF0020003B082100E00020003C08210022
:10170000E10020003D082100E20020003E08210009
:10171000E30020003F082100E4005D085E045F0450
:10172000600461046204630464040319D72F380859
:10173000860001308700403F2000D600413FD7009F
:10174000423FD800433FD9000030DA000030DB00D0
:101750001030DC000030DD005608DA025708DB3BB1
:101760005808DC3B5908DD3B5A08DE005B08DF0007
:101770005C08E0005D08E100E201E301E401E5014D
:1017800065082100DC00200064082100DB00200047
:1017900063082100DA00200062082100D90020003F
:1017A00061082100D800200060082100D700200037
:1017B0005F082100D60020005E082100D5005D08EA
:1017C0002000B80021005E082000B90021005F0859
:1017D0002000BA00210060082000BB002100610841
:1017E0002000BC00210062082000BD002100630829
:1017F0002000BE00210064082000BF00D530860014
:1018000000308700403FD600413FD700423FD8001C
:10181000433FD900443FDA00453FDB00463FDC0050
:10182000473FDD001F302000D635D70DD80DD90D2C
:10183000DA0DDB0DDC0DDD0D890B132C21004D08BD
:101840002000D60221004E082000D73B21004F087F
:101850002000D83B210050082000D93B210051082E
:101860002000DA3B210052082000DB3B2100530816
:101870002000DC3B210054082000DD3B5D08A70070
:101880005C08A6005B08A5005A08A4005908A3003C
:101890005808A2005708A1005608A0000030AF0069
:1018A0000030AE000030AD000030AC000030AB00C6
:1018B0000030AA000C30A9003530A8009F317127F4
:1018C00088312008C0002108C1002208C200230876
:1018D000C3002408C4002508C5002608C600270840
:1018E000C70097310B27883138082100D500200028
:1018F00039082100D60020003A082100D700200036
:101900003B082100D80020003C082100D90020001D
:101910003D082100DA0020003E082100DB00200005
:101920003F082100DC0020005208163E86000130EE
:101930008700403FD600413FD7005608A000570817
:10194000A100890D893B8909A200A300A400A5007C
:10195000A600A7000030BF000030BE000030BD0070
:101960000030BC000030BB000030BA002030B900AD
:101970000030B800210055082000C00021005608A2
:101980002000C100210057082000C2002100580893
:101990002000C300210059082000C40021005A087B
:1019A0002000C50021005B082000C60021005C0863
:1019B0002000C70097310B2788313808A800390864
:1019C000A9003A08AA003B08AB003C08AC003D085F
:1019D000AD003E08AE003F08AF009F31712788314F
:1019E00020082100C100200021082100C2002000A1
:1019F00022082100C300200023082100C400200089
:101A000024082100C500200025082100C600200070
:101A100026082100C700200027082100C80041082F
:101A20002000A000210042082000A100210043085E
:101A30002000A200210044082000A3002100450846
:101A40002000A400210046082000A500210047082E
:101A50002000A600210048082000A7000030BF0099
:101A60000030BE000030BD000030BC000030BB00C4
:101A70000030BA002030B9000030B800210055080D
:101A80002000C000210056082000C1002100570896
:101A90002000C200210058082000C300210059087E
:101AA0002000C40021005A082000C50021005B0866
:101AB0002000C60021005C082000C70097310B27DA
:101AC00088313808A8003908A9003A08AA003B085C
:101AD000AB003C08AC003D08AD003E08AE003F083E
:101AE000AF009F317127883120082100A800200015
:101AF00021082100A900200022082100AA002000BE
:101B000023082100AB00200024082100AC002000A5
:101B100025082100AD00200026082100AE0020008D
:101B200027082100AF0000302000BF000030BE00B9
:101B30000030BD000030BC000230BB000030BA00F5
:101B40000030B9000030B800210028082000C00093
:101B5000210029082000C10021002A082000C2001D
:101B600021002B082000C30021002C082000C40005
:101B700021002D082000C50021002E082000C600ED
:101B800021002F082000C70097310B278831380823
:101B90002100DD00200039082100DE0020003A0885
:101BA0002100DF0020003B082100E00020003C086D
:101BB0002100E10020003D082100E20020003E0855
:101BC0002100E30020003F082100E4000030200055
:101BD000BF000030BE000030BD000030BC0000304F
:101BE000BB000830BA000030B9000030B80052081D
:101BF000143E860001308700403FD600413FD700A9
:101C00005608A0005708A100890D893B8909A20048
:101C1000A300A400A500A600A700210055082000ED
:101C2000A800210056082000A90021005708200024
:101C3000AA00210058082000AB002100590820000C
:101C4000AC0021005A082000AD0021005B082000F4
:101C5000AE0021005C082000AF009F317127883161
:101C60002008C0002108C1002208C2002308C300C8
:101C70002408C4002508C5002608C6002708C70098
:101C800097310B27883138082100CD002000390812
:101C90002100CE0020003A082100CF0020003B08A0
:101CA0002100D00020003C082100D10020003D0888
:101CB0002100D20020003E082100D30020003F0870
:101CC0002100D40020005208123E86000130870017
:101CD000403FD600413FD7005608D8005708D900EA
:101CE0000030D91BFF30DA00DB00DC00DD00DE0055
:101CF000DF0004302000D835D90DDA0DDB0DDC0D06
:101D0000DD0DDE0DDF0D890B7A2E00302000BF00C7
:101D10000030BE000030BD000030BC000030BB0011
:101D20000030BA000130B9000030B800CD30860074
:101D300000308700403FE000413FE100423FE200C9
:101D4000433FE300443FE400453FE500463FE600F3
:101D5000473FE700210055085D072000E80021000B
:101D600056085E3D2000E900210057085F3D200035
:101D7000EA0021005808603D2000EB0021005908CE
:101D8000613D2000EC0021005A08623D2000ED007A
:101D900021005B08633D2000EE0021005C08643DEB
:101DA0002000EF006808E0076908E13D6A08E23DAD
:101DB0006B08E33D6C08E43D6D08E53D6E08E63DCB
:101DC0006F08E73D6708C7006608C6006508C500DC
:101DD0006408C4006308C3006208C2006108C1004F
:101DE0006008C00097310B278831383086000030FA
:101DF0008700403FD807413FD93D423FDA3D433F4E
:101E0000DB3D443FDC3D453FDD3D463FDE3D473F5A
:101E1000DF3D5F082100DC0020005E082100DB00C0
:101E200020005D082100DA0020005C082100D900B4
:101E300020005B082100D80020005A082100D700AC
:101E4000200059082100D600200058082100D500A4
:101E500002302000B800B901BA01BB01BC01BD01CC
:101E6000BE01BF01210055082000C0002100560816
:101E70002000C100210057082000C200210058089E
:101E80002000C300210059082000C40021005A0886
:101E90002000C50021005B082000C60021005C086E
:101EA0002000C70097310B2788313808A000390877
:101EB000A1003A08A2003B08A3003C08A4003D088A
:101EC000A5003E08A6003F08A7006430A800A901AD
:101ED000AA01AB01AC01AD01AE01AF019F31712789
:101EE000883120082100B000200021082100B10025
:101EF000200022082100B200200023082100B300A6
:101F0000200024082100B400200025082100B5008D
:101F1000200026082100B600200027082100B70075
:101F200080302000B800B901BA01BB01BC01BD017D
:101F3000BE01BF01210030082000C000210031088F
:101F40002000C100210032082000C2002100330817
:101F50002000C300210034082000C40021003508FF
:101F60002000C500210036082000C60021003708E7
:101F70002000C70097310B2788313B082100CC0097
:101F800020003A082100CB00200039082100CA00B7
:101F9000200038082100C9004C08031DDD2FC03087
:101FA0004902C6304A3B2D304B3B0318DD2F003031
:101FB000CC002D30CB00C630ED2F4C08031DE82F90
:101FC000C1304902D8304A3BA7304B3B031CF02FAD
:101FD0000030CC00A730CB00D830CA00C030C900D8
:101FE0004C082000D50021004B082000D40021001F
:101FF0004A082000D300210049082000D200080030
:102000009111080008309F0090309D0024309E0000
:1020100067309B009C010800DF00433086000030E1
:1020200087001A30C10000301E00C10B1428433055
:10203000B8000030B9001A30BA000030BB005F08A9
:10204000C1004108BC0088309E31A6269031C200F4
:102050004208DE005E08031D52285F08C1004108E7
:10206000F500433086319A2690314330B800003075
:10207000B9000730BA000030BB005F08C10041085A
:10208000BC00E1309E31A6269031C2004208DE003D
:102090005E08031D52285F08C1004108F500433067
:1020A000953133255E080800B4012B08AF002F08D6
:1020B000B3003308AF00B0013008B2002B082F0284
:1020C000B100031CB2032E083202031D69282D083B
:1020D000310203189C28A301A30A2A08AF00B0010B
:1020E0002F08A4003008A5003430B1003108A60044
:1020F00033309C310824903120003408031D95288A
:10210000A301A30A2A08AF00B0012F08A4003008D9
:10211000A5003430B1003108A6002C089C310824F9
:1021200090312000340803199728FC300800013052
:10213000AF002F08B3075928003008002000B20074
:10214000B001B1012908F6002808F5009B312423CD
:1021500090317608AF007508AE00DA2820002B0811
:10216000803AF8002D08803A7802031DB9282C081F
:102170002A020318E62820002808300784002908CE
:10218000313D85000008F8007808A0002B08A20067
:102190002A08A1002D08A4002C08A30032089231BF
:1021A000C32290310130AA070030AB3D0130B007A7
:1021B0000030B13D3108803AF8002F08803A7802AB
:1021C000031DE4282E083002031CAE2820002B0833
:1021D000A9002A08A8000800A201F61FF628F509A0
:1021E000F609F50A0319F60AA201A20AF81F012945
:1021F000F709F809F70A0319F80A0130A0002008C6
:10220000A206A301A4017508760403193029A101CF
:10221000A10AF61B15290130F535F60D890B0C299D
:102220000130A0002008A10709290130A335A40D21
:10223000890B162976087802031D20297508770274
:10224000031C27297508F7027608F83B2314013090
:10225000F636F50C890B28290130A102031D15293A
:10226000220803193829A309A409A30A0319A40AF7
:102270002408F6002308F500080022006908031D61
:102280005E298C12A0309C3130249131A0309431E1
:10229000A22491312000B20032082200E9008C16FD
:1022A00003302000B3008A30B2005530890B562924
:1022B000B20B5629B30B562900323D29E9014E30A5
:1022C0002000A2009830A3009C315A249131343070
:1022D0002000A2009830A3009C315A249131823012
:1022E0002000A2009830A3009C315A2491311A306A
:1022F0002000A2009830A3009C315A24913168300C
:102300002000A2009830A3009C315A249131003063
:102310002000A2009830A3009C315A24080022001B
:10232000A800203086000130870008302100ED0031
:1023300000301E00ED0B99293C30860002308700EA
:102340002A308400013085000C30ED0016001A00A0
:10235000ED0BA6296C089B31962391312100ED00ED
:102360006D082200A9002908031D080021006B0840
:102370000319080020302000B8000130B9000830EF
:10238000BA000030BB0021006C08ED006D08200091
:10239000BC00F7309E31A62691312100EE006E0878
:1023A0002200A9002908031D08002A302100ED00A1
:1023B0006D08F50020308531702591312A302100DB
:1023C000ED006D08E5006B08EE006E08E6006C0895
:1023D000093EEF006F08E7002200280893312F2301
:1023E00008002000E5000530E0006008E200E3019D
:1023F00065089B31962391312000E0006008E400DD
:10240000640803194C2A562A6330B8000030B9001A
:102410000130BA000030BB006508E0006008BC0075
:10242000D0309E31A6269131E1006108E4006408B5
:10243000031D382A60306306031D382A6308E00054
:1024400065088600013087006008810065089D31BD
:10245000F6259131E0006008E4006408031D4F2A6E
:10246000650890310C209131E0006008E4004F2AAB
:102470000030F8000030F7000030F6000130F500C1
:102480006508073E860001308700413F8A00403FD3
:102490000A0092310130E2026208031D042A620838
:1024A000031D562AFE30E0006008E40064080800BE
:1024B0002608F6002508F5009B3124239231760882
:1024C000B1007508B000B201B3010230F500003070
:1024D000F6003108F8003008F7009031EC20923116
:1024E0007608AC007508AB003308803AA7002C08CA
:1024F000803A2702031D7E2A2B0832020318BA2ACB
:1025000020003208250786003308263D8700010891
:10251000A7002708AD0032082502A7003308263B94
:10252000A80030082707A9003108283DAA0029087B
:10253000FF3EAE00FF302A3DAF002E0886002F0878
:1025400087000108A70032082507A8003308263DA8
:10255000A9002808860029088700270881002E087E
:1025600086002F0887002D0881000130B207003057
:10257000B33D742A20003008250786003108263D27
:102580008700810108002000A70021082707F50027
:1025900075088600033087000108F6007608A5005C
:1025A0002008F50021082707F6007608860003308A
:1025B00087007508810021082707F500750A860045
:1025C000033087000108031DEC2A2108013EA0000A
:1025D0000030223DA10008000130A1070030A23DDB
:1025E0002208803AF5002408803A7502031DFA2A71
:1025F000230821020318292B200021082707F500B2
:1026000075088600033087000108F6007608A600EA
:102610002508F50021082707F60076088600033014
:102620008700750881002608F5007508A5000130AF
:10263000A1070030A23D2608031DF02A2608F50058
:1026400021082707F6007608860003308700750802
:10265000810020002108A0002208A100080021001C
:10266000EA00E90165080319A32B66080319A32BE7
:1026700067080319A32B6608043E86000130870013
:102680000030C03F0030C13FC23FC33F66088600F4
:10269000013087000030C03FC13FC23FC33F6608E2
:1026A000083E8600013087000030C03F0030C13F47
:1026B000C23FC33F6A0807390319772B6708E80050
:1026C00068082000B700210065088231812293311B
:1026D00021006608043E860001308700200037088C
:1026E000C03F3808C13F3908C23F3A08C33F210004
:1026F0006A1C922B6708E80068082000D2002100BD
:10270000650896316A2693312100660886000130FB
:10271000870020005208C03F5308C13F5408C23F01
:102720005508C33F21006A1DA52B6608083E860098
:1027300001308700FF30C03FFF30C13F0030C23F53
:102740000030C33FA52BE901E90369080800003008
:10275000C6000030C5000030C4000030C3000F3098
:102760003405BF0000303505C00000303605C1001B
:1027700000303705C2004208031DD02B4108031D5D
:10278000D02B4008031DD02B0A303F020318D02B5A
:102790000030BE000030BD000030BC003030D72B10
:1027A0000030BE000030BD000030BC003730BB0040
:1027B0003B083F07B90043083807BA003A088600CB
:1027C00001308700390881000130C3070030C43D63
:1027D0000030C53D0030C63D0430B736B60CB50CF0
:1027E000B40C890BED2B3708360435043404031977
:1027F0000D2CAF2B3030B90043083807BA003A0827
:10280000860001308700390881000130C30700309D
:10281000C43D0030C53D0030C63D4608031D1A2C9E
:102820004508031D1A2C4408031D1A2C04304302CA
:10283000031CFA2B3808A5000130A600923158225B
:102840000800B201AB1F312CA809A909AA09AB09DC
:10285000A80A0319A90A0319AA0A0319AB0AB201A3
:10286000B20AAF1F422CAC09AD09AE09AF09AC0AE0
:102870000319AD0A0319AE0A0319AF0A0130B000FB
:102880003008B2060030B6000030B5000030B400A9
:102890000030B3002B082A042904280403198B2CC8
:1028A000B101B10AAB1B602C0130A835A90DAA0DEE
:1028B000AB0D890B552C0130B0003008B107522CFC
:1028C0000130B335B40DB50DB60D890B612C2B0855
:1028D0002F02031D752C2A082E02031D752C2908B2
:1028E0002D02031D752C28082C02031C802C28089F
:1028F000AC022908AD3B2A08AE3B2B08AF3B331492
:102900000130AB36AA0CA90CA80C890B812C013024
:10291000B102031D602C32080319992CB309B409C4
:10292000B509B609B30A0319B40A0319B50A03199C
:10293000B60A3608AB003508AA003408A9003308E7
:10294000A80008002000AF00220066082000A300B5
:10295000220065082000A200220064082000A100D7
:10296000220063082000A000B530F5007508A5001E
:102970006230F5007508A6000530F5007508A7005F
:10298000A801A80A0230F5007508A900AA012F08BD
:102990008600023087000230423FAB002F088600DD
:1029A000023087000230433FAC00AD01AE0102307F
:1029B000F5007508B1003108253E860087012D0815
:1029C0000107F5007508AD002E082D07F500750804
:1029D000AE000130F5007508B10708303102031C64
:1029E000DB2CB0010A303002031CF82C0130080047
:1029F000200822006302F500200021082200643B29
:102A0000F600200022082200653BF7002000230882
:102A10002200663BF8007808031D172D7708031D78
:102A2000172DB93075020B30763B031C192D003081
:102A300008009A317D229431003A0319F22C9A3120
:102A4000A2229431F50075082000A4003008253E2C
:102A50008600870101082406031DF12C0130F500D2
:102A60007508B007F22CA9007508093EF600760833
:102A7000A800290A840085010008F60029088400BE
:102A800085012808193E8600013087000008C03FF4
:102A90007608C13F2908023E860087010108F6003A
:102AA00028081B3E8600013087007608810029082F
:102AB000033E860087010108F600F701F61BF703C5
:102AC000F60EF70EF030F70576080F39F704F03000
:102AD000F6057608A2007708A3002908043E8600C0
:102AE000870101080F39F600F7017608A000770882
:102AF000A10020082204F60021082304F70028087A
:102B00001C3E8600013087007608C03F7708C13F31
:102B10002908053E860087010108F600F701F61B2B
:102B2000F703F60EF70EF030F70576080F39F704C5
:102B3000F030F6057608A6007708A7002908043EBD
:102B4000860087010108F6000430F636890BA52DB2
:102B50007608F700F8017708A4007808A500240893
:102B60002604F60025082704F70028081E3E8600E4
:102B7000013087007608C03F7708C13F2908063E2C
:102B8000860087010108F6002808203E86000130F3
:102B90008700760881000800D3000B303602031C42
:102BA000D52D0A30B8003808B60037089B31962377
:102BB00095312000B8003808D2005208031D662E57
:102BC00053080319662E35080319662E36080319B3
:102BD000612E3508860087010108B8003808BB005F
:102BE0003708023E86000130870001030319132EC7
:102BF000D101360851020318132E51085307B800AB
:102C000038088600870101087F39B9005108530749
:102C1000BA003A0886008701390881000130B800FF
:102C20003808D107F92D02303602031C322E3B3012
:102C3000B8003808F5003508B9003908F60036083C
:102C4000BA003A08F70053089D313425953136080B
:102C5000B800B901B835B90D3808FF3ECF00FF30D4
:102C6000393D382E3608B800B9013808CF00390888
:102C7000D00037088600013087000130413FAA00AC
:102C80005308860087010108B8003808AB003B30C4
:102C9000B9003908AC005008AE004F08AD00370845
:102CA000053E860001308700413F8A00403F0A0010
:102CB0009631BA003A08D20052080319682EFC3047
:102CC000622EFD30B8003808D200682ED201D2033F
:102CD00052080800B8000030BC00A730BB00D83054
:102CE000BA00C030B90000302000D6000C30D70048
:102CF000FE30D800FF30D900FF30DA00FF30DB00B3
:102D0000FF30DC00FF30DD005208213E860001303C
:102D10008700403FDE00413FDF00423FE000433F8D
:102D2000E1005E08E2005F08E3006008E40061087B
:102D3000E5000030E51BFF30E600E700E800E900B1
:102D40006208D6076308D73D6408D83D6508D93DB9
:102D50006608DA3D6708DB3D6808DC3D6908DD3D53
:102D60005D082100E40020005C082100E300200051
:102D70005B082100E20020005A082100E100200049
:102D800059082100E000200058082100DF00200041
:102D900057082100DE00200056082100DD00200039
:102DA0005208103E860001308700403FD600413F68
:102DB000D7005608A0005708A100890D893B890952
:102DC000A200A300A400A500A600A70021005D08A2
:102DD0002000A80021005E082000A90021005F0853
:102DE0002000AA00210060082000AB00210061083B
:102DF0002000AC00210062082000AD002100630823
:102E00002000AE00210064082000AF009F31712730
:102E1000200888313328C901383086000030870007
:102E2000473FF600F61F362F2000B809B909BA0946
:102E3000BB09BC09BD09BE09BF09B80A031D332F70
:102E4000B90A031D332FBA0A031D332FBB0A031D12
:102E5000332FBC0A031D332FBD0A031D332FBE0AB7
:102E6000031D332FBF0A2000C901C90A4030860064
:102E700000308700473FF600F61F622F2000C00990
:102E8000C109C209C309C409C509C609C709C00ADD
:102E9000031D5D2FC10A031D5D2FC20A031D5D2F97
:102EA000C30A031D5D2FC40A031D5D2FC50A031D40
:102EB0005D2FC60A031D5D2FC70A0130F600760894
:102EC0002000C9064A308600003087000830F6002E
:102ED00000301E00F60B692F2000380839043A0430
:102EE0003B043C043D043E043F040319CD2FC801BC
:102EF000C80ABF1B882FB835B90DBA0DBB0DBC0D64
:102F0000BD0DBE0DBF0D0130F6007608C807792F44
:102F1000CA35CB0DCC0DCD0DCE0DCF0DD00DD10DB5
:102F20003F084702031DAE2F3E084602031DAE2F89
:102F30003D084502031DAE2F3C084402031DAE2F81
:102F40003B084302031DAE2F3A084202031DAE2F79
:102F500039084102031DAE2F38084002031CC12F5F
:102F60003808C0023908C13B3A08C23B3B08C33BA2
:102F70003C08C43B3D08C53B3E08C63B3F08C73B39
:102F80004A14BF36BE0CBD0CBC0CBB0CBA0CB90C41
:102F9000B80C0130C802031D882F49080319EE2F11
:102FA000CA09CB09CC09CD09CE09CF09D009D1096D
:102FB000CA0A031DEE2FCB0A031DEE2FCC0A031DF8
:102FC000EE2FCD0A031DEE2FCE0A031DEE2FCF0AE2
:102FD000031DEE2FD00A031DEE2FD10A20004A0850
:102FE000B8004B08B9004C08BA004D08BB004E08A9
:102FF000BC004F08BD005008BE005108BF000800CB
:10300000243450345534423458342C34343430342D
:103010002C3452344D3443342C3430342C3430344A
:103020002C3430342C3430342A34343437340D34A6
:103030000A340034243450345534423458342C3457
:10304000343430342C344734533456342C34303404
:103050002C3430342C3430342C3430342A3435345D
:1030600039340D340A340034243450345534423465
:1030700058342C34343430342C34473447344134CD
:103080002C3430342C3430342C3430342C34303430
:103090002A34353441340D340A3400342434503465
:1030A0005534423458342C34343430342C3447348E
:1030B0004C344C342C3430342C3430342C343034C4
:1030C0002C3430342A34353443340D340A3400344B
:1030D000243450345534423458342C34343430345D
:1030E0002C344734533441342C3430342C34303481
:1030F0002C3430342C3430342A34343445340D34C8
:103100000A340034243450345534423458342C3486
:10311000343430342C345634543447342C34303432
:103120002C3430342C3430342C3430342A3435348C
:1031300045340D340A340034243450345534423488
:1031400058342C34303430342A34333433340D345E
:103150000A34003454344534533454342C34003459
:103160005434453453345434003450345534423498
:0A31700058340034243424340034B1
:1034F80008002000100E890C013908007608230006
:10350800EA007508E9000800640080010131890BB0
:10351800892A0034FE0012001E00FE0B8F2A003498
:103528006830210099009801220096010800F500F2
:10353800101E9C2A750823009A000800901EA22AD3
:1035480023009D1CA92A1D121D1619080800013008
:103558002200E3070030E43D0030E53D0030E63D61
:103568000800883100209A319A3194229A319B318F
:103578003D239A319A31F7229A319031022008007E
:103588000B1122006E0820009500230069086A04C8
:10359800031908006A088A0069080A009A310800B5
:1035A8000530F0007008FA0701302200EC02031D14
:1035B800E22A0430F0007008ED000800ED01ED0A81
:1035C8000800F8007808053E860002308700780871
:1035D800043E8400023085000008083EF5000030F3
:1035E800013DF60008001508C039123895008330EF
:1035F800200095008330F70077082200EE000B11B9
:103608008B167C30F5001A30F6009A3182220800B9
:10361800F60076080319132B22000C16152B22002E
:103628000C120D30F500FC30890B182BF50B182BFC
:103638000D30F500FC30890B1F2BF50B1F2B0800F4
:1036480076082000A1007508A00075088400760897
:10365800850012000319352B0130F5070030F63DBF
:10366800292B200020087502F5002108763BF6007A
:103678000800E530F5007508DF00E530F50075084D
:10368800DE00E0146010E201240094012830950067
:10369800970103309200200090119111210090159C
:1036A80091150800F200240016157908023E8600DC
:1036B80001308700160001040319712B7908023EB6
:1036C800860001308700403FF000413FF10070085C
:1036D800860071088700720881002200ED01080049
:1036E800A2007808A1007708A000A035A10D220843
:1036F8008600013087002008C03F2108C13F7608B6
:10370800A0002208023E86000130870020088100C0
:103718002208033E8600013087007508C03F00304C
:10372800C13F0800F80078080319B52B7808033E54
:10373800860001308700160001040319B52B7808AC
:10374800053E860001308700160001040319B52BD9
:103758007808073E86000130870016000104031D23
:10376800B82BF701F703B92BF70177080800A60172
:10377800A7012308F6002208F5009B3124239B317A
:103788007608A5007508A4002708803AF8002508DF
:10379800803A7802031DD22B240826020318080059
:1037A80020002608220786002708233D870081017C
:1037B8000130A6070030A73DC82B22006018012C55
:1037C80020002608A1002508A0002708AB002B0828
:1037D800A2002908A4002808A300DB309C31842417
:1037E8009B31DB30AB002B08F5002A08AC002C0815
:1037F800F60001309F31B827080020002A0886000B
:1038080087018101810A0800A90022006018292C7B
:1038180020002908A7002708F5002308A800280881
:10382800F6002508F8002408F700E0309B317423DF
:103838009C31E030A7002708F5002608A8002808D2
:10384800F60001309F31B8270800200026088600BE
:1038580087018101810A08002000A300A401A501B5
:1038680023089A31E5229C317608A2007508A10048
:103878002508803AA0002208803A2002031D462C21
:103888002108240203180800200024082307A000A8
:10389800200886000230870001089A319B229C315B
:1038A80001302000A4070030A53D3C2CA601A7014B
:1038B8002308F6002208F5009B3124239C31760862
:1038C800A5007508A4002508803AF8002708803A62
:1038D8007802031D712C26082402031C080020000E
:1038E8002208260784002308273D850000089A310E
:1038F8009B229C3101302000A6070030A73D672C91
:10390800F7002408F6002308F500F535F60D7708CA
:103918008600013087007508C03F7608C13F7708E8
:103928008600013087000130810441310030810474
:103938002208F5007708023E8600013087007508E6
:1039480081007708033E8600013087002008C03FC9
:103958002108C13F0800F701F80122008E16023045
:10396800F6004530F500AA30890BB82CF50BB82CB9
:10397800F60BB82C22008E120230F6004530F50006
:10398800AA30890BC52CF50BC52CF60BC52C0130BC
:10399800F7070030F83D7808803AF5008030750266
:1039A800031DD82C0330770203180800B12CB53456
:1039B80062340634243424340034FF34FF340634AB
:1039C8000334003400340034003410342734003415
:1039D800003405340034FA340034FA3400346434E2
:1039E80000342C3401340034003400340034003402
:1039F800003400340034003400340034003400341F
:103A080000341634DC342000A700A501A6012708DD
:103A1800F5000330F6009B3124239D317608A4007D
:103A28007508A3002608803AF8002408803A78022E
:103A3800031D202D2308250203180800200025084F
:103A48002707F800780886000330870001089D31B1
:103A580090259D3101302000A5070030A63D162D88
:103A6800A300A401A40A7708240203180800240864
:103A78002307A0002008860087010108A10024353B
:103A88007507A2002208FF3E8600870121088100F1
:103A980024087607A0002008860087010108A100F5
:103AA80024357507A20022088600870121088100B5
:103AB8000130A0002008A407372D0030F80000309E
:103AC800F7000030F6000030F500201C732D2408A4
:103AD800F5072508F63D2608F73D2708F83D01308B
:103AE800A435A50DA60DA70D890B742D0130A3369D
:103AF800A20CA10CA00C890B7B2D23082204210405
:103B08002004031D692D7808A3007708A200760811
:103B1800A1007508A0000800A00000309B310C230C
:103B28009D312000A101A20120002008F700210AF0
:103B38009E2DF736890B9D2D771CA42D0130A52DC0
:103B480000309B310C239D3101302000A10700304B
:103B5800A23D2208803AF70080307702031DB62D77
:103B680007302102031C982D01309B310C239D3115
:103B780001309B310C230800B701A301A30A2D08CB
:103B8800B300B4013308A4003408A5003730B500E9
:103B98003508A6002E309C3108249D3120003708B6
:103BA800031DF02D3008A6002F08A5003108B3002A
:103BB8003308A7002D08B400B5013408A80035085B
:103BC800A9003730B6003608AA009B31E1239D31A1
:103BD800200037080319F42DFC30B3003308B70070
:103BE80037080800DA00E030D4005408D900B630AD
:103BF800D4005408D7005A089B3196239D312000E1
:103C0800D4005408D8005808031D2D2E5730D4006E
:103C18005408B500B601B60A5A08D5005508B700C9
:103C280059309531CC259D31D6005608D800003042
:103C3800F8000030F7000030F6000230F5005A08AE
:103C4800073E860001308700413F8A00403F0A0056
:103C58009E3158080800220066082000A7002200AC
:103C680065082000A600220064082000A5002200A4
:103C780063082000A400200024082200630220001A
:103C8800A00025082200643B2000A100260822008D
:103C9800653B2000A20027082200663B2000A30005
:103CA80078082302031D622E77082202031D622E64
:103CB80076082102031D622E7508200203180800E9
:103CC800C8300032890B652E3F2EA900FF30A207AD
:103CD800FF30A33D220A0319230A0319A12E29083C
:103CE8008600033087000108A600A7012608A70060
:103CF800A6012608A4062708A5060130A60026085E
:103D0800A907AA01A51B8C2E2435A400250D972EE2
:103D18002508A7002408A600A635A70D21302606E9
:103D2800A40010302706A5000130A6002608AA071F
:103D380008302A0203186A2E862E2508A3002408B4
:103D4800A2000800BF003C089B3196239E3120004A
:103D5800BD003D08C0004008031DE62E3C08023E99
:103D680086000130870001030319BF2E3F08803801
:103D7800BD003D08BF003C088600013087000130C7
:103D8800413FAD003F08BD003D08AE003908B00016
:103D98003808AF003B08B2003A08B1003C08033EBF
:103DA800860001308700413F8A00403F0A009E316B
:103DB800BE003E08C00040080319E62EFC30BD00D6
:103DC8003D08C00040080800AF00FF30B000FF30D9
:103DD800B100B201B3013308803AAD002C08803A33
:103DE8002D02031DF92E2B0832020318262F20005E
:103DF80032082F07AD002D08860001308700010822
:103E0800F5000330F6009B3124239E317608A30089
:103E18007508A2003108A5003008A40032082F0751
:103E2800AE002E0886000130870001089E31692601
:103E38009E312308B1002208B0000130B2070030DB
:103E4800B33DEF2E20003108AC003008AB0008006D
:103E5800A201F81F362FF709F809F70A0319F80A1B
:103E6800A201A20AF61F3D2FF509F609F50A031962
:103E7800F60A750876040319642FA101A10AF61B36
:103E88004F2F0130F535F60D890B462F0130A00074
:103E98002008A107432F76087802031D552F7508BF
:103EA8007702031C5B2F7508F7027608F83B013090
:103EB800F636F50C890B5C2F0130A102031D4F2F3C
:103EC800220803196C2FF709F809F70A0319F80AE9
:103ED8007808F6007708F5000800303086000030D2
:103EE80087000830F50000301E00F50B782F201CE5
:103EF8008D2F2808B0072908B13D2A08B23D2B08A4
:103F0800B33D2C08B43D2D08B53D2E08B63D2F080D
:103F1800B73DA835A90DAA0DAB0DAC0DAD0DAE0D75
:103F2800AF0DA736A60CA50CA40CA30CA20CA10CD3
:103F3800A00C2008210422042304240425042604B8
:103F48002704031D7B2F3008A0003108A100320888
:103F5800A2003308A3003408A4003508A5003608D9
:103F6800A6003708A7000800F80022006018EF2F05
:103F78000230F70076088600870177088100750807
:103F8800F7005E0A8600013087007708810078080C
:103F9800F7005E08860001308700770881005E0818
:103FA800023E8600013087007608C03F0030C13FDE
:103FB8000430F7007708DE075E08E93A031DE82FAA
:103FC800E530F7007708DE00E0105F085E06031DA5
:103FD800F42F6014F42F7608860087018101810A86
:103FE80076088600870102300106031D0800873124
:083FF800FC27200090150800D1
:020000040001F9
:06000E00FC3FFF3E9F3F96
:00000001FF
