:020000040000FA
:1000000080312328911108007E1480318B1A0B1D3A
:100010000D289E31D926803121280B1F212821004F
:10002000911D19282000911D19288031022080314E
:1000300021282100901D21282000901D21288C318D
:10004000C5247E1009008031252821008731FE2734
:100050008031EE008731FF278031EF008E30840041
:1000600090308500A0308600023087000030FF000D
:100070002C3090310020803178308400233085008E
:100080007830FE000030FF009E31BE268031FA013C
:10009000FB01FC01FD01EA01EB01EC01ED01220095
:1000A000EF01A0308400013085004430FE000030B4
:1000B000FF009E31BE268031203084000230850052
:1000C0003630FE000030FF009E31BE2680312030E9
:1000D0008400033085004630FE000030FF009E3172
:1000E000BE268031A0308400033085004930FE00F8
:1000F0000030FF009E31BE267E1020008E31142E6F
:100100002100B4000030B8000130B700AD30B600B7
:10011000B030B50000302000AB000030AA00003045
:10012000A9000230A8003608213E86000130870071
:10013000403FAC00413FAD00423FAE00433FAF0007
:1001400097317F278031003028072100C900063011
:100150002000293D2100CA00FF3020002A3D210057
:10016000CB00FF3020002B3D2100CC0000302000D0
:10017000AB000030AA000030A9000430A800210024
:100180004C082000AF0021004B082000AE002100E9
:100190004A082000AD00210049082000AC0097313A
:1001A0007F2780312B08A3002A08A2002908A1007C
:1001B0002808A0000030AB000030AA000030A900E1
:1001C0000430A80021004C082000AF0021004B089B
:1001D0002000AE0021004A082000AD00210049089F
:1001E0002000AC0097317F2780312B08A7002A0818
:1001F000A6002908A5002808A400913142218031D9
:1002000023082100BC00200022082100BB002000A0
:1002100021082100BA00200020082100B900003088
:100220002000AB000030AA000830A9000030A80070
:1002300021003C082000AF0021003B082000AE0058
:1002400021003A082000AD00210039082000AC0050
:1002500097317F2780312B08A3002A08A2002908A4
:10026000A1002808A0003608103E86000130870053
:10027000403FBA00413FBB003A08A4003B08A5003C
:10028000890D893B8909A600A7009131422180315F
:1002900023082100C400200022082100C300200000
:1002A00021082100C200200020082100C1004108CF
:1002B0002000BA00210042082000BB0021004308B2
:1002C0002000BC00210044082000BD0036080E3E7E
:1002D000860001308700403FBE00413FBF003E081E
:1002E000A0003F08A100890D893B8909A200A30055
:1002F00021004C082000A70021004B082000A60088
:1003000021004A082000A500210049082000A4007F
:100310009131422180312008C0002108C10022080B
:10032000C2002308C3000130C035C10DC20DC30D8A
:10033000890B94294008BA074108BB3D4208BC3DDF
:100340004308BD3D3D082100C40020003C082100B9
:10035000C30020003B082100C20020003A08210011
:10036000C100200036080C3E860001308700403F67
:10037000BA00413FBB003A08BC003B08BD00BE01CB
:10038000BF011030BC35BD0DBE0DBF0D890BC2299C
:100390000030AB000030AA000030A9000430A800F3
:1003A000210044082000AF00210043082000AE00D7
:1003B000210042082000AD00210041082000AC00CF
:1003C00097317F2780312808BC072908BD3D2A08BE
:1003D000BE3D2B08BF3D3F082100C40020003E0861
:1003E0002100C30020003D082100C20020003C087D
:1003F0002100C10000302000AB000030AA00003016
:10040000A9000430A80021004C082000AF00210002
:100410004B082000AE0021004A082000AD0021005A
:1004200049082000AC0097317F2780312B08A300BA
:100430002A08A2002908A1002808A0000030AB006B
:100440000030AA000030A9000430A80021004C08A8
:100450002000AF0021004B082000AE0021004A0818
:100460002000AD00210049082000AC0097317F2713
:1004700080312B08A7002A08A6002908A500280813
:10048000A40091314221803123082100BC002000CA
:1004900022082100BB00200021082100BA00200012
:1004A00020082100B900200036080A3E86000130ED
:1004B0008700403FBA00413FBB003A08A0003B081C
:1004C000A100890D893B8909A200A3000030AB007F
:1004D0000030AA002030A9000030A80021003C080C
:1004E0002000AF0021003B082000AE0021003A08A8
:1004F0002000AD00210039082000AC0097317F2793
:1005000080312B08A7002A08A6002908A500280882
:10051000A40091314221803123082100AF00200046
:1005200022082100AE00200021082100AD0020009B
:1005300020082100AC0000302000AB000030AA00F1
:100540000030A9000830A80021002F082000AF00CB
:1005500021002E082000AE0021002D082000AD0053
:1005600021002C082000AC0097317F2780312B0818
:100570002100A30020002A082100A2002000290851
:100580002100A100200028082100A0000030200048
:10059000AB000030AA000030A9000230A8003608E5
:1005A000083E860001308700403FBA00413FBB0053
:1005B0003A08A0003B08A100890D893B8909A200E7
:1005C000A30021004C082000A70021004B082000B8
:1005D000A60021004A082000A500210049082000AB
:1005E000A4009131422180312308AF002208AE00DF
:1005F0002108AD002008AC0097317F2780312B08FF
:100600002100A70020002A082100A60020002908B8
:100610002100A500200028082100A40000302000AF
:10062000AB000430AA000030A9000030A80021006F
:10063000200824072000BA0021002108253D2000C1
:10064000BB0021002208263D2000BC002100230819
:10065000273D2000BD003D08AF003C08AE003B0830
:10066000AD003A08AC0097317F2780312B0821007C
:10067000CC0020002A082100CB00200029082100FE
:10068000CA00200028082100C90000302000AB006B
:100690000030AA008030A9000030A80000302100FE
:1006A00049072000A000803021004A3D2000A10021
:1006B000003021004B3D2000A200003021004C3DC5
:1006C0002000A3003608063E860001308700403F28
:1006D000BA00413FBB003A08A4003B08A500A601B0
:1006E000A7019131422180312308AF002208AE00DA
:1006F0002108AD002008AC0097317F2780312B08FE
:100700002100CC0020002A082100CB00200029086D
:100710002100CA00200028082100C9004C084B0411
:100720004A0449040319FA2D340886008701403F22
:100730002000BA00413FBB00423FBC00433FBD0028
:100740000030BE000030BF001030C0000030C100DB
:100750003A08BE023B08BF3B3C08C03B3D08C13BDA
:1007600041082100AB00200040082100AA00200021
:100770003F082100A90020003E082100A800003009
:100780002000AB000030AA001030A9000030A80003
:10079000210044082000AF00210043082000AE00E3
:1007A000210042082000AD00210041082000AC00DB
:1007B00097317F2780312808210028022000BA00C5
:1007C00029082100293B2000BB002A0821002A3BE0
:1007D0002000BC002B0821002B3B2000BD003D0861
:1007E000A3003C08A2003B08A1003A08A00000308A
:1007F000A7000030A6000C30A5003530A4009131D0
:100800004221803123082100C80020002208210055
:10081000C700200021082100C60020002008210078
:10082000C500803048020318472C4C082000A30064
:1008300021004B082000A20021004A082000A1004E
:10084000210049082000A000210045352000A40017
:100850002100460D2000A5002100470D2000A60024
:100860002100480D2000A7009331FC23803123088C
:100870002100C800200022082100C7002000210814
:100880002100C600200020082100C500782C4C085B
:100890002000A30021004B082000A20021004A08EC
:1008A0002000A100210049082000A00021004808E4
:1008B0002000A700210047082000A60021004608CC
:1008C0002000A500210045082000A4009331FC234E
:1008D000803120352100C5002000210D2100C600F7
:1008E0002000220D2100C7002000230D2100C80098
:1008F00045082000BA00210046082000BB00210066
:1009000047082000BC00210048082000BD0003303B
:10091000BD36BC0CBB0CBA0C890B882C3D08A7005B
:100920003C08A6003B08A5003A08A40021004508A1
:100930002000BE00210046082000BF00210047081B
:100940002000C000210048082000C1000330C1364B
:10095000C00CBF0CBE0C890BA72C4108A30040089B
:10096000A2003F08A1003E08A00091314221803141
:100970002008C2002108C3002208C4002308C500C3
:100980000D30C536C40CC30CC20C890BC12C4508F4
:100990002100B300200044082100B20020004308D9
:1009A0002100B100200042082100B00000302000EA
:1009B000AB000030AA001030A9000030A8003608B3
:1009C000163E860001308700403FBA00413FBB0021
:1009D0003A08A0003B08A100890D893B8909A200C3
:1009E000A300210033082000A700210032082000C6
:1009F000A600210031082000A500210030082000B9
:100A0000A4009131422180312308AF002208AE00BA
:100A10002108AD002008AC0097317F2780312B08DA
:100A20002100CC0020002A082100CB00200029084A
:100A30002100CA00200028082100C9000030200041
:100A4000AB000030AA002030A9000030A80021002F
:100A500045082000BA00210046082000BB00210004
:100A600047082000BC00210048082000BD000230DB
:100A7000BD36BC0CBB0CBA0C890B382D3D08A3004D
:100A80003C08A2003B08A1003A08A0003608143E2A
:100A9000860001308700403FBE00413FBF003E0856
:100AA000A4003F08A500890D893B8909A600A7007D
:100AB0009131422180312308AF002208AE00210885
:100AC000AD002008AC0097317F2780312B08210032
:100AD000C40020002A082100C300200029082100AA
:100AE000C200200028082100C10000302000AB0017
:100AF0000030AA000030A9001030A80021004108F1
:100B00002000BA00210042082000BB002100430859
:100B10002000BC00210044082000BD00210049083D
:100B20002000BE0021004A082000BF0021004B0821
:100B30002000C00021004C082000C1003608123EF1
:100B4000860001308700403FC200413FC300420899
:100B5000C4004308C5000030C51BFF30C600C700F5
:100B60004408BE074508BF3D4608C03D4708C13D93
:100B70003E08BA073F08BB3D4008BC3D4108BD3DAB
:100B80003D08AF003C08AE003B08AD003A08AC00A1
:100B900097317F2780312808210045072000C800B1
:100BA00029082100463D2000C9002A082100473DB0
:100BB0002000CA002B082100483D2000CB004B0834
:100BC0002100C80020004A082100C7002000490871
:100BD0002100C600200048082100C5004808031D68
:100BE000022E4708031D022E303045027530463B69
:100BF0000318022E0030C8000030C7007530C60050
:100C00003030142E4808031D0D2EB1304502AD3092
:100C1000463B0130473B031C152E0030C800013015
:100C2000C700AD30C600B030C50048082000B9008C
:100C3000210047082000B800210046082000B70026
:100C4000210045082000B6000800D4000030CF0085
:100C50000030CE002130CD003430CC003608860084
:100C600001308700403FBA00413FBB003A08BC005A
:100C70003B08BD00BE01BF010130BC35BD0DBE0D3E
:100C8000BF0D890B3D2E5408043E86008701403F6E
:100C9000C000413FC100423FC200433FC300033098
:100CA000C336C20CC10CC00C890B502E3C08C002CC
:100CB0003D08C13B3E08C23B3F08C33B4308D3004D
:100CC0004208D2004108D1004008D0000030AB00FB
:100CD0000030AA000830A9000030A8003608023E03
:100CE000860001308700403FBA00413FBB003A0810
:100CF000A0003B08A100890D893B8909A200A3003F
:100D00005308A7005208A6005108A5005008A400E7
:100D10009131422186312308AF002208AE0021081C
:100D2000AD002008AC0097317F2786312B08D30017
:100D30002A08D2002908D1002808D00036088600E9
:100D400001308700403FBA00413FBB003A08BC0079
:100D50003B08BD00BE01BF015408043E8600870168
:100D6000403FC000413FC100423FC200433FC3007B
:100D70000430C336C20CC10CC00C890BB92E3C0820
:100D8000C0023D08C13B3E08C23B3F08C33B43088D
:100D9000D8004208D7004108D6004008D5000030EE
:100DA000AB000030AA001030A9000030A80058089D
:100DB000A3005708A2005608A1005508A000580833
:100DC000A7005708A6005608A5005508A4009131B1
:100DD000422186312308AF002208AE002108AD0071
:100DE0002008AC0097317F2786312B08C7002A08DE
:100DF000C6002908C5002808C4000030AB00003038
:100E0000AA004030A9000030A8004708A300460807
:100E1000A2004508A1004408A0003608043E860050
:100E200001308700403FBA00413FBB003A08A400B0
:100E30003B08A500890D893B8909A600A7009131CF
:100E4000422186312308AF002208AE002108AD0000
:100E50002008AC0097317F2786312B08D8002A085C
:100E6000D7002908D6002808D50050085507BA0031
:100E70005108563DBB005208573DBC005308583D31
:100E8000BD003608213E8600013087003A08C03F89
:100E90003B08C13F3C08C23F3D08C33F0030AB00A8
:100EA0000030AA000130A9000030A8008030BA004C
:100EB0000030BB000030BC000030BD003608213ED1
:100EC000860001308700403FA000413FA100423F23
:100ED000A200433FA3000030A7000030A60000306E
:100EE000A5000530A4009131422186312008BA07BF
:100EF0002108BB3D2208BC3D2308BD3D3D08AF0095
:100F00003C08AE003B08AD003A08AC0097317F27A3
:100F100086312B08DC002A08DB002908DA002808C3
:100F2000D900DC1FA52F60305902F0305A3BFF304A
:100F30005B3BFF305C3B0318A52FFF30DC00FF302C
:100F4000DB00F030DA006030BA2FDC1BBB2F5C080E
:100F5000031DB32F5B08031DB32F35305902213019
:100F60005A3B031CBB2F0030DC000030DB0021307B
:100F7000DA003430D9005C08B9005B08B8005A08C0
:100F8000B7005908B600080021006D082000A7002E
:100F900021006C082000A60021006B082000A5009D
:100FA00021006A082000A4002000240821006A0211
:100FB0002000A000250821006B3B2000A10026088E
:100FC00021006C3B2000A200270821006D3B20007F
:100FD000A30077082302031DF72F76082202031DC2
:100FE000F72F75082102031DF72F7408200203183C
:100FF0000800C8300032890BFA2FD42F2034A034D7
:10100000080068302100990098012200960108002C
:10101000A9007408093EF5007508A800290A840093
:1010200085010008F5002908840085012808193E7B
:101030008600013087000008C03F7508C13F2908BD
:10104000023E860087010108F50028081B3E860045
:1010500001308700750881002908033E860087015A
:101060000108F500F601F51BF603F50EF60EF0305B
:10107000F60575080F39F604F030F5057508A2007D
:101080007608A3002908043E8600870101080F396D
:10109000F500F6017508A0007608A10020082204DA
:1010A000F50021082304F60028081C3E86000130C4
:1010B00087007508C03F7608C13F2908053E8600B5
:1010C00087010108F500F601F51BF603F50EF60E93
:1010D000F030F60575080F39F604F030F50575089F
:1010E000A6007608A7002908043E860087010108AB
:1010F000F5000430F536890B7A287508F600F701FB
:101100007608A4007708A50024082604F500250821
:101110002704F60028081E3E860001308700750867
:10112000C03F7608C13F2908063E860087010108B6
:10113000F5002808203E86000130870075088100F0
:101140000800D6000B303902031CAA280A30BB0065
:101150003B08B9003A089F318D278831BB003B0816
:10116000D5005508031D3A29560803193A293808AD
:1011700003193A29390803193529380886008701E7
:101180000108BB003B08BE003A08023E8600013061
:10119000870001030319E728D40139085402031812
:1011A000E72854085607BB003B0886008701010862
:1011B0007F39BC0054085607BD003D0886008701F2
:1011C0003C0881000130BB003B08D407CD28023029
:1011D0003902031C06293E30BB003B08F4003808E6
:1011E000BC003C08F5003908BD003D08F600560873
:1011F0009031E72088313908BB00BC01BB35BC0DFC
:101200003B08FF3ED200FF303C3D0C293908BB00B3
:10121000BC013B08D2003C08D3003A0886000130EC
:1012200087000130413FA800560886008701010869
:10123000BB003B08A9003E30BC003C08AA00530894
:10124000AC005208AB003A08053E8600013087002A
:10125000413F8A00403F0A008931BD003D08D5006A
:10126000550803193C29FC303629FD30BB003B08EA
:10127000D5003C29D501D503550808000230B4003B
:101280003408BA00A801A80A2F08B400B501340830
:10129000A9003508AA003A30B6003608AB00303055
:1012A00090313720893121006D082300C5002100CD
:1012B0006C082300C40021006B082300C300210038
:1012C0006A082300C200023020003A06031D8E295E
:1012D0002300420821006A022000B40023004308D2
:1012E00021006B3B2000B5002300440821006C3B2B
:1012F0002000B6002300450821006D3B2000B70008
:101300003708031D8C293608031D8C29113034023F
:101310002730353B031C6329FC3008003A08031DC5
:10132000E6290230B4003408BA003208B4003408A8
:10133000A2002F08B500B6013508A3003608A400A6
:101340003A30B7003708A500310890310C208931B8
:1013500021006D082300C50021006C082300C40093
:1013600021006B082300C30021006A082300C2008B
:10137000023020003A06031DE22923004208210022
:101380006A022000B4002300430821006B3B2000C8
:10139000B5002300440821006C3B2000B600230068
:1013A000450821006D3B2000B7003708031D8C293C
:1013B0003608031D8C29113034022730353B0318C1
:1013C0008C29B8293A08031D8C29EA29903162201A
:1013D00089318C29003008000230AD002D08B7009B
:1013E00000302C020D3003192B020318F6292908AE
:1013F000AD002D08B600B401B5013408AD00AE0152
:101400002C082E02031D062A2B082D020318662A1B
:101410003508AD00AE012D08F4002E08F5000530AA
:10142000F6000030F7009F31722789317830AF0025
:101430002330B00074082F07A0007508303DA100CC
:101440003630B1003108A200A301A30A2808B20077
:10145000B3013208A4003308A5009F31D927893190
:101460003508AD00AE012D08F4002E08F50005305A
:10147000F6000030F7009F31722789317D30AF00D0
:101480002330B00074082F07A0007508303DA1007C
:101490002A083407B1003108A200A301A30A2808D2
:1014A000B200B3013208A4003308A5009F31D92748
:1014B00089310130AD002D08B6070130AD002D088F
:1014C000B4070230AD002D08B507FD297830F400CF
:1014D0002330F5003730AD002D08F600013094318F
:1014E0004E24893121006D082300C50021006C08BD
:1014F0002300C40021006B082300C30021006A08F8
:101500002300C200023020003706031DAD2A23004D
:10151000420821006A022000AD0023004308210098
:101520006B3B2000AE002300440821006C3B2000F0
:10153000AF002300450821006D3B2000B0003008BB
:10154000031DAB2A2F08031DAB2A11302D022730B3
:101550002E3B031C822AFC3008003708031DAB2AEF
:1015600000300800F7007408093EF5007508F60021
:10157000770A840085010008F5007708840085015A
:1015800076088600013087000008C03F7508C13F1B
:101590007708033E840085010008F5007708023EC5
:1015A000840085017608023E86000130870000082D
:1015B000C03F7508C13F7708053E840085010008DB
:1015C000F5007708043E840085017608043E860015
:1015D000013087000008C03F7508C13F7708073E0B
:1015E000840085010008F5007708063E8400850127
:1015F0007608063E8600013087000008C03F750867
:10160000C13F7708093E840085010008F50077088E
:10161000083E840085017608083E86000130870078
:101620000008C03F7508C13F77080B3E8400850164
:101630000008F50077080A3E8400850176080A3E16
:101640008600013087000008C03F7508C13F770859
:101650000D3E840085010008F50077080C3E8400EB
:10166000850176080C3E8600013087000008C03FE7
:101670007508C13F77080F3E840085010008F5001A
:1016800077080E3E8400850176080E3E8600013004
:1016900087000008C03F7508C13F7708113E8400ED
:1016A00085010008F5007708103E84008501760862
:1016B000103E8600013087000008C03F7508C13F1A
:1016C0007708133E840085010008F5007708123E74
:1016D000840085017608123E8600013087000008EC
:1016E000C03F7508C13F7708153E8400850100089A
:1016F000F5007708143E840085017608143E8600C4
:10170000013087000008C03F7508C13F7708173EC9
:10171000840085010008F5007708163E84008501E5
:101720007608163E8600013087000008C03F750825
:10173000C13F7708193E860087010108F500760849
:10174000183E860001308700750881000800B4004B
:101750003408860087010108A000A101A201A301AD
:101760000C30A035A10DA20DA30D890BB12B2308C0
:10177000B3002208B2002108B1002008B000340AEA
:10178000860087010108A000A101A201A301043085
:10179000A035A10DA20DA30D890BC82B2308AF0006
:1017A0002208AE002108AD002008AC003408023E3B
:1017B000860087010108A0000430A036890BDD2BCC
:1017C0002008A100A201A301A4012408AB00230862
:1017D000AA002208A9002108A8002808A0002908BA
:1017E000A1002A08A2002B08A30030082C04A400A2
:1017F00031082D04A50032082E04A60033082F045A
:10180000A7002408A0042508A1042608A20427088C
:10181000A3047408860087012008C03F2108C13F47
:101820002208C23F2308C33F3408033E86008701D5
:101830000108A000A101A201A3010C30A035A10D57
:10184000A20DA30D890B1E2C2308B3002208B200A1
:101850002108B1002008B0003408043E860087014A
:101860000108A000A101A201A3010430A035A10D2F
:10187000A20DA30D890B362C2308AF002208AE0061
:101880002108AD002008AC003408053E8600870121
:101890000108A0000430A036890B4B2C2008A100C1
:1018A000A201A301A4012408AB002308AA00220876
:1018B000A9002108A8002808A0002908A1002A08DA
:1018C000A2002B08A30030082C04A40031082D042A
:1018D000A50032082E04A60033082F04A700240810
:1018E000A0042508A1042608A2042708A30474085C
:1018F000043E860087012008C03F2108C13F22081E
:10190000C23F2308C33F3408063E86008701010812
:10191000A000A101A201A3010830A035A10DA20DD4
:10192000A30D890B8D2C2308AF002208AE002108DF
:10193000AD002008AC003408073E8600870101088E
:10194000A000A101A201A3012308B3002208B20054
:101950002108B1002008B00030082C04A000310894
:101960002D04A10032082E04A20033082F04A30086
:101970007408083E860087012008C03F2108C13F47
:101980002208C23F2308C33F080090112400951F7E
:10199000E82D9513FB0123004808860049088700BD
:1019A00043310108860087018101810AC801C9010C
:1019B00008002300BF1808003E08C9003D08C80001
:1019C0003D0886003E0887000108F2007208FA0010
:1019D0003D0886003E0887004131403FCA00413F34
:1019E000CB000530BD070030BE3D01303E06031D73
:1019F000FB2CE4303D06031D012DDF30BD0001301E
:101A0000BE003F103C083E06031D082D3B083D0666
:101A10000319BF14240016140230F2007208FB00F0
:101A20000800942D161F1D2D0130F20072082300AE
:101A3000C10704309F313E2708007D08F3007C0871
:101A4000F200F336F20C720891007C1C2C2D0B3046
:101A5000F2007208FB0008000330F2007208FB007D
:101A60000800161F3C2D0130F20072082300C10748
:101A700004309F313E270800961406307D05F200A1
:101A8000F0307204FC000030FD007C142300CD0116
:101A9000CD0A0C2D23004D0303196A2D4A08860038
:101AA0004B088700403FFC00413FFD004A0886008C
:101AB0004B08870043310108F20072082200EF0052
:101AC00023004A0886004B08870042310108F200D3
:101AD0007208CE007C08240091007C1C2C2D05305F
:101AE000F2007208FB000800161F812D0130F20081
:101AF00072082300C1072400161305309F313E27CA
:101B0000080001302300CE024E0A031D962D053039
:101B1000CA070030CB3D0130FA02031D932D00307F
:101B20009F313E270800240096140C2D22006F08D8
:101B3000860087010108240091000130F20072083C
:101B40002200EF070800161FB02D0130F2007208C6
:101B50002300C10704309F313E27240016130800DC
:101B600096150830F2007208FB0008000830F200F9
:101B70007208FB00961508001108F20022006F0899
:101B800086008701720881000130F2007208EF07B9
:101B900001302300CE020319D42D24009612063002
:101BA000F2007208FB00D82D240096169E31E9261B
:101BB00024001616080000309F313E27080001302F
:101BC000F20072082300C10706309F313E2708004B
:101BD0007B08F200F3017308003A0319F02DDF2DA2
:101BE0007208003A0319D92C013A0319112D033A4E
:101BF00003194A2D013A0319742D073A0319DB2DF5
:101C0000013A0319A32D033A0319B62D013A03191A
:101C1000DB2D0F3A0319BC2D023A0319122D013A9C
:101C20000319312DDF2D08009E31CA268E318B1706
:101C3000AA30F4001E30F5009E31A5268E31763094
:101C40002000EB006B082200BD00BE01BE0A3E3042
:101C5000BF000930C000EC30C1000930C200C43000
:101C6000C3000730C40021006E082000A00003302C
:101C7000A1009F31B2278E3121006F082000A00003
:101C80000330A1009F31B2278E313C3095315B2566
:101C90008E3130302000EB006B08E3003C30EC006C
:101CA0006C08E40007309431A0248E3121006E08C6
:101CB0002000A0000330A1009F31B2278E31210007
:101CC0006F082000A0000330A1009F31B2278E31A1
:101CD000203086000130870010302000EB000030FB
:101CE0001E00EB0B702E220035082000B4002200ED
:101CF00034082000B3002030B5000130B600963122
:101D000098268E3121006F08F4000330F5009F31D2
:101D10000F278E3175082100E9007408E800203093
:101D20002000A5000130A600210069082000A800BD
:101D3000210068082000A7004630A9000030AA0052
:101D400021006F0893315B238E3126082100E900C2
:101D5000200025082100E8002C302000EB006B0853
:101D6000F40021006908F6006808F5004630F70025
:101D70000030F8006F089531C1258E3175082100BB
:101D8000E9007408E80020302000A0000130A10024
:101D90009F31B2278E31220031082000B40022008A
:101DA00030082000B3002030B5000130B600963175
:101DB00098268E312030A5000130A6002100690848
:101DC0002000A800210068082000A7004630A900D4
:101DD0000030AA0021006F0893315B238E31260862
:101DE0002100E900200025082100E8006908E5003D
:101DF0006808E400AA302000A5009830A600003052
:101E0000A700A8004630A9000030AA0021006E08F3
:101E100093315B238E3126082100E900200025083C
:101E20002100E80020302000A0000130A1009F31F7
:101E3000B2278E31230047082000B4002300460853
:101E40002000B3002030B5000130B600963198264E
:101E50008E312030A5000130A60021006908200045
:101E6000A800210068082000A7004630A900003023
:101E7000AA0021006E0893315B238E3126082100D1
:101E8000E900200025082100E8002C302000EB00AC
:101E90006B08F40021006908F6006808F500463078
:101EA000F7000030F8006E089531C1258E31023000
:101EB0002000A9000030AA00EE3092318B228E3132
:101EC0002908EB002A08EC00ED01EE016E08B600CF
:101ED0006D08B5006C08B4006B08B300CF30EF009C
:101EE0006F08B700973105278E31BA30A5009830BA
:101EF000A6000030A700A8004630A9000030AA00C4
:101F000021006E0893315B238E312A30EB006B0881
:101F1000F40021006508F6006408F5004630F7007B
:101F20000030F8006F089531C1258E317508210009
:101F3000E9007408E800CF302000A5000130A600B9
:101F4000210069082000A800210068082000A700DF
:101F50004630A9000030AA0021006F0893315B23AE
:101F60008E3126082100E900200025082100E80024
:101F70000A302000EB006B08F40021006908F6002D
:101F80006808F5004630F7000030F8006F0895311A
:101F9000C1258E3175082100E9007408E800013080
:101FA0002300C6070030C73D22000C1521006E0833
:101FB000913114218E3121006F08913114218E311D
:101FC00022000C112100E601E70107302000EB00A0
:101FD0007D30890BE92FEB0BE92F01302100E6075B
:101FE0000030E73D6708803A2000EB0083306B0249
:101FF000031DFD2FE830210066020318492EE52F4E
:10200000FE0012001E000130FE020030FF3B7F0880
:102010007E04031900340128A80023003F1830284B
:10202000D530F4000130F50020002808A60026086D
:10203000F6002208A7002708F7002408F900230863
:10204000F800913171219031D530F4000130F50064
:102050002508A6002608F600013094314E24080019
:1020600020002508860087018101810A0800AE0052
:1020700023003F185B28DA302000A0000130A100C7
:102080002E08AC002C08A2002808AD002D08A300E3
:102090002A08A5002908A4009F31D9279031DA30F9
:1020A000F4000130F5002B08AC002C08F6000130DC
:1020B00094314E24080020002B08860087018101FE
:1020C000810A0800F601F70122008E160230F500A1
:1020D0004530F400AA30890B6B28F40B6B28F50B04
:1020E0006B2822008E120230F5004530F400AA3031
:1020F000890B7828F40B7828F50B78280130F6073F
:102100000030F73D7708803AF40080307402031DF8
:102110008B2803307602031808006428B534623433
:102120000634243424340034FF34FF3406340334BA
:1021300000340034003400341034273400340034C8
:1021400005340034FA340034FA3400346434003492
:102150002C340134003400340034003400340034B2
:1021600000340034003400340034003400340034CF
:102170001634DC34F70000309F3126279031F80107
:10218000F9017708F600780AC628F636890BC528C3
:10219000761CCC280130CD2800309F312627903185
:1021A0000130F8070030F93D7908803AF6008030B8
:1021B0007602031DDD2807307802031CC128013098
:1021C0009F312627903101309F3126270800A0003B
:1021D000A101A10A7608210203180800210820079E
:1021E000F7007708860087010108F8002135740799
:1021F000F9007908FF3E86008701780881002108F0
:102200007507F7007708860087010108F800213577
:102210007407F90079088600870178088100013089
:10222000F7007708A107EA282000A500A301A40170
:102230002508F4000330F5009F310F279131750810
:102240002000A2007408A1002408803AA0002208FF
:10225000803A2002031D2E292108230203180800BA
:10226000200023082507A0002008860003308700EF
:1022700001089031BA20913101302000A3070030CD
:10228000A43D24290030F7000030F6000030F500AE
:102290000030F400201C54292408F4072508F53DDB
:1022A0002608F63D2708F73D0130A435A50DA60DFB
:1022B000A70D890B55290130A336A20CA10CA00C47
:1022C000890B5C292308220421042004031D4A29C8
:1022D0007708A3007608A2007508A1007408A00082
:1022E00008007908A1007808A000A035A10D7408A5
:1022F0008600750887002008C03F2108C13F740888
:102300008600750887000130810441310030810466
:102310007408023EA0000030753DA1002008860030
:1023200021088700770881007408033EA000003070
:10233000753DA100200886002108870076088100ED
:10234000080022008C018D018E01033021008C00D9
:1023500070308D00DF308E004F3023008E008030D3
:102360008D0003308C0024008D018C018E01210032
:10237000951725008C018D018E01373026008C00C9
:10238000F0308D00FF308E000D303C00A4000C308A
:10239000A10010303D009E0012309F0011309C00C3
:1023A0000E303C00A0000800DD00E030D7005708E8
:1023B000DC00B630D7005708DA005D089F318D2762
:1023C0009131D7005708DB005B08031D0A2A5A30F9
:1023D000D7005708B800B901B90A5D08D8005808F5
:1023E000BA005C308831A1209131D9005908DB0056
:1023F0000030F7000030F6000030F5000230F40045
:102400005D08073E860001308700413F8A00403F5B
:102410000A0092315B080800A700FF30A007FF30D8
:10242000A13D200A0319210A0319442A270886001E
:10243000033087000108A400A5012408A500A40119
:102440002408A2062508A3060130A4002408A70733
:10245000A801A31B2F2A2235A200230D3A2A230804
:10246000A5002208A400A435A50D21302406A20051
:1024700010302506A3000130A4002408A807083066
:10248000280203180D2A292A2308A1002208A000E7
:102490000800C2003E089F318D279231BF003F08DF
:1024A000C3004308031D892A3E08023E860001300E
:1024B000870001030319612A42088038BF003F08E2
:1024C000C2003E088600013087000130413FAF0066
:1024D0004208BF003F08B0003B08C0004008B10000
:1024E0003D08B3003C08B2003E08033E86000130C0
:1024F0008700413F8A00403F0A0092312000C1001E
:102500004108C30043080319892AFC30BF003F0873
:10251000C30043080800AF00FF30AD00FF30AE003D
:10252000B001B1013108803AAB002A08803A2B0291
:10253000031D9C2A290830020318C82A20003008ED
:102540002F07AB002B08860087010108F400033039
:10255000F5009F310F27923175082000A100740803
:10256000A0002E08A3002D08A20030082F07AC0001
:102570002C0886008701010892310C229231210833
:10258000AE002008AD000130B0070030B13D922A06
:1025900020002E08AA002D08A9000800A101F71F9D
:1025A000D82AF609F709F60A0319F70AA101A10AC0
:1025B000F51FDF2AF409F509F40A0319F50A74086E
:1025C00075040319062BA001A00AF51BF12A01309E
:1025D000F435F50D890BE82A0130F8007808A007DA
:1025E000E52A75087702031DF72A74087602031C92
:1025F000FD2A7408F6027508F73B0130F536F40C35
:10260000890BFE2A0130A002031DF12A21080319BB
:102610000E2BF609F709F60A0319F70A7708F500F1
:102620007608F4000800E300473086000030870099
:102630001A30C40000301E00C40B1B2B4730C400EE
:102640004408BB001A30BC000030BD006308C50060
:102650004508BE008830923149229331C6004608B1
:10266000E2006208031D592B6308C4004408F4000B
:1026700047308A31B22293314730C4004408BB004E
:102680000730BC000030BD006308C5004508BE002F
:10269000E130923149229331C6004608E2006208D7
:1026A000031D592B6308C4004408F40047308831E7
:1026B0000820620808002000AF00AD01AE01260826
:1026C000F5002508F4009F310F279331750820008D
:1026D000AC007408AB00992B20002808803AF90060
:1026E0002A08803A7902031D772B2908270203184C
:1026F000A52B200025082D07840026082E3D8500E7
:102700000008F9007908F4002808F6002708F50009
:102710002A08F8002908F7002F089531C1259331C0
:1027200001302000A7070030A83D0130AD07003080
:10273000AE3D2E08803AF9002C08803A7902031D3C
:10274000A32B2B082D02031C6C2B20002808A600AD
:102750002708A5000800A101F51FB52BF409F5090C
:10276000F40A0319F50AA101A10AF71FC02BF60903
:10277000F709F60A0319F70A0130F8007808A106EC
:10278000A201A301740875040319EF2BA001A00A8C
:10279000F51BD42B0130F435F50D890BCB2B013013
:1027A000F8007808A007C82B0130A235A30D890BCB
:1027B000D52B75087702031DDF2B74087602031CE6
:1027C000E62B7408F6027508F73B22140130F53643
:1027D000F40C890BE72B0130A002031DD42B210838
:1027E0000319F72BA209A309A20A0319A30A2308B4
:1027F000F5002208F40008000030F8000030F7006F
:102800000030F6000030F5002308220421042004E3
:102810000319452CF901F90AA31B1A2C0130A03524
:10282000A10DA20DA30D890B0F2C0130F40074082B
:10283000F9070C2C0130F535F60DF70DF80D890B65
:102840001B2C23082702031D2F2C22082602031D00
:102850002F2C21082502031D2F2C20082402031CE5
:102860003A2C2008A4022108A53B2208A63B2308F5
:10287000A73B75140130A336A20CA10CA00C890B48
:102880003B2C0130F902031D1A2C7808A3007708AD
:10289000A2007608A1007508A0000800F900230036
:1028A0003F188F2C0230F7007608860087017708E2
:1028B00081003B0886003C08870041317408C03F16
:1028C0007508C13F3B0886003C08870079088100F5
:1028D0003B08033EF70000303C3DF80077088600D7
:1028E00078088700760881000530BB070030BC3DC2
:1028F00001303C06031D7E2CE4303B06031D842C76
:10290000DF30BB000130BC00BF103C083E06031D99
:102910008B2C3B083D06031D942C3F14942C760809
:10292000860087018101810A7608860087010230CE
:102930000106031D08009E31A12620009015080005
:102940002100D500CD3086000030870008302000FF
:10295000E50000301E00E50BAA2CA03086000130F7
:102960008700D7308400003085000C30E500160069
:102970001A00E50BB72C64089F318D279431E500D0
:1029800065082100D6005608031D080020006308D2
:1029900003190800CD30E5006508BB000830BC0015
:1029A0000030BD006408E6006608BE00F7309231D2
:1029B00049229431E70067082100D6005608031D1C
:1029C0000800D7302000E5006508F400CD308B31D9
:1029D000A7239431D730E5006508DD006308E600E1
:1029E0006608DE006408093EE7006708DF00210092
:1029F00055089431FC2408002000E200E1015D0844
:102A00000319572D5E080319572D5F080319572D19
:102A10005E08043E8600013087000030C03F003071
:102A2000C13FC23FC33F5E088600013087000030CF
:102A3000C03FC13FC23FC33F5E08083E8600013031
:102A400087000030C03F0030C13FC23FC33F620833
:102A500007390319402D5F08E0006008B6005D08E3
:102A60008631252694315E08043E860001308700B9
:102A70003608C03F3708C13F3808C23F3908C33F56
:102A8000621C592D5F08E0006008B6005D088031C7
:102A9000802094315E088600013087003608C03FF0
:102AA0003708C13F3808C23F3908C33F592DE101FB
:102AB000E103610808002000EA000530E400640832
:102AC000E700E8016A089F318D279531E40064082A
:102AD000E90069080319B52DBF2D6830E4006408CA
:102AE000BB000130BC000030BD006A08E50065088D
:102AF000BE00D030923149229531E6006608E900E7
:102B00006908031DA12D60306806031DA12D68080A
:102B1000E4006A08860001308700640881006A08C2
:102B20009131D4219531E4006408E9006908031D5E
:102B3000B82D6A08933113239531E4006408E90045
:102B4000B82D0030F7000030F6000030F5000130FD
:102B5000F4006A08073E860001308700413F8A0082
:102B6000403F0A0095310130E7026708031D6D2DD3
:102B70006708031DBF2DFE30E4006408E900690802
:102B800008002000A40075082407A0002008860083
:102B9000033087000108A1002108A2007408A000EA
:102BA00075082407A100210886000330870020084B
:102BB000810075082407A000200A860003308700E2
:102BC0000108031DEA2D7508013EF4000030763D32
:102BD000F50008000130F5070030F63D7608803A30
:102BE000A0007808803A2002031DF82D77087502AE
:102BF0000318272E750820002407A000200886004F
:102C0000033087000108A1002108A3002208A000CA
:102C100075082407A10021088600033087002008DA
:102C200081002308A0002008A2000130F507003031
:102C3000F63D2308031DEE2D2308A0007508240788
:102C4000A100210886000330870020088100750854
:102C5000F4007608F50008002508F5002408F400C3
:102C60009F310F27963175082000B0007408AF001F
:102C7000B101B2010230F4000030F5003008F70075
:102C80002F08F6009331AB2396317508AB0074081A
:102C9000AA003208803AA6002B08803A2602031DBB
:102CA000532E2A08310203188F2E200031082407E2
:102CB00086003208253D87000108A6002608AC00E2
:102CC00031082402A6003208253BA7002F0826075A
:102CD000A8003008273DA9002808FF3EAD00FF30BE
:102CE000293DAE002D0886002E0887000108A600A9
:102CF00031082407A7003208253DA80027088600D0
:102D000028088700260881002D0886002E088700E5
:102D10002C0881000130B1070030B23D492E20005F
:102D20002F08240786003008253D87008101080010
:102D3000BB01BC01B41F9E2E01309F2E0030B70096
:102D40003708BA003A080319AA2EB309B409B30A1E
:102D50000319B40A0A30F4000030F50020003408EA
:102D6000F7003308F6009231CE2296317408303ED7
:102D7000B7003B083507B8003C08363DB9003808B5
:102D8000860039088700370881000130BB07003012
:102D9000BC3D0A30F4000030F5003408F700330879
:102DA000F6009331AB2396317508B4007408B30074
:102DB0003408803AB70080303702031DE12E01301D
:102DC00033020318AA2E20003A080319F72E3B08F5
:102DD0003507B7003C08363DB8003708860038088C
:102DE00087002D3081000130BB070030BC3D3B081F
:102DF000350786003C08363D870081013608A5006E
:102E00003508A40096312C2608000030C50000309B
:102E1000C4000030C3000030C2000F303305BE00D4
:102E200000303405BF0000303505C00000303605E5
:102E3000C1004108031D2E2F4008031D2E2F3F08FF
:102E4000031D2E2F0A303E0203182E2F0030BD0026
:102E50000030BC000030BB003030352F0030BD00EA
:102E60000030BC000030BB003730BA003A083E07E3
:102E7000B80042083707B9003908860001308700DA
:102E8000380881000130C2070030C33D0030C43D26
:102E90000030C53D0430B636B50CB40CB30C890B0C
:102EA0004B2F360835043404330403196B2F0D2FD0
:102EB0003030B80042083707B900390886000130C1
:102EC0008700380881000130C2070030C33D003060
:102ED000C43D0030C53D4508031D782F4408031D3F
:102EE000782F4308031D782F04304202031C582F0B
:102EF0003708A4000130A50096312C260800B10146
:102F0000AB1F8F2FA809A909AA09AB09A80A0319A1
:102F1000A90A0319AA0A0319AB0AB101B10AAF1F22
:102F2000A02FAC09AD09AE09AF09AC0A0319AD0A6F
:102F30000319AE0A0319AF0A0130F8007808B10688
:102F40000030B5000030B4000030B3000030B200F3
:102F50002B082A04290428040319E92FB001B00A18
:102F6000AB1BBE2F0130A835A90DAA0DAB0D890BE7
:102F7000B32F0130F8007808B007B02F0130B23518
:102F8000B30DB40DB50D890BBF2F2B082F02031DF8
:102F9000D32F2A082E02031DD32F29082D02031D2B
:102FA000D32F28082C02031CDE2F2808AC02290886
:102FB000AD3B2A08AE3B2B08AF3B32140130AB3699
:102FC000AA0CA90CA80C890BDF2F0130B002031D3D
:102FD000BE2F31080319F72FB209B309B409B50997
:102FE000B20A0319B30A0319B40A0319B50A35085A
:102FF000AB003408AA003308A9003208A800080072
:10300000243450345534423458342C34343430342D
:103010002C3452344D3443342C3430342C3430344A
:103020002C3430342C3430342A34343437340D34A6
:103030000A340034243450345534423458342C3457
:10304000343430342C344734533456342C34303404
:103050002C3430342C3430342C3430342A3435345D
:1030600039340D340A340034243450345534423465
:1030700058342C34343430342C34473447344134CD
:103080002C3430342C3430342C3430342C34303430
:103090002A34353441340D340A3400342434503465
:1030A0005534423458342C34343430342C3447348E
:1030B0004C344C342C3430342C3430342C343034C4
:1030C0002C3430342A34353443340D340A3400344B
:1030D000243450345534423458342C34343430345D
:1030E0002C344734533441342C3430342C34303481
:1030F0002C3430342C3430342A34343445340D34C8
:103100000A340034243450345534423458342C3486
:10311000343430342C345634543447342C34303432
:103120002C3430342C3430342C3430342A3435348C
:1031300045340D340A340034243450345534423488
:1031400058342C34303430342A34333433340D345E
:103150000A34003454344534533454342C34003459
:103160005434453453345434003450345534423498
:0A31700058340034243424340034B1
:103D42007B0803190800A12E7508E5007408E40039
:103D5200080001302100EA070030EB3D0030EC3D65
:103D62000030ED3D080008309F0090309D00243067
:103D72009E0067309B009C010800640080010131B5
:103D82000130FE020030FF3B7F087E04031900343D
:103D9200BF2E9131A1219E31883101209E319F3168
:103DA20058279E319E31FA269E319E31B426080054
:103DB2000B112300660820009500230064086504A7
:103DC2000319080065088A0064080A009E31080089
:103DD20005302300CA070030CB3D0130FA02031D33
:103DE200F72E0430F0007008FB000800FB01FB0A0C
:103DF20008001508C039123895008330200095005C
:103E02008330F60076082300E6000B118B16003093
:103E1200F4000830F5009E31A52608007508F80068
:103E22007408F700740884007508850012000319ED
:103E32001F2F0130F4070030F53D132F770874026D
:103E4200F4007808753BF5000800F50075080319C1
:103E52002D2F22000C162F2F22000C120D30F400F1
:103E6200FC30890B322FF40B322F0D30F400FC3072
:103E7200890B392FF40B392F0800F1002400161595
:103E820023004808860049088700433101080319C6
:103E9200562F7108F0004808860049088700433110
:103EA20001088600870170088100FB010800DF30ED
:103EB2002300BD000130BE00DF30BB000130BC007A
:103EC200BF143F10C10124009401283095009701CE
:103ED200033092002000901191112100901591154C
:103EE2000800F801F901741C7A2F7608F8077708A0
:103EF200F93D0130F635F70D890B7B2F0130F53690
:103F0200F40C890B802F74087504031D742F790833
:103F1200F5007808F4000800F70077080319AC2FC1
:103F22007708033E8600013087001600010403195A
:103F3200AC2F7708053E8600013087001600010489
:103F42000319AC2F7708073E860001308700160060
:103F52000104031DAF2FF601F603B02FF601760818
:103F62000800A401A5012108F5002008F4009F31F2
:103F72000F279F3175082000A3007408A2002508AE
:103F8200803AF9002308803A7902031DCA2F2208D9
:103F920024020318080020002408200786002508B0
:103FA200213D870081010130A4070030A53DC02FCB
:103FB2002508A7002408A600A635A70D200886001C
:103FC200210887002608C03F2708C13F2008023E7B
:103FD200A6000030213DA70026088600270887009A
:103FE200230881002008033EA6000030213DA700DF
:0E3FF2002608860027088700220881000800A4
:020000040001F9
:06000E00FC3FFF3E9F3F96
:00000001FF
