:020000040000FA
:0400000080310D2816
:1000060008007E1480318B1A0B1D0B288831A8201E
:100016007E10090080310F288030840088308500EA
:10002600E230860000308700093088316B2080314D
:10003600EB3084008A308500A030860001308700CE
:100046002C3088316B208031ED01EE01EF01CE308E
:1000560084000030850014308831652080312030DE
:100066008400013085004E30883165208031CC30E7
:1000760084000130850020308831652080312030B1
:100086008400023085004630883165208031A030FA
:100096008400023085004930883165207E102000BA
:1000A6008731502F2100B7002000530886008701B2
:1000B600403FD500413FD6005508840056088500CC
:1000C6001200253A031D822A530886008701013053
:1000D600810741310318810A2100D801D901200086
:1000E600ED01EE01FF302100DA00FF30DB00B30145
:1000F600B40194286D1453088600870101308107E6
:1001060041310318810A9428ED147E286D157E2846
:10011600ED157E286D167E2801302100B3000030D3
:10012600B400210033083404031DBF2820005308FF
:1001360086008701403FD500413FD6005508840020
:10014600560885000008D700D8015808003A031958
:10015600AD288F285708203A03198B28033A03192C
:100166008D28083A03198928063A03197D281D3A6D
:10017600031987288F28942820006D1CC628FD3077
:10018600ED05FF30EE05530886008701403FD50098
:10019600413FD600550884005608850012002A3AC9
:1001A600031DF52853088600870101308107413178
:1001B6000318810A54088600870101088400850116
:1001C60002308107003F2100D800013FD900D91F26
:1001D600382920006D142100D809D909D80A031935
:1001E600D90A3829530886008701403FF600413F67
:1001F600F7008D31C025803177082100D9007608B7
:10020600D8000E2920005308860087010130810797
:1002160041310318810A2000530886008701403FB8
:10022600D500413FD60055088400560885000008D1
:10023600D03ED700FF3003180030D80000305802F7
:100246000A300319570203182A2901302B290030D6
:10025600D900DA0159082100B50020005A0821000A
:10026600B60035083604031D05292000530886000C
:100276008701403FD500413FD60055088400560807
:1002860085001200643A031957295308860087012E
:10029600403FD500413FD6005508840056088500EA
:1002A6001200693A031DA42953088600870101300C
:1002B600810741310318810A540886008701010825
:1002C6008400850102308107003FD500013FD6003A
:1002D60055082100A000200056082100A100890D24
:1002E600893B8909A200A300A400A500A600A700D7
:1002F60020082000B000210021082000B1002100C4
:1003060022082000B200210023082000B3002100AB
:1003160024082000B400210025082000B500210093
:1003260026082000B600210027082000B70021007B
:1003360037088331FC2320003108D4003008D3006D
:100346000800530886008701403FD500413FD6008C
:1003560055088400560885001200733A031DD529F6
:100366005308860087010130810741310318810A4D
:100376005408860087010108840085010230810740
:10038600003F2100B000013FB1003108FB003008FA
:10039600FA0037088E3161267B082000D4007A08DF
:1003A600D3000800530886008701403FD500413F2F
:1003B600D60055088400560885001200783A0319BD
:1003C600F329530886008701403FD500413FD600F8
:1003D60055088400560885001200583A031D4E2A17
:1003E600530886008701403FD500413FD600550897
:1003F6008400560885000008D70057082100B2007F
:100406002000530886008701013081074131031817
:10041600810A54088600870101088400850102309C
:100426008107003F2100A800013FA900AA01AB01F6
:10043600AC01AD01AE01AF0128082000AD002100DE
:1004460029082000AE0021002A082000AF00210064
:100456002B082000B00021002C082000B10021004C
:100466002D082000B20021002E082000B300210034
:100476002F082000B400210032082000D5005508BE
:10048600B500210037088231A72220002E08D400AB
:100496002D08D3000800530886008701403FD50089
:1004A600413FD60055088400560885001200253ABB
:1004B600031D772A530886008701013081074131E1
:1004C6000318810A2530F2000030F30021003708B6
:1004D6002000D5005508F4008B31D12301302000CF
:1004E600D3000030D400080053088600870101308D
:1004F600810741310318810AD301D401080053084A
:1005060086008701403FD500413FD600550884004C
:10051600560885000008D700D8015708F200580889
:10052600F300210037082000D9005908F4008B3168
:10053600D1238031200053088600870101308107CE
:1005460041310318810A712A2000BE002100DB1BFD
:10055600B12AFD302000ED05FF30EE0521005B08D5
:10056600803A2000B60080303602031DBD2A0130D5
:1005760021005A020318C52A01302000C3000030AA
:10058600C400CD2A21005B082000C40021005A08BF
:100596002000C300210059082000C6002100580889
:1005A6002000C5006D1EDB2AFE30C507FF30C63DA4
:1005B6002D08C7002E08C8002F08C9003008CA0039
:1005C6003108CB003208CC003308CD003408CE0009
:1005D6001F30CF000030D0002300EB019C2BFF30F2
:1005E6002000CF07FF30D03D0F304705D100003047
:1005F6004805D2005208803AB60080303602031D04
:10060600062B0A305102031C0C2B20005108573EC2
:100616000F2B20005108303ED1000030523DD20051
:100626003508BF3EB600FF3003180030B700003073
:1006360037021A30031936020318232B0130242BF4
:100646000030B800B9013808BF003908C0003F08BB
:10065600400403195A2B20305104B60000305204CE
:10066600B70036089F3EB800FF30373DB90000306E
:1006760039021A30031938020318432B0130442B70
:100686000030BA00BB013A08C1003B08C20041086D
:10069600420403195A2B5208F7005108F600893113
:1006A600FD21823177082000D2007608D10051085A
:1006B600B6004F08CC3E8600013087003608810020
:1006C600FF30C307FF30C43DFF30C507FF30C63DCE
:1006D6004730860000308700403FB600413FB700F4
:1006E600423FB800433FB900443FBA00453FBB0014
:1006F600463FBC00473FBD0004302000BD36BC0C61
:10070600BB0CBA0CB90CB80CB70CB60C890B802B09
:1007160020003D08CE003C08CD003B08CC003A083E
:10072600CB003908CA003808C9003708C80036089F
:10073600C70020005008803AB60080303602031DFC
:10074600A62B02304F02031CCD2B2000470848047D
:1007560049044A044B044C044D044E04031DF22A7A
:100766004408803AB60080303602031DBC2B0130A7
:1007760043020318F22A20004608803AB600803069
:100786003602031DC82B01304502031CCD2B200069
:10079600ED18F22A20006D1EEA2BFF30CF07FF303E
:1007A600D03D3508B6004F08CC3E860001308700A4
:1007B60036088100FF30CF07FF30D03D3030B6001D
:1007C6004F08CC3E860001308700360881004F086E
:1007D600CC3EB6003608A4004608A6004508A5008B
:1007E6003E088C311C2420002508AE002408AD00EC
:1007F60008002000BB003008C4003108C5003208DC
:10080600C6003308C7003408C8003508C9003608D2
:10081600CA003708CB004430860000308700473FC7
:10082600B800B81F182C0130192C00302000B90070
:10083600BA013908C2003A08C30042084304031942
:10084600422CC409C509C609C709C809C909CA0984
:10085600CB09C40A031D422CC50A031D422CC60A35
:10086600031D422CC70A031D422CC80A031D422C35
:10087600C90A031D422CCA0A031D422CCB0A2100B9
:10088600DB1B4A2CFD302000ED05FF30EE05210074
:100896005B08803A2000B80080303802031D562CD1
:1008A600013021005A0203185E2C01302000BE00E0
:1008B6000030BF00662C21005B082000BF0021002D
:1008C6005A082000BE00210059082000C10021005E
:1008D60058082000C00042084304031D742C6D1DF7
:1008E600782CFF30C007FF30C13D1F30CC000030F0
:1008F600CD002300EB010D2D2000440845044604DD
:100906004704480449044A044B04031DA42C3F0829
:10091600803AB80080303802031D932C01303E0225
:100926000318A42C20004108803AB8008030380211
:10093600031D9F2C01304002031C192D2000ED1CC5
:10094600192DFF302000CC07FF30CD3D0A30A00026
:10095600A101A201A301A401A501A601A7014408C2
:10096600A8004508A9004608AA004708AB004808A1
:10097600AC004908AD004A08AE004B08AF008F3105
:100986002427833120002108F4002008F300893150
:100996001D2183317308303E2000B8004C08CC3E40
:1009A60086000130870038088100FF30BE07FF301F
:1009B600BF3DFF30C007FF30C13D0A30A000A10196
:1009C600A201A301A401A501A601A7014408A8004C
:1009D6004508A9004608AA004708AB004808AC002D
:1009E6004908AD004A08AE004B08AF0086315D26C7
:1009F600833120002008C4002108C5002208C60053
:100A06002308C7002408C8002508C9002608CA000C
:100A16002708CB0020004D08803AB8008030380205
:100A2600031D172D01304C0203187F2C20004208AD
:100A36004304031D202D6D1D372DFF30CC07FF30DD
:100A4600CD3D42084304031D2A2D2B302B2D2D307E
:100A5600BC000030BD003C08B8004C08CC3E860007
:100A660001308700380881004C08CC3EB8003808B1
:100A7600A4004108A6004008A5003B088C311C24B0
:100A860020002508B1002408B00008002100C50197
:100A960022008E1621005508BD005408BC005308DC
:100AA600BB005208BA00C601C701C301C401B03079
:100AB6002000E3009030E4008831B8208531210021
:100AC6004508031D5A2E3A0852022000E90021006B
:100AD6003B08533B2000EA0021003C08543B200021
:100AE600EB0021003D08553B2000EC006C08031D7F
:100AF6005A2E6B08031D5A2EB93069020B306A3B19
:100B060003185A2E883155208531003A0319622D73
:100B16008831932085312000E90069082100C8004A
:100B2600C201C20AB82D01302100C3070030C43DFE
:100B3600C601C701C92D21004408803A2000E900FA
:100B460080306902031DAA2D0E3021004302031CCA
:100B5600AE2D0130AF2D00302000EA006A082100DA
:100B6600C500C92D2100C201C92D48082000E90091
:100B7600EA016A08003A0319C12DB52D69080A3A37
:100B860003199E2D263A0319962DB52D42080319F1
:100B96002F2E622D48082000E900210046084C3E11
:100BA600282E48082000E90021004608313E282E5C
:100BB6004E3048060319E12D2D30E22D2B30BE00B4
:100BC6000030BF003E082000E90069082200B0009E
:100BD600542E48082000E90021004608213E282E10
:100BE600453048060319F92D2D30FA2D2B30C0005B
:100BF6000030C10040082000E90069082200A0007A
:100C0600542E48082000E90021004608403E282EC0
:100C160048082000E90021004608CE3E86008701EC
:100C26002B2E48082000E90021004608663E282EA3
:100C360048082000E900210046085E3E282E4808A4
:100C46002000E90021004608563E86000130870054
:100C5600200069088100542E4408003A0319342EF6
:100C6600542E4308023A0319CD2D013A0319D42D07
:100C7600073A0319DB2D013A0319EC2D033A031940
:100C8600F32D013A0319042E0F3A03190B2E033ADA
:100C96000319142E073A03191B2E013A0319222EA3
:100CA600542E01302100C6070030C73D622D2100B9
:100CB60045080800F2012030860000308700473FD3
:100CC600F000F01F872E2000A009A109A209A309A0
:100CD600A409A509A609A709A00A031D852EA10A2C
:100CE600031D852EA20A031D852EA30A031D852E2C
:100CF600A40A031D852EA50A031D852EA60A031D1B
:100D0600852EA70AF201F20A2830860000308700F5
:100D1600473FF000F01FB22E2000A809A909AA0932
:100D2600AB09AC09AD09AE09AF09A80A031DAE2E81
:100D3600A90A031DAE2EAA0A031DAE2EAB0A031D79
:100D4600AE2EAC0A031DAE2EAD0A031DAE2EAE0AA4
:100D5600031DAE2EAF0A0130F0007008F2067330A4
:100D66008600003087000830F00000301E00F00BCF
:100D7600B92E20002008210422042304240425047B
:100D86002604270403191D2FF101F10AA71BD82EEB
:100D9600A035A10DA20DA30DA40DA50DA60DA70DA1
:100DA6000130F0007008F107C92EF335F40DF50D8A
:100DB600F60DF70DF80DF90DFA0D27082F02031D94
:100DC600FE2E26082E02031DFE2E25082D02031DCB
:100DD600FE2E24082C02031DFE2E23082B02031DC3
:100DE600FE2E22082A02031DFE2E21082902031DBB
:100DF600FE2E20082802031C112F2008A802210815
:100E0600A93B2208AA3B2308AB3B2408AC3B250898
:100E1600AD3B2608AE3B2708AF3B7314A736A60C9E
:100E2600A50CA40CA30CA20CA10CA00C0130F10281
:100E3600031DD82E720803193E2FF309F409F5098C
:100E4600F609F709F809F909FA09F30A031D3E2F0D
:100E5600F40A031D3E2FF50A031D3E2FF60A031D55
:100E66003E2FF70A031D3E2FF80A031D3E2FF90AEF
:100E7600031D3E2FFA0A73082000A0007408A10083
:100E86007508A2007608A3007708A4007808A500D4
:100E96007908A6007A08A70008008731F427873169
:100EA6008B178930F0000830F10088315F208731D8
:100EB6008C316C2487312100CA01CB01853149254B
:100EC6008731003A0319D52F21006908B80002308E
:100ED600B9009C30BA009030BB004B08BD004A08F0
:100EE600BC004C30BE000130BF003030C0000130C5
:100EF600C1002030C2000130C3008B31442387314A
:100F060021006A08B8000230B900BE30BA0090303D
:100F1600BB004030BC000130BD006630BE00013071
:100F2600BF005E30C0000130C1005630C200013043
:100F3600C3008B3144238731DC302100B8000030F8
:100F4600B900CA30BA009030BB000230F800003059
:100F5600F900E9308C31BE24873179082100BD00C3
:100F66007808BC008B3144238731DC302100C9006E
:100F76004908F9006A088831DB20873101302100F1
:100F8600CA070030CB3D22000C15210069088A31C2
:100F96009522873121006A088A31952287312200FD
:100FA6000C11D82F8A31BF2287312100CC01CD0107
:100FB60007302100C9007D30890BDF2FC90BDF2FD9
:100FC60001302100CC070030CD3D4D08803AC900E4
:100FD60083304902031DF12FE8304C020318612FBC
:100FE600DB2F8A316B228731883171208731883136
:0A0FF600F020873188319D200800AB
:1010AA002000100E890C01390800F10071088831FE
:1010BA007820080071082100EC007008EB00080095
:1010CA00640080010131890B66280034FE00120099
:1010DA001E00FE0B6C28003468302100990098012C
:1010EA00220096010800F0002000101E79287008DE
:1010FA0023009A00080028346E3475346C346C343A
:10110A00293400342034A03401302100D2070030C1
:10111A00D33D0030D43D0030D53D08002000901E5C
:10112A00932823009D1C9B281D121D1619080800D0
:10113A00083023009F0090309D0024309E006730C5
:10114A009B009C0108000B1121006D0820009500EE
:10115A0021006B086C04031908006C088A006B08EC
:10116A000A008831080065302000E5006508E800BB
:10117A006408DC006308DB006830E5006508DD0010
:10118A0000308B3171230800F3007308053E860096
:10119A00013087007308043E84000130850000088E
:1011AA00083EF0000030013DF1000800FD0079081A
:1011BA00FA007A08F4007D08F0000230F100893163
:1011CA00342188317008FB007108FC007D087B0718
:1011DA0089319121080021001508C039123895007B
:1011EA008330200095008330F20072082100ED0060
:1011FA000B118B160330F0000030F10088315F20AC
:10120A0008007008D03EF200FF30713DF300003054
:10121A0073020A30031972020318152901301629BC
:10122A000030F400F5017408F0007508F1000800B8
:10123A007408803AF50080307502031D26290130B2
:10124A007302031808007309F5007409F600F50A19
:10125A000319F60A7508F3007608F4000800710805
:10126A00F3007008F2007008860071088700010810
:10127A00031944290130F0070030F13D382972087A
:10128A007002F0007308713BF10008007008BF3E5D
:10129A00F200FF30713DF300003073021A30031977
:1012AA00720203185A2901305B290030F400F50153
:1012BA007408F0007508F100080070089F3EF200FB
:1012CA00FF30713DF300003073021A3003197202C5
:1012DA0003187129013072290030F400F5017408ED
:1012EA00F0007508F1000800F1007108031980295F
:1012FA0022000C16822922000C120D30F000FC305C
:10130A00890B8529F00B85290D30F000FC30890BFB
:10131A008C29F00B8C290800F8007408F500750870
:10132A00F6007808F5007508F7007708860002309D
:10133A008700F70A760884008501F60A0008C03F8C
:10134A008908031908009A29F401F501701CB129CA
:10135A007208F4077308F53D0130F235F30D890B75
:10136A00B2290130F136F00C890BB72970087104E3
:10137A00031DAB297508F1007408F0000800F40198
:10138A00F40A2030700671040319D8297008F73E50
:10139A00F200FF30713DF30000307302053003198B
:1013AA0072020318F4017408F200F3017208F000E3
:1013BA007308F100080020307004F2000030710454
:1013CA00F30072089F3EF400FF30733DF5000030D1
:1013DA0075021A30031974020318F5290130F62927
:1013EA000030F600F7017608F0007708F1000800EF
:1013FA0076089F3EF800FF30773DF9000030790209
:10140A001A300319780203180C2A01300D2A003009
:10141A00FA00FB017A08FC007B08FD007C087D04C9
:10142A00031908005F307605F60000307705F700EB
:10143A0008002000A300A101A20121082307FB0044
:10144A007B088600013087000108FC007C08A000A8
:10145A002008031908002008FB00FC017B08F200A1
:10146A007C08F3007A08FD007D08F4008B31D12353
:10147A008A3101302000A1070030A23D222AF9005A
:10148A00F701F80179088831C9208A317108F60014
:10149A007008F5007808803AF4007608803A7402F9
:1014AA00031D592A75087702031808007708790777
:1014BA00F40074088600013087000108883178201A
:1014CA008A310130F7070030F83D4F2A22008C019B
:1014DA008D018E01033021008C0070308D00DF30C9
:1014EA008E004F3023008E00B0308D0003308C0008
:1014FA0024008D018C018E012100951725008C0195
:10150A008D018E01373026008C00F0308D00FF30BF
:10151A008E000E303C00A40012303D009F000800EF
:10152A00FB00F901FA017B08F0000230F100893171
:10153A0034218A317108F8007008F7007A08803A75
:10154A00F6007808803A7602031DAD2A77087902F8
:10155A000318080079087B07F6007608860002302F
:10156A00870001088B3117238A310130F9070030CF
:10157A00FA3DA32AF201F30122008E160230F1008D
:10158A004530F000AA30890BC82AF00BC82AF10BA3
:10159A00C82A22008E120230F1004530F000AA302B
:1015AA00890BD52AF00BD52AF10BD52A0130F2077F
:1015BA000030F33D7308803AF00080307002031D5A
:1015CA00E82A0330720203180800C12AB5346234CB
:1015DA000634243424340034FF34FF34063403340C
:1015EA00003400340034003410342734003400341A
:1015FA0005340034FA340034FA34003464340034E4
:10160A002C34013400340034003400340034003403
:10161A000034003400340034003400340034003420
:10162A001634DC34F3000030893179218B31F4012E
:10163A00F5017308F200740A232BF236890B222B68
:10164A00721C292B01302A2B0030893179218B31E8
:10165A000130F4070030F53D7508803AF200803019
:10166A007202031D3A2B07307402031C1E2B013031
:10167A00893179218B310130893179210800BC30D7
:10168A002000E3006308E600210039082000E80092
:10169A00210038082000E700E901EA01EB01EC012A
:1016AA0021003B082000DC0021003A082000DB0072
:1016BA006630E3006308DD0067308B317123023046
:1016CA00673E86008701403F210038078400413F7A
:1016DA00393D8500800108002000E0005C08E20036
:1016EA005B08E1002100D601D701200061088400CF
:1016FA006208850012000319972B6130DE005E082C
:10170A00D3005D08DF005F08D400600880315520EF
:10171A008B31200053082100D607200054082100ED
:10172A00D73D7A2B210057082000DC0021005608FB
:10173A002000DB0008007208F300F4017308F400CB
:10174A00F30170087306F00071087406F100F601DF
:10175A00F701F11FBD2B7108F4007008F300F3358F
:10176A00F40D21307306F00010307406F100C22B1C
:10177A000130F035F10D890BBE2B0130F607003030
:10178A00F73D7708803AF300803073020830031976
:10179A00760203180800AE2B7408031D7408031D93
:1017AA00DA2B720888315A2008007408043E860031
:1017BA008701160001040319FE2B7408043E8600F3
:1017CA008701403FF500413FF6007408023E86005B
:1017DA008701403FF700413FF8007808803AF90056
:1017EA007608803A7902031DFC2B750877020318E4
:1017FA0008007408023E8600870174088400850187
:10180A00403F0007F5000131413F003DF6007508F1
:10181A00860076088700720881007408023E8600F6
:10182A0087010130810741310318810A080020002D
:10183A00AC006D1C282C2C08A7002708FA002408E5
:10184A008A311E228C312000A61B302C2608AB00C0
:10185A002508AA00322CAA01AB01A801A90129086E
:10186A00803AA7002B08803A2702031D3E2C2A083B
:10187A0028020318522C2030F2000030F300200016
:10188A002C08A7002708F4008B31D1238C310130B2
:10189A002000A8070030A93D342C20006D185D2CCB
:1018AA002C08A7002708FA0024088A311E228C3146
:1018BA0020002408F0000130F10089313421200091
:1018CA002A087007A4002B08713DA5000800200013
:1018DA006F08031D8E2C22008C12A0308A314422FC
:1018EA008C31A0308D312E258C312000E900690819
:1018FA00EF0022008C1603302000EA008A30E9004B
:10190A005530890B862CE90B862CEA0B862C003283
:10191A006C2CEF014E30E3009030E4008831B8209F
:10192A008C3100302000E3009030E4008831B82088
:10193A008C3182302000E3009030E4008831B820F6
:10194A008C3134302000E3009030E4008831B82034
:10195A008C3168302000E3009030E4008831B820F0
:10196A008C311A302000E3009030E4008831B8202E
:10197A0008002000A200FF30A400FF30A500A60145
:10198A00A7012708803AFA007908803A7A02031DEB
:10199A00D02C780826020318282D200026082207B2
:1019AA00FA007A08860087010108FB007B08A80074
:1019BA002808F0000230F100893134218C31710895
:1019CA002000A1007008A00029082807FA007A0858
:1019DA00860002308700243001060319F72CA9017A
:1019EA00AA01FB2C0230A9000030AA0021082A0211
:1019FA00031D012D200829020318232D2908280771
:101A0A00FA007A088600023087000108FB007B088A
:101A1A00A3002508F1002408F0002308FA007A0838
:101A2A00F2008B31A0238C3171082000A5007008C8
:101A3A00A4000130A9070030AA3DFB2C0130A607FB
:101A4A000030A73DC62C20002508F9002408F8001C
:101A5A0008002000AF00210055082000A300210043
:101A6A0054082000A200210053082000A1002100F0
:101A7A0052082000A000B530F0007008A5006230BE
:101A8A00F0007008A6000530F0007008A700A80151
:101A9A00A80A0230F0007008A900AA012F088600DF
:101AAA00013087000130423FAB002F088600013029
:101ABA0087000130433FAC00AD01AE010230F000B7
:101ACA007008B1003108253E860087012D080107FC
:101ADA00F0007008AD002E082D07F0007008AE0067
:101AEA000130F0007008B10708303102031C672D7D
:101AFA00B0010A3020003002031C852D0130080095
:101B0A00200821005202F000200021082100533B46
:101B1A00F100200022082100543BF2002000230893
:101B2A002100553BF3007308031DA42D7208031D01
:101B3A00A42DB93070020B30713B031CA62D003066
:101B4A000800883155208D31003A03197E2D8831DD
:101B5A0093208D31F00070082000A4003008253E43
:101B6A008600870101082406031D7D2D0130F0003F
:101B7A007008B0077E2D2000A701A801A001A101CD
:101B8A00A601A60A76088400770885001200203A82
:101B9A000319E12D76088400770885000008F73ECE
:101BAA00F800FF3003180030F900003079020530E0
:101BBA00031978020318A6012608F800F901780823
:101BCA00A2007908A300220823040319F62D013084
:101BDA00F6070030F73DC52D0130A0000030A10006
:101BEA00292E76088400770885000008F800F90194
:101BFA007908003A0319022E2D2E78082B3A031978
:101C0A00292E063A0319F12D2D2E7608840077081D
:101C1A0085000008F8002808F1002708F0000A30BB
:101C2A00F2000030F3008931A9218D317108FA00E0
:101C3A0078087002F900031CFA037908303E200084
:101C4A00A70000307A3DA8000130F6070030F73DC2
:101C5A0076088400770885000008D03EF800FF3037
:101C6A0003180030F900003079020A3003197802AB
:101C7A000318412E0130422E0030FA00FB017A0887
:101C8A00A4007B08A50024082504031D0A2E2008A9
:101C9A002104031D5C2E2709F8002809F900F80A17
:101CAA000319F90A7808F6007908F70008002808E5
:101CBA00F7002708F60008002000AE00E230860090
:101CCA000030870023308400003085000730A000F0
:101CDA0016001A00A00B6D2E7B08B0007A08AF0020
:101CEA002F083004031D7D2E2330AF000030B000D2
:101CFA003008F1002F08F000893134218E31710843
:101D0A002000B4007008B30021005B082000B20074
:101D1A0021005A082000B100B21BA42E3208803AD2
:101D2A00A0003408803A2002031D9D2E3308310298
:101D3A000318A42E20003208B4003108B300200092
:101D4A003408B2003308B100210059082000AD0060
:101D5A00210058082000AC006D1CC52ED12E203061
:101D6A00F2000030F30020002E08A0002008F40042
:101D7A008B31D1238E3101302000B3070030B43DBE
:101D8A003408803AA0002D08803A2002031DCF2E85
:101D9A002C083302031CB42E2000AA01AB012B0825
:101DAA00803AA0003208803A2002031DDE2E310854
:101DBA002A020318FD2E20002F088600300887000B
:101DCA000108A000A1012008F2002108F3002E0852
:101DDA00A2002208F4008B31D1238E310130200079
:101DEA00AF070030B03D0130AA070030AB3DD42E1A
:101DFA0020006D18122F1E2F2030F2000030F30041
:101E0A0020002E08A0002008F4008B31D1238E3147
:101E1A0001302000B3070030B43D3408803AA000F6
:101E2A002D08803A2002031D1C2F2C083302031CA4
:101E3A00012F20003408FB003308FA000800F201E1
:101E4A002830860000308700473FF000F01F4E2FF1
:101E5A002000A809A909AA09AB09AC09AD09AE096C
:101E6A00AF09A80A031D4C2FA90A031D4C2FAA0A61
:101E7A00031D4C2FAB0A031D4C2FAC0A031D4C2F1C
:101E8A00AD0A031D4C2FAE0A031D4C2FAF0AF201F7
:101E9A00F20A2030860000308700473FF000F01F2A
:101EAA00752F2000A009A109A209A309A409A5095F
:101EBA00A609A709A00A031D752FA10A031D752FDC
:101ECA00A20A031D752FA30A031D752FA40A031D59
:101EDA00752FA50A031D752FA60A031D752FA70ABC
:101EEA0020002008210422042304240425042604B3
:101EFA0027040319CD2FF101F10AA71B912FA03551
:101F0A00A10DA20DA30DA40DA50DA60DA70D0130BF
:101F1A00F0007008F107822F27082F02031DAF2F48
:101F2A0026082E02031DAF2F25082D02031DAF2FF1
:101F3A0024082C02031DAF2F23082B02031DAF2FE9
:101F4A0022082A02031DAF2F21082902031DAF2FE1
:101F5A0020082802031CC12F2008A8022108A93B37
:101F6A002208AA3B2308AB3B2408AC3B2508AD3B1F
:101F7A002608AE3B2708AF3BA736A60CA50CA40C37
:101F8A00A30CA20CA10CA00C0130F102031D912F8D
:101F9A0072080319EE2FA809A909AA09AB09AC0905
:101FAA00AD09AE09AF09A80A031DEE2FA90A031D40
:101FBA00EE2FAA0A031DEE2FAB0A031DEE2FAC0A61
:101FCA00031DEE2FAD0A031DEE2FAE0A031DEE2FE1
:101FDA00AF0A20002808A0002908A1002A08A200A8
:101FEA002B08A3002C08A4002D08A5002E08A60083
:101FFA002F08A7000800243450345534423458348A
:10200A002C34343430342C345A34443441342C345F
:10201A0030342C3430342C3430342C3430342A34A8
:10202A00343434340D340A340034243450345534BE
:10203A00423458342C34343430342C3452344D3401
:10204A0043342C3430342C3430342C3430342C3463
:10205A0030342A34343437340D340A3400342434D6
:10206A0050345534423458342C34343430342C34CB
:10207A004734533456342C3430342C3430342C34E2
:10208A0030342C3430342A34353439340D340A346B
:10209A000034243450345534423458342C343434D3
:1020AA0030342C3447344C344C342C3430342C34C3
:1020BA0030342C3430342C3430342A3435344334EC
:1020CA000D340A34003424345034553442345834EC
:1020DA002C34343430342C344734533441342C3493
:1020EA0030342C3430342C3430342C3430342A34D8
:1020FA00343445340D340A340034243450345534DD
:10210A00423458342C34343430342C345634543425
:10211A0047342C3430342C3430342C3430342C348E
:10212A0030342A34353445340D340A3400342434F6
:10213A00243454344534533454342C3425346434DC
:10214A002C34253473342C34253473342C3425340C
:10215A0073342C34003424345034553442345834D3
:10216A002C34303430342A34333433340D340A3492
:10217A000034253473342C34253473342C34253408
:10218A0073342C342534733400342A3425343034EF
:10219A00343458340A340034E834033432340034E2
:0421AA0005340034C4
:020000040001F9
:06000E00FC3FFF3E9F3F96
:00000001FF
