:020000040000FA
:1000000080312328911108007E1480318B1A0B1D3A
:100010000D289E31D226803121280B1F2128210056
:10002000911D19282000911D19288031022080314E
:1000300021282100901D21282000901D2128843195
:10004000C0247E1009008031252823009E31982687
:100050008031EC009E3199268031ED009E319A2648
:100060008031EE009E319B268031EF00F901FA01CC
:10007000FB01FC0120308400013085002F309E31CF
:10008000A2268031E43084000130850008309E31A2
:10009000A226803120308400023085001A309E3143
:1000A000A2268031A03084000230850046309E3187
:1000B000A2268031203084000330850049309E31F3
:1000C000A2267E10200093310C2B2000C700370899
:1000D000213E860001308700403FBB00413FBC000D
:1000E000423FBD00433FBE0000303B07D000D4304C
:1000F0003C3DD100FE303D3DD200FF303E3DD300BF
:100100004708083E860001308700403FBB00413F62
:10011000BC00423FBD00433FBE000E30BB35BC0DAE
:10012000BD0DBE0D890B8E283E08D7003D08D600B8
:100130003C08D5003B08D40037081C3E860001303F
:100140008700403FBB00413FBC003B08BD003C086E
:10015000BE00BF01C0011430BD35BE0DBF0DC00DC6
:10016000890BAC284008E3003F08E2003E08E100AC
:100170003D08E00037081E3E860001308700403F02
:10018000BB00413FBC003B08A0003C08A100890D1A
:10019000893B8909A200A3005308A7005208A600C2
:1001A0005108A5005008A40090316F208031230829
:1001B000DB002208DA002108D9002008D80000302E
:1001C000AB000030AA008030A9000030A80054081D
:1001D000BB005508BC005608BD005708BE006009AA
:1001E000BF006109C0006209C1006309C200BF0A03
:1001F0000319C00A0319C10A0319C20A5808BF0229
:100200005908C03B5A08C13B5B08C23B3F08BB07CB
:100210004008BC3D4108BD3D4208BE3D00303B07A3
:10022000AC0040303C3DAD0000303D3DAE00003004
:100230003E3DAF009331D92380312B08DF002A08DF
:10024000DE002908DD002808DC000030AB000030AB
:10025000AA000430A9000030A8003708203E86001C
:10026000013087000108A0008039031DFF30A10084
:10027000A200A3005308A7005208A6005108A50039
:100280005008A40090316F2080312308AF0022086D
:10029000AE002108AD002008AC009331D923803195
:1002A0002B08D7002A08D6002908D5002808D40032
:1002B0000030AB000030AA000830A9000030A800D0
:1002C00037081B3E8600013087000108BB00BC01D7
:1002D000BD01BE013E08A3003D08A2003C08A100EC
:1002E0003B08A0005308A7005208A6005108A5002B
:1002F0005008A40090316F2080312308AF002208FD
:10030000AE002108AD002008AC009331D923803124
:100310002B08E3002A08E2002908E1002808E00091
:100320000030AB000030AA000430A9000030A80063
:1003300000306007A0008030613DA1000030623DC8
:10034000A2000030633DA3005708A7005608A6008E
:100350005508A5005408A40090316F20803123086F
:10036000AF002208AE002108AD002008AC00933198
:10037000D923803100302807D8000030293DD9002A
:1003800020302A3DDA0000302B3DDB000030AB008E
:100390000030AA004030A9000030A8000030BB00A7
:1003A0002030BC000030BD000030BE003708193ED0
:1003B000860001308700403FBF00413FC0003F083A
:1003C000A0004008A100890D893B8909A200A30073
:1003D0005B08A7005A08A6005908A5005808A40001
:1003E00090316F2080312008BB072108BC3D2208D6
:1003F000BD3D2308BE3D3E08AF003D08AE003C08B1
:10040000AD003B08AC009331D92380312B08D700D5
:100410002A08D6002908D5002808D4005F08A300C0
:100420005E08A2005D08A1005C08A0005708A700B4
:100430005608A6005508A5005408A40090316F2066
:1004400080312308E3002208E2002108E1002008AF
:10045000E0000030AB000030AA008030A90000307E
:10046000A8006308AF006208AE006108AD00600834
:10047000AC009331D92380312B08A3002A08A200B5
:100480002908A1002808A0000030AB000030AA0015
:100490008030A9000030A8006308AF006208AE00F9
:1004A0006108AD006008AC009331D92380312B087E
:1004B000A7002A08A6002908A5002808A400903152
:1004C0006F2080312308C6002208C5002108C4001F
:1004D0002008C3000030AB000030AA000030A900A3
:1004E0008030A8004608AF004508AE004408AD00C3
:1004F0004308AC009331D92380312B08DB002A0854
:10050000DA002908D9002808D8000030AB000030F4
:10051000AA000030A9001030A8003708183E860055
:10052000013087000108BB00BC01BD01BE013E08CF
:10053000A3003D08A2003C08A1003B08A0005B0806
:10054000A7005A08A6005908A5005808A400903131
:100550006F2080312308AF002208AE002108AD00D3
:100560002008AC009331D923803128086002BF00F5
:100570002908613BC0002A08623BC1002B08633B8D
:10058000C2004208DF004108DE004008DD003F08ED
:10059000DC00DF1FD32A0030DF000030DE00003037
:1005A000DD000030DC00DF1BE72A01305C02003098
:1005B0005D3B00305E3B19305F3B031CE72A19307E
:1005C000DF000030DE000030DD000030DC000030F5
:1005D000AB000030AA001030A9000030A8005F086E
:1005E000AF005E08AE005D08AD005C08AC00933162
:1005F000D92380312B08CF002A08CE002908CD004E
:100600002808CC004F08031D0D2B01304C02903000
:100610004D3B01304E3B031C152B0030CF00013009
:10062000CE009030CD000030CC004F08BA004E080C
:10063000B9004D08B8004C08B70008002000D500EC
:100640000030D0000030CF002130CE003430CD005B
:100650003708860001308700403FBB00413FBC00A7
:100660003B08BD003C08BE00BF01C0010130BD35E4
:10067000BE0DBF0DC00D890B372B5508043E8600FB
:1006800001308700403FC100413FC200423FC300EC
:10069000433FC4000330C436C30CC20CC10C890BE9
:1006A0004B2B3D08C1023E08C23B3F08C33B4008FC
:1006B000C43B4408D4004308D3004208D200410898
:1006C000D1000030AB000030AA000830A900003093
:1006D000A8003708023E860001308700403FBB007B
:1006E000413FBC003B08A0003C08A100890D893BAC
:1006F0008909A200A3005408A7005308A6005208C5
:10070000A5005108A40090316F2083312308AF0069
:100710002208AE002108AD002008AC009331D92397
:1007200083312B08D4002A08D3002908D2002808D6
:10073000D1003708860001308700403FBB00413FB1
:10074000BC003B08BD003C08BE00BF01C00155080D
:10075000043E860001308700403FC100413FC20097
:10076000423FC300433FC4000430C436C30CC20C34
:10077000C10C890BB52B3D08C1023E08C23B3F08A6
:10078000C33B4008C43B4408D9004308D800420892
:10079000D7004108D6000030AB000030AA0010306E
:1007A000A9000030A8005908A3005808A200570863
:1007B000A1005608A0005908A7005808A60057082D
:1007C000A5005608A40090316F2083312308AF00A4
:1007D0002208AE002108AD002008AC009331D923D7
:1007E00083312B08C8002A08C7002908C60028083A
:1007F000C5000030AB000030AA004030A900003036
:10080000A8004808A3004708A2004608A100450820
:10081000A0003708043E860001308700403FBB003F
:10082000413FBC003B08A4003C08A500890D893B62
:100830008909A600A70090316F2083312308AF00FB
:100840002208AE002108AD002008AC009331D92366
:1008500083312B08D9002A08D8002908D700280896
:10086000D60051085607BB005208573DBC0053083C
:10087000583DBD005408593DBE003708213E860052
:10088000013087003B08C03F3C08C13F3D08C23FE4
:100890003E08C33F0030AB000030AA000130A90081
:1008A0000030A8008030BB000030BC000030BD002C
:1008B0000030BE003708213E860001308700403FEF
:1008C000A000413FA100423FA200433FA3000030EF
:1008D000A7000030A6000030A5000530A40090312C
:1008E0006F2083312008BB072108BC3D2208BD3D95
:1008F0002308BE3D3E08AF003D08AE003C08AD00F9
:100900003B08AC009331D92383312B08DD002A0842
:10091000DC002908DB002808DA00DD1FA12C60308C
:100920005A02F0305B3BFF305C3BFF305D3B03180D
:10093000A12CFF30DD00FF30DC00F030DB00603048
:10094000B62CDD1BB72C5D08031DAF2C5C08031D06
:10095000AF2C35305A0221305B3B031CB72C0030E2
:10096000DD000030DC002130DB003430DA005D08CF
:10097000BA005C08B9005B08B8005A08B700080064
:1009800090112400951FE02D95132200C0017908D5
:10099000023E860001308700403FF300413FF400F3
:1009A000730886007408870001308100F90108008F
:1009B000B41808003308F3007308F9003308860000
:1009C000013087000108F3007308BF003308860078
:1009D000013087000130413FFA000430F300730812
:1009E000B30733084F3A031DF92C4B30F30073085B
:1009F000B3003410330832060319B414240016145B
:100A00000230F30073082200C0000800892D240082
:100A1000161F132D0130F30073082200B6070430AF
:100A20009F31232708007C08F4007B08F300F4368C
:100A3000F30C730891007B1C232D0B30F30073081B
:100A40002200C00008000330F30073082200C00039
:100A500008002400161F352D0130F3007308220012
:100A6000B60704309F3123270800961406307C0512
:100A7000F300F0307304FB000030FC007B14220014
:100A8000BD01BD0A002D3D0303195E2D7A088600C5
:100A900001308700403FFB00413FFC007A08033EE5
:100AA000860001308700403FBB00413FBC007A0810
:100AB0008600013087000130423FBE007B082400E1
:100AC00091007B1C232D0530F30073082200C00029
:100AD00008002400161F772D0130F3007308220050
:100AE000B6072400161305309F3123270800013074
:100AF0002200BE023E0A031D8C2D0530F300730850
:100B0000FA070130BF02031D892D00309F312327D2
:100B1000080024009614002D3B0886003C0887003E
:100B200001082400910001302200BB070030BC3DC9
:100B300008002400161FA72D0130F30073082200BF
:100B4000B60704309F31232724001613080096159A
:100B50000830F30073082200C00008000830F300DA
:100B60007308C0002400961508003B0886003C0866
:100B7000870024001108810001302200BB070030EB
:100B8000BC3D0130BE020319CD2D24009612063063
:100B9000F30073082200C000D12D240096169E3168
:100BA000E22624001616080000309F312327080093
:100BB0000130F3007308B60706309F312327080081
:100BC00022004008F300F4017408003A0319E92DEB
:100BD000D82D7308003A0319D82C013A0319062DB1
:100BE000033A0319432D013A0319692D073A0319F2
:100BF000D42D013A0319992D033A0319AE2D013A68
:100C00000319D42D0F3A0319B52D023A0319072DF4
:100C1000013A0319292DD82D08002000B40034080A
:100C20008600013087000108A000A101A201A301F4
:100C30000C30A035A10DA20DA30D890B192E230890
:100C4000B3002208B2002108B1002008B000340A25
:100C50008600013087000108A000A101A201A301C4
:100C60000430A035A10DA20DA30D890B312E230850
:100C7000AF002208AE002108AD002008AC00340807
:100C8000023E8600013087000108A0000430A03633
:100C9000890B472E2008A100A201A301A40124086A
:100CA000AB002308AA002208A9002108A8002808F0
:100CB000A0002908A1002A08A2002B08A3003008E0
:100CC0002C04A40031082D04A50032082E04A6002F
:100CD00033082F04A7002408A0042508A10426082F
:100CE000A2042708A30475088600013087002008A5
:100CF000C03F2108C13F2208C23F2308C33F340838
:100D0000033E8600013087000108A000A101A20176
:100D1000A3010C30A035A10DA20DA30D890B8A2EC5
:100D20002308B3002208B2002108B1002008B00057
:100D30003408043E8600013087000108A000A101AC
:100D4000A201A3010430A035A10DA20DA30D890BB2
:100D5000A32E2308AF002208AE002108AD00200812
:100D6000AC003408053E8600013087000108A00071
:100D70000430A036890BB92E2008A100A201A301DE
:100D8000A4012408AB002308AA002208A900210816
:100D9000A8002808A0002908A1002A08A2002B0802
:100DA000A30030082C04A40031082D04A50032084B
:100DB0002E04A60033082F04A7002408A004250849
:100DC000A1042608A2042708A3047508043E86008F
:100DD000013087002008C03F2108C13F2208C23FE0
:100DE0002308C33F3408063E86000130870001080F
:100DF000A000A101A201A3010830A035A10DA20D00
:100E0000A30D890BFD2E2308AF002208AE00210898
:100E1000AD002008AC003408073E86000130870092
:100E20000108A000A101A201A3012308B300220828
:100E3000B2002108B1002008B00030082C04A00046
:100E400031082D04A10032082E04A20033082F041B
:100E5000A3007508083E8600013087002008C03FC7
:100E60002108C13F2208C23F2308C33F0800B80041
:100E70000030BC00A730BB00D830BA00C030B90089
:100E800000302000D6000C30D700FE30D800FF30F4
:100E9000D900FF30DA00FF30DB00FF30DC00FF302C
:100EA000DD005208213E860001308700403FDE0011
:100EB000413FDF00423FE000433FE1005E08E200C7
:100EC0005F08E3006008E4006108E5000030E51B0E
:100ED000FF30E600E700E800E9006208D607630893
:100EE000D73D6408D83D6508D93D6608DA3D6708F6
:100EF000DB3D6808DC3D6908DD3D5D082100E4005C
:100F000020005C082100E30020005B082100E200D3
:100F100020005A082100E100200059082100E000CB
:100F2000200058082100DF00200057082100DE00C3
:100F3000200056082100DD0020005208103E8600E7
:100F400001308700403FD600413FD7005608A0003F
:100F50005708A100890D893B8909A200A300A400BC
:100F6000A500A600A70021005D082000A800210020
:100F70005E082000A90021005F082000AA002100CF
:100F800060082000AB00210061082000AC002100B7
:100F900062082000AD00210063082000AE0021009F
:100FA00064082000AF00913189212008883133285E
:100FB000A90022003418F92F20002908A7002708CB
:100FC000F5002308A8002808F6002508F8002408E2
:100FD000F70046309F31412787314630A700270868
:100FE000F5002608A8002808F60001309131D0212C
:100FF000080020002608860087018101810A080078
:1010000022008C018D018E01033021008C00703094
:101010008D00DF308E004F3023008E0080308D0039
:1010200003308C0024008D018C018E012100951766
:1010300025008C018D018E01373026008C00F030A8
:101040008D00FF308E000D303C00A4000C30A1005C
:1010500010303D009E0012309F0011309C000E3079
:101060003C00A00008002100C10020002108210050
:10107000C200200022082100C30020002308210014
:10108000C400200024082100C500200025082100FC
:10109000C600200026082100C700200027082100E4
:1010A000C80041082000A000210042082000A10043
:1010B000210043082000A200210044082000A300D2
:1010C000210045082000A400210046082000A500BA
:1010D000210047082000A600210048082000A700A2
:1010E00021005D082000A80021005E082000A90062
:1010F00021005F082000AA00210060082000AB004A
:10110000210061082000AC00210062082000AD0031
:10111000210063082000AE00210064082000AF0019
:1011200091318921883120082100CD00200021083B
:101130002100CE00200022082100CF00200023083B
:101140002100D000200024082100D1002000250823
:101150002100D200200026082100D300200027080B
:101160002100D400CD30860000308700403F2000B1
:10117000D600413FD700423FD800433FD900443F0B
:10118000DA00453FDB00463FDC00473FDD00520808
:101190000E3E860001308700403FDE00413FDF0009
:1011A0005E08A0005F08A100890D893B8909A200A3
:1011B000A300A400A500A600A70021005D08200050
:1011C000A80021005E082000A90021005F0820007F
:1011D000AA00210060082000AB0021006108200067
:1011E000AC00210062082000AD002100630820004F
:1011F000AE00210064082000AF00913189218831C0
:101200002030860000308700403FE000413FE10091
:10121000423FE200433FE300443FE400453FE50036
:10122000463FE600473FE70011302000E035E10D82
:10123000E20DE30DE40DE50DE60DE70D890B152933
:1012400020006008D6076108D73D6208D83D6308D2
:10125000D93D6408DA3D6508DB3D6608DC3D67087A
:10126000DD3D5D082100D40020005C082100D30092
:1012700020005B082100D20020005A082100D10084
:10128000200059082100D000200058082100CF007C
:10129000200057082100CE00200056082100CD0074
:1012A000CD30860000308700403F2000D600413F0F
:1012B000D700423FD800433FD900443FDA00453FC2
:1012C000DB00463FDC00473FDD0052080C3E860055
:1012D00001308700403FDE00413FDF005E08E00054
:1012E0005F08E1000030E11BFF30E200E300E400B2
:1012F000E500E600E70023302000E035E10DE20DD7
:10130000E30DE40DE50DE60DE70D890B7C292000CA
:101310006008D6076108D73D6208D83D6308D93D0B
:101320006408DA3D6508DB3D6608DC3D6708DD3DA5
:101330005D082100D40020005C082100D3002000BB
:101340005B082100D20020005A082100D1002000B3
:1013500059082100D000200058082100CF002000AB
:1013600057082100CE00200056082100CD002000A3
:1013700052080A3E860001308700403FD600413FB8
:10138000D7005608A0005708A100890D893B89099C
:10139000A200A300A400A500A600A70021005D08EC
:1013A0002000A80021005E082000A90021005F089D
:1013B0002000AA00210060082000AB002100610885
:1013C0002000AC00210062082000AD00210063086D
:1013D0002000AE00210064082000AF009131892177
:1013E000883120082100C100200021082100C2000E
:1013F000200022082100C300200023082100C4008F
:10140000200024082100C500200025082100C60076
:10141000200026082100C700200027082100C8005E
:1014200020005208083E860001308700403FD60069
:10143000413FD7005608A0005708A100890D893BFD
:101440008909A200A300A400A500A600A70021000E
:101450005D082000A80021005E082000A9002100EE
:101460005F082000AA00210060082000AB002100D6
:1014700061082000AC00210062082000AD002100BE
:1014800063082000AE00210064082000AF00913105
:10149000892188312030860000308700403FD80005
:1014A000413FD900423FDA00433FDB00443FDC00CC
:1014B000453FDD00463FDE00473FDF000C302000A7
:1014C000D835D90DDA0DDB0DDC0DDD0DDE0DDF0DB0
:1014D000890B5F2A00302000BF000030BE000030C2
:1014E000BD000030BC000030BB000030BA0001304D
:1014F000B9000030B800210041082000A000210000
:1015000042082000A100210043082000A200210081
:1015100044082000A300210045082000A400210069
:1015200046082000A500210047082000A600210051
:1015300048082000A70021005D082000A800210025
:101540005E082000A90021005F082000AA002100F9
:1015500060082000AB00210061082000AC002100E1
:1015600062082000AD00210063082000AE002100C9
:1015700064082000AF009131892188312008C00023
:101580002108C1002208C2002308C3002408C400A7
:101590002508C5002608C6002708C700963116266C
:1015A00088313830860000308700403FD807413FFF
:1015B000D93D423FDA3D433FDB3D443FDC3D453FC3
:1015C000DD3D463FDE3D473FDF3D5F082100E40053
:1015D00020005E082100E30020005D082100E200F9
:1015E00020005C082100E10020005B082100E000F1
:1015F00020005A082100DF00200059082100DE00E9
:10160000200058082100DD0000302000BF0000301D
:10161000BE000030BD000230BC000030BB00003016
:10162000BA000030B9000030B8000030D6000030F9
:10163000D7000030D8000030D9000030DA00803008
:10164000DB000030DC000030DD00DD3086000030E3
:101650008700403FD607413FD73D423FD83D433FFB
:10166000D93D443FDA3D453FDB3D463FDC3D473F0A
:10167000DD3D5D08A7005C08A6005B08A5005A08D0
:10168000A4005908A3005808A2005708A100560852
:10169000A0005208063E860001308700403FA800A7
:1016A000413FA900AA01AB01AC01AD01AE01AF0100
:1016B0009131892188312008C0002108C100220809
:1016C000C2002308C3002408C4002508C50026085A
:1016D000C6002708C7009631162688313808210031
:1016E000DD00200039082100DE0020003A0821003A
:1016F000DF0020003B082100E00020003C08210022
:10170000E10020003D082100E20020003E08210009
:10171000E30020003F082100E4005D085E045F0450
:10172000600461046204630464040319D72F380859
:10173000860001308700403F2000D600413FD7009F
:10174000423FD800433FD9000030DA000030DB00D0
:101750001030DC000030DD005608DA025708DB3BB1
:101760005808DC3B5908DD3B5A08DE005B08DF0007
:101770005C08E0005D08E100E201E301E401E5014D
:1017800065082100DC00200064082100DB00200047
:1017900063082100DA00200062082100D90020003F
:1017A00061082100D800200060082100D700200037
:1017B0005F082100D60020005E082100D5005D08EA
:1017C0002000B80021005E082000B90021005F0859
:1017D0002000BA00210060082000BB002100610841
:1017E0002000BC00210062082000BD002100630829
:1017F0002000BE00210064082000BF00D530860014
:1018000000308700403FD600413FD700423FD8001C
:10181000433FD900443FDA00453FDB00463FDC0050
:10182000473FDD001F302000D635D70DD80DD90D2C
:10183000DA0DDB0DDC0DDD0D890B132C21004D08BD
:101840002000D60221004E082000D73B21004F087F
:101850002000D83B210050082000D93B210051082E
:101860002000DA3B210052082000DB3B2100530816
:101870002000DC3B210054082000DD3B5D08A70070
:101880005C08A6005B08A5005A08A4005908A3003C
:101890005808A2005708A1005608A0000030AF0069
:1018A0000030AE000030AD000030AC000030AB00C6
:1018B0000030AA000C30A9003530A80091318921F0
:1018C00088312008C0002108C1002208C200230876
:1018D000C3002408C4002508C5002608C600270840
:1018E000C70096311626883138082100D50020001F
:1018F00039082100D60020003A082100D700200036
:101900003B082100D80020003C082100D90020001D
:101910003D082100DA0020003E082100DB00200005
:101920003F082100DC0020005208163E86000130EE
:101930008700403FD600413FD7005608A000570817
:10194000A100890D893B8909A200A300A400A5007C
:10195000A600A7000030BF000030BE000030BD0070
:101960000030BC000030BB000030BA002030B900AD
:101970000030B800210055082000C00021005608A2
:101980002000C100210057082000C2002100580893
:101990002000C300210059082000C40021005A087B
:1019A0002000C50021005B082000C60021005C0863
:1019B0002000C7009631162688313808A80039085B
:1019C000A9003A08AA003B08AB003C08AC003D085F
:1019D000AD003E08AE003F08AF009131892188314B
:1019E00020082100C100200021082100C2002000A1
:1019F00022082100C300200023082100C400200089
:101A000024082100C500200025082100C600200070
:101A100026082100C700200027082100C80041082F
:101A20002000A000210042082000A100210043085E
:101A30002000A200210044082000A3002100450846
:101A40002000A400210046082000A500210047082E
:101A50002000A600210048082000A7000030BF0099
:101A60000030BE000030BD000030BC000030BB00C4
:101A70000030BA002030B9000030B800210055080D
:101A80002000C000210056082000C1002100570896
:101A90002000C200210058082000C300210059087E
:101AA0002000C40021005A082000C50021005B0866
:101AB0002000C60021005C082000C70096311626D1
:101AC00088313808A8003908A9003A08AA003B085C
:101AD000AB003C08AC003D08AD003E08AE003F083E
:101AE000AF0091318921883120082100A800200011
:101AF00021082100A900200022082100AA002000BE
:101B000023082100AB00200024082100AC002000A5
:101B100025082100AD00200026082100AE0020008D
:101B200027082100AF0000302000BF000030BE00B9
:101B30000030BD000030BC000230BB000030BA00F5
:101B40000030B9000030B800210028082000C00093
:101B5000210029082000C10021002A082000C2001D
:101B600021002B082000C30021002C082000C40005
:101B700021002D082000C50021002E082000C600ED
:101B800021002F082000C70096311626883138081A
:101B90002100DD00200039082100DE0020003A0885
:101BA0002100DF0020003B082100E00020003C086D
:101BB0002100E10020003D082100E20020003E0855
:101BC0002100E30020003F082100E4000030200055
:101BD000BF000030BE000030BD000030BC0000304F
:101BE000BB000830BA000030B9000030B80052081D
:101BF000143E860001308700403FD600413FD700A9
:101C00005608A0005708A100890D893B8909A20048
:101C1000A300A400A500A600A700210055082000ED
:101C2000A800210056082000A90021005708200024
:101C3000AA00210058082000AB002100590820000C
:101C4000AC0021005A082000AD0021005B082000F4
:101C5000AE0021005C082000AF009131892188315D
:101C60002008C0002108C1002208C2002308C300C8
:101C70002408C4002508C5002608C6002708C70098
:101C800096311626883138082100CD002000390809
:101C90002100CE0020003A082100CF0020003B08A0
:101CA0002100D00020003C082100D10020003D0888
:101CB0002100D20020003E082100D30020003F0870
:101CC0002100D40020005208123E86000130870017
:101CD000403FD600413FD7005608D8005708D900EA
:101CE0000030D91BFF30DA00DB00DC00DD00DE0055
:101CF000DF0004302000D835D90DDA0DDB0DDC0D06
:101D0000DD0DDE0DDF0D890B7A2E00302000BF00C7
:101D10000030BE000030BD000030BC000030BB0011
:101D20000030BA000130B9000030B800CD30860074
:101D300000308700403FE000413FE100423FE200C9
:101D4000433FE300443FE400453FE500463FE600F3
:101D5000473FE700210055085D072000E80021000B
:101D600056085E3D2000E900210057085F3D200035
:101D7000EA0021005808603D2000EB0021005908CE
:101D8000613D2000EC0021005A08623D2000ED007A
:101D900021005B08633D2000EE0021005C08643DEB
:101DA0002000EF006808E0076908E13D6A08E23DAD
:101DB0006B08E33D6C08E43D6D08E53D6E08E63DCB
:101DC0006F08E73D6708C7006608C6006508C500DC
:101DD0006408C4006308C3006208C2006108C1004F
:101DE0006008C000963116268831383086000030F1
:101DF0008700403FD807413FD93D423FDA3D433F4E
:101E0000DB3D443FDC3D453FDD3D463FDE3D473F5A
:101E1000DF3D5F082100DC0020005E082100DB00C0
:101E200020005D082100DA0020005C082100D900B4
:101E300020005B082100D80020005A082100D700AC
:101E4000200059082100D600200058082100D500A4
:101E500002302000B800B901BA01BB01BC01BD01CC
:101E6000BE01BF01210055082000C0002100560816
:101E70002000C100210057082000C200210058089E
:101E80002000C300210059082000C40021005A0886
:101E90002000C50021005B082000C60021005C086E
:101EA0002000C7009631162688313808A00039086E
:101EB000A1003A08A2003B08A3003C08A4003D088A
:101EC000A5003E08A6003F08A7006430A800A901AD
:101ED000AA01AB01AC01AD01AE01AF019131892185
:101EE000883120082100B000200021082100B10025
:101EF000200022082100B200200023082100B300A6
:101F0000200024082100B400200025082100B5008D
:101F1000200026082100B600200027082100B70075
:101F200080302000B800B901BA01BB01BC01BD017D
:101F3000BE01BF01210030082000C000210031088F
:101F40002000C100210032082000C2002100330817
:101F50002000C300210034082000C40021003508FF
:101F60002000C500210036082000C60021003708E7
:101F70002000C7009631162688313B082100CC008E
:101F800020003A082100CB00200039082100CA00B7
:101F9000200038082100C9004C08031DDD2FC03087
:101FA0004902C6304A3B2D304B3B0318DD2F003031
:101FB000CC002D30CB00C630ED2F4C08031DE82F90
:101FC000C1304902D8304A3BA7304B3B031CF02FAD
:101FD0000030CC00A730CB00D830CA00C030C900D8
:101FE0004C082000D50021004B082000D40021001F
:101FF0004A082000D300210049082000D200080030
:1020000008001508C039123895008330200095006B
:102010008330F70077082200E9000B118B1600309F
:10202000F5001030F6009E319C260800F701F801FB
:1020300022008E160230F6004530F500AA30890BDA
:102040001F28F50B1F28F60B1F2822008E120230C6
:10205000F6004530F500AA30890B2C28F50B2C280A
:10206000F60B2C280130F7070030F83D7808803A4D
:10207000F50080307502031D3F28033077020318F6
:1020800008001828A300A401A40A77082402031852
:10209000080024082307A000200886008701010803
:1020A000A10024357507A2002208FF3E86008701A3
:1020B0002108810024087607A000200886008701F7
:1020C0000108A10024357507A200220886008701B7
:1020D000210881000130A0002008A4074528003015
:1020E000F8000030F7000030F6000030F500201C4A
:1020F00081282408F5072508F63D2608F73D27081E
:10210000F83D0130A435A50DA60DA70D890B822839
:102110000130A336A20CA10CA00C890B892823083E
:10212000220421042004031D77287808A3007708DF
:10213000A2007608A1007508A0000800B701A3015D
:10214000A30A2D08B300B4013308A4003408A50085
:102150003730B5003508A6002E308731D8279031AA
:1021600020003708031DCE283008A6002F08A50040
:102170003108B3003308A7002D08B400B5013408B6
:10218000A8003508A9003730B6003608AA009F31EC
:10219000AE279031200037080319D228FC30B30055
:1021A0003308B70037080800DA00E030D4005408DC
:1021B000D900B630D4005408D7005A089F3163279D
:1021C00090312000D4005408D8005808031D0B2972
:1021D0005730D4005408B500B601B60A5A08D500E5
:1021E0005508B7005930953178259031D6005608FA
:1021F000D8000030F8000030F7000030F600023060
:10220000F5005A08073E860001308700413F8A00EA
:10221000403F0A0091315808080022003A08200087
:10222000A700220039082000A6002200380820005C
:10223000A500220037082000A40020002408220066
:1022400037022000A00025082200383B2000A10012
:1022500026082200393B2000A200270822003A3B32
:102260002000A30078082302031D402977082202DA
:10227000031D402976082102031D4029750820020C
:1022800003180800C8300032890B43291D29BF00FC
:102290003C089F31632791312000BD003D08C000FC
:1022A0004008031D87293C08023E86000130870054
:1022B0000103031960293F088038BD003D08BF00B5
:1022C0003C088600013087000130413FAD003F08E7
:1022D000BD003D08AE003908B0003808AF003B082B
:1022E000B2003A08B1003C08033E86000130870086
:1022F000413F8A00403F0A009131BE003E08C000C5
:10230000400803198729FC30BD003D08C000400883
:10231000080030308600003087000830F5000030BB
:102320001E00F50B9029201CA5292808B0072908B4
:10233000B13D2A08B23D2B08B33D2C08B43D2D0811
:10234000B53D2E08B63D2F08B73DA835A90DAA0DFD
:10235000AB0DAC0DAD0DAE0DAF0DA736A60CA50C9B
:10236000A40CA30CA20CA10CA00C20082104220494
:1023700023042404250426042704031D932930087C
:10238000A0003108A1003208A2003308A3003408DD
:10239000A4003508A5003608A6003708A7000800E5
:1023A000F80022003418072A0230F7007608860069
:1023B0008701770881007508F700320A860001302E
:1023C0008700770881007808F7003208860001301E
:1023D0008700770881003208023E860001308700BE
:1023E0007608C03F0030C13F0430F7007708B207DD
:1023F00032084F3A031D002A4B30F7007708B2002D
:10240000B41033083206031D0C2A34140C2A760843
:10241000860087018101810A7608860087010230E3
:102420000106031D08009E31942620009015080027
:10243000DF0043308600003087001A30C1000030D2
:102440001E00C10B202A4330B8000030B9001A30FA
:10245000BA000030BB005F08C1004108BC008830F2
:10246000913147219231C2004208DE005E08031D0F
:102470005E2A5F08C1004108F500433097310B2701
:1024800092314330B8000030B9000730BA00003054
:10249000BB005F08C1004108BC00E1309131472119
:1024A0009231C2004208DE005E08031D5E2A5F080A
:1024B000C1004108F50043309431DF245E08080074
:1024C000B4012B08AF002F08B3003308AF00B001F0
:1024D0003008B2002B082F02B100031CB2032E08F3
:1024E0003202031D752A2D0831020318A82AA30100
:1024F000A30A2A08AF00B0012F08A4003008A500E5
:102500003430B1003108A60033308731D8279231FA
:1025100020003408031DA12AA301A30A2A08AF0042
:10252000B0012F08A4003008A5003430B1003108F4
:10253000A6002C088731D8279231200034080319CF
:10254000A32AFC3008000130AF002F08B307652A2A
:10255000003008002200D7004F308600013087008D
:1025600008302100ED0000301E00ED0BB42A2030B1
:1025700086000130870059308400013085000C301E
:10258000ED0016001A00ED0BC12A6C089F3163277D
:1025900092312100ED006D082200D8005808031D7B
:1025A000080021006B08031908004F302000B80014
:1025B0000130B9000830BA000030BB0021006C08BF
:1025C000ED006D082000BC00F730913147219231B9
:1025D0002100EE006E082200D8005808031D0800F4
:1025E00059302100ED006D08F5004F3086310D2681
:1025F000923159302100ED006D08E5006B08EE00C6
:102600006E08E6006C08093EEF006F08E700220044
:10261000570894315A2408009E31C32693318B17F2
:10262000AF30F5001E30F6009E319C269331763097
:10263000E50065082300B200B301B30A9E30B40080
:102640001030B5006030B6001230B7000D30B80061
:102650001130B900B13093317223933123006D08EA
:102660002000A10023006C082000A0009F318827D3
:10267000933123006F082000A10023006E08200082
:10268000A0009F3188279331A5302200E50065081E
:102690002100EB00B1302200E60066082100EC00CA
:1026A00007309231AA2293312300A301A4010730FD
:1026B0002200E5007D30890B5B2BE50B5B2B0130A5
:1026C0002300A3070030A43D2408803A2200E5003F
:1026D00083306502031D6F2BE830230023020318AB
:1026E0002E2B572B2000E5000530E0006008E200AB
:1026F000E30165089F31632793312000E000600803
:10270000E40064080319CD2BD72B6330B8000030E8
:10271000B9000130BA000030BB006508E000600875
:10272000BC00D030913147219331E1006108E400D1
:102730006408031DB92B60306306031DB92B6308C1
:10274000E0006508860001308700600881006508A8
:102750009031D4209331E0006008E4006408031D48
:10276000D02B6508923118229331E0006008E40014
:10277000D02B0030F8000030F7000030F6000130B8
:10278000F5006508073E860001308700413F8A005A
:10279000403F0A0093310130E2026208031D852B9D
:1027A0006208031DD72BFE30E0006008E4006408D7
:1027B0000800B201AB1FE92BA809A909AA09AB09B6
:1027C000A80A0319A90A0319AA0A0319AB0AB20134
:1027D000B20AAF1FFA2BAC09AD09AE09AF09AC0ABA
:1027E0000319AD0A0319AE0A0319AF0A0130B0008C
:1027F0003008B2060030B6000030B5000030B4003A
:102800000030B3002B082A04290428040319432CA0
:10281000B101B10AAB1B182C0130A835A90DAA0DC6
:10282000AB0D890B0D2C0130B0003008B1070A2C1C
:102830000130B335B40DB50DB60D890B192C2B082D
:102840002F02031D2D2C2A082E02031D2D2C2908D2
:102850002D02031D2D2C28082C02031C382C2808BF
:10286000AC022908AD3B2A08AE3B2B08AF3B331422
:102870000130AB36AA0CA90CA80C890B392C0130FD
:10288000B102031D182C32080319512CB309B409E5
:10289000B509B609B30A0319B40A0319B50A03192D
:1028A000B60A3608AB003508AA003408A900330878
:1028B000A80008002100EA00E90165080319DA2CE4
:1028C00066080319DA2C67080319DA2C6608043E37
:1028D0008600013087000030C03F0030C13FC23F5A
:1028E000C33F66088600013087000030C03FC13F0B
:1028F000C23FC33F6608083E8600013087000030B3
:10290000C03F0030C13FC23FC33F6A0807390319C7
:10291000A22C6708E80068082000B70021006508BD
:1029200083311E23943121006608043E8600013065
:10293000870020003708C03F3808C13F3908C23F30
:102940003A08C33F21006A1CBD2C6708E8006808EC
:102950002000D200210065088731372794312100FB
:10296000660886000130870020005208C03F5308E7
:10297000C13F5408C23F5508C33F21006A1DDC2CEB
:102980006708E80068082000B7002100650880316A
:102990006520943121006608083E860001308700DA
:1029A00020003708C03F3808C13F3908C23F3A0805
:1029B000C33FDC2CE901E903210069080800A900F4
:1029C0007508093EF6007608A800290A84008501EA
:1029D0000008F6002908840085012808193E8600B1
:1029E000013087000008C03F7608C13F2908023E39
:1029F000860087010108F60028081B3E860001308A
:102A00008700760881002908033E860087010108B7
:102A1000F600F701F61BF703F60EF70EF030F70598
:102A200076080F39F704F030F6057608A20077082B
:102A3000A3002908043E8600870101080F39F6002B
:102A4000F7017608A0007708A10020082204F6000C
:102A500021082304F70028081C3E86000130870067
:102A60007608C03F7708C13F2908053E86008701E8
:102A70000108F600F701F61BF703F60EF70EF0302B
:102A8000F70576080F39F704F030F6057608A6004A
:102A90007708A7002908043E860087010108F60090
:102AA0000430F636890B512D7608F700F8017708C7
:102AB000A4007808A50024082604F60025082704A9
:102AC000F70028081E3E8600013087007608C03FC8
:102AD0007708C13F2908063E860087010108F600F5
:102AE0002808203E86000130870076088100080013
:102AF000D3000B303602031C812D0A30B800380891
:102B0000B60037089F31632795312000B800380898
:102B1000D2005208031D122E53080319122E350835
:102B20000319122E360803190D2E35088600870169
:102B30000108B8003808BB003708023E86000130A3
:102B4000870001030319BF2DD10136085102031874
:102B5000BF2D51085307B8003808860087010108C7
:102B60007F39B90051085307BA003A088600870137
:102B7000390881000130B8003808D107A52D02308E
:102B80003602031CDE2D3B30B8003808F50035084E
:102B9000B9003908F6003608BA003A08F7005308B9
:102BA0009031422095313608B800B901B835B90DD9
:102BB0003808FF3ECF00FF30393DE42D3608B8001D
:102BC000B9013808CF003908D00037088600013035
:102BD00087000130413FAA005308860087010108A1
:102BE000B8003808AB003B30B9003908AC005008D9
:102BF000AE004F08AD003708053E86000130870063
:102C0000413F8A00403F0A009631BA003A08D2009C
:102C100052080319142EFC300E2EFD30B80038086F
:102C2000D200142ED201D20352080800C901383054
:102C3000860000308700473FF600F61F412E200037
:102C4000B809B909BA09BB09BC09BD09BE09BF0960
:102C5000B80A031D3E2EB90A031D3E2EBA0A031DF3
:102C60003E2EBB0A031D3E2EBC0A031D3E2EBD0A8E
:102C7000031D3E2EBE0A031D3E2EBF0A2000C901C1
:102C8000C90A4030860000308700473FF600F61F33
:102C90006D2E2000C009C109C209C309C409C509B4
:102CA000C609C709C00A031D682EC10A031D682E84
:102CB000C20A031D682EC30A031D682EC40A031D21
:102CC000682EC50A031D682EC60A031D682EC70A92
:102CD0000130F60076082000C9064A308600003030
:102CE00087000830F60000301E00F60B742E20001E
:102CF000380839043A043B043C043D043E043F04D4
:102D00000319D82EC801C80ABF1B932EB835B90DB8
:102D1000BA0DBB0DBC0DBD0DBE0DBF0D0130F600D3
:102D20007608C807842ECA35CB0DCC0DCD0DCE0D3F
:102D3000CF0DD00DD10D3F084702031DB92E3E081F
:102D40004602031DB92E3D084502031DB92E3C085D
:102D50004402031DB92E3B084302031DB92E3A0855
:102D60004202031DB92E39084102031DB92E38084D
:102D70004002031CCC2E3808C0023908C13B3A0877
:102D8000C23B3B08C33B3C08C43B3D08C53B3E0837
:102D9000C63B3F08C73B4A14BF36BE0CBD0CBC0C3B
:102DA000BB0CBA0CB90CB80C0130C802031D932E31
:102DB00049080319F92ECA09CB09CC09CD09CE0956
:102DC000CF09D009D109CA0A031DF92ECB0A031D68
:102DD000F92ECC0A031DF92ECD0A031DF92ECE0AB9
:102DE000031DF92ECF0A031DF92ED00A031DF92E5B
:102DF000D10A20004A08B8004B08B9004C08BA00B4
:102E00004D08BB004E08BC004F08BD005008BE0076
:102E10005108BF000800F8007508093EF600760862
:102E2000F700780A840085010008F600780884001D
:102E3000850177088600013087000008C03F7608CA
:102E4000C13F7808033E840085010008F600780839
:102E5000023E840085017708023E8600013087002B
:102E60000008C03F7608C13F7808053E8400850110
:102E70000008F6007808043E840085017708043EC7
:102E80008600013087000008C03F7608C13F7808FF
:102E9000073E840085010008F6007808063E84009D
:102EA00085017708063E8600013087000008C03F94
:102EB0007608C13F7808093E840085010008F600C5
:102EC0007808083E840085017708083E86000130B6
:102ED00087000008C03F7608C13F78080B3E840099
:102EE00085010008F60078080A3E8400850177080D
:102EF0000A3E8600013087000008C03F7608C13FC7
:102F000078080D3E840085010008F60078080C3E24
:102F10008400850177080C3E860001308700000898
:102F2000C03F7608C13F78080F3E84008501000845
:102F3000F60078080E3E8400850177080E3E860074
:102F4000013087000008C03F7608C13F7808113E75
:102F5000840085010008F6007808103E8400850191
:102F60007708103E8600013087000008C03F7608D1
:102F7000C13F7808133E840085010008F6007808F8
:102F8000123E840085017708123E860001308700DA
:102F90000008C03F7608C13F7808153E84008501CF
:102FA0000008F6007808143E840085017708143E76
:102FB0008600013087000008C03F7608C13F7808CE
:102FC000173E840085010008F6007808163E84004C
:102FD00085017708163E8600013087000008C03F53
:102FE0007608C13F7808193E860087010108F6007F
:102FF0007708183E860001308700760881000800B7
:103D2800400803190800942EA034023420340334C8
:103D380076082200E8007508E700080064008001A2
:103D48000131890BA32E00346830210099009801B5
:103D58002200960108000130B7070030B83D003056
:103D6800B93D0030BA3D0800083023009F0090306C
:103D78009D0024309E0067309B009C01080088311C
:103D880000209E319E31A8269E319F310A279E3100
:103D9800903101209E319E31B82608000B11220077
:103DA80069082000950022006708680403190800C4
:103DB80068088A0067080A009E3108000530F0008C
:103DC8007008FA0701302200BF02031DF02E0430EC
:103DD800F0007008C0000800C001C00A080076089A
:103DE800F8007508F700750886007608870001084E
:103DF8000319032F0130F5070030F63DF72E770839
:103E08007502F5007808763BF60008004B30F5009F
:103E18007508B3004B30F5007508B200B4143410BF
:103E2800B6012400940128309500970103309200D0
:103E38002000901191112100901591150800F200B1
:103E4800240016157908023E860001308700160006
:103E5800010403193E2F7908023E860001308700CD
:103E6800403FF000413FF10070088600710887006C
:103E7800720881002200C0010800A2007808A10091
:103E88007708A000A035A10D220886000130870020
:103E98002008C03F2108C13F7608A0002208023E42
:103EA800860001308700200881002208033E860032
:103EB800013087007508C03F0030C13F0800F80096
:103EC80078080319822F7808033E8600013087009E
:103ED800160001040319822F7808053E8600013078
:103EE8008700160001040319822F7808073E860010
:103EF8000130870016000104031D852FF701F70321
:103F0800862FF70177080800A501A6012108F60009
:103F18002008F5009E31F3269F317608A400750825
:103F2800A3002608803AA2002408803A2202031D32
:103F38009F2F2308250203180800200025082007C2
:103F480086002608213D870081010130A507003041
:103F5800A63D952F22003418CE2F20002608A10058
:103F68002508A0002708AB002B08A2002908A400F8
:103F78002808A30041309F31D5279F314130AB003D
:103F88002B08F5002A08AC002C08F6000130913106
:103F9800D021080020002A08860087018101810AB3
:103FA8000800F7002408F6002308F500F535F60D9B
:103FB80077088600013087007508C03F7608C13F42
:103FC80077088600013087000130810441310030D4
:103FD80081042208F5007708023E86000130870038
:103FE800750881007708033E8600013087002008A5
:083FF800C03F2108C13F080091
:020000040001F9
:06000E00FC3FFF3E9F3F96
:00000001FF
