:020000040000FA
:0400000080310E2815
:100008007E1480314E01961A8C1E0C288B31A82341
:100018007E10090080311028123084008E3085004F
:10002800A0308600013087000030FF002C308B3173
:100038009C238031D8308400263085001830FE009B
:100048000130FF008B3190238031A03084000030D4
:1000580085004A30FE000030FF008B31902380314C
:1000680020308400013085004D30FE000030FF0054
:100078008B3190237E1040018231722A4001C301E6
:10008800410147084001C000410146084001BF0046
:10009800410145084001BE00410144084001BD003E
:1000A8008C31642480314001C901CA01C5019C30EA
:1000B800F5009030F6008D311425803140013D085F
:1000C800410144024001B9003E084101453B40015D
:1000D800BA003F084101463B4001BB0040084101CE
:1000E800473B4001BC003C08031D702A3B08031D28
:1000F800702AB83039020B303A3B0318702A450889
:100108000319482A6430F0002730F1008B31FD23B1
:10011800803171084001CA007008C900C701C801D0
:10012800D830F6002630F7000030F9000230F80029
:100138008631442680314001B9003908C40044089A
:10014800F0000030F1008B31FD238031710840014F
:10015800C2007008C1004808803AB9004208803AD5
:100168003902031DB9284108470203180C29400128
:100178004808803AB90080303902031DC528063086
:1001880047020318062902304001470648040319AC
:10019800D228043047064804031DEA286430F500D5
:1001A8002730F6003A30B9003908F7004A08F90054
:1001B8004908F8008C30FA000030FB0085316925C9
:1001C800803176084001CA007508C9006430F5001E
:1001D8002730F6004708D03E860087010108B9009D
:1001E8003908F7004A08F9004908F8008C30FA0085
:1001F8000030FB0085316925803176084001CA004E
:100208007508C90001304001C7070030C83DAF2854
:1002180040014A08FD004908FC008C311424803153
:100228007D084001CA007C08C9005330FB008030BB
:10023800FC00D830F6002630F7000030F900043012
:10024800F8008631442680318D31BA2580317B080B
:100258007C04031D48296430F5002730F6002D3052
:100268004001B9003908F7004A08F9004908F800C0
:100278008C30FA000030FB00853169258031760822
:100288004001CA007508C90064304001A900273040
:10029800AA00D830F6002630F7000030F900033005
:1002A800F8008631442680314001AB000030AC00B4
:1002B8004A08AE004908AD008C30AF000030B000ED
:1002C8008731AA27803140012A08CA002908C900B5
:1002D8004A08FD004908FC008C31142480317D084F
:1002E8004001CA007C08C9005330FB008030FC0084
:1002F800D830F6002630F7000030F9000630F80054
:100308008631442680318D31BA2580317B087C04C2
:10031800031DA7296430F5002730F6002D30400171
:10032800B9003908F7004A08F9004908F8008C3084
:10033800FA000030FB0085316925803176084001DC
:10034800CA007508C90064304001A9002730AA0016
:10035800D830F6002630F7000030F9000530F800F4
:100368008631442680314001AB000030AC004A0899
:10037800AE004908AD008C30AF000030B0008731C6
:10038800AA27803140012A08CA002908C9004A085A
:10039800FD004908FC008C31142480317D0840019F
:1003A800CA007C08C9004A08B6004908B5000030F0
:1003B800B8000730B7008E313E268031400136083C
:1003C800CA003508C9004A08B6004908B500003017
:1003D800B8000930B7008E313E268031400136081A
:1003E800CA003508C9004A08B6004908B5000030F7
:1003F800B8000A30B7008E313E26803140013608F9
:10040800CA003508C9004A08B6004908B5000030D6
:10041800B8000B30B7008E313E26803140013608D7
:10042800CA003508C9004A08B6004908B5000030B6
:10043800B8000C30B7008E313E26803140013608B6
:10044800CA003508C9004A08B6004908B500003096
:10045800B8000D30B7008E313E2680314001360895
:10046800CA003508C9004A08B6004908B500003076
:10047800B8000830B7008E313E2640013608CA0061
:100488003508C900013008008B313A238031003A21
:10049800031962288B31842380314001B90039085F
:1004A800C600D830B9002630BA0049083907BB0061
:1004B8004A083A3DBC003B0886003C0887004608CD
:1004C80081000A304606031D6B2AC501C50A0130A2
:1004D800C9070030CA3D6228430808008B31B5239C
:1004E80082318B31572382318F316327823140012A
:1004F800EE01EF0150308600003087001030CB004D
:1005080000301E00CB0B852A8C31472482316430A1
:100518004001A9002730AA00AA30AB009030AC00F7
:100528006F08AE006E08AD008C30AF000030B00030
:100538008731AA27823140012A08EF002908EE00F6
:100548006430F5002730F6002C30CB004B08F7005C
:100558006F08F9006E08F8008C30FA000030FB00D4
:1005680085316925823176084001EF007508EE0073
:1005780050308C31C724823141014D08FC004C08B1
:10058800FB0050304001CB004B08FD008531DE25D3
:10059800823164304001A9002730AA005030AB00F6
:1005A8000030AC006F08AE006E08AD008C30AF00B4
:1005B8000030B0008731AA27823140012A08EF00B5
:1005C8002908EE006430F5002730F6002C30CB0007
:1005D8004B08F7006F08F9006E08F8008C30FA0035
:1005E8000030FB0085316925823176084001EF0033
:1005F8007508EE00803142208231003A0319452CFB
:100608006430F0002730F1008B31FD23823171080E
:100618004001EF007008EE006708FC006608FB0068
:100628005030CB004B08FD008531DE258231643027
:100638004001A9002730AA005030AB000030AC00C0
:100648006F08AE006E08AD008C30AF000030B0000F
:100658008731AA27823140012A08EF002908EE00D5
:100668006430F5002730F6002C30CB004B08F7003B
:100678006F08F9006E08F8008C30FA000030FB00B3
:1006880085316925823176084001EF007508EE0052
:1006980050308C31C724823140016508AC006408B1
:1006A800AB006308AA006208A9005030CB004B08D1
:1006B800AD0087310527823164304001A900273019
:1006C800AA005030AB000030AC006F08AE006E08D6
:1006D800AD008C30AF000030B0008731AA278231DE
:1006E80040012A08EF002908EE006430F5002730A1
:1006F800F6002C30CB004B08F7006F08F9006E08A5
:10070800F8008C30FA000030FB0085316925823111
:1007180076084001EF007508EE0050308C31C72490
:1007280082310830623E86008701403F4001A900BF
:10073800413FAA00423FAB00433FAC005030CB00E2
:100748004B08AD0087310527823164304001A9008C
:100758002730AA005030AB000030AC006F08AE0064
:100768006E08AD008C30AF000030B0008731AA278A
:10077800823140012A08EF002908EE006F08E100E5
:100788006E08E0006430A1002730A2008C31A2245A
:10079800823140012108CB002208CC00CD01CE01D6
:1007A8004E08AC004D08AB004C08AA004B08A90045
:1007B800E430CF004F08AD008431F3248231643037
:1007C800F5002730F6002A304001CB004B08F7002F
:1007D8006108F9006008F8008C30FA000030FB006E
:1007E80085316925823176084001EF007508EE00F1
:1007F8006430A9002730AA00E430AB000030AC0018
:100808006F08AE006E08AD008C30AF000030B0004D
:100818008731AA27823140012A08EF002908EE0013
:100828006430F5002730F6000A30CB004B08F7009B
:100838006F08F9006E08F8008C30FA000030FB00F1
:1008480085316925823176084001EF007508EE0090
:1008580001304101CC070030CD3D40011815B130C1
:10086800A3009030A4008D31E62582316430400128
:10087800A3002730A4008D31E625823140011811EC
:10088800552C90304001A0000130A100C830A200D2
:100898000030A3000330CB004B08A4008D31652540
:1008A80082310030F3000030F2001330F10088305C
:1008B800F0008D318F2582317B2A4001AF00410144
:1008C80047084001A300410146084001A200410138
:1008D80045084001A100410144084001A000B5308D
:1008E800F0007008A5006230F0007008A60005301E
:1008F800F0007008A700A801A80A0230F0007008EC
:10090800A900AA012F088600013087000130423F64
:10091800AB002F088600013087000130433FAC0050
:10092800AD01AE010230F0007008B1003108253E7B
:10093800860087012D080107F0007008AD002E0819
:100948002D07F0007008AE000130F0007008B10704
:1009580008303102031C9A2CB0010A3040013002E1
:10096800031CB82C01300800200841014402F000A3
:10097800400121084101453BF100400122084101A5
:10098800463BF200400123084101473BF30073084E
:10099800031DD72C7208031DD72CB93070020B30F9
:1009A800713B031CD92C003008008B313A23843169
:1009B800003A0319B12C8B3184238431F00070087C
:1009C8004001A4003008253E86008701010824065E
:1009D800031DB02C0130F0007008B007B12C0030B6
:1009E8004001BB000030BA000030B9000030B80048
:1009F8000F302905B40000302A05B50000302B055A
:100A0800B60000302C05B7003708031D1D2D360829
:100A1800031D1D2D3508031D1D2D0A303402031832
:100A28001D2D0030B3000030B2000030B10030306E
:100A3800242D0030B3000030B2000030B100373050
:100A4800B00030083407AE0038082D07AF002F0873
:100A5800860087012E0881000130B8070030B93DB3
:100A68000030BA3D0030BB3D0430AC36AB0CAA0CAC
:100A7800A90C890B392D2C082B042A0429040319E5
:100A8800582DFC2C3030AE0038082D07AF002F0849
:100A9800860087012E0881000130B8070030B93D73
:100AA8000030BA3D0030BB3D3B08031D652D3A08B8
:100AB800031D652D3908031D652D04303802031CFC
:100AC800462D2D088631A52608007608F100750800
:100AD800F0008B31FD23853171084001A6007008B4
:100AE800A5007A08FF3EA000FF307B3DA100260844
:100AF800803AA2002108803A2202031D852D200891
:100B080025020318D22D400125087507A0002608E4
:100B1800763DA10020088600210887004131810127
:100B28002608A8002508A7007908803AA000280808
:100B3800803A2002031DA22D270878020318C42D2D
:100B4800400127087507A0002808763DA100200865
:100B5800FF3E8600FF30213D87000108A2002708DC
:100B68007507A3002808763DA400230886002408FA
:100B7800870022088100FF30A707FF30A83D982D85
:100B8800780875074001A0007908763DA100200883
:100B980086002108870077088100D72D7908F6009C
:100BA8007808F50008007808013EF5000030793D26
:100BB800F60008004001AC01AD01FC1FE52D013035
:100BC800E62D0030A9002908AB002B080319F12DE8
:100BD800FB09FC09FB0A0319FC0A0A30F000003083
:100BE800F1007C08F3007B08F2008F311E27853165
:100BF8007008303E4001A9002C087D07AA002A0889
:100C080086008701290881000130AC070030AD3D1E
:100C18000A30F0000030F1007C08F3007B08F20095
:100C28008F31AF2785317108FC007008FB007C0804
:100C3800803A4001A90080302902031D252E013089
:100C48007B020318F12D40012B080319392E2D3092
:100C5800A9002C087D07AA002A0886008701290810
:100C680081000130AC070030AD3D2C087D07A9009C
:100C780029088600870181017D088631A52608009C
:100C88001430F0000030F100D0308C312C24863143
:100C98004001A201A301A401A501A601A7017708AB
:100CA800F1007608F0008B31FD2386317108400190
:100CB800A1007008A0002708803AFA002108803AAD
:100CC8007A02031D692E200826020318A32E79082C
:100CD80040012306031D722E78082206031D902E5C
:100CE8002608760786002708773D87002C300106FE
:100CF8000319A32E2608760786002708773D870064
:100D08000108FA002408D03E860087017A0881008D
:100D18000130A4070030A53D26087607860027087D
:100D2800773D87002C300106031D9E2E0130A20757
:100D38000030A33D0130A6070030A73D5F2ED0301C
:100D480008004001A8002808F0000030F1008B31AD
:100D5800FD23863171084001A5007008A400A60192
:100D6800A7010230F0000030F1002508F300240844
:100D7800F2008F31AF27863171084001A100700859
:100D8800A0002708803AF9002108803A7902031D5B
:100D9800CF2E200826020318FC2E4001260828071B
:100DA800F9007908860087010108FA007A08A2008C
:100DB800260828022407FF3EF9007908A300230823
:100DC800860087010108F90026082807FA007A0832
:100DD80086008701790881002208F9002308860027
:100DE8008701790881000130A6070030A73DC52E8C
:100DF800400124082807F900790886008701810145
:100E080008004001B001B1010030F3000030F200E9
:100E18000030F1000A30F0002C08F7002B08F6002B
:100E28002A08F5002908F4008E31DC26873170087D
:100E3800303E4001AE0030082D07AF002F08860075
:100E480087012E0881000130B0070030B13D003025
:100E5800F3000030F2000030F1000A30F0002C08F6
:100E6800F7002B08F6002A08F5002908F400873156
:100E78005827873173084001AC007208AB0071082D
:100E8800AA007008A9002C082B042A042904031DB1
:100E9800082F30082D07AE002E0886008701810133
:100EA8002D088631A52608000030FC000030FB0024
:100EB8000030FA000030F9007308720471047004FD
:100EC8000319A12FFD01FD0AF31B762F0130F03520
:100ED800F10DF20DF30D890B6B2F0130F800780836
:100EE800FD07682F0130F935FA0DFB0DFC0D890B54
:100EF800772F73087702031D8B2F72087602031D64
:100F08008B2F71087502031D8B2F70087402031C48
:100F1800962F7008F4027108F53B7208F63B7308C7
:100F2800F73B79140130F336F20CF10CF00C890B15
:100F3800972F0130FD02031D762F7C08F3007B08F4
:100F4800F2007A08F1007908F00008004001B301C6
:100F5800B4012C08F1002B08F0008B31FD238731F8
:100F680071084001B2007008B100EA2F40012E0854
:100F7800803AFC003008803A7C02031DC52F2F08F8
:100F88002D020318F62F40012A08F6002908F5005B
:100F98002B08330784002C08343D85000008FC002A
:100FA8007C08F7002E08F9002D08F8003008FB002F
:100FB8002F08FA0085316925873176084001AE008F
:100FC8007508AD000130B3070030B43D3408803AED
:100FD800FC003208803A7C02031DF42F31083302EA
:100FE800031CBA2F40012E08AA002D08A9000800EA
:020FF8000800EF
:101674004E010F0E890C0139080071084101EF0079
:101684007008EE00080071084201EE007008ED00D9
:10169400080071084101ED007008EC0008007108B1
:1016A4004101EB007008EA0008008B177030F0006D
:1016B4000B30F1008B313F230800F0004E010F1E68
:1016C400602B700842019A000800623051018D00BD
:1016D4008F01910102309300920108000130410111
:1016E400C4070030C53D0030C63D0030C73D08008A
:1016F4004F0196019701980199019A019B019C0160
:101704009D0108004E018F1E842B4101CF0142012F
:101714009D1C8E2B1D121D161908080064008001E3
:1017240001310130FE020030FF3B7F087E040319C3
:101734000034912BFE0012001E000130FE02003026
:10174400FF3B7F087E04031900349D2B4E018C124D
:1017540041016E086F04031908006F088A006E08BF
:101764000A008B3108008B317A238B318D313C2573
:101774008B318B3167238B318B31D6238B318C3179
:1017840081240800F3007308053E860001308700B9
:101794007308043E8400013085000008083EF00010
:1017A4000030013DF100080040304B019F00F9304A
:1017B4009D009C014E018C129616FC30F0000730FF
:1017C400F1008B313F2380304B019E000800FC0068
:1017D4007C080319F02B40011816F22B4001181253
:1017E4000030F3000030F2000030F1001430F0005B
:1017F4008D318F2508007108F4007008F30070081B
:10180400840071088500120003190D2C0130F007C3
:101814000030F13D012C73087002F0007408713B34
:10182400F10008006430F5002730F6002C30400148
:10183400A9002908F7007D08F9007C08F8008C301D
:10184400FA000030FB00853169257608FD00750833
:10185400FC000800F300F401F5017508803AF20079
:101864007108803A7202031D392C7008740203183F
:10187400080074087307F20072088600870181016A
:101884000130F4070030F53D2F2CF201F3016430F0
:10189400F0002730F1007208700786007308713D6C
:1018A400870081010130F2070030F33D7308803A6C
:1018B400F00080307002031D612C8C30720203181A
:1018C4000800492CF201F301D830F0002630F10071
:1018D4007208700786007308713D8700810101302A
:1018E400F2070030F33D7308803AF0008030700254
:1018F400031D7E2C8C30720203180800662C0830FD
:1019040042019F0090309D0024309E0019309B00BE
:101914009C010030F0000030F1008B314B238C31FE
:101924000030F0000030F1008B3151238C31003055
:10193400F0000030F1008B3145234101CF01080054
:10194400FF304001A300FF30A4002208F600210864
:10195400F5002208F1002108F0008B31FD238C31C1
:101964007108F8007008F70040012408FA00230801
:10197400F9008E319F2676084001A4007508A30063
:101984002408A2002308A1000800FA00F801F901C4
:101994007A08F0000030F1008B31FD238C3171089E
:1019A400F7007008F6007908803AF5007708803A65
:1019B4007502031DDF2C76087802031808007808E6
:1019C4007A07F50075088600870181010130F80760
:1019D4000030F93DD52CF900F701F80179088B3175
:1019E400C4238C317108F6007008F5007808803A39
:1019F400F4007608803A7402031D022D75087702FC
:101A04000318080077087907F40074088600013089
:101A1400870001088B315F238C310130F7070030D8
:101A2400F83DF82CFA01FB017608F1007508F00086
:101A34008B31FD238D317108F9007008F8007908A5
:101A4400803AF7007B08803A7702031D2B2D7A0831
:101A54007802031C080075087A07840076087B3D29
:101A6400850000088B315F238D310130FA07003087
:101A7400FB3D212D4001980199019A010B30920000
:101A840030309300DF309400FF307E01CE00803090
:101A9400C3003730B800C401B901CF01BA01C50190
:101AA400D0013730BB00F030C600FF30D1003F30EA
:101AB400BC00F030C700FF30D2000F309F000D3063
:101AC4007D01CB0008004001A501A6012608803A4B
:101AD400FC0080307C02031D712D240825020318AC
:101AE400080040019A162008F0002108F100F201D4
:101AF400F3018D318F258D3140019A122208F000B7
:101B04002308F100F201F3018D318F258D3101306D
:101B14004001A5070030A63D682D41014708FB00A0
:101B24004608FA004508F9004408F800780841011D
:101B34004402F4007908453BF5007A08463BF60078
:101B44007B08473BF70073087702031DB32D720827
:101B54007602031DB32D71087502031DB32D7008A1
:101B64007402031808005330890BB62D0000982D19
:101B74004001A800CB2D280886008701010803191D
:101B8400D82D0130FD007D08A8070130FB07003087
:101B9400FC3D7B0884007C0885000008FD002808C3
:101BA4008600870101087D060319BD2D28088600DB
:101BB40087017B0884007C08850000080102FB0083
:101BC400FC01031CFC0308004001A801A90124082E
:101BD400F1002308F0008B31FD238D3171084001A1
:101BE400A7007008A6002908803AA5002708803AB3
:101BF4002502031DFF2D26082802031808004001B2
:101C04002308280784002408293D850000088E3114
:101C14006E268D3101304001A8070030A93DF52D15
:101C2400B53462340634243424340034FF34FF34AD
:101C340006340334003400340034003410342734C0
:101C44000034003405340034FA340034FA340034F7
:101C5400643400342C34013400340034003400344F
:101C640000340034003400340034003400340034D0
:101C7400003400341634DC3464304001A9002730C9
:101C8400AA00D830F6002630F7003808F9003708E3
:101C9400F800863144268E314001AB000030AC00A0
:101CA4003608AE003508AD008C30AF000030B0000F
:101CB4008731AA278E3140012A08B6002908B500C9
:101CC4003608FD003508FC008C3114247D084001E1
:101CD400B6007C08B50008004001A00000308B313C
:101CE400E9238E314001A101A20140012008FD0039
:101CF400210A7D2EFD36890B7C2E7D1C832E01301E
:101D0400842E00308B31E9238E3101304001A1074C
:101D14000030A23D2208803AFD0080307D02031D80
:101D2400952E07302102031C772E01308B31E923D5
:101D34008E3101308B31E9230800FF30F707FF3083
:101D4400F83D770A0319780A0319D72E7508860017
:101D5400760887000108FB00FC017B08FC00FB01FE
:101D64007B08F9067C08FA060130F5070030F63DD9
:101D74004001A001FA1BC22E7935F9007A0DCD2E4F
:101D84007A08FC007908FB00FB35FC0D21307B064A
:101D9400F90010307C06FA000130FB007B08A00734
:101DA4000830200203189F2EBC2E7A08F60079080A
:101DB400F500080073087204710470040319152FE8
:101DC400F901F90AF31BF22E0130F035F10DF20D91
:101DD400F30D890BE72E0130F8007808F907E42E9B
:101DE40073087702031D002F72087602031D002F6B
:101DF40071087502031D002F70087402031C0A2F5A
:101E04007008F4027108F53B7208F63B7308F73B5F
:101E14000130F336F20CF10CF00C890B0B2F01306E
:101E2400F902031DF22E7708F3007608F200750814
:101E3400F1007408F0000800F601F31F282FF209DE
:101E4400F309F20A0319F30AF601F60AF11F2F2F18
:101E5400F009F109F00A0319F10A70087104031971
:101E6400562FF501F50AF11B412F0130F035F10D24
:101E7400890B382F0130F4007408F507352F7108E9
:101E84007302031D472F70087202031C4D2F700844
:101E9400F2027108F33B0130F136F00C890B4E2F3E
:101EA4000130F502031D412F760803195E2FF20954
:101EB400F309F20A0319F30A7308F1007208F00037
:101EC40008004001981241014E08031D812FA030E3
:101ED4008C31ED248F31A030843161248F31FC00AA
:101EE4007C084101CE000030F3000030F2000130E4
:101EF400F100F430F0008D318F258F31652F4001D2
:101F040098164101CE014E30F5009030F6008D3127
:101F140014258F313430F5009030F6008D311425BE
:101F24008F318230F5009030F6008D3114258F31D9
:101F34001A30F5009030F6008D3114258F31683059
:101F4400F5009030F6008D3114258F310030F50006
:101F54009030F6008D3114250800F601F11FB92FD9
:101F6400F009F109F00A0319F10AF601F60AF31F60
:101F7400C42FF209F309F20A0319F30A0130F40039
:101F84007408F606F701F801700871040319F32FB9
:101F9400F501F50AF11BD82F0130F035F10D890B4D
:101FA400CF2F0130F4007408F507CC2F0130F7353A
:101FB400F80D890BD92F71087302031DE32F7008E4
:101FC4007202031CEA2F7008F2027108F33B7714C3
:101FD4000130F136F00C890BEB2F0130F502031DB3
:101FE400D82F76080319FB2FF709F809F70A031904
:101FF400F80A7808F1007708F00008002434503417
:102004005534423458342C34343430342C3452342F
:102014004D3443342C3430342C3430342C34303478
:102024002C3430342A34343437340D340A34003404
:10203400243450345534423458342C343434303409
:102044002C344734533456342C3430342C34303418
:102054002C3430342C3430342A34353439340D347F
:102064000A340034243450345534423458342C3433
:10207400343430342C344734473441342C34303401
:102084002C3430342C3430342C3430342A34353439
:1020940041340D340A340034243450345534423439
:1020A40058342C34343430342C3447344C344C3499
:1020B4002C3430342C3430342C3430342C3430340C
:1020C4002A34353443340D340A340034243450343F
:1020D4005534423458342C34343430342C3447346A
:1020E400533441342C3430342C3430342C343034A4
:1020F4002C3430342A34343445340D340A34003426
:10210400243450345534423458342C343434303438
:102114002C345634543447342C3430342C34303446
:102124002C3430342C3430342A34353445340D34A2
:102134000A340034243450345534423458342C3462
:10214400303430342A34333433340D340A340034E4
:1021540057346934733470342D34313400342434B6
:08216400243400340A34003475
:020000040001F9
:0A000E00EC3FFF3F9F3FFF3FFF3F25
:00000001FF
