:020000040000FA
:0400000080310E2815
:100008007E1480314E01961A8C1E0C289231A6223D
:100018007E10090080311028053084009630850054
:1000280020308600023087000030FF002C309231EB
:100038009A228031D8308400263085001830FE009E
:100048000130FF0092318E228031A03084000030D0
:1000580085001A30FE000030FF0092318E22803178
:1000680020308400013085004F30FE000030FF0052
:1000780092318E228031A0308400013085002E30EC
:10008800FE000030FF0092318E227E104001803148
:100098004D289231C12280319231552280318E31E2
:1000A8003B2680318A31212280314401EA01EB016B
:1000B8004C3086000230870010304101CC000030FF
:1000C8001E00CC0B64289331F0238031643040014A
:1000D800A9002730AA00AA30AB009830AC00440130
:1000E8006B084001AE0044016A084001AD008C3045
:1000F800AF000030B0008B31AE23803140012A08B8
:100108004401EB00400129084401EA006430F5008D
:100118002730F6002C304101CC004C08F700440190
:100128006B08F9006A08F8008C30FA000030FB0010
:100138008F311527803176084401EB007508EA00F5
:100148004C309431BB24803141013108FC00300827
:10015800FB004C30CC004C08FD008D31CF258031A0
:1001680064304001A9002730AA004C30AB000230AF
:10017800AC0044016B084001AE0044016A0840012C
:10018800AD008C30AF000030B0008B31AE23803131
:1001980040012A084401EB00400129084401EA0013
:1001A8006430F5002730F6002C304101CC004C08B3
:1001B800F70044016B08F9006A08F8008C30FA006F
:1001C8000030FB008F311527803176084401EB00A1
:1001D8007508EA00823191228031003A0319732AA6
:1001E8006430F0002730F10093311D23803171080D
:1001F8004401EB007008EA006308FC006208FB0099
:100208004C304101CC004C08FD008D31CF258031A8
:1002180064304001A9002730AA004C30AB000230FE
:10022800AC0044016B084001AE0044016A0840017B
:10023800AD008C30AF000030B0008B31AE23803180
:1002480040012A084401EB00400129084401EA0062
:100258006430F5002730F6002C304101CC004C0802
:10026800F70044016B08F9006A08F8008C30FA00BE
:100278000030FB008F311527803176084401EB00F0
:100288007508EA004C309431BB2480314401610880
:100298004001B000440160084001AF0044015F081C
:1002A8004001AE0044015E084001AD004C30410100
:1002B800CC004C084001B1008C31AA248031643054
:1002C8004001A9002730AA004C30AB000230AC0036
:1002D80044016B084001AE0044016A084001AD00CA
:1002E8008C30AF000030B0008B31AE23803140013C
:1002F8002A084401EB00400129084401EA0064305F
:10030800F5002730F6002C304101CC004C08F700EE
:1003180044016B08F9006A08F8008C30FA000030D4
:10032800FB008F311527803176084401EB007508F2
:10033800EA004C309431BB24803108305E3E8600A0
:1003480002308700403F4001AD00413FAE00423FD0
:10035800AF00433FB0004C304101CC004C08400195
:10036800B1008C31AA24803164304001A9002730C3
:10037800AA004C30AB000230AC0044016B084001CD
:10038800AE0044016A084001AD008C30AF00003077
:10039800B0008B31AE23803140012A084401EB00C4
:1003A800400129084401EA006B08DD006A08DC0006
:1003B80064304001A1002730A200943170248031BC
:1003C800400121084101CC00400122084101CD0033
:1003D800CE01CF014F084001B00041014E08400155
:1003E800AF0041014D084001AE0041014C084001F9
:1003F800AD00B4304101D00050084001B100873150
:10040800832780316430F5002730F6002A30410117
:10041800CC004C08F70044015D08F9005C08F800BE
:100428008C30FA000030FB008F31152780317608B8
:100438004401EB007508EA0064304001A900273048
:10044800AA00B430AB000030AC0044016B08400196
:10045800AE0044016A084001AD008C30AF000030A6
:10046800B0008B31AE23803140012A084401EB00F3
:10047800400129084401EA006430F5002730F600FD
:100488000A304101CC004C08F70044016B08F90020
:100498006A08F8008C30FA000030FB008F3115270D
:1004A800803176084401EB007508EA00013041010B
:1004B800B0070030B13D40011815B130A3009830A5
:1004C800A4009531D925803164304001A30027303C
:1004D800A4009531D925803140011811852A903022
:1004E8004001A0000130A100C830A2000030A300E4
:1004F80003304101CC004C084001A40095315A2535
:1005080080310030F3000030F2001330F100883001
:10051800F0009531AE25803159284001C3014101D1
:100528002B084001C00041012A084001BF004101D9
:1005380029084001BE00410128084001BD0094314E
:100548000D2482314001C901CA01C5019C30F50062
:100558009830F60095310925823140013D08410166
:1005680028024001B9003E084101293B4001BA0078
:100578003F0841012A3B4001BB00400841012B3B99
:100588004001BC003C08031DC02C3B08031DC02CC7
:10059800B83039020B303A3B0318C02C4508031910
:1005A800982C6430F0002730F10093311D238231FC
:1005B80071084001CA007008C900C701C801D830D5
:1005C800F6002630F7000030F9000230F8008D31CF
:1005D800022582314001B9003908C4004408F000FE
:1005E8000130F10093311D23823171084001C200AE
:1005F8007008C1004808803AB9004208803A3902B8
:10060800031D082B4108470203185C2B40014808CA
:10061800803AB90080303902031D142B0630470296
:100628000318562B02304001470648040319212BB2
:10063800043047064804031D392B6430F500273081
:10064800F6003A30B9003908F7004A08F9004908B5
:10065800F8008C30FA000030FB008F31152782310A
:1006680076084001CA007508C9006430F5002730D3
:10067800F6004708BA3E8600013087000108B90035
:100688003908F7004A08F9004908F8008C30FA00E0
:100698000030FB008F311527823176084001CA00EF
:1006A8007508C90001304001C7070030C83DFE2A5F
:1006B80040014A08FD004908FC0093313423823187
:1006C8007D084001CA007C08C9005330FB00803017
:1006D800FC00D830F6002630F7000030F90004306E
:1006E800F8008D310225823196318B2682317B08C4
:1006F8007C04031D982B6430F5002730F6002D305C
:100708004001B9003908F7004A08F9004908F8001B
:100718008C30FA000030FB008F31152782317608C3
:100728004001CA007508C90064304001A90027309B
:10073800AA00D830F6002630F7000030F900033060
:10074800F8008D31022582314001AB000130AC0048
:100758004A08AE004908AD008C30AF000030B00048
:100768008B31AE23823140012A08CA002908C9000A
:100778004A08FD004908FC009331342382317D0882
:100788004001CA007C08C9005330FB008030FC00DF
:10079800D830F6002630F7000030F9000630F800AF
:1007A8008D310225823196318B2682317B087C047B
:1007B800031DF72B6430F5002730F6002D3040017B
:1007C800B9003908F7004A08F9004908F8008C30E0
:1007D800FA000030FB008F3115278231760840017E
:1007E800CA007508C90064304001A9002730AA0072
:1007F800D830F6002630F7000030F9000530F80050
:100808008D31022582314001AB000130AC004A082D
:10081800AE004908AD008C30AF000030B0008B311D
:10082800AE23823140012A08CA002908C9004A08B3
:10083800FD004908FC009331342382317D084001D2
:10084800CA007C08C9004A08B6004908B50000304B
:10085800B8000730B7009631BA2682314001360811
:10086800CA003508C9004A08B6004908B500003072
:10087800B8000930B7009631BA26823140013608EF
:10088800CA003508C9004A08B6004908B500003052
:10089800B8000A30B7009631BA26823140013608CE
:1008A800CA003508C9004A08B6004908B500003032
:1008B800B8000B30B7009631BA26823140013608AD
:1008C800CA003508C9004A08B6004908B500003012
:1008D800B8000C30B7009631BA268231400136088C
:1008E800CA003508C9004A08B6004908B5000030F2
:1008F800B8000D30B7009631BA268231400136086B
:10090800CA003508C9004A08B6004908B5000030D1
:10091800B8000830B7009631BA2640013608CA0038
:100928003508C90001300800923138228231003A76
:100938000319B12A9231822282314001B900390863
:10094800C600D830B9002630BA0049083907BB00BC
:100958004A083A3DBC003B0886003C088700460828
:1009680081000A304606031DBB2CC501C50A0130AB
:10097800C9070030CA3DB12A43080800F3007008CF
:10098800093EF1007108F200730A8400850100082D
:10099800F100730884008501720886000130870021
:1009A8000008C03F7108C13F7308033E84008501F9
:1009B8000008F1007308023E840085017208023EB7
:1009C8008600013087000008C03F7108C13F7308E6
:1009D800053E840085010008F1007308043E840088
:1009E80085017208043E8600013087000008C03F78
:1009F8007108C13F7308073E840085010008F100B3
:100A08007308063E840085017208063E86000130A0
:100A180087000008C03F7108C13F7308093E840081
:100A280085010008F1007308083E840085017208FA
:100A3800083E8600013087000008C03F7108C13FAA
:100A480073080B3E840085010008F10073080A3E14
:100A58008400850172080A3E86000130870000087C
:100A6800C03F7108C13F73080D3E8400850100082E
:100A7800F10073080C3E8400850172080C3E860064
:100A8800013087000008C03F7108C13F73080F3E5E
:100A9800840085010008F10073080E3E840085017A
:100AA80072080E3E8600013087000008C03F7108BA
:100AB800C13F7308113E840085010008F1007308E6
:100AC800103E840085017208103E860001308700C0
:100AD8000008C03F7108C13F7308133E84008501B8
:100AE8000008F1007308123E840085017208123E66
:100AF8008600013087000008C03F7108C13F7308B5
:100B0800153E840085010008F1007308143E840036
:100B180085017208143E8600013087000008C03F36
:100B28007108C13F7308173E840085010008F10071
:100B38007308163E840085017208163E860001304F
:100B480087000008C03F7108C13F7308193E86003E
:100B580087010108F1007208183E860001308700FD
:100B68007108810008004001D2000B303502031CD7
:100B7800C12D0A30B7003708B500360894314B2428
:100B880085314001B7003708D1005108031D542EA4
:100B980052080319542E34080319542E3508031922
:100BA8004F2E3408860087010108B7003708BA00BD
:100BB8003608023E86000130870001030319FF2D25
:100BC800D001350850020318FF2D50085207B7000E
:100BD80037088600870101087F39B8005008520796
:100BE800B900390886008701380881000130B7004C
:100BF8003708D007E52D02303502031C1F2E3A3086
:100C0800B7003708F0003408B8003808F100350894
:100C1800B9003908F2005208963131268531400171
:100C28003508B700B801B735B80D3708FF3ECE0014
:100C3800FF30383D252E3508B700B8013708CE00FB
:100C48003808CF0036088600013087000130413F60
:100C5800AB005208860087010108B7003708AC00CE
:100C68003A30B8003808AD004F08AF004E08AE0063
:100C78003608053E860001308700413F8A00403F24
:100C88000A0086314001B9003908D100510803191A
:100C9800562EFC30502EFD30B7003708D100562EA6
:100CA800D101D10351080800FD007008093EF10088
:100CB8007108FC007D0A840085010008F1007D08A8
:100CC800840085017C08193E8600013087000008F1
:100CD800C03F7108C13F7D08023E860087010108B8
:100CE800F1007C081B3E86000130870071088100F6
:100CF8007D08033E860087010108F100F201F11B1F
:100D0800F203F10EF20EF030F20571080F39F20419
:100D1800F030F1057108F6007208F7007D08043E0E
:100D28008600870101080F39F100F2017108F4000B
:100D38007208F50074087604F10075087704F2006B
:100D48007C081C3E8600013087007108C03F72088D
:100D5800C13F7D08053E860087010108F100F201C8
:100D6800F11BF203F10EF20EF030F20571080F39A3
:100D7800F204F030F1057108FA007208FB007D08F2
:100D8800043E860087010108F1000430F136890B22
:100D9800CA2E7108F200F3017208F8007308F9000E
:100DA80078087A04F10079087B04F2007C081E3E7A
:100DB8008600013087007108C03F7208C13F7D0876
:100DC800063E860087010108F1007C08203E860067
:100DD800013087007108810008004001AF0041011F
:100DE8002B084001A30041012A084001A20041014B
:100DF80029084001A100410128084001A000B530A0
:100E0800F0007008A5006230F0007008A6000530F8
:100E1800F0007008A700A801A80A0230F0007008C6
:100E2800A900AA012F088600023087000230423F3D
:100E3800AB002F088600023087000230433FAC0029
:100E4800AD01AE010230F0007008B1003108253E56
:100E5800860087012D080107F0007008AD002E08F4
:100E68002D07F0007008AE000130F0007008B107DF
:100E780008303102031C2A2FB0010A304001300229
:100E8800031C482F01300800200841012802F00007
:100E9800400121084101293BF1004001220841019C
:100EA8002A3BF2004001230841012B3BF300730861
:100EB800031D672F7208031D672FB93070020B30AE
:100EC800713B031C692F00300800923138228631AB
:100ED800003A0319412F923182228631F0007008BE
:100EE8004001A4003008253E860087010108240639
:100EF800031D402F0130F0007008B007412F00306B
:100F08004001BF000030BE000030BD000030BC0012
:100F18000F302D05B80000302E05B90000302F0520
:100F2800BA0000303005BB003B08031DAD2F3A085E
:100F3800031DAD2F3908031DAD2F0A3038020318E1
:100F4800AD2F0030B7000030B6000030B5003030AB
:100F5800B42F0030B7000030B6000030B50037308D
:100F6800B40034083807B2003C083107B30033082E
:100F780086008701320881000130BC070030BD3D82
:100F88000030BE3D0030BF3D0430B036AF0CAE0C73
:100F9800AD0C890BC92F30082F042E042D0403191A
:100FA800E82F8C2F3030B2003C083107B3003308EB
:100FB80086008701320881000130BC070030BD3D42
:100FC8000030BE3D0030BF3D3F08031DF52F3E08F1
:100FD800031DF52F3D08031DF52F04303C02031CAB
:100FE800D62F3108F9000030FA008E31A826080003
:100FF8009231332208000800F100710870050319C6
:101008000828F201F20A0928F20172080800FF30E4
:10101800F707FF30F83D770A0319780A03194328C0
:1010280075088600760887000108FB00FC017B082C
:10103800FC00FB017B08F9067C08FA060130F5077D
:101048000030F63D4001A001FA1B2E287935F90041
:101058007A0D39287A08FC007908FB00FB35FC0D6D
:1010680021307B06F90010307C06FA000130FB00C5
:101078007B08A0070830200203180B2828287A08C4
:10108800F6007908F50008004101C50040016C0828
:1010980094314B2488314001ED006D084101C700AF
:1010A8004708031D862840016C08ED006D08C00044
:1010B800C63096315E2688314001EE006E08410147
:1010C800C7004708031D75284608031975284001FD
:1010D8006C088831882088314001ED006D08410195
:1010E800C7004708031D862840016C08ED006D08FD
:1010F800D3004101450897314E274001EE006E08A4
:101108004101C700470808004101BE00BA3040014C
:10111800E9006908B7000430B8000030B90041019F
:101128003E084001EA006A08BA00F23089310C2111
:1011380088314001EB006B084101BF003F08031DE7
:10114800C828C0304001E9006908F000BA308C3185
:101158005224883141013E08973187278831400160
:10116800E90069084101BF003F08031DC8283E087F
:101178004001E9006908E400C03094319524400139
:10118800EA006A084101BF003F08080073087204BA
:101198007104700403190329F901F90AF31BE02803
:1011A8000130F035F10DF20DF30D890BD528013022
:1011B800F8007808F907D22873087702031DEE288B
:1011C80072087602031DEE2871087502031DEE28C9
:1011D80070087402031CF8287008F4027108F53BC3
:1011E8007208F63B7308F73B0130F336F20CF10C4A
:1011F800F00C890BF9280130F902031DE028770863
:10120800F3007608F2007508F1007408F000080091
:101218004001BE003A0894314B2489314001BB009B
:101228003B08BF003F08031D4E293A08023E8600CE
:10123800013087000103031926293E088038BB00C6
:101248003B08BE003A088600013087000130413F64
:10125800AD003E08BB003B08AE003708BC003C08A8
:10126800AF003908B1003808B0003A08033E8600DC
:1012780001308700413F8A00403F0A008931400120
:10128800BD003D08BF003F0803194E29FC30BB00D4
:101298003B08BF003F080800F601F31F5A29F2096E
:1012A800F309F20A0319F30AF601F60AF11F612994
:1012B800F009F109F00A0319F10A70087104031919
:1012C8008829F501F50AF11B73290130F035F10D74
:1012D800890B6A290130F4007408F5076729710839
:1012E8007302031D792970087202031C7F29700894
:1012F800F2027108F33B0130F136F00C890B8029BA
:101308000130F502031D7329760803199029F209A3
:10131800F309F20A0319F30A7308F1007208F000DE
:1013280008004001D900F530D6005608DB005C30D3
:10133800D6005608B7000130B8000030B90055088B
:10134800D7005708BA005B0889310C218931400160
:10135800D8005808DA005A08031DD929D91DBC2914
:101368005408F1005308F0005C3093318023893130
:101378004001591EC7295408F1005308F0005C3099
:1013880093319C2389315C304001D6005608B40063
:10139800B501B50A5508D7005708B6005B30853146
:1013A800B7254001D8005808DA005A08080040015B
:1013B800D900F430D6005608DB005C30D600560859
:1013C800B7000130B8000030B9005508D7005708F9
:1013D800BA005B0889310C2189314001D8005808CE
:1013E800DA005A08031D1F2A591C022A5408F10062
:1013F8005308F0005C309331652389314001D91CD2
:101408000D2A5408F1005308F0005C309331B823DA
:1014180089315C304001D6005608B400B501B50AE0
:101428005508D7005708B6005B308531B72540010D
:10143800D8005808DA005A080800400198124101FB
:101448003208031D3F2A20309431E2248A312030AB
:101458008631F1268A31FC007C084101B200003057
:10146800F3000030F2000130F100F430F000953163
:10147800AE258A31232A400198164101B2014E3027
:10148800F5009830F600953109258A313430F50099
:101498009830F600953109258A318230F500983068
:1014A800F600953109258A311A30F5009830F60092
:1014B800953109258A316830F5009830F600953164
:1014C80009258A310030F5009830F6009531092554
:1014D80008004001DF0043308600003087001A30E2
:1014E800C00000301E00C00B762A4330C000400800
:1014F800B7001A30B8000030B9005F08C1004108D1
:10150800BA00883089310C218A314001C200420872
:10151800DE005E08031DB72A5F08C0004008F0001F
:1015280043308431C2248A3143304001C00040082E
:10153800B7000730B8000030B9005F08C1004108A3
:10154800BA00E13089310C218A314001C2004208D9
:10155800DE005E08031DB72A5F08C0004008F000DF
:1015680043308631582640015E0808004001B40126
:101578004E010F10430111149731C3278A314001DE
:101588002D359231B3228A3140012E089231B3228F
:101598008A31430191149731C3278A3103144001DA
:1015A8002D0D9231B3228A314001B501B6013108BF
:1015B8003602031DE12A300835020318062B3008CD
:1015C800FF3EB200FF30313DB30036083306031D3D
:1015D800EF2A35083206031DF32A0130F42A0030B9
:1015E80093314C238A314001B20035082F07B300EC
:1015F800330886008701320881000130B5070030C2
:10160800B63DDB2A92313322400134080800F60146
:10161800F11F152BF009F109F00A0319F10AF60177
:10162800F60AF31F202BF209F309F20A0319F30A49
:101638000130F4007408F606F701F8017008710427
:1016480003194F2BF501F50AF11B342B0130F03546
:10165800F10D890B2B2B0130F4007408F507282BAA
:101668000130F735F80D890B352B71087302031D0E
:101678003F2B70087202031C462B7008F202710897
:10168800F33B77140130F136F00C890B472B01300E
:10169800F502031D342B76080319572BF709F809AF
:1016A800F70A0319F80A7808F1007708F00008002B
:1016B800F2304001D6005608DC0053088600540872
:1016C8008700423101080739D6005608D900593039
:1016D800D6005608B400B501B50A5508D700570812
:1016E800B6005C308531B7258B314001D8005808E9
:1016F800DB005B08031DAC2BF430D6005608DC0079
:101708005A30D6005608B7000130B8000030B9008A
:101718005508D7005708BA005C0889310C218B316D
:101728004001D8005808DB005B08031DAC2B5A3079
:10173800D6005608B400B501B50A5508D7005708B1
:10174800B6005C308531B7254001D8005808DB0069
:101758005B0808004001B301B4012C08F1002B0814
:10176800F00093311D238B3171084001B2007008DD
:10177800B100EE2B40012E08803AFC003008803A78
:101788007C02031DC92B2F082D020318FA2B4001D8
:101798002A08F6002908F5002B08330784002C08CE
:1017A800343D85000008FC007C08F7002E08F9008D
:1017B8002D08F8003008FB002F08FA008F31152794
:1017C8008B3176084001AE007508AD000130B307D3
:1017D8000030B43D3408803AFC003208803A7C027C
:1017E800031DF82B31083302031CBE2B40012E08C1
:1017F800AA002D08A90008000030FC000030FB00FA
:101808000030FA000030F9007308720471047004A3
:101818000319492CFD01FD0AF31B1E2C0130F0357C
:10182800F10DF20DF30D890B132C0130F800780837
:10183800FD07102C0130F935FA0DFB0DFC0D890B55
:101848001F2C73087702031D332C72087602031DC0
:10185800332C71087502031D332C70087402031CA5
:101868003E2C7008F4027108F53B7208F63B7308C9
:10187800F73B79140130F336F20CF10CF00C890BBC
:101888003F2C0130FD02031D1E2C7C08F3007B0851
:10189800F2007A08F1007908F0000800F3007308F4
:1018A8008600870101080739F1007008023E8600AA
:1018B8008701710881007308023E860087010108CC
:1018C800F1000230F136890B662C71080739F200F5
:1018D800700886008701720881007308023E86003E
:1018E80087010108F1000530F136890B782C710861
:1018F8000739F200700A86008701720881007308B0
:10190800033E860087010108F1000230F136890B99
:101918008A2C71080739F2007008033E8600870197
:10192800720881007308033E860087010108F100F0
:101938000530F136890B9D2C71080739F2007008C3
:10194800043E860087017208810008004001B40146
:10195800B5010030F3000030F2000030F1000A3029
:10196800F0003008F7002F08F6002E08F5002D08C3
:10197800F4008831CA208C317008303E4001B20032
:1019880034083107B3003308860002308700320874
:1019980081000130B4070030B53D0030F30000305D
:1019A800F2000030F1000A30F0003008F7002F088C
:1019B800F6002E08F5002D08F4008C3100248C3137
:1019C80073084001B0007208AF007108AE007008DB
:1019D800AD0030082F042E042D04031DAD2C34084F
:1019E8003107B200320886000230870081013108D1
:1019F800F9000230FA008E31A82608001430F000F1
:101A08000030F100BA309331D4238D314001A20166
:101A1800A301A401A501A601A7017708F100760892
:101A2800F00093311D238D3171084001A100700829
:101A3800A0002708803AFA002108803A7A02031D9C
:101A4800272D200826020318622D79084001230655
:101A5800031D302D78082206031D4F2D2608760712
:101A680086002708773D87002C3001060319622D70
:101A78002608760786002708773D87000108FA00C0
:101A88002408BA3E8600013087007A0881000130B8
:101A9800A4070030A53D2608760786002708773D6D
:101AA80087002C300106031D5D2D0130A207003090
:101AB800A33D0130A6070030A73D1D2DBA30080010
:101AC8004001E6000530E0006008E300E401660834
:101AD80094314B248D314001E0006008E500650831
:101AE8000319C32DCD2D6430E0006008B700013024
:101AF800B8000030B9006608E1006108BA00D030CB
:101B080089310C218D314001E2006208E500650849
:101B1800031DAE2D60306406031DAE2D6408E00081
:101B280066088600013087006008810066089731E2
:101B380087278D314001E0006008E5006508031D36
:101B4800C62D66088A316D228D314001E00060089B
:101B5800E500C62D0030F3000030F2000030F1003F
:101B68000130F0006608073E860001308700413FDB
:101B78008A00403F0A008D3101304001E3026308CA
:101B8800031D772D6308031DCD2DFE30E00060088E
:101B9800E500650808004001B001B101FC1FD62D21
:101BA8000130D72D0030AD002D08AF002F080319E4
:101BB800E22DFB09FC09FB0A0319FC0A0A30F000B4
:101BC8000030F1007C08F3007B08F20089315021D5
:101BD8008D317008303E4001AD0030087D07AE0001
:101BE8002E088600023087002D0881000130B007DA
:101BF8000030B13D0A30F0000030F1007C08F300FD
:101C08007B08F2008B310B238D317108FC007008C2
:101C1800FB007C08803A4001AD0080302D02031D96
:101C2800172E01307B020318E22D40012F080319FB
:101C38002C2E2D30AD0030087D07AE002E08860012
:101C4800023087002D0881000130B0070030B13D17
:101C580030087D07AD002D0886000230870081011D
:101C68007D08F9000230FA008E31A826080092316A
:101C7800F5228E3176304101C80048084201BD0086
:101C8800BE01BE0ABA30BF000A30C0001B30C10016
:101C98001730C200AE30C3001530C4003C308D315F
:101CA80064258E314101C8004808CB004B08031D4C
:101CB800962E4201EC01EC0A05304101C8004808A3
:101CC8004201EA0002304101C80048084201EB0025
:101CD80004304101C80048084201ED00EE01EE0A57
:101CE8004101CA01CA0ACA144A154A16CA153C3023
:101CF800C80048084001EC0041014A088F318A2792
:101D08008E313C304101C80048084001EC000330E6
:101D1800883148208E314101C9004908CB004B0861
:101D280003190800C8304001A0000030A100C830E5
:101D3800A2000030A30003304101C8004808400158
:101D4800A40095315A2508007A08F1007908F000B6
:101D580093311D238E3171084001AA007008A90033
:101D6800AB01AC010230F0000030F1002A08F300AA
:101D78002908F2008B310B238E3171084001A50030
:101D88007008A4002C08803AA0002508803A200298
:101D9800031DD02E24082B0203180C2F40012B08FA
:101DA800790786002C087A3D87000108A0002008E2
:101DB800A6002B087902A0002C087A3BA10029086C
:101DC8002007A2002A08213DA3002208FF3EA70001
:101DD800FF30233DA800270886002808870001084F
:101DE800A0002B087907A1002C087A3DA200210841
:101DF8008600220887002008810027088600280816
:101E08008700260881000130AB070030AC3DC62EA4
:101E180040012908790786002A087A3D8700810150
:101E280008007608F1007508F00093311D238F3102
:101E380071084001A6007008A5007A08FF3EA000BE
:101E4800FF307B3DA1002608803AA2002108803A95
:101E58002202031D312F2008250203187E2F40017E
:101E680025087507A0002608763DA10020088600F1
:101E780021088700413181012608A8002508A7000C
:101E88007908803AA0002808803A2002031D4E2FC6
:101E9800270878020318702F400127087507A0004B
:101EA8002808763DA1002008FF3E8600FF30213D2E
:101EB80087000108A20027087507A3002808763DB7
:101EC800A400230886002408870022088100FF3028
:101ED800A707FF30A83D442F780875074001A000E8
:101EE8007908763DA1002008860021088700770838
:101EF8008100832F7908F6007808F5000800780833
:101F0800013EF5000030793DF60008004101C500AA
:101F180040016C0894314B248F314001ED006D086D
:101F28004101C7004708031DFD2F40016C08ED0063
:101F38006D08C000C63096315E268F314001EE0034
:101F48006E084101C7004708031DB72F460803194B
:101F5800B72F40016C08883188208F314001ED008F
:101F68006D084101C7004708031DFD2F45084001C2
:101F7800ED006D08F0000730883100208F31003AFD
:101F88000319DA2F40016C082E3EDD000130DE0017
:101F98006C08ED006D08DF00410145089531842586
:101FA8008F314001EE006E084101C700410147082A
:101FB800031DFD2F45084001ED006D08F0001830A5
:101FC800883100208F31003A0319FD2F40016C0839
:101FD8002E3ED3000130D4006C08ED006D08D5000A
:101FE80041014508893195214001EE006E08410103
:081FF800C70041014708080081
:10246600430111159731C32708004E010F0E890C41
:102476000139080071084101D2007008D100080036
:1024860071084301CF007008CE00080071084301AF
:10249600D3007008D200080071084301D10070080B
:1024A600D00008008B176E30F0001230F100923128
:1024B6003D220800F0004E010F1E5E2A7008420100
:1024C6009A000800623051018D008F01910102309F
:1024D60093009201080001304101A8070030A93D90
:1024E6000030AA3D0030AB3D08004F019601970130
:1024F600980199019A019B019C019D0108004E01DA
:102506008F1E822A4101B30142019D1C8C2A1D1295
:102516001D16190808006400800101310130FE0211
:102526000030FF3B7F087E04031900348F2AFE002B
:1025360012001E000130FE020030FF3B7F087E04C1
:10254600031900349B2A4E018C1241015108520492
:102556000319080052088A0051080A00923108003F
:10256600FD007D0843018C009731C327923143015A
:10257600111F080001308731FC27080092317822AC
:1025860092319531312592319231652292319231D3
:10259600E222923194312A240800F3007308053EA2
:1025A6008600023087007308043E840002308500EE
:1025B6000008083EF0000030013DF1000800403000
:1025C6004B019F00F9309D009C014E018C1296161E
:1025D600FF30F0000730F10092313D2280304B0190
:1025E6009E0008000E307D01C5000C30C600133079
:1025F6007E019E0014309C00803043018F002830FD
:102606009000920103308D0090160800FC007C08B3
:102616000319102B40011816122B40011812003016
:10262600F3000030F2000030F1001430F000953174
:10263600AE2508007108F4007008F30070088400E5
:1026460071088500120003192D2B0130F0070030A8
:10265600F13D212B73087002F0007408713BF10004
:1026660008006430F5002730F6002C304001A90040
:102676002908F7007D08F9007C08F8008C30FA007C
:102686000030FB008F3115277608FD007508FC0029
:1026960008004001AB00430191159731C3279331E0
:1026A60043010C08FD007D084001AC002B0C4301E2
:1026B600031C91120318911611169731C327400176
:1026C6002C080800F50070088600710887000108CC
:1026D600F2000230F235890B6D2B1C307205F300C7
:1026E6007508860087010108E3397304F40075084C
:1026F60086008701740881000800F50070088600CE
:102706007108870043310108F2000230F235890B67
:10271600892B1C307205F3007508860087010108B5
:10272600E3397304F4007508860087017408810094
:102736000800F5007008860071088700443101081A
:10274600F2000530F235890BA52BE0307205F30057
:1027560075088600870101081F397304F40075089F
:1027660086008701740881000800F500700886005D
:102776007108870041310108F2000530F235890BF6
:10278600C12BE0307205F300750886008701010849
:102796001F397304F40075088600870174088100E8
:1027A6000800F300F401F5017508803AF20071089B
:1027B600803A7202031DE12B7008740203180800A8
:1027C60074087307F20072088600013087008101E1
:1027D6000130F4070030F53DD72BF201F3016430E8
:1027E600F0002730F1007208700786007308713D0B
:1027F600870081010130F2070030F33D7308803A0B
:10280600F00080307002031D0A2C8C30720203180F
:102816000800F22BF201F301D830F0002630F10067
:102826007208700786007308713D870081010130C8
:10283600F2070030F33D7308803AF00080307002F2
:10284600031D272C8C307202031808000F2C083049
:1028560042019F0090309D0024309E0019309B005D
:102866009C010030F0000030F10092314922943191
:102876000030F0000030F10092314F2294310030E8
:10288600F0000030F100923143224101B30108000B
:10289600F300730803196A2C7308033E860001309F
:1028A60087001600010403196A2C7308053E86008A
:1028B600013087001600010403196A2C7308073ECD
:1028C60086000130870016000104031D6D2CF201FD
:1028D600F2036E2CF20172080800FF304001A300DB
:1028E600FF30A4002208F6002108F5002208F100B6
:1028F6002108F00093311D2394317108F800700807
:10290600F70040012408FA002308F90088310B205B
:1029160076084001A4007508A3002408A200230835
:10292600A10008004001E7006708DD000030DE0076
:102936006408E5006508DF001F3095318425943171
:102946004001E6006608E8006808031DB92C670820
:10295600D3000030D4006408E5006508D5001F30B8
:10296600893195214001E6006608E80068080800FC
:10297600FA00F801F9017A08F0000230F10093310B
:102986001D2394317108F7007008F6007908803A23
:10299600F5007708803A7502031DD32C7608780275
:1029A6000318080078087A07F500750886000230D3
:1029B600870081010130F8070030F93DC92CF70086
:1029C600F801F90177089231D02294317108F600A6
:1029D6007008F5007908803AF4007608803A7402A7
:1029E600031DF72C75087802031808007808770786
:1029F600F4007408860002308700010892315D22D7
:102A060094310130F8070030F93DED2CFA01FB0155
:102A16007608F1007508F00093311D239531710891
:102A2600F9007008F8007908803AF7007B08803AC8
:102A36007702031D202D7A087802031C080075080A
:102A46007A07840076087B3D8500000892315D2276
:102A560095310130FA070030FB3D162D40019801F3
:102A660099019A010B30920030309300DF309400C8
:102A7600FF307E01CE00D030C3003730B800C4012D
:102A8600B901CF01BA01C501D0013730BB00F03022
:102A9600C600FF30D1003F30BC00F030C700FF3029
:102AA600D2000F309F000D307D01CB0008004001A1
:102AB600A501A6012608803AFC0080307C02031D91
:102AC600662D240825020318080040019A162008DE
:102AD600F0002108F100F201F3019531AE259531A0
:102AE60040019A122208F0002308F100F201F301D6
:102AF6009531AE25953101304001A5070030A63D40
:102B06005D2D4001E300E201E20A631D992D5E0896
:102B1600D4005D08D3005F08E0006008D5008B3163
:102B26005C2395314001E1006108E2006308033946
:102B36000319AC2D5E08D4005D08D3005F08E000E1
:102B46006008D50063088931DB214001E100610896
:102B5600E2006208080041012B08FB002A08FA007F
:102B66002908F9002808F800780841012802F4002D
:102B76007908293BF5007A082A3BF6007B082B3BAF
:102B8600F70073087702031DD22D72087602031D23
:102B9600D22D71087502031DD22D70087402031818
:102BA60008005330890BD52D0000B72D4001A80130
:102BB600A9012408F1002308F00093311D23953163
:102BC60071084001A7007008A6002908803AA500F0
:102BD6002708803A2502031DF22D2608280203182D
:102BE600080040012308280784002408293D8500A1
:102BF60000089631EA26953101304001A8070030D9
:102C0600A93DE82DB5346234063424342434003426
:102C1600FF34FF3406340334003400340034003407
:102C2600103427340034003405340034FA340034C8
:102C3600FA340034643400342C3401340034003463
:102C460000340034003400340034003400340034DE
:102C560000340034003400341634DC34F600F70156
:102C6600F70A720877020318080077087607F30058
:102C76007308860087010108F40077357007F500B0
:102C86007508FF3E86008701740881007708710782
:102C9600F3007308860087010108F4007735700792
:102CA600F500750886008701740881000130F3007D
:102CB6007308F707342E4001C500400894314B24B1
:102CC60096314001C1004108C4004408031D892E05
:102CD6004508C1004108B7000130B8000030B9000E
:102CE6004008C2004208BA00F43089310C21400184
:102CF600C3004308C400450886008701010803395C
:102D0600C100450886008701410881004408080083
:102D16004001A8009D2E2808860001308700010882
:102D26000319AB2E0130FD007D08A8070130FB0713
:102D36000030FC3D7B0884007C0885000008FD000F
:102D4600280886000130870001087D0603198E2EAB
:102D560028088600013087007B0884007C088500EF
:102D660000080102FB00FC01031CFC0308006430A0
:102D76004001A9002730AA00D830F6002630F70017
:102D86003808F9003708F8008D31022596314001E0
:102D9600AB000130AC003608AE003508AD008C3013
:102DA600AF000030B0008B31AE23963140012A08C7
:102DB600B6002908B5003608FD003508FC00933139
:102DC60034237D084001B6007C08B50008004001A8
:102DD600A00000309331092396314001A101A201E0
:102DE60040012008FD00210AF92EFD36890BF82E38
:102DF6007D1CFF2E0130002F0030933109239631C0
:102E060001304001A1070030A23D2208803AFD00B2
:102E160080307D02031D112F07302102031CF32E83
:102E2600013093310923963101309331092308008B
:102E36004001B1014E010F10430111149731C32710
:102E4600973140012B359231B322973140012C083E
:102E56009231B32297314001B201B3012F083302F8
:102E6600031D372F2E0832020318492F32082D076B
:102E7600B00030088600870101089231B3229731ED
:102E860001304001B2070030B33D312F9231332279
:102E96004001310808004001D700F430D40054083E
:102EA600D9005A30D4005408B7000130B8000030B9
:102EB600B9005308D5005508BA00590889310C21C4
:102EC60097314001D6005608D8005808031D852FB3
:102ED60003305705D4005A08FC395404D500550868
:102EE600DA005A30D4005408B400B501B50A5308C4
:102EF600D5005508B60059308531B7254001D600B2
:102F06005608D800580808004001D900E030D30020
:102F16005308D800B630D3005308D6005908943168
:102F26004B2497314001D3005308D7005708031D9F
:102F3600C02F5630D3005308B400B501B50A59085E
:102F4600D4005408B60058308531B7259731400172
:102F5600D5005508D7000030F3000030F2000030ED
:102F6600F1000230F0005908073E86000130870064
:102F7600413F8A00403F0A00973140015708080048
:102F860041012B08AF002A08AE002908AD00280829
:102F9600AC004E010F18FD2F41012C0828024001FC
:102FA600A70041012D08293B4001A80041012E0838
:102FB6002A3B4001A90041012F082B3B4001AA00F2
:102FC6002A08031DEF2F2908031DEF2FE9302702DA
:102FD6000330283B031CCC2FC830A0000030A100D2
:102FE600C830A2000030A3000330A7002708A400C1
:102FF60095315A254E010F100800243450345534AB
:10300600423458342C34343430342C3452344D3425
:1030160043342C3430342C3430342C3430342C3487
:1030260030342A34343437340D340A3400342434FA
:1030360050345534423458342C34343430342C34EF
:103046004734533456342C3430342C3430342C3406
:1030560030342C3430342A34353439340D340A348F
:103066000034243450345534423458342C343434F7
:1030760030342C344734473441342C3430342C34F7
:1030860030342C3430342C3430342A343534413412
:103096000D340A3400342434503455344234583410
:1030A6002C34343430342C3447344C344C342C34B3
:1030B60030342C3430342C3430342C3430342A34FC
:1030C600353443340D340A34003424345034553402
:1030D600423458342C34343430342C34473453345A
:1030E60041342C3430342C3430342C3430342C34B9
:1030F60030342A34343445340D340A34003424341C
:1031060050345534423458342C34343430342C341E
:103116005634543447342C3430342C3430342C3434
:1031260030342C3430342A34353445340D340A34B2
:103136000034243450345534423458342C3430342A
:1031460030342A34333433340D340A3400345734AB
:103156006934733470342D343134003424342434D7
:0631660000340A340034BD
:020000040001F9
:0A000E00EC3FFF3F9F3FFF3FFF3F25
:00000001FF
