:020000040000FA
:0400000080310E2815
:100008007E1480314E01961A8C1E0C28A631AB2620
:100018007E10090080311028003084008830850067
:100028006B308600013087000430A63169268031A4
:10003800C630840099308500203086000230870061
:100048002C30A631692680314101E801E901EA0135
:10005800EB01EC01ED0120308400013085002730F0
:10006800A63163268031A0308400013085004D30F0
:10007800A63163268031A0308400023085004630E6
:10008800A631632680312030840003308500463055
:10009800A63163267E1040018A31A12A4101B400AD
:1000A8000030B8000130B700AD30B600B030B50050
:1000B80000304001A3000030A2000030A10002304F
:1000C800A0002E08213E860001308700403FA40092
:1000D800413FA500423FA600433FA7009431932427
:1000E80080310030400120074101C900063040013D
:1000F800213D4101CA00FF304001223D4101CB00B2
:10010800FF304001233D4101CC0000304001A300F5
:100118000030A2000030A1000430A00041014C08CA
:100128004001A70041014B084001A60041014A08CF
:100138004001A500410149084001A40094319324DD
:10014800803140012308F3002208F2002108F10061
:100158002008F0000030A3000030A2000030A10009
:100168000430A00041014C084001A70041014B08A0
:100178004001A60041014A084001A5004101490883
:100188004001A40094319324803140012308F700F2
:100198002208F6002108F5002008F4009A311F22F1
:1001A800803173084101BC007208BB007108BA00B5
:1001B8007008B90000304001A3000030A2000830E8
:1001C800A1000030A00041013C084001A700410106
:1001D8003B084001A60041013A084001A500410141
:1001E80039084001A4009431932480314001230848
:1001F800F3002208F2002108F1002008F0002E0880
:10020800103E860001308700403FB200413FB300F6
:100218003208F4003308F500890D893B8909F60096
:10022800F7009A311F22803173084101C400720817
:10023800C3007108C2007008C10041084001B20043
:10024800410142084001B300410143084001B400A4
:10025800410144084001B5002E080E3E86000130D9
:100268008700403FB600413FB7003608F000370826
:10027800F100890D893B8909F200F30041014C081E
:10028800F7004B08F6004A08F5004908F4009A31CF
:100298001F22803170084001B8007108B900720847
:1002A800BA007308BB000130B835B90DBA0DBB0DE3
:1002B800890B58293808B2073908B33D3A08B43DC4
:1002C8003B08B53D35084101C400400134084101EF
:1002D800C300400133084101C20040013208410116
:1002E800C10040012E080C3E860001308700403FC7
:1002F800B200413FB3003208B4003308B500B6017C
:10030800B7011030B435B50DB60DB70D890B862978
:100318000030A3000030A2000030A1000430A0008B
:10032800410144084001A700410143084001A600DB
:10033800410142084001A500410141084001A400D3
:1003480094319324803140012008B4072108B53D39
:100358002208B63D2308B73D37084101C4004001D3
:1003680036084101C300400135084101C20040017F
:1003780034084101C10000304001A3000030A20050
:100388000030A1000430A00041014C084001A70042
:1003980041014B084001A60041014A084001A5005F
:1003A800410149084001A40094319324803140015F
:1003B8002308F3002208F2002108F1002008F000C9
:1003C8000030A3000030A2000030A1000430A000DB
:1003D80041014C084001A70041014B084001A6001B
:1003E80041014A084001A500410149084001A40013
:1003F80094319324803140012308F7002208F60045
:100408002108F5002008F4009A311F228031730872
:100418004101BC007208BB007108BA007008B9003D
:1004280040012E080A3E860001308700403FB20096
:10043800413FB3003208F0003308F100890D893BD1
:100448008909F200F3000030A3000030A200203038
:10045800A1000030A00041013C084001A700410173
:100468003B084001A60041013A084001A5004101AE
:1004780039084001A40094319324803140012308B5
:10048800F7002208F6002108F5002008F4009A3148
:100498001F22803173084101AF007208AE00710855
:1004A800AD007008AC0000304001A3000030A2008D
:1004B8000030A1000830A00041012F084001A7002A
:1004C80041012E084001A60041012D084001A50068
:1004D80041012C084001A40094319324803140014B
:1004E80023084101A300400122084101A200400164
:1004F80021084101A100400120084101A00000306D
:100508004001A3000030A2000030A1000230A0008A
:100518002E08083E860001308700403FB200413F68
:10052800B3003208F0003308F100890D893B8909CE
:10053800F200F30041014C08F7004B08F6004A08A6
:10054800F5004908F4009A311F22803173084001F0
:10055800A7007208A6007108A5007008A4009431CD
:1005680093248031400123084101A700400122085B
:100578004101A600400121084101A50040012008D1
:100588004101A40000304001A3000430A200003063
:10059800A1000030A0004101200824074001B2005A
:1005A80041012108253D4001B30041012208263DB3
:1005B8004001B40041012308273D4001B50035083A
:1005C800A7003408A6003308A5003208A400943117
:1005D80093248031400123084101CC0040012208C6
:1005E8004101CB00400121084101CA004001200817
:1005F8004101C90000304001A3000030A200803052
:10060800A1000030A000003041014907F00080300F
:100618004A3DF10000304B3DF20000304C3DF30004
:1006280040012E08063E860001308700403FB20098
:10063800413FB3003208F4003308F500F601F70132
:100648009A311F22803173084001A7007208A60062
:100658007108A5007008A4009431932480314001EA
:1006680023084101CC00400122084101CB00400190
:1006780021084101CA00400120084101C9004C0875
:100688004B044A04490403197F2D34088600870166
:10069800403F4001B200413FB300423FB400433FF6
:1006A800B5000030B6000030B7001030B800003098
:1006B800B9003208B6023308B73B3408B83B3508EE
:1006C800B93B39084101AB00400138084101AA0093
:1006D800400137084101A900400136084101A8003E
:1006E80000304001A3000030A2001030A10000300B
:1006F800A000410144084001A7004101430840010E
:10070800A600410142084001A500410141084001FD
:10071800A40094319324803140012008410128022B
:100728004001B20021084101293B4001B3002208E1
:1007380041012A3B4001B400230841012B3B400101
:10074800B5003508F3003408F2003308F100320828
:10075800F0000030F7000030F6000C30F5003530BE
:10076800F4009A311F22803173084101C8007208D1
:10077800C7007108C6007008C50080304802031819
:10078800E22B4C08F3004B08F2004A08F100490834
:10079800F0004535F400460DF500470DF600480D0C
:1007A800F7009F31AE27803173084101C8007208F5
:1007B800C7007108C6007008C500FE2B4C08F3007E
:1007C8004B08F2004A08F1004908F0004808F70011
:1007D8004708F6004608F5004508F4009F31AE27A3
:1007E800803170354101C500710DC600720DC7001A
:1007F800730DC80045084001B20041014608400198
:10080800B300410147084001B400410148084001D4
:10081800B5000330B536B40CB30CB20C890B0E2CF2
:100828003508F7003408F6003308F5003208F400FC
:10083800410145084001B600410146084001B700A2
:10084800410147084001B800410148084001B9008A
:100858000330B936B80CB70CB60C890B2D2C3908F7
:10086800F3003808F2003708F1003608F0009A3132
:100878001F22803170084001BA007108BB0072085D
:10088800BC007308BD000D30BD36BC0CBB0CBA0CE7
:10089800890B482C3D084101B30040013C08410147
:1008A800B20040013B084101B10040013A08410152
:1008B800B00000304001A3000030A2001030A100B9
:1008C8000030A0002E08163E860001308700403F09
:1008D800B200413FB3003208F0003308F100890D3F
:1008E800893B8909F200F30041013308F700320817
:1008F800F6003108F5003008F4009A311F228031E3
:1009080073084001A7007208A6007108A5007008C6
:10091800A400943193248031400123084101CC0084
:10092800400122084101CB00400121084101CA00D1
:10093800400120084101C90000304001A3000030F7
:10094800A2002030A1000030A0004101450840016C
:10095800B200410146084001B30041014708400187
:10096800B400410148084001B5000230B536B40C66
:10097800B30CB20C890BBA2C3508F3003408F2001A
:100988003308F1003208F0002E08143E86000130CA
:100998008700403FB600413FB7003608F4003708EB
:1009A800F500890D893B8909F600F7009A311F2265
:1009B800803173084001A7007208A6007108A500DD
:1009C8007008A40094319324803140012308410128
:1009D800C400400122084101C3004001210841012F
:1009E800C200400120084101C10000304001A300BD
:1009F8000030A2000030A1001030A00041014108E1
:100A08004001B200410142084001B30041014308DE
:100A18004001B400410144084001B50041014908C2
:100A28004001B60041014A084001B70041014B08A6
:100A38004001B80041014C084001B9002E08123E9F
:100A4800860001308700403FBA00413FBB003A08AA
:100A5800BC003B08BD000030BD1BFF30BE00BF001E
:100A68003C08B6073D08B73D3E08B83D3F08B93DCC
:100A78003608B2073708B33D3808B43D3908B53DE4
:100A88003508A7003408A6003308A5003208A400DA
:100A980094319324803140012008410145074001E9
:100AA800C00021084101463D4001C1002208410122
:100AB800473D4001C20023084101483D4001C300B1
:100AC80043084101C800400142084101C7004001F4
:100AD80041084101C600400140084101C5004808DD
:100AE800031D872D4708031D872D303045027530BB
:100AF800463B0318872D0030C8000030C70075300A
:100B0800C6003030992D4808031D922DB13045029A
:100B1800AD30463B0130473B031C9A2D0030C800DE
:100B28000130C700AD30C600B030C50048084001EC
:100B3800B100410147084001B000410146084001A9
:100B4800AF00410145084001AE0008004001BD0169
:100B580041016B084001B30041016A084001B2003D
:100B6800410169084001B100410168084001B00035
:100B7800C101C201C401C5013430860000308700BC
:100B88000730AC0000301E00AC0BC72DBE01A731EA
:100B9800C12785314001C601C701FF30BF00FF30C2
:100BA800C0009C30F500A830F60098319F208531B0
:100BB80040013D08031D982F30084101680240019B
:100BC800AC0031084101693B4001AD0032084101E8
:100BD8006A3B4001AE00330841016B3B4001AF0066
:100BE8002F08031D982F2E08031D982FB9302C02AB
:100BF8000B302D3B0318982FA63146268531003A35
:100C08000319DC2DA6319F2685314001AC002C0844
:100C1800C300BB01BB0AA62EBE01BE0A4001C1012A
:100C2800C201B92EBC013E080319202E4408450410
:100C38000319202EBC01BC0A3C080319252E0130DB
:100C4800262E0030AC002C08BD00B92E44084504FF
:100C5800031D432EB130F000A830F1003430993133
:100C68006F218531700871040319432E4001BE01BC
:100C78003430F5000030F60098312D2085314001E0
:100C88003E080319B92E0130C4070030C53D450898
:100C9800803AAC0080302C02031D542E03304402ED
:100CA800031C122E04304001440645040319122E79
:100CB8000630440645040319122E0830440645043C
:100CC8000319122E0C30440645040319122E450848
:100CD800803AAC0080302C02031D742E0E30440282
:100CE8000318122E40014508803AAC0080302C02CF
:100CF800031D802E09304402031C842E0130852EEA
:100D0800003009076B3E860001308700403FF00045
:100D1800413FF1002C304001AD002D08F20047089A
:100D2800F4004608F3004630F5000030F600933131
:100D38002C23853171084001C7007008C600122EA7
:100D4800BB01B92E4308AC00AD012D08003A0319C8
:100D5800AE2EA42E2C080A3A0319162E2E3A031981
:100D6800102E083A03192A2EA42E3B08031DDC2D49
:100D78003E08031D642FDC2D3430F0000030F100F4
:100D88004308AC002C08F2004208F4004108F300C4
:100D98000730F5000030F60093312C238531922F6F
:100DA8004208803AAC0080302C02031DDD2E06304C
:100DB80041020318922F02304001410642040319F0
:100DC800EA2E043041064204031D042F42016C0838
:100DD800F1006B08F0003A304001AC002C08F2003A
:100DE8004708F4004608F3004630F5000030F600E6
:100DF80093312C23853171084001C7007008C60063
:100E080042016C08F1006B084D2F41084204031D94
:100E1800042F4708C0004608BF00042F4E30430681
:100E28000319922F4008803AAC0080302C02031D31
:100E38001F2F01303F02031C922F42016C08F10062
:100E48006B08F0002D304001AC002C08F20040087F
:100E5800F4003F08562F092F4530132F410842044C
:100E6800031D402F3430F5000030F60098312D2056
:100E780085314001C601C7014308AC004108343E32
:100E8800860087012C088100922F42016E08F1002C
:100E98006D08F00040014308AC002C08F200470838
:100EA800F4004608F3004630F5000030F6009331B0
:100EB8002C23853171084001C7007008C600922FA5
:100EC8004508003A0319692F922F4408003A03197C
:100ED800C02E023A0319D42E013A0319092F073AF2
:100EE8000319122F013A03192F2F033A0319302F30
:100EF800013A0319042F0F3A0319322F013A031943
:100F0800492F033A0319492F013A0319492F073A80
:100F18000319922F013A0319492F922F01304001EA
:100F2800C1070030C23DDC2D3D080319D02F420116
:100F38006E08F1006D08F0002C304001AC002C0860
:100F4800F2004708F4004608F3004630F500003088
:100F5800F60093312C23853171084001C7007008D1
:100F6800C60042016E084001A10042016D0840011F
:100F7800A0003430A2000030A3004708A5004608AE
:100F8800A4004630A6000030A7009F315C2740012E
:100F98002108C7002008C6003D0808004001C50018
:100FA80040089831082087314001C1004108C40039
:100FB8004408031DFD2F4508C1004108B700013052
:100FC800B8000030B9004008C2004208BA00F43046
:100FD8009C3128244001C3004308C400450886000A
:100FE800870101080339C1004508860087014108C7
:100FF8008100440808000800A03402342034033477
:10100800F3007008093EF1007108F200730A8400C9
:1010180085010008F10073088400850172088600C4
:10102800013087000008C03F7108C13F7308033EC4
:10103800840085010008F1007308023E84008501E0
:101048007208023E8600013087000008C03F710820
:10105800C13F7308053E840085010008F10073084C
:10106800043E840085017208043E86000130870032
:101078000008C03F7108C13F7308073E840085011E
:101088000008F1007308063E840085017208063ED8
:101098008600013087000008C03F7108C13F73080F
:1010A800093E840085010008F1007308083E8400A9
:1010B80085017208083E8600013087000008C03F9D
:1010C8007108C13F73080B3E840085010008F100D8
:1010D80073080A3E8400850172080A3E86000130C2
:1010E80087000008C03F7108C13F73080D3E8400A7
:1010F80085010008F10073080C3E84008501720820
:101108000C3E8600013087000008C03F7108C13FCF
:1011180073080F3E840085010008F10073080E3E35
:101128008400850172080E3E8600013087000008A1
:10113800C03F7108C13F7308113E84008501000853
:10114800F1007308103E840085017208103E860085
:10115800013087000008C03F7108C13F7308133E83
:10116800840085010008F1007308123E840085019F
:101178007208123E8600013087000008C03F7108DF
:10118800C13F7308153E840085010008F10073080B
:10119800143E840085017208143E860001308700E1
:1011A8000008C03F7108C13F7308173E84008501DD
:1011B8000008F1007308163E840085017208163E87
:1011C8008600013087000008C03F7108C13F7308DE
:1011D800193E860087010108F1007208183E860052
:1011E800013087007108810008004001CC00003000
:1011F800C7000030C6002130C5003430C4002E08B6
:10120800860001308700403FB200413FB3003208FA
:10121800B4003308B500B601B7010130B435B50DD7
:10122800B60DB70D890B12294C08043E86008701BC
:10123800403FB800413FB900423FBA00433FBB00BE
:101248000330BB36BA0CB90CB80C890B2529340805
:10125800B8023508B93B3608BA3B3708BB3B3B08F0
:10126800CB003A08CA003908C9003808C80000305D
:10127800A3000030A2000830A1000030A0002E0812
:10128800023E860001308700403FB200413FB30074
:101298003208F0003308F100890D893B8909F20012
:1012A800F3004B08F7004A08F6004908F50048081B
:1012B800F4009A311F22883173084001A700720890
:1012C800A6007108A5007008A40094319324883101
:1012D80040012308CB002208CA002108C9002008C1
:1012E800C8002E08860001308700403FB200413F09
:1012F800B3003208B4003308B500B601B7014C0892
:10130800043E86008701403FB800413FB900423F94
:10131800BA00433FBB000430BB36BA0CB90CB80C5A
:10132800890B90293408B8023508B93B3608BA3B0E
:101338003708BB3B3B08D0003A08CF003908CE003D
:101348003808CD000030A3000030A2001030A10002
:101358000030A0005008F3004F08F2004E08F100DA
:101368004D08F0005008F7004F08F6004E08F50049
:101378004D08F4009A311F22883173084001A700F4
:101388007208A6007108A5007008A400943193247F
:10139800883140012308BF002208BE002108BD0093
:1013A8002008BC000030A3000030A2004030A1009B
:1013B8000030A0003F08F3003E08F2003D08F100AD
:1013C8003C08F0002E08043E860001308700403FAC
:1013D800B200413FB3003208F4003308F500890D2C
:1013E800893B8909F600F7009A311F228831730872
:1013F8004001A7007208A6007108A5007008A400A3
:1014080094319324883140012308D0002208CF006A
:101418002108CE002008CD0048084D07B200490831
:101428004E3DB3004A084F3DB4004B08503DB5004F
:101438002E08213E8600013087003208C03F33085D
:10144800C13F3408C23F3508C33F0030A300003015
:10145800A2000130A1000030A0008030B2000030AE
:10146800B3000030B4000030B5002E08213E8600DD
:1014780001308700403FF000413FF100423FF20059
:10148800433FF3000030F7000030F6000030F5006D
:101498000530F4009A311F22883170084001B207E4
:1014A8007108B33D7208B43D7308B53D3508A7000F
:1014B8003408A6003308A5003208A4009431932408
:1014C800883140012308D4002208D3002108D20023
:1014D8002008D100D41F822A60305102F030523BDC
:1014E800FF30533BFF30543B0318822AFF30D400AF
:1014F800FF30D300F030D2006030972AD41B982AEE
:101508005408031D902A5308031D902A35305102B0
:101518002130523B031C982A0030D4000030D300FD
:101528002130D2003430D1005408B1005308B00043
:101538005208AF005108AE000800A631C6268A310D
:10154800A6316F268A31923149228A319D31CF25C1
:101558008A318531AA258A31003A0319182D593064
:101568004101E30063084001E100BA304101E400B1
:1015780064084001E20007309031B1208A3142010D
:101588006E08F1006D08F000A73122278A31710832
:101598004201E6007008E5006E08F1006D08F000F1
:1015A8002C304101E3006308F20042016608F400B0
:1015B8006508F3004630F5000030F60093312C231F
:1015C8008A3171084201E6007008E500D60147300B
:1015D800F5000130F60098312D208A3142015E086D
:1015E800FC005D08FB0047304101E3006308FD0093
:1015F800913175218A3142016E084001A1004201F2
:101608006D084001A0004730A2000130A30042014C
:1016180066084001A500420165084001A400463063
:10162800A6000030A7009F315C278A3140012108BD
:101638004201E600400120084201E5006E08F10081
:101648006D08F0002C304101E3006308F20042010C
:101658006608F4006508F3004630F5000030F6002F
:1016680093312C238A3171084201E6007008E500A5
:101678004730F5000130F60098312D208A314201BB
:101688005C084001AC0042015B084001AB0042012C
:101698005A084001AA00420159084001A9004730F0
:1016A8004101E30063084001AD00903104208A3114
:1016B80042016E084001A10042016D084001A000EE
:1016C8004730A2000130A300420166084001A5008E
:1016D800420165084001A4004630A6000030A7007A
:1016E8009F315C278A31400121084201E600400110
:1016F80020084201E5006E08F1006D08F0002C306A
:101708004101E3006308F20042016608F40065083D
:10171800F3004630F5000030F60093312C238A316F
:1017280071084201E6007008E5004730F500013015
:10173800F60098312D208A310830593E8600013054
:101748008700403F4001A900413FAA00423FAB004B
:10175800433FAC0047304101E30063084001AD005E
:10176800903104208A3142016E084001A1004201F3
:101778006D084001A0004730A2000130A3004201DB
:1017880066084001A500420165084001A4004630F2
:10179800A6000030A7009F315C278A31400121084C
:1017A8004201E600400120084201E5006608D80031
:1017B8006508D7006C084001A10042016B08400190
:1017C800A000AA30A200A830A3000030A400A50001
:1017D8004630A6000030A7009F315C278A314001BF
:1017E80021084201E600400120084201E5006C089A
:1017F800F1006B08F0002C304101E3006308F200AF
:1018080042016608F4006508F3004630F500003030
:10181800F60093312C238A3171084201E6007008E2
:10182800E5004730F5000130F60098312D208A3167
:1018380042014008FC003F08FB0047304101E3003B
:101848006308FD00913175218A3142016C0840011D
:10185800A10042016B084001A0004730A2000130FE
:10186800A300420166084001A50042016508400145
:10187800A4004630A6000030A7009F315C278A31BB
:10188800400121084201E600400120084201E5002C
:101898006C08F1006B08F0002C304101E30063088C
:1018A800F20042016608F4006508F3004630F500CE
:1018B8000030F60093312C238A3102304001A10018
:1018C8000030A2006B309D3185258A314001210806
:1018D8004101E300400122084101E400E501E6017D
:1018E80066084001AD00410165084001AC004101B6
:1018F80064084001AB00410163084001AA0041307F
:101908004101E70067084001AE009331A2238A3104
:1019180042016C084001A10042016B084001A0008F
:10192800B630A200A830A3000030A400A5004630BD
:10193800A6000030A7009F315C278A3142016E085B
:10194800F1006D08F0002A304101E3006308F2005D
:1019580042015808F4005708F3004630F5000030FB
:10196800F60093312C238A3171084201E600700891
:10197800E5006E084001A10042016D084001A00089
:101988004130A2000130A300420166084001A500D1
:10199800420165084001A4004630A6000030A700B7
:1019A8009F315C278A31400121084201E60040014D
:1019B80020084201E5006E08F1006D08F0000A30C9
:1019C8004101E3006308F20042016608F40065087B
:1019D800F3004630F5000030F60093312C238A31AD
:1019E80071084201E6007008E5000130BF070030C9
:1019F800C03D4001181542016C084001A400420195
:101A08006B084001A30099319A218A3142016E087E
:101A18004001A40042016D084001A30099319A21B8
:101A28008A31400118112A2D90304001A000013060
:101A3800A100C830A2000030A30003304101E30038
:101A480063084001A4009831F0208A310030F30087
:101A58000030F2001330F1008830F0009931442151
:101A68008A31AD2A4001BE002E08213E8600013091
:101A78008700403FB200413FB300423FB400433FBC
:101A8800B50000303207C700D430333DC800FE30FF
:101A9800343DC900FF30353DCA003E08083E860087
:101AA8008701403FB200413FB300423FB400433F8B
:101AB800B5000E30B235B30DB40DB50D890B5E2DE2
:101AC8003508CE003408CD003308CC003208CB00EE
:101AD8002E081C3E860001308700403FB200413F7F
:101AE800B3003208B4003308B500B601B7011430AA
:101AF800B435B50DB60DB70D890B7C2D3708DA0056
:101B08003608D9003508D8003408D7002E081E3EFC
:101B1800860001308700403FB200413FB3003208E1
:101B2800F0003308F100890D893B8909F200F300C0
:101B38004A08F7004908F6004808F5004708F40085
:101B48009A311F228D3173084001D2007208D100EA
:101B58007108D0007008CF000030A3000030A20048
:101B68008030A1000030A0004B08B2004C08B30040
:101B78004D08B4004E08B5005709B6005809B7001B
:101B88005909B8005A09B900B60A0319B70A03195E
:101B9800B80A0319B90A4F08B6025008B73B5108EA
:101BA800B83B5208B93B3608B2073708B33D380886
:101BB800B43D3908B53D00303207A4004030333D0C
:101BC800A5000030343DA6000030353DA700943113
:101BD80093248D3140012308D6002208D50021081E
:101BE800D4002008D3000030A3000030A200043045
:101BF800A1000030A0002E08203E8600013087009A
:101C08000108F0008039031DFF30F100F200F300F5
:101C18004A08F7004908F6004808F5004708F400A4
:101C28009A311F228D3173084001A7007208A6005F
:101C38007108A5007008A400943193248D314001E7
:101C48002308CE002208CD002108CC002008CB00B4
:101C58000030A3000030A2000830A1000030A0002E
:101C68002E081B3E8600013087000108B200B30130
:101C7800B401B5013508F3003408F2003308F10067
:101C88003208F0004A08F7004908F6004808F5004D
:101C98004708F4009A311F228D3173084001A700CC
:101CA8007208A6007108A5007008A4009431932456
:101CB8008D3140012308DA002208D9002108D80014
:101CC8002008D7000030A3000030A2000430A10093
:101CD8000030A00000305707F0008030583DF10078
:101CE8000030593DF20000305A3DF3004E08F7002D
:101CF8004D08F6004C08F5004B08F4009A311F22F5
:101D08008D3173084001A7007208A6007108A5006C
:101D18007008A400943193248D31003040012007CD
:101D2800CF000030213DD0002030223DD1000030CE
:101D3800233DD2000030A3000030A2004030A100B3
:101D48000030A0000030B2002030B3000030B400F2
:101D58000030B5002E08193E860001308700403F4C
:101D6800B600413FB7003608F0003708F100890D8A
:101D7800893B8909F200F3005208F7005108F60080
:101D88005008F5004F08F4009A311F228D31700871
:101D98004001B2077108B33D7208B43D7308B53D00
:101DA8003508A7003408A6003308A5003208A400A7
:101DB800943193248D3140012308CE002208CD00B0
:101DC8002108CC002008CB005608F3005508F20083
:101DD8005408F1005308F0004E08F7004D08F600CB
:101DE8004C08F5004B08F4009A311F228D31730816
:101DF8004001DA007208D9007108D8007008D700CD
:101E08000030A3000030A2008030A1000030A00004
:101E18005A08A7005908A6005808A5005708A400A2
:101E2800943193248D3140012308F3002208F200F5
:101E38002108F1002008F0000030A3000030A200C3
:101E48008030A1000030A0005A08A7005908A60059
:101E58005808A5005708A400943193248D314001F7
:101E68002308F7002208F6002108F5002008F400EE
:101E78009A311F228D3173084001BD007208BC00E1
:101E88007108BB007008BA000030A3000030A2003F
:101E98000030A1008030A0003D08A7003C08A60043
:101EA8003B08A5003A08A400943193248D314001E1
:101EB8002308D2002208D1002108D0002008CF0032
:101EC8000030A3000030A2000030A1001030A000B4
:101ED8002E08183E8600013087000108B200B301C1
:101EE800B401B5013508F3003408F2003308F100F5
:101EF8003208F0005208F7005108F6005008F500C3
:101F08004F08F4009A311F228D3173084001A70051
:101F18007208A6007108A5007008A40094319324E3
:101F28008D31400120085702B6002108583BB70000
:101F38002208593BB80023085A3BB9003908D60093
:101F48003808D5003708D4003608D300D61FB42F78
:101F58000030D6000030D5000030D4000030D30067
:101F6800D61BC82F013053020030543B0030553B7C
:101F78001930563B031CC82F1930D6000030D50045
:101F88000030D4000030D3000030A3000030A2009D
:101F98001030A1000030A0005608A7005508A60080
:101FA8005408A5005308A400943193248D314001AE
:101FB8002308C6002208C5002108C4002008C30061
:101FC8004608031DEF2F013043029030443B013097
:101FD800453B031CF72F0030C6000130C500903088
:101FE800C4000030C3004608B1004508B0004408EA
:081FF800AF004308AE00080031
:10200200A631412608004001B001B1010030F300C1
:102012000030F2000030F1000A30F0002C08F70026
:102022002B08F6002A08F5002908F4009B31E62364
:1020320090317008303E4001AE0030082D07AF00ED
:102042002F088600013087002E0881000130B0077A
:102052000030B13D0030F3000030F2000030F100FA
:102062000A30F0002C08F7002B08F6002A08F500C9
:102072002908F4009F31AE27903173084001AC006B
:102082007208AB007108AA007008A9002C082B0482
:102092002A042904031D072830082D07AE002E0844
:1020A20086000130870081012D089131102108003E
:1020B200F30073088600870101080739F1007008F0
:1020C200023E86008701710881007308023E860085
:1020D20087010108F1000230F136890B6D28710881
:1020E2000739F200700886008701720881007308C0
:1020F200023E860087010108F1000530F136890BA6
:102102007F2871080739F200700A86008701720879
:1021120081007308033E860087010108F100023046
:10212200F136890B912871080739F2007008033ED5
:1021320086008701720881007308033E86008701CA
:102142000108F1000530F136890BA428710807391E
:10215200F2007008043E86008701720881000800C0
:102162004101D500CD3086000030870008304001A3
:10217200E30000301E00E30BBB2820308600013054
:102182008700D7308400003085000C30E300160051
:102192001A00E30BC82862089831082090314001E8
:1021A200E30063084101D6005608031D0800400100
:1021B200610803190800CD30E3006308B700083056
:1021C200B8000030B9006208E4006408BA00F730D1
:1021D2009C31282490314001E50065084101D60078
:1021E2005608031D0800D7304001E3006308F000E1
:1021F200CD309631E1269031D7304001E3006308BB
:10220200DB006108E4006408DC006208093EE500C6
:102212006508DD004101550894311A240800400187
:10222200A8002808F0000130F100A73122279131DF
:1022320071084001A5007008A400A601A7010230A0
:10224200F0000030F1002508F3002408F2009E316E
:10225200B926913171084001A1007008A000270839
:10226200803AF9002108803A7902031D3A292008B0
:10227200260203186B29400126082807F90079086D
:102282008600013087000108FA007A08A2002608B9
:1022920028022407FF3EF9007908A30023088600DC
:1022A200013087000108F90026082807FA007A0899
:1022B200860001308700790881002208F90023088E
:1022C200860001308700790881000130A6070030BE
:1022D200A73D3029400124082807F9007908860023
:1022E20001308700810108004001AC01AD01FC1FF3
:1022F2007C2901307D290030A9002908AB002B0878
:1023020003198829FB09FC09FB0A0319FC0A0A3094
:10231200F0000030F1007C08F3007B08F2009C31F1
:102322006C2491317008303E4001A9002C087D07D1
:10233200AA002A088600013087002908810001309E
:10234200AC070030AD3D0A30F0000030F1007C08EF
:10235200F3007B08F2009E31B92691317108FC002E
:102362007008FB007C08803A4001A90080302902F5
:10237200031DBD2901307B020318882940012B0867
:102382000319D2292D30A9002C087D07AA002A089A
:10239200860001308700290881000130AC07003037
:1023A200AD3D2C087D07A900290886000130870071
:1023B20081017D089131102108004001E6000530BD
:1023C200E0006008E300E4016608983108209131DA
:1023D2004001E0006008E500650803193D2A472A2C
:1023E2006430E0006008B7000130B8000030B90086
:1023F2006608E1006108BA00D0309C31282491318E
:102402004001E2006208E5006508031D282A6030E9
:102412006406031D282A6408E0006608860001306D
:1024220087006008810066089A31EB2291314001F1
:10243200E0006008E5006508031D402A66089E3139
:102442001B2691314001E0006008E500402A00307F
:10245200F3000030F2000030F1000130F0006608B5
:10246200073E860001308700413F8A00403F0A0054
:10247200923101304001E3026308031DF129630830
:10248200031D472AFE30E0006008E50065080800E9
:10249200A631FA26923176304101AE002E08430170
:1024A200BB00BC01BC0A6830BD001E30BE007F30DC
:1024B200BF001A30C0004430C1001930C200BA3027
:1024C2009131DE2192314101AE002E08B100310876
:1024D200031DA42A4301EA01EA0A05304101AE00C4
:1024E2002E084301E80002304101AE002E084301EC
:1024F200E90004304101AE002E084301EB00EC017B
:10250200EC0A4101B001B00AB01430153016B01512
:10251200BA30AE002E084001EC0041013008923181
:10252200B6229231BA304101AE002E084001EC00D1
:1025320003309B31642392314101AF002F08B10077
:10254200310803190800C8304001A0000030A10082
:10255200C830A2000030A30003304101AE002E08B3
:102562004001A4009831F02008004101AB00400175
:102572006C089831082092314001ED006D0841014C
:10258200AD002D08031D292B40016C08ED006D08DC
:10259200C000AC308731D22792314001EE006E0884
:1025A2004101AD002D08031DE32A2C080319E32A7B
:1025B20040016C089B31A42392314001ED006D086B
:1025C2004101AD002D08031D292B2B084001ED0010
:1025D2006D08F0000730A63194269231003A0319B3
:1025E200062B40016C082E3EDD000130DE006C0837
:1025F200ED006D08DF0041012B0899311A2192315B
:102602004001EE006E084101AD0041012D08031D9D
:10261200292B2B084001ED006D08F0001830A6317F
:1026220094269231003A0319292B40016C082E3E60
:10263200D3000130D4006C08ED006D08D5004101D3
:102642002B089C31B1244001EE006E084101AD001F
:1026520041012D0808007308700786007408713D57
:1026620087000108F7007708FA0073087007F7007F
:102672007408713DF80077088600780887007208B0
:1026820081000130F3070030F43D7A08031D552B19
:1026920073087007F7007408713DF8007708860028
:1026A200780887007A08810073087007860074082A
:1026B200713D87000108031D632B7408F100730844
:1026C200F00008007408FC007308FB007C08803AE4
:1026D200F7007608803A7702031D712B75087B029A
:1026E20003185E2B7B08700786007C08713D87000B
:1026F2000108F7007708F9007B087007F7007C08EB
:10270200713DF80077088600780887007A08810012
:102712000130FB070030FC3D7908031D9D2B7B082F
:102722007007F7007C08713DF8007708860078088A
:102732008700790881005E2B7908F7007708FA0094
:10274200672B00304001BC000030BB000030BA00F3
:102752000030B9000F302A05B50000302B05B60055
:1027620000302C05B70000302D05B8003808031DD5
:10277200CC2B3708031DCC2B3608031DCC2B0A307B
:1027820035020318CC2B0030B4000030B300003007
:10279200B2003030D32B0030B4000030B300003030
:1027A200B2003730B10031083507AF0039082E07C3
:1027B200B00030088600013087002F088100013008
:1027C200B9070030BA3D0030BB3D0030BC3D04309B
:1027D200AD36AC0CAB0CAA0C890BE92B2D082C04E2
:1027E2002B042A040319092CAB2B3030AF00390813
:1027F2002E07B00030088600013087002F088100C4
:102802000130B9070030BA3D0030BB3D0030BC3D5D
:102812003C08031D162C3B08031D162C3A08031D09
:10282200162C04303902031CF62B2E08913110218C
:1028320008004001E000DF015B0803198F2C5C08EF
:1028420003198F2C5D0803198F2C5C08043E860047
:10285200013087000030C03F0030C13FC23FC33F5C
:102862005C088600013087000030C03FC13FC23F94
:10287200C33F5C08083E8600013087000030C03F3D
:102882000030C13FC23FC33F6008073903195F2CC4
:102892005D08DE005E08AE005B088831F9209431E5
:1028A20040015C08043E8600013087002E08C03FCC
:1028B2002F08C13F3008C23F3108C33F601C762C4D
:1028C2005D08DE005E08AE005B0880315220943164
:1028D20040015C088600013087002E08C03F2F08A7
:1028E200C13F3008C23F3108C33F601D912C5D08D3
:1028F200DE005E08AE005B088D3136259431400162
:102902005C08083E8600013087002E08C03F2F0871
:10291200C13F3008C23F3108C33F912CDF01DF03C2
:102922005F0808004001A901A31FA42CA009A10966
:10293200A209A309A00A0319A10A0319A20A0319E9
:10294200A30AA901A90AA71FB52CA409A509A609CA
:10295200A709A40A0319A50A0319A60A0319A70AB3
:102962000130FC007C08A9060030AD000030AC004C
:102972000030AB000030AA00230822042104200406
:102982000319FE2CA801A80AA31BD32C0130A035E1
:10299200A10DA20DA30D890BC82C0130FC007C08EF
:1029A200A807C52C0130AA35AB0DAC0DAD0D890BB6
:1029B200D42C23082702031DE82C22082602031D1B
:1029C200E82C21082502031DE82C20082402031C00
:1029D200F32C2008A4022108A53B2208A63B2308C9
:1029E200A73B2A140130A336A20CA10CA00C890B20
:1029F200F42C0130A802031DD32C290803190C2D35
:102A0200AA09AB09AC09AD09AA0A0319AB0A031951
:102A1200AC0A0319AD0A2D08A3002C08A2002B084A
:102A2200A1002A08A00008004001AF0041016B0884
:102A32004001A30041016A084001A2004101690866
:102A42004001A100410168084001A000B530F0003A
:102A52007008A5006230F0007008A6000530F00092
:102A62007008A700A801A80A0230F0007008A900A7
:102A7200AA012F088600023087000230423FAB00D5
:102A82002F088600023087000230433FAC00AD01C0
:102A9200AE010230F0007008B1003108253E860018
:102AA20087012D080107F0007008AD002E082D07E0
:102AB200F0007008AE000130F0007008B107083075
:102AC2003102031C4E2DB0010A3040013002031CBA
:102AD2006C2D01300800200841016802F00040011D
:102AE20021084101693BF1004001220841016A3B92
:102AF200F2004001230841016B3BF3007308031D00
:102B02008B2D7208031D8B2DB93070020B30713B77
:102B1200031C8D2D00300800A63146269531003A5F
:102B22000319652DA6319F269531F00070084001EA
:102B3200A4003008253E8600870101082406031DF3
:102B4200642D0130F0007008B007652DFD0070089B
:102B5200093EF1007108FC007D0A8400850100082D
:102B6200F1007D08840085017C08193E8600013051
:102B720087000008C03F7108C13F7D08023E860001
:102B820087010108F1007C081B3E860001308700A6
:102B9200710881007D08033E860087010108F1006B
:102BA200F201F11BF203F10EF20EF030F2057108A0
:102BB2000F39F204F030F1057108F6007208F700DF
:102BC2007D08043E8600870101080F39F100F201F9
:102BD2007108F4007208F50074087604F1007508B3
:102BE2007704F2007C081C3E8600013087007108E1
:102BF200C03F7208C13F7D08053E8600870101087B
:102C0200F100F201F11BF203F10EF20EF030F205C7
:102C120071080F39F204F030F1057108FA007208F8
:102C2200FB007D08043E860087010108F1000430A4
:102C3200F136890B192E7108F200F3017208F800BF
:102C42007308F90078087A04F10079087B04F2002D
:102C52007C081E3E8600013087007108C03F720862
:102C6200C13F7D08063E860087010108F1007C080D
:102C7200203E860001308700710881000800400173
:102C8200D2000B303502031C4A2E0A30B700370837
:102C9200B50036089831082096314001B700370850
:102CA200D1005108031DDD2E52080319DD2E340810
:102CB2000319DD2E35080319D82E34088600870142
:102CC2000108B7003708BA003608023E8600013014
:102CD200870001030319882ED0013508500203181A
:102CE200882E50085207B70037088600870101086E
:102CF2007F39B80050085207B900390886008701A9
:102D0200380881000130B7003708D0076E2E023034
:102D12003502031CA82E3A30B7003708F0003408F9
:102D2200B8003808F1003508B9003908F200520835
:102D32009931F221963140013508B700B801B73513
:102D4200B80D3708FF3ECE00FF30383DAE2E3508B5
:102D5200B700B8013708CE003808CF003608860021
:102D6200013087000130413FAB00520886008701E5
:102D72000108B7003708AC003A30B8003808AD0097
:102D82004F08AF004E08AE003608053E86000130FF
:102D92008700413F8A00403F0A0096314001B90056
:102DA2003908D10051080319DF2EFC30D92EFD302D
:102DB200B7003708D100DF2ED101D1035108080036
:102DC2004001AC002C08860087010108F100F201E5
:102DD200F301F4010C30F135F20DF30DF40D890B12
:102DE200EC2E7408AB007308AA007208A9007108DF
:102DF200A8002C0A860087010108F100F201F30104
:102E0200F4010430F135F20DF30DF40D890B032FAB
:102E12007408A7007308A6007208A5007108A40030
:102E22002C08023E860087010108F1000430F136C9
:102E3200890B182F7108F200F301F401F5017508EE
:102E4200A3007408A2007308A1007208A000200861
:102E5200F1002108F2002208F3002308F4002808F8
:102E62002404F50029082504F6002A082604F700A0
:102E72002B082704F8007508F1047608F204770895
:102E8200F3047808F4047008860087017108C03FD3
:102E92007208C13F7308C23F7408C33F2C08033E47
:102EA200860087010108F100F201F301F4010C3000
:102EB200F135F20DF30DF40D890B592F7408AB00A7
:102EC2007308AA007208A9007108A8002C08043E21
:102ED200860087010108F100F201F301F4010430D8
:102EE200F135F20DF30DF40D890B712F7408A70063
:102EF2007308A6007208A5007108A4002C08053EFC
:102F0200860087010108F1000430F136890B862F13
:102F12007108F200F301F401F5017508A3007408C9
:102F2200A2007308A1007208A0002008F100210885
:102F3200F2002208F3002308F40028082404F50014
:102F420029082504F6002A082604F7002B0827047E
:102F5200F8007508F1047608F2047708F30478089B
:102F6200F4047008043E860087017108C03F7208AD
:102F7200C13F7308C23F7408C33F2C08063E860057
:102F820087010108F100F201F301F4010830F13583
:102F9200F20DF30DF40D890BC82F7408A700730806
:102FA200A6007208A5007108A4002C08073E86003E
:102FB20087010108F100F201F301F4017408AB008A
:102FC2007308AA007208A9007108A800280824043E
:102FD200F10029082504F2002A082604F3002B0830
:102FE2002704F4007008083E860087017108C03F7C
:102FF2007208C13F7308C23F7408C33F0800F00063
:103002004E010F1E0128700842019A000800F300C9
:103012007308031927287308033E860001308700CE
:1030220016000104031927287308053E86000130A3
:10303200870016000104031927287308073E86003B
:103042000130870016000104031D2A28F201F20351
:103052002B28F20172080800FA01FB017608F10040
:103062007508F000A731222798317108F90070081D
:10307200F8007B08803AF7007908803A7702031D4E
:10308200442878087A02031808007A08750786002F
:103092007B08763D870081010130FA070030FB3D55
:1030A2003A284001E7006708DD000030DE006408CE
:1030B200E5006508DF001F3099311A21983140017F
:1030C200E6006608E8006808031D76286708D30052
:1030D2000030D4006408E5006508D5001F309C313B
:1030E200B1244001E6006608E80068080800F9001B
:1030F200F701F8017908A631D52698317108F60052
:103102007008F5007808803AF4007608803A740274
:10311200031D8D28750877020318080077087907C0
:10312200F4007408860002308700010898310020FC
:1031320098310130F7070030F83D8328FA01FB018E
:103142007608F1007508F000A7312227983171083E
:10315200F9007008F8007908803AF7007B08803A95
:103162007702031DB6287A087802031C0800750846
:103172007A07840076087B3D85000008983100209C
:1031820098310130FA070030FB3DAC28400198012C
:1031920099019A010B30920030309300DF30940095
:1031A200FF307E01CE008030C3003730B800C4014A
:1031B200B901CF01BA01C501D0013730BB00F030EF
:1031C200C600FF30D1003F30BC00F030C700FF30F6
:1031D200D2000F309F000D307D01CB00080040016E
:1031E200A501A6012608803AFC0080307C02031D5E
:1031F200FC28240825020318080040019A1620081A
:10320200F0002108F100F201F301993144219831D3
:1032120040019A122208F0002308F100F201F301A2
:1032220099314421983101304001A5070030A63D73
:10323200F3284001E300E201E20A631D2F295E0840
:10324200D4005D08D3005F08E0006008D5009F311C
:103252000A2799314001E1006108E200630803395D
:10326200031942295E08D4005D08D3005F08E0001C
:103272006008D50063089C31F7244001E100610831
:10328200E2006208080041016B08FB006A08FA00CC
:103292006908F9006808F800780841016802F4003A
:1032A2007908693BF5007A086A3BF6007B086B3BBC
:1032B200F70073087702031D682972087602031D5E
:1032C200682971087502031D6829700874020318C1
:1032D20008005330890B6B2900004D29F3007F2928
:1032E200730886008701010803198C290130F20056
:1032F2007208F3070130F0070030F13D70088400D6
:10330200710885000008F200730886008701010831
:1033120072060319712973088600870170088400F8
:103322007108850000080102F000F101031CF1039D
:1033320008004001A801A9012408F1002308F000B7
:10334200A7312227993171084001A7007008A60011
:103352002908803AA5002708803A2502031DB329CF
:1033620026082802031808004001280823078600BF
:103372002908243D870001089A314E2299310130F3
:103382004001A8070030A93DA929B53462340634AA
:10339200243424340034FF34FF340634033400343C
:1033A200003400340034103427340034003405343F
:1033B2000034FA340034FA340034643400342C34E7
:1033C200013400340034003400340034003400345A
:1033D2000034003400340034003400340034163435
:1033E200DC34F600F701F70A7208770203180800C6
:1033F20077087607F3007308860087010108F40056
:1034020077357007F5007508FF3E8600870174085E
:10341200810077087107F3007308860087010108AD
:10342200F40077357007F500750886008701740887
:1034320081000130F3007308F707F5290030FB0023
:103442000030FA000030F9000030F800701C312A18
:103452007408F8077508F93D7608FA3D7708FB3DD0
:103462000130F435F50DF60DF70D890B322A0130D6
:10347200F336F20CF10CF00C890B392A7308720442
:1034820071047004031D272A7B08F3007A08F200F6
:103492007908F1007808F00008004001A00000302F
:1034A200A7310E279A314001A101A2014001200853
:1034B200FD00210A5D2AFD36890B5C2A7D1C632AE8
:1034C2000130642A0030A7310E279A3101304001C1
:1034D200A1070030A23D2208803AFD0080307D0223
:1034E200031D752A07302102031C572A0130A73118
:1034F2000E279A310130A7310E2708004001B10191
:103502004E010F10430111149D313D259A314001A6
:103512002B35A631B8269A3140012C08A631B8269F
:103522009A314001B201B3012F083302031D9B2AD5
:103532002E0832020318AD2A32082D07B0003008D7
:10354200860087010108A631B8269A310130400170
:10355200B2070030B33D952AA63141264001310819
:1035620008004001D700F430D4005408D9005A3082
:10357200D4005408B7000130B8000030B900530835
:10358200D5005508BA0059089C3128249A314001C7
:10359200D6005608D8005808031DE92A03305705FB
:1035A200D4005A08FC395404D5005508DA005A30C0
:1035B200D4005408B400B501B50A5308D500550823
:1035C200B6005930963140264001D6005608D80040
:1035D200580808004001D900E030D3005308D80051
:1035E200B630D3005308D6005908983108209A31D2
:1035F2004001D3005308D7005708031D242B56302F
:10360200D3005308B400B501B50A5908D4005408D0
:10361200B6005830963140269A314001D5005508FF
:10362200D7000030F3000030F2000030F100023029
:10363200F0005908073E860001308700413F8A00AA
:10364200403F0A009B31400157080800FF30F7074E
:10365200FF30F83D770A0319780A03195F2B7508C2
:103662008600760887000108FB00FC017B08FC004D
:10367200FB017B08F9067C08FA060130F5070030E9
:10368200F63D4001A001FA1B4A2B7935F9007A0D6B
:10369200552B7A08FC007908FB00FB35FC0D213024
:1036A2007B06F90010307C06FA000130FB007B0833
:1036B200A007083020020318272B442B7A08F600B3
:1036C2007908F50008004101AB0040016C0898310F
:1036D20008209B314001ED006D084101AD002D082D
:1036E200031DA22B40016C08ED006D08C000AC3038
:1036F2008731D2279B314001EE006E084101AD00B7
:103702002D08031D912B2C080319912B40016C08E5
:103712009B31A4239B314001ED006D084101AD00B6
:103722002D08031DA22B40016C08ED006D08D3008B
:1037320041012B089A31B2224001EE006E0841018C
:10374200AD002D0808004101A400A0304001E900AD
:103752006908B7000430B8000030B90041012408FC
:103762004001EA006A08BA00F2309C3128249B31F9
:103772004001EB006B084101A5002508031DE42B65
:10378200A6304001E9006908F000A03090315920CC
:103792009B31410124089A31EB229B314001E9001F
:1037A20069084101A5002508031DE42B24084001F6
:1037B200E9006908E400A630983152204001EA008D
:1037C2006A084101A5002508080073087204710403
:1037D200700403191F2CF901F90AF31BFC2B0130A9
:1037E200F035F10DF20DF30D890BF12B0130F800DC
:1037F2007808F907EE2B73087702031D0A2C72086A
:103802007602031D0A2C71087502031D0A2C70082A
:103812007402031C142C7008F4027108F53B720840
:10382200F63B7308F73B0130F336F20CF10CF00C67
:10383200890B152C0130F902031DFC2B7708F300CC
:103842007608F2007508F1007408F00008004001E3
:10385200BE003A08983108209C314001BB003B0869
:10386200BF003F08031D6A2C3A08023E8600013061
:10387200870001030319422C3E088038BB003B0835
:10388200BE003A088600013087000130413FAD009A
:103892003E08BB003B08AE003708BC003C08AF0046
:1038A2003908B1003808B0003A08033E86000130FA
:1038B2008700413F8A00403F0A009C314001BD0021
:1038C2003D08BF003F0803196A2CFC30BB003B08CF
:1038D200BF003F080800F601F31F762CF209F30936
:1038E200F20A0319F30AF601F60AF11F7D2CF00918
:1038F200F109F00A0319F10A700871040319A42CE2
:10390200F501F50AF11B8F2C0130F035F10D890B11
:10391200862C0130F4007408F507832C71087302B9
:10392200031D952C70087202031C9B2C7008F20276
:103932007108F33B0130F136F00C890B9C2C0130FD
:10394200F502031D8F2C76080319AC2CF209F3093A
:10395200F20A0319F30A7308F1007208F000080072
:103962004001D900F530D6005608DB005C30D600A5
:103972005608B7000130B8000030B9005508D7002A
:103982005708BA005B089C3128249C314001D800BA
:103992005808DA005A08031DF52CD91DD82C5408F2
:1039A200F1005308F0005C30A7316D279C314001D3
:1039B200591EE32C5408F1005308F0005C30A73183
:1039C20089279C315C304001D6005608B400B5010D
:1039D200B50A5508D7005708B6005B309631402625
:1039E2004001D8005808DA005A0808004001D900FE
:1039F200F430D6005608DB005C30D6005608B7001B
:103A02000130B8000030B9005508D7005708BA0095
:103A12005B089C3128249C314001D8005808DA0008
:103A22005A08031D3B2D591C1E2D5408F100530842
:103A3200F0005C30A73152279C314001D91C292D5E
:103A42005408F1005308F0005C30A731A5279C31DF
:103A52005C304001D6005608B400B501B50A5508DD
:103A6200D7005708B6005B30963140264001D80097
:103A72005808DA005A08080041016B084201BE00EA
:103A820041016A084201BD00410169084201BC00CE
:103A9200410168084201BB004E010F18822D42010C
:103AA2003B08410168024001A70042013C08410174
:103AB200693B4001A80042013D0841016A3B4001C7
:103AC200A90042013E0841016B3B4001AA002A08BD
:103AD200031D742D2908031D742DE93027020330BC
:103AE200283B031C4D2DC830A0000030A100C83077
:103AF200A2000030A3000330A7002708A4009831D9
:103B0200F0204E010F1008004001A500FF30A60072
:103B1200FF30A700A801A9012908803AA3002208C2
:103B2200803A2302031D972D210828020318C92D6C
:103B3200400128352507A3002308860001308700AD
:103B4200403FF500413FF60028352507A400240830
:103B5200860001308700403FF000413FF100A7316D
:103B620022279D317108F8007008F70040012708EC
:103B7200FA002608F9009B3127239D31760840017F
:103B8200A7007508A6000130A8070030A93D8D2DB9
:103B920040012708A2002608A1000800400198124F
:103BA20041016C08031DED2D2030983178209D31A4
:103BB2002030953115259D31FC007C084101EC0037
:103BC2000030F3000030F2000130F100F430F00078
:103BD200993144219D31D12D400198164101EC01CA
:103BE2004E30F500A830F60098319F209D313430D8
:103BF200F500A830F60098319F209D318230F50003
:103C0200A830F60098319F209D311A30F500A83077
:103C1200F60098319F209D316830F500A830F600FB
:103C220098319F209D310030F500A830F600983180
:103C32009F2008004001DF004330860000308700EB
:103C42001A30C00000301E00C00B242E4330C000CA
:103C52004008B7001A30B8000030B9005F08C10050
:103C62004108BA0088309C3128249E314001C200AC
:103C72004208DE005E08031D652E5F08C000400892
:103C8200F0004330883104209E3143304001C000AF
:103C92004008B7000730B8000030B9005F08C10023
:103CA2004108BA00E1309C3128249E314001C20013
:103CB2004208DE005E08031D652E5F08C000400852
:103CC200F00043309531A72540015E08080040010D
:103CD200B4014E010F10430111149D313D259E3157
:103CE20040012D35A631B8269E3140012E08A6315D
:103CF200B8269E31430191149D313D259E31031416
:103D020040012D0DA631B8269E314001B501B60104
:103D120031083602031D8F2E300835020318B42EE7
:103D22003008FF3EB200FF30313DB30036083306A3
:103D3200031D9D2E35083206031DA12E0130A22E31
:103D42000030A73139279E314001B20035082F07D4
:103D5200B300330886008701320881000130B507BD
:103D62000030B63D892EA6314126400134080800B4
:103D7200F601F11FC32EF009F109F00A0319F10A45
:103D8200F601F60AF31FCE2EF209F309F20A03191D
:103D9200F30A0130F4007408F606F701F80170081E
:103DA20071040319FD2EF501F50AF11BE22E013013
:103DB200F035F10D890BD92E0130F4007408F507A6
:103DC200D62E0130F735F80D890BE32E71087302F8
:103DD200031DED2E70087202031CF42E7008F2020D
:103DE2007108F33B77140130F136F00C890BF52E94
:103DF2000130F502031DE22E76080319052FF7099B
:103E0200F809F70A0319F80A7808F1007708F000B0
:103E12000800F2304001D6005608DC005308860044
:103E220054088700423101080739D6005608D900E4
:103E32005930D6005608B400B501B50A5508D70066
:103E42005708B6005C30963140269F314001D800B9
:103E52005808DB005B08031D5A2FF430D6005608C1
:103E6200DC005A30D6005608B7000130B8000030E6
:103E7200B9005508D7005708BA005C089C312824BD
:103E82009F314001D8005808DB005B08031D5A2F00
:103E92005A30D6005608B400B501B50A5508D70005
:103EA2005708B6005C30963140264001D8005808C9
:103EB200DB005B0808004001AA01AB012308F10006
:103EC2002208F000A73122279F3171084001A90082
:103ED2007008A8009C2F40012508803AFD002708A1
:103EE200803A7D02031D772F260824020318A82F8B
:103EF20040012108F1002008F00022082A0784006E
:103F020023082B3D85000008FD007D08F2002508EE
:103F1200F4002408F3002708F6002608F500933180
:103F22002C239F3171084001A5007008A4000130C4
:103F3200AA070030AB3D2B08803AFD002908803AE1
:103F42007D02031DA62F28082A02031C6C2F4001A4
:103F52002508A1002408A00008000030FC00003061
:103F6200FB000030FA000030F9007308720471049B
:103F720070040319F72FFD01FD0AF31BCC2F01304A
:103F8200F035F10DF20DF30D890BC12F0130F80060
:103F92007808FD07BE2F0130F935FA0DFB0DFC0D37
:103FA200890BCD2F73087702031DE12F7208760269
:103FB200031DE12F71087502031DE12F70087402C1
:103FC200031CEC2F7008F4027108F53B7208F63BF3
:103FD2007308F73B79140130F336F20CF10CF00C54
:103FE200890BED2F0130FD02031DCC2F7C08F3005D
:0E3FF2007B08F2007A08F1007908F000080060
:104C8200430111159D313D2508004E010F0E890C7F
:104C92000139080071084101EF007008EE000800B8
:104CA20071084301EE007008ED000800710842012E
:104CB200EA007008E900080071084201E800700883
:104CC200E7000800640080010131890B642E003482
:104CD200FE0012001E00FE0B6A2E00348B1780307D
:104CE200F0002630F100A6314B2608006230510157
:104CF2008D008F0191010230930092010800013072
:104D02004101E8070030E93D0030EA3D0030EB3D6B
:104D120008004F0196019701980199019A019B01A0
:104D22009C019D010800F1007108700503199C2E79
:104D3200F201F20A9D2EF201720808004E018F1E46
:104D42009F2E4101ED0142019D1CA92E1D121D162F
:104D5200190808004E018C1241016E086F040319F4
:104D620008006F088A006E080A00A6310800FD00DC
:104D72007D0843018C009D313D25A6314301111F61
:104D820008000130903101200800A6318A26A631A0
:104D92009831C720A631A6317726A631A631E7265B
:104DA200A631A731DF270800F3007308053E86000D
:104DB200023087007308043E840002308500000838
:104DC200083EF0000030013DF100080040304B0188
:104DD2009F00F9309D009C014E018C129616FF3007
:104DE200F0000730F100A6314B2680304B019E00C7
:104DF20008000E307D01C5000C30C60014307E0163
:104E02009E0013309C00803043018F0028309000B8
:104E1200920103308D0090160800FC007C080319F3
:104E2200152F40011816172F400118120030F300F9
:104E32000030F2000030F1001430F00099314421CA
:104E420008007108F4007008F3007008840071080B
:104E5200850012000319322F0130F0070030F13DB6
:104E6200262F73087002F0007408713BF1000800ED
:104E72004001AB00430191159D313D25A73143010E
:104E82000C08FD007D084001AC002B0C4301031C03
:104E920091120318911611169D313D2540012C08DF
:104EA2000800F50070088600710887000108F2000A
:104EB2000230F235890B5A2F1C307205F300750847
:104EC200860087010108E3397304F400750886003F
:104ED2008701740881000800F500700886007108D7
:104EE200870043310108F2000230F235890B762F38
:104EF2001C307205F3007508860087010108E3394A
:104F02007304F400750886008701740881000800A4
:104F1200F500700886007108870044310108F2002C
:104F22000530F235890B922FE0307205F3007508D7
:104F32008600870101081F397304F4007508860092
:104F42008701740881000800F50070088600710866
:104F5200870041310108F2000530F235890BAE2F8E
:104F6200E0307205F30075088600870101081F39D9
:104F72007304F40075088600870174088100080034
:104F8200F101F2017108A03E860002308700810122
:104F92007108203E86000330870081010130F1074D
:104FA2000030F23D7208803AF00080307002031D3A
:104FB200DC2F4630710203180800C32F083042016B
:104FC2009F0090309D0024309E0019309B009C0170
:104FD2000030F0000030F100A6315726A731003032
:104FE200F0000030F100A6315D26A7310030F0005C
:104FF2000030F100A63151264101ED0108002434B0
:1050020050345534423458342C34343430342C3403
:1050120052344D3443342C3430342C3430342C3428
:1050220030342C3430342A34343437340D340A34A6
:105032000034243450345534423458342C3434340B
:1050420030342C344734533456342C3430342C34EA
:1050520030342C3430342C3430342A34353439342E
:105062000D340A3400342434503455344234583424
:105072002C34343430342C344734473441342C34D7
:1050820030342C3430342C3430342C3430342A3410
:10509200353441340D340A34003424345034553418
:1050A200423458342C34343430342C3447344C3475
:1050B2004C342C3430342C3430342C3430342C34C2
:1050C20030342A34353443340D340A340034243431
:1050D20050345534423458342C34343430342C3433
:1050E2004734533441342C3430342C3430342C345F
:1050F20030342C3430342A34343445340D340A34C8
:105102000034243450345534423458342C3434343A
:1051120030342C345634543447342C3430342C3418
:1051220030342C3430342C3430342A343534453451
:105132000D340A3400342434503455344234583453
:105142002C34303430342A34333433340D340A348A
:10515200003457346934733470342D3431340034AC
:105162005034553442345834003424342434003416
:045172000A340034C7
:020000040001F9
:0A000E00EC3FFF3F9F3FFF3FFF3F25
:00000001FF
