:020000040000FA
:0400000080310E2815
:1000060008007E1480314E01961A8C1E0C28A631EB
:1000160028267E100900803110286C308400993023
:10002600850020308600023087000030FF002C302B
:10003600A6311C268031D830840026308500183041
:10004600FE000130FF00A631102680314101E80193
:10005600E901EA01EB01EC01ED01203084000130F9
:1000660085003030FE000030FF00A63110268031BA
:10007600A0308400013085004730FE000030FF00CC
:10008600A631102680314C308400023085001A30AB
:10009600FE000030FF00A63110267E10400185319B
:1000A600AC2D4101B4000030B8000130B700AD30CE
:1000B600B600B030B50000304001A3000030A20009
:1000C6000030A1000230A0002E08213E860001303B
:1000D6008700403FA400413FA500423FA600433FA2
:1000E600A7009431BD248031003040012007410132
:1000F600C90006304001213D4101CA00FF304001E0
:10010600223D4101CB00FF304001233D4101CC009F
:1001160000304001A3000030A2000030A1000430EE
:10012600A00041014C084001A70041014B084001D5
:10013600A60041014A084001A500410149084001C5
:10014600A4009431BD24803140012308F300220825
:10015600F2002108F1002008F0000030A300003072
:10016600A2000030A1000430A00041014C0840016B
:10017600A70041014B084001A60041014A08400181
:10018600A500410149084001A4009431BD248031F5
:1001960040012308F7002208F6002108F500200890
:1001A600F4009A312122803173084101BC007208A3
:1001B600BB007108BA007008B90000304001A30006
:1001C6000030A2000830A1000030A00041013C0828
:1001D6004001A70041013B084001A60041013A0841
:1001E6004001A500410139084001A4009431BD2415
:1001F600803140012308F3002208F2002108F100B3
:100206002008F0002E08103E860001308700403F8F
:10021600B200413FB3003208F4003308F500890DFF
:10022600893B8909F600F7009A312122803173084B
:100236004101C4007208C3007108C2007008C10001
:1002460041084001B200410142084001B3004101AA
:1002560043084001B400410144084001B5002E089E
:100266000E3E860001308700403FB600413FB70092
:100276003608F0003708F100890D893B8909F2003C
:10028600F30041014C08F7004B08F6004A08F50058
:100296004908F4009A312122803170084001B800E3
:1002A6007108B9007208BA007308BB000130B8358E
:1002B600B90DBA0DBB0D890B5A293808B207390892
:1002C600B33D3A08B43D3B08B53D35084101C4008D
:1002D600400134084101C300400133084101C20016
:1002E600400132084101C10040012E080C3E860043
:1002F60001308700403FB200413FB3003208B400EE
:100306003308B500B601B7011030B435B50DB60DDA
:10031600B70D890B88290030A3000030A2000030F9
:10032600A1000430A000410144084001A70041019A
:1003360043084001A600410142084001A5004101D1
:1003460041084001A4009431BD24803140012008B9
:10035600B4072108B53D2208B63D2308B73D370846
:100366004101C400400136084101C300400135087F
:100376004101C200400134084101C1000030400182
:10038600A3000030A2000030A1000430A00041010B
:100396004C084001A70041014B084001A60041015D
:1003A6004A084001A500410149084001A4009431D2
:1003B600BD24803140012308F3002208F200210801
:1003C600F1002008F0000030A3000030A200003049
:1003D600A1000430A00041014C084001A7004101E2
:1003E6004B084001A60041014A084001A500410111
:1003F60049084001A4009431BD24803140012308FE
:10040600F7002208F6002108F5002008F4009A31CA
:100416002122803173084101BC007208BB007108BB
:10042600BA007008B90040012E080A3E8600013065
:100436008700403FB200413FB3003208F000330866
:10044600F100890D893B8909F200F3000030A30011
:100456000030A2002030A1000030A00041013C087D
:100466004001A70041013B084001A60041013A08AE
:100476004001A500410139084001A4009431BD2482
:10048600803140012308F7002208F6002108F50014
:100496002008F4009A312122803173084101AF000F
:1004A6007208AE007108AD007008AC000030400163
:1004B600A3000030A2000030A1000830A0004101D6
:1004C6002F084001A70041012E084001A600410166
:1004D6002D084001A50041012C084001A4009431DB
:1004E600BD248031400123084101A30040012208B8
:1004F6004101A200400121084101A100400120085C
:100506004101A00000304001A3000030A2000030ED
:10051600A1000230A0002E08083E860001308700A8
:10052600403FB200413FB3003208F0003308F1000B
:10053600890D893B8909F200F30041014C08F70057
:100546004B08F6004A08F5004908F4009A312122C2
:10055600803173084001A7007208A6007108A50043
:100566007008A4009431BD24803140012308410164
:10057600A700400122084101A600400121084101CF
:10058600A500400120084101A40000304001A3005D
:100596000430A2000030A1000030A0004101200874
:1005A60024074001B20041012108253D4001B30066
:1005B60041012208263D4001B40041012308273DA0
:1005C6004001B5003508A7003408A6003308A50089
:1005D6003208A4009431BD24803140012308410132
:1005E600CC00400122084101CB0040012108410115
:1005F600CA00400120084101C90000304001A300A3
:100606000030A2008030A1000030A000003041017F
:100616004907F00080304A3DF10000304B3DF200C2
:1006260000304C3DF30040012E08063E86000130A6
:100636008700403FB200413FB3003208F400330860
:10064600F500F601F7019A31212280317308400145
:10065600A7007208A6007108A5007008A4009431CE
:10066600BD248031400123084101CC00400122080D
:100676004101CB00400121084101CA004001200888
:100686004101C9004C084B044A0449040319812D51
:10069600340886008701403F4001B200413FB30065
:1006A600423FB400433FB5000030B6000030B7000B
:1006B6001030B8000030B9003208B6023308B73B34
:1006C6003408B83B3508B93B39084101AB00400155
:1006D60038084101AA00400137084101A90040013C
:1006E60036084101A80000304001A3000030A200F6
:1006F6001030A1000030A000410144084001A700CD
:10070600410143084001A600410142084001A500FD
:10071600410141084001A4009431BD2480314001CB
:100726002008410128024001B20021084101293B6D
:100736004001B300220841012A3B4001B4002308CE
:1007460041012B3B4001B5003508F3003408F200A7
:100756003308F1003208F0000030F7000030F600F0
:100766000C30F5003530F4009A31212280317308BF
:100776004101C8007208C7007108C6007008C500AC
:10078600803048020318E42B4C08F3004B08F200B3
:100796004A08F1004908F0004535F400460DF50019
:1007A600470DF600480DF7009F3159278031730831
:1007B6004101C8007208C7007108C6007008C5006C
:1007C600002C4C08F3004B08F2004A08F1004908D7
:1007D600F0004808F7004708F6004608F500450807
:1007E600F4009F315927803170354101C500710DE4
:1007F600C600720DC700730DC80045084001B2005F
:10080600410146084001B300410147084001B400D8
:10081600410148084001B5000330B536B40CB30CAD
:10082600B20C890B102C3508F7003408F600330893
:10083600F5003208F400410145084001B6004101C7
:1008460046084001B700410147084001B800410190
:1008560048084001B9000330B936B80CB70CB60CDD
:10086600890B2F2C3908F3003808F2003708F100FD
:100876003608F0009A312122803170084001BA0012
:100886007108BB007208BC007308BD000D30BD3690
:10089600BC0CBB0CBA0C890B4A2C3D084101B300B9
:1008A60040013C084101B20040013B084101B10052
:1008B60040013A084101B00000304001A300003079
:1008C600A2001030A1000030A0002E08163E8600BF
:1008D60001308700403FB200413FB3003208F000CC
:1008E6003308F100890D893B8909F200F3004101C3
:1008F6003308F7003208F6003108F5003008F40036
:100906009A312122803173084001A7007208A6009F
:100916007108A5007008A4009431BD2480314001FF
:1009260023084101CC00400122084101CB004001CF
:1009360021084101CA00400120084101C9000030D8
:100946004001A3000030A2002030A1000030A0002A
:10095600410145084001B200410146084001B3008B
:10096600410147084001B400410148084001B50073
:100976000230B536B40CB30CB20C890BBC2C35085E
:10098600F3003408F2003308F1003208F0002E08B4
:10099600143E860001308700403FB600413FB70055
:1009A6003608F4003708F500890D893B8909F600F9
:1009B600F7009A312122803173084001A70072089E
:1009C600A6007108A5007008A4009431BD248031EA
:1009D600400123084101C400400122084101C3002F
:1009E600400121084101C200400120084101C10027
:1009F60000304001A3000030A2000030A1001030FA
:100A0600A000410141084001B200410142084001F5
:100A1600B300410143084001B400410144084001CC
:100A2600B500410149084001B60041014A084001AC
:100A3600B70041014B084001B80041014C08400194
:100A4600B9002E08123E860001308700403FBA00EA
:100A5600413FBB003A08BC003B08BD000030BD1B4F
:100A6600FF30BE00BF003C08B6073D08B73D3E0854
:100A7600B83D3F08B93D3608B2073708B33D3808D8
:100A8600B43D3908B53D3508A7003408A60033083B
:100A9600A5003208A4009431BD248031400120080D
:100AA600410145074001C00021084101463D400182
:100AB600C10022084101473D4001C200230841010F
:100AC600483D4001C30043084101C80040014208B7
:100AD6004101C700400141084101C60040014008EC
:100AE6004101C5004808031D892D4708031D892DAE
:100AF600303045027530463B0318892D0030C8005A
:100B06000030C7007530C60030309B2D4808031DE5
:100B1600942DB1304502AD30463B0130473B031CB6
:100B26009C2D0030C8000130C700AD30C600B03083
:100B3600C50048084001B100410147084001B00026
:100B4600410146084001AF00410145084001AE00A1
:100B56000800A63143268531A531CC258531923151
:100B6600742285319D317A2585314201EE01EF01EE
:100B7600503086000130870010304101E30000301C
:100B86001E00E30BC32DA731732785316430400166
:100B9600A9002730AA00AA30AB00A830AC00420159
:100BA6006F084001AE0042016E084001AD008C3076
:100BB600AF000030B0009F310727853140012A0879
:100BC6004201EF00400129084201EE006430F500C1
:100BD6002730F6002C304101E3006308F70042019C
:100BE6006F08F9006E08F8008C30FA000030FB0040
:100BF6009231E122853176084201EF007508EE0058
:100C0600503098312220853142014908FC004808BD
:100C1600FB0050304101E3006308FD009131A02143
:100C2600853164304001A9002730AA005030AB005E
:100C36000130AC0042016F084001AE0042016E086F
:100C46004001AD008C30AF000030B0009F31072767
:100C5600853140012A084201EF004001290842017E
:100C6600EE006430F5002730F6002C304101E30039
:100C76006308F70042016F08F9006E08F8008C302F
:100C8600FA000030FB009231E122853176084201FC
:100C9600EF007508EE008B3105238531003A031904
:100CA600E22F62304101E30063084001E100A03019
:100CB6004101E40064084001E200073090317A20E7
:100CC60085316430F0002730F100A631A026853149
:100CD60071084201EF007008EE006708FC00660824
:100CE600FB0050304101E3006308FD009131A02173
:100CF600853164304001A9002730AA005030AB008E
:100D06000130AC0042016F084001AE0042016E089E
:100D16004001AD008C30AF000030B0009F31072796
:100D2600853140012A084201EF00400129084201AD
:100D3600EE006430F5002730F6002C304101E30068
:100D46006308F70042016F08F9006E08F8008C305E
:100D5600FA000030FB009231E1228531760842012B
:100D6600EF007508EE00503098312220853142019F
:100D760065084001AC00420164084001AB00420135
:100D860063084001AA00420162084001A9005030F0
:100D96004101E30063084001AD009F31AB27853177
:100DA60064304001A9002730AA005030AB00013062
:100DB600AC0042016F084001AE0042016E084001DE
:100DC600AD008C30AF000030B0009F310727853171
:100DD60040012A084201EF00400129084201EE00C5
:100DE6006430F5002730F6002C304101E30063083B
:100DF600F70042016F08F9006E08F8008C30FA001F
:100E06000030FB009231E122853176084201EF0085
:100E16007508EE0050309831222085310830623E48
:100E2600860001308700403F4001A900413FAA00EB
:100E3600423FAB00433FAC0050304101E300630842
:100E46004001AD009F31AB27853164304001A900D8
:100E56002730AA005030AB000130AC0042016F08C9
:100E66004001AE0042016E084001AD008C30AF007B
:100E76000030B0009F310727853140012A08420122
:100E8600EF00400129084201EE006F08E1006E08FC
:100E9600E00064304001A1002730A200A731B52749
:100EA6008531400121084101E3004001220841014A
:100EB600E400E501E60166084001AC004101650871
:100EC6004001AB00410164084001AA0041016308EA
:100ED6004001A9004A304101E70067084001AD0022
:100EE6009331CC2385316430F5002730F6002A3063
:100EF6004101E3006308F70042016108F900600858
:100F0600F8008C30FA000030FB009231E122853186
:100F160076084201EF007508EE0064304001A90032
:100F26002730AA004A30AB000130AC0042016F08FE
:100F36004001AE0042016E084001AD008C30AF00AA
:100F46000030B0009F310727853140012A08420151
:100F5600EF00400129084201EE006430F500273019
:100F6600F6000A304101E3006308F70042016F080A
:100F7600F9006E08F8008C30FA000030FB00923160
:100F8600E122853176084201EF007508EE00013056
:100F9600C8070030C93D40011815B130A300A8307C
:100FA600A40099314021853164304001A3002730E7
:100FB600A40099314021853140011811F42F903059
:100FC6004001A0000130A100C830A2000030A300FB
:100FD60003304101E30063084001A4009831C120B9
:100FE60085310030F3000030F2001330F100883014
:0A0FF600F000993115218531B82D66
:10100200FF30F707FF30F83D770A0319780A031912
:10101200392875088600760887000108FB00FC0164
:101022007B08FC00FB017B08F9067C08FA0601300C
:10103200F5070030F63D4001A001FA1B242879355E
:10104200F9007A0D2F287A08FC007908FB00FB359D
:10105200FC0D21307B06F90010307C06FA000130CD
:10106200FB007B08A00708302002031801281E2875
:101072007A08F6007908F50008004001AC002C0857
:10108200860087010108F100F201F301F4010C303E
:10109200F135F20DF30DF40D890B49287408AB00FC
:1010A2007308AA007208A9007108A8002C0A860019
:1010B20087010108F100F201F301F4010430F13576
:1010C200F20DF30DF40D890B60287408A700730864
:1010D200A6007208A5007108A4002C08023E860032
:1010E20087010108F1000430F136890B7528710877
:1010F200F200F301F401F5017508A3007408A200DF
:101102007308A1007208A0002008F1002108F20073
:101112002208F3002308F40028082404F500290813
:101122002504F6002A082604F7002B082704F800F5
:101132007508F1047608F2047708F3047808F404D9
:101142007008860087017108C03F7208C13F7308AA
:10115200C23F7408C33F2C08033E86008701010882
:10116200F100F201F301F4010C30F135F20DF30D4F
:10117200F40D890BB6287408AB007308AA00720834
:10118200A9007108A8002C08043E86008701010806
:10119200F100F201F301F4010430F135F20DF30D27
:1011A200F40D890BCE287408A7007308A6007208F4
:1011B200A5007108A4002C08053E860087010108DD
:1011C200F1000430F136890BE3287108F200F301D3
:1011D200F401F5017508A3007408A2007308A100C8
:1011E2007208A0002008F1002108F2002208F30092
:1011F2002308F40028082404F50029082504F60031
:101202002A082604F7002B082704F8007508F104C1
:101212007608F2047708F3047808F4047008043EB0
:10122200860087017108C03F7208C13F7308C23F40
:101232007408C33F2C08063E860087010108F100AE
:10124200F201F301F4010830F135F20DF30DF40D62
:10125200890B25297408A7007308A6007208A50047
:101262007108A4002C08073E860087010108F100DE
:10127200F201F301F4017408AB007308AA007208CA
:10128200A9007108A80028082404F10029082504EF
:10129200F2002A082604F3002B082704F400700841
:1012A200083E860087017108C03F7208C13F73087B
:1012B200C23F7408C33F08004001CC000030C700A1
:1012C2000030C6002130C5003430C4002E0886002C
:1012D20001308700403FB200413FB3003208B40002
:1012E2003308B500B601B7010130B435B50DB60DFE
:1012F200B70D890B76294C08043E86008701403FD2
:10130200B800413FB900423FBA00433FBB0003303F
:10131200BB36BA0CB90CB80C890B89293408B8024F
:101322003508B93B3608BA3B3708BB3B3B08CB0014
:101332003A08CA003908C9003808C8000030A300BA
:101342000030A2000830A1000030A0002E08023EAA
:10135200860001308700403FB200413FB3003208AF
:10136200F0003308F100890D893B8909F200F3008E
:101372004B08F7004A08F6004908F5004808F4004F
:101382009A312122893173084001A7007208A60010
:101392007108A5007008A4009431BD248931400170
:1013A2002308CB002208CA002108C9002008C8006F
:1013B2002E08860001308700403FB200413FB30053
:1013C2003208B4003308B500B601B7014C08043E38
:1013D20086008701403FB800413FB900423FBA0052
:1013E200433FBB000430BB36BA0CB90CB80C890BB6
:1013F200F4293408B8023508B93B3608BA3B370835
:10140200BB3B3B08D0003A08CF003908CE00380871
:10141200CD000030A3000030A2001030A100003047
:10142200A0005008F3004F08F2004E08F1004D08EA
:10143200F0005008F7004F08F6004E08F5004D087E
:10144200F4009A312122893173084001A700720801
:10145200A6007108A5007008A4009431BD2489314A
:1014620040012308BF002208BE002108BD00200859
:10147200BC000030A3000030A2004030A1000030C8
:10148200A0003F08F3003E08F2003D08F1003C08CE
:10149200F0002E08043E860001308700403FB20073
:1014A200413FB3003208F4003308F500890D893B4F
:1014B2008909F600F7009A31212289317308400127
:1014C200A7007208A6007108A5007008A400943154
:1014D200BD24893140012308D0002208CF00210811
:1014E200CE002008CD0048084D07B20049084E3D05
:1014F200B3004A084F3DB4004B08503DB5002E08DA
:10150200213E8600013087003208C03F3308C13FC8
:101512003408C23F3508C33F0030A3000030A200A8
:101522000130A1000030A0008030B2000030B300D2
:101532000030B4000030B5002E08213E8600013094
:101542008700403FF000413FF100423FF200433F3D
:10155200F3000030F7000030F6000030F5000530EF
:10156200F4009A312122893170084001B2077108D2
:10157200B33D7208B43D7308B53D3508A700340881
:10158200A6003308A5003208A4009431BD24893195
:1015920040012308D4002208D3002108D2002008E9
:1015A200D100D41FE62A60305102F030523BFF30A6
:1015B200533BFF30543B0318E62AFF30D400FF3080
:1015C200D300F030D2006030FB2AD41BFC2A54082E
:1015D200031DF42A5308031DF42A35305102213029
:1015E200523B031CFC2A0030D4000030D3002130CF
:1015F200D2003430D1005408B1005308B000520870
:10160200AF005108AE0008004001C30141016B0860
:101612004001C00041016A084001BF004101690860
:101622004001BE00410168084001BD00983105201B
:101632008B314001C901CA01C5019C30F500A830B7
:10164200F600983170208B3140013D08410168025B
:101652004001B9003E084101693B4001BA003F0820
:1016620041016A3B4001BB00400841016B3B400124
:10167200BC003C08031D342D3B08031D342DB8303B
:1016820039020B303A3B0318342D450803190C2D4F
:101692006430F0002730F100A631A0268B317108AA
:1016A2004001CA007008C900C701C801D830F6005D
:1016B2002630F7000030F9000230F8009031D920CE
:1016C2008B314001B9003908C4004408F0000130F0
:1016D200F100A631A0268B3171084001C2007008CA
:1016E200C1004808803AB9004208803A3902031D15
:1016F2007C2B410847020318D02B40014808803A4E
:10170200B90080303902031D882B063047020318C6
:10171200CA2B02304001470648040319952B0430B6
:1017220047064804031DAD2B6430F5002730F60050
:101732003A30B9003908F7004A08F9004908F800B8
:101742008C30FA000030FB009231E1228B317608B6
:101752004001CA007508C9006430F5002730F60060
:101762004708D33E8600013087000108B9003908D6
:10177200F7004A08F9004908F8008C30FA000030F6
:10178200FB009231E1228B3176084001CA007508D4
:10179200C90001304001C7070030C83D722B40012B
:1017A2004A08FD004908FC00A631B7268B317D08A6
:1017B2004001CA007C08C900B630FB00A830FC001A
:1017C200D830F6002630F7000030F9000430F80077
:1017D2009031D9208B319931F2218B317B087C04F5
:1017E200031D0C2C6430F5002730F6002D3040012B
:1017F200B9003908F7004A08F9004908F8008C30A6
:10180200FA000030FB009231E1228B317608400170
:10181200CA007508C90064304001A9002730AA0037
:10182200D830F6002630F7000030F9000330F80017
:101832009031D9208B314001AB000130AC004A0815
:10184200AE004908AD008C30AF000030B0009F31CF
:1018520007278B3140012A08CA002908C9004A0813
:10186200FD004908FC00A631B7268B317D084001F6
:10187200CA007C08C900B830FB00A830FC00D83090
:10188200F6002630F7000030F9000630F8009031FB
:10189200D9208B319931F2218B317B087C04031DD5
:1018A2006B2C6430F5002730F6002D304001B90072
:1018B2003908F7004A08F9004908F8008C30FA00A4
:1018C2000030FB009231E1228B3176084001CA00E0
:1018D2007508C90064304001A9002730AA00D83039
:1018E200F6002630F7000030F9000530F80090319C
:1018F200D9208B314001AB000130AC004A08AE0068
:101902004908AD008C30AF000030B0009F3107278E
:101912008B3140012A08CA002908C9004A08FD0083
:101922004908FC00A631B7268B317D084001CA0068
:101932007C08C9004A08B6004908B5000030B80062
:101942000730B7009A3150228B3140013608CA0065
:101952003508C9004A08B6004908B5000030B80089
:101962000930B7009A3150228B3140013608CA0043
:101972003508C9004A08B6004908B5000030B80069
:101982000A30B7009A3150228B3140013608CA0022
:101992003508C9004A08B6004908B5000030B80049
:1019A2000B30B7009A3150228B3140013608CA0001
:1019B2003508C9004A08B6004908B5000030B80029
:1019C2000C30B7009A3150228B3140013608CA00E0
:1019D2003508C9004A08B6004908B5000030B80009
:1019E2000D30B7009A3150228B3140013608CA00BF
:1019F2003508C9004A08B6004908B5000030B800E9
:101A02000830B7009A31502240013608CA00350822
:101A1200C90001300800983100208B31003A0319C7
:101A2200252BA63104268B314001B9003908C600A6
:101A3200D830B9002630BA0049083907BB004A0835
:101A42003A3DBC003B0886003C08870046088100FE
:101A52000A304606031D2F2DC501C50A0130C907EC
:101A62000030CA3D252B430808004001BE002E0865
:101A7200213E860001308700403FB200413FB30063
:101A8200423FB400433FB50000303207C700D430B4
:101A9200333DC800FE30343DC900FF30353DCA0039
:101AA2003E08083E86008701403FB200413FB30036
:101AB200423FB400433FB5000E30B235B30DB40D12
:101AC200B50D890B5E2D3508CE003408CD003308E4
:101AD200CC003208CB002E081C3E86000130870065
:101AE200403FB200413FB3003208B4003308B500B2
:101AF200B601B7011430B435B50DB60DB70D890B6B
:101B02007C2D3708DA003608D9003508D8003408A9
:101B1200D7002E081E3E860001308700403FB200EB
:101B2200413FB3003208F0003308F100890D893BD0
:101B32008909F200F3004A08F7004908F60048084C
:101B4200F5004708F4009A3121228D3173084001D3
:101B5200D2007208D1007108D0007008CF000030A6
:101B6200A3000030A2008030A1000030A0004B088A
:101B7200B2004C08B3004D08B4004E08B500570936
:101B8200B6005809B7005909B8005A09B900B60A8F
:101B92000319B70A0319B80A0319B90A4F08B6029A
:101BA2005008B73B5108B83B5208B93B3608B20758
:101BB2003708B33D3808B43D3908B53D0030320727
:101BC200A4004030333DA5000030343DA600003073
:101BD200353DA7009431BD248D3140012308D60044
:101BE2002208D5002108D4002008D3000030A30029
:101BF2000030A2000430A1000030A0002E08203ED8
:101C02008600013087000108F0008039031DFF3093
:101C1200F100F200F3004A08F7004908F60048080C
:101C2200F5004708F4009A3121228D3173084001F2
:101C3200A7007208A6007108A5007008A4009431DC
:101C4200BD248D3140012308CE002208CD00210899
:101C5200CC002008CB000030A3000030A2000830E6
:101C6200A1000030A0002E081B3E86000130870034
:101C72000108B200B301B401B5013508F30034081C
:101C8200F2003308F1003208F0004A08F700490870
:101C9200F6004808F5004708F4009A3121228D31F8
:101CA20073084001A7007208A6007108A500700819
:101CB200A4009431BD248D3140012308DA002208AA
:101CC200D9002108D8002008D7000030A300003036
:101CD200A2000430A1000030A00000305707F0003D
:101CE2008030583DF1000030593DF20000305A3D3D
:101CF200F3004E08F7004D08F6004C08F5004B08BB
:101D0200F4009A3121228D3173084001A700720834
:101D1200A6007108A5007008A4009431BD248D317D
:101D2200003040012007CF000030213DD00020309C
:101D3200223DD1000030233DD2000030A30000300C
:101D4200A2004030A1000030A0000030B2002030DC
:101D5200B3000030B4000030B5002E08193E8600F2
:101D620001308700403FB600413FB7003608F0001F
:101D72003708F100890D893B8909F200F300520806
:101D8200F7005108F6005008F5004F08F4009A31A8
:101D920021228D3170084001B2077108B33D7208EB
:101DA200B43D7308B53D3508A7003408A6003308D2
:101DB200A5003208A4009431BD248D3140012308CE
:101DC200CE002208CD002108CC002008CB00560806
:101DD200F3005508F2005408F1005308F0004E08D1
:101DE200F7004D08F6004C08F5004B08F4009A3154
:101DF20021228D3173084001DA007208D90071087E
:101E0200D8007008D7000030A3000030A200803054
:101E1200A1000030A0005A08A7005908A6005808DF
:101E2200A5005708A4009431BD248D314001230838
:101E3200F3002208F2002108F1002008F00000302F
:101E4200A3000030A2008030A1000030A0005A0898
:101E5200A7005908A6005808A5005708A400943105
:101E6200BD248D3140012308F7002208F600210825
:101E7200F5002008F4009A3121228D3173084001C7
:101E8200BD007208BC007108BB007008BA000030C7
:101E9200A3000030A2000030A1008030A0003D0865
:101EA200A7003C08A6003B08A5003A08A40094310C
:101EB200BD248D3140012308D2002208D10021081F
:101EC200D0002008CF000030A3000030A200003074
:101ED200A1001030A0002E08183E860001308700B5
:101EE2000108B200B301B401B5013508F3003408AA
:101EF200F2003308F1003208F0005208F7005108EE
:101F0200F6005008F5004F08F4009A3121228D3175
:101F120073084001A7007208A6007108A5007008A6
:101F2200A4009431BD248D31400120085702B6002F
:101F32002108583BB7002208593BB80023085A3BF6
:101F4200B9003908D6003808D5003708D400360859
:101F5200D300D61FB42F0030D6000030D500003099
:101F6200D4000030D300D61BC82F013053020030FA
:101F7200543B0030553B1930563B031CC82F1930D7
:101F8200D6000030D5000030D4000030D30000303D
:101F9200A3000030A2001030A1000030A0005608BB
:101FA200A7005508A6005408A5005308A4009431C0
:101FB200BD248D3140012308C6002208C500210836
:101FC200C4002008C3004608031DEF2F013043025E
:101FD2009030443B0130453B031CF72F0030C600D4
:101FE2000130C5009030C4000030C3004608B10083
:0E1FF2004508B0004408AF004308AE000800E8
:10200200083042019F0090309D0024309E0019301C
:102012009B009C010030F0000030F100A531C0258A
:1020220090310030F0000030F100A531C62590312A
:102032000030F0000030F100A531BA254101ED0178
:102042000800F30073088600870101080739F100D0
:102052007008023E86008701710881007308023E03
:10206200860087010108F1000230F136890B36281B
:1020720071080739F2007008860087017208810032
:102082007308023E860087010108F1000530F1362F
:10209200890B482871080739F200700A8600870107
:1020A200720881007308033E860087010108F1006F
:1020B2000230F136890B5A2871080739F20070088C
:1020C200033E86008701720881007308033E860082
:1020D20087010108F1000530F136890B6D2871087E
:1020E2000739F2007008043E8600870172088100F9
:1020F20008004101D500CD3086000030870008304D
:102102004001E30000301E00E30B842830308600DB
:1021120001308700D7308400003085000C30E300A6
:1021220016001A00E30B91286208A731902790311C
:102132004001E30063084101D6005608031D080070
:102142004001610803190800CD30E3006308B700BD
:102152000830B8000030B9006208E4006408BA0030
:10216200F7309C311D2490314001E50065084101A2
:10217200D6005608031D0800D7304001E30063086B
:10218200F000CD3088313E209031D7304001E3005D
:102192006308DB006108E4006408DC006208093EB1
:1021A200E5006508DD00410155089431442408002A
:1021B2001430F0000030F100D330A73157279031AE
:1021C2004001A201A301A401A501A601A70177086C
:1021D200F1007608F000A631A02690317108400186
:1021E200A1007008A0002708803AFA002108803A6E
:1021F2007A02031DFE2820082602031839297908CD
:1022020040012306031D072978082206031D2629FB
:102212002608760786002708773D87002C300106BE
:10222200031939292608760786002708773D870093
:102232000108FA002408D33E8600013087007A089C
:1022420081000130A4070030A53D260876078600EC
:102252002708773D87002C300106031D3429013001
:10226200A2070030A33D0130A6070030A73DF428A5
:10227200D33008004001A8002808F0000130F10026
:10228200A631A026913171084001A5007008A40072
:10229200A601A7010230F0000030F1002508F3008A
:1022A2002408F2009E316426913171084001A10098
:1022B2007008A0002708803AF9002108803A7902C4
:1022C200031D6529200826020318962940012608C5
:1022D2002807F90079088600013087000108FA0012
:1022E2007A08A200260828022407FF3EF90079088E
:1022F200A30023088600013087000108F9002608A0
:102302002807FA007A0886000130870079088100E0
:102312002208F9002308860001308700790881002D
:102322000130A6070030A73D5B2940012408280799
:10233200F900790886000130870081010800400118
:10234200AC01AD01FC1FA7290130A8290030A9006A
:102352002908AB002B080319B329FB09FC09FB0A66
:102362000319FC0A0A30F0000030F1007C08F30087
:102372007B08F2009C31612491317008303E4001AB
:10238200A9002C087D07AA002A08860001308700D0
:10239200290881000130AC070030AD3D0A30F00061
:1023A2000030F1007C08F3007B08F2009E316426C5
:1023B20091317108FC007008FB007C08803A4001F2
:1023C200A90080302902031DE82901307B0203188D
:1023D200B32940012B080319FD292D30A9002C082F
:1023E2007D07AA002A08860001308700290881009B
:1023F2000130AC070030AD3D2C087D07A90029084B
:1024020086000130870081017D0891313B2108005F
:102412004001E6000530E0006008E300E4016608E0
:10242200A731902792314001E0006008E50065087D
:102432000319682A722A6430E0006008B70001308C
:10244200B8000030B9006608E1006108BA00D03077
:102452009C311D2492314001E2006208E5006508CA
:10246200031D532A60306406031D532A6408E000EA
:1024720066088600013087006008810066089B318B
:102482001D2392314001E0006008E5006508031D4C
:102492006B2A66089D31C62592314001E000600832
:1024A200E5006B2A0030F3000030F2000030F1004A
:1024B2000130F0006608073E860001308700413F88
:1024C2008A00403F0A00923101304001E302630872
:1024D200031D1C2A6308031D722AFE30E0006008F7
:1024E200E50065080800A6318B269231763041015D
:1024F200AE002E084301A100A201A20A1330A300DC
:102502001E30A400B130A5001A30A6001530A70075
:102512001930A800A0309231092292314101AE0057
:102522002E08B1003108031DCF2A4301D001D00A81
:1025320005304101AE002E084301CE0002304101B8
:10254200AE002E084301CF0004304101AE002E0838
:102552004301D100D201D20A4101B001B00AB01444
:1025620030153016B015A030AE002E084001EC0038
:1025720041013008933156239231A0304101AE001F
:102582002E084001EC0003309B3159239231410166
:10259200AF002F08B100310803190800C83040010C
:1025A200A0000030A100C830A2000030A300033018
:1025B2004101AE002E084001A4009831C12008005C
:1025C2007608F1007508F000A631A0269231710854
:1025D2004001A6007008A5007A08FF3EA000FF3067
:1025E2007B3DA1002608803AA2002108803A2202FF
:1025F200031DFD2A2008250203184A2B4001250845
:102602007507A0002608763DA10020088600210853
:102612008700413181012608A8002508A700790812
:10262200803AA0002808803A2002031D1A2B2708AE
:10263200780203183C2B400127087507A0002808E0
:10264200763DA1002008FF3E8600FF30213D870035
:102652000108A20027087507A3002808763DA400F8
:10266200230886002408870022088100FF30A7077C
:10267200FF30A83D102B780875074001A0007908AB
:10268200763DA10020088600210887007708810096
:102692004F2B7908F6007808F50008007808013E0B
:1026A200F5000030793DF60008004101AB00400121
:1026B2006C08A731902793314001ED006D0841016C
:1026C200AD002D08031DC92B40016C08ED006D08FB
:1026D200C000AC309931C52193314001EE006E0843
:1026E2004101AD002D08031D832B2C080319832BF8
:1026F20040016C089B31992393314001ED006D0834
:102702004101AD002D08031DC92B2B084001ED002E
:102712006D08F0000730A531F9259331003A03190D
:10272200A62B40016C082E3EDD000130DE006C0855
:10273200ED006D08DF0041012B089831EB20933149
:102742004001EE006E084101AD0041012D08031D5C
:10275200C92B2B084001ED006D08F0001830A5319F
:10276200F9259331003A0319C92B40016C082E3E1A
:10277200D3000130D4006C08ED006D08D500410192
:102782002B089C31A6244001EE006E084101AD00E9
:1027920041012D08080000304001BB000030BA00A2
:1027A2000030B9000030B8000F302905B400003005
:1027B2002A05B50000302B05B60000302C05B70005
:1027C2003708031DF62B3608031DF62B3508031DAB
:1027D200F62B0A3034020318F62B0030B300003017
:1027E200B2000030B1003030FD2B0030B3000030B9
:1027F200B2000030B1003730B00030083407AE000C
:1028020038082D07AF002F088600013087002E08F8
:1028120081000130B8070030B93D0030BA3D0030C8
:10282200BB3D0430AC36AB0CAA0CA90C890B132CA3
:102832002C082B042A0429040319332CD52B3030FD
:10284200AE0038082D07AF002F0886000130870040
:102852002E0881000130B8070030B93D0030BA3D82
:102862000030BB3D3B08031D402C3A08031D402CA1
:102872003908031D402C04303802031C202C2D087B
:1028820091313B2108004001E000DF015B080319A0
:10289200B92C5C080319B92C5D080319B92C5C0822
:1028A200043E8600013087000030C03F0030C13F47
:1028B200C23FC33F5C088600013087000030C03F42
:1028C200C13FC23FC33F5C08083E8600013087001B
:1028D2000030C03F0030C13FC23FC33F60080739EC
:1028E2000319892C5D08DE005E08AE005B088931A1
:1028F2005D21943140015C08043E8600013087006E
:102902002E08C03F2F08C13F3008C23F3108C33FE5
:10291200601CA02C5D08DE005E08AE005B08803102
:102922005420943140015C088600013087002E0853
:10293200C03F2F08C13F3008C23F3108C33F601D6E
:10294200BB2C5D08DE005E08AE005B088D313625CB
:10295200943140015C08083E8600013087002E0851
:10296200C03F2F08C13F3008C23F3108C33FBB2CD4
:10297200DF01DF035F0808004001A901A31FCE2C7D
:10298200A009A109A209A309A00A0319A10A03190E
:10299200A20A0319A30AA901A90AA71FDF2CA409E5
:1029A200A509A609A709A40A0319A50A0319A60AD3
:1029B2000319A70A0130FC007C08A9060030AD000B
:1029C2000030AC000030AB000030AA002308220423
:1029D200210420040319282DA801A80AA31BFD2CF9
:1029E2000130A035A10DA20DA30D890BF22C0130EF
:1029F200FC007C08A807EF2C0130AA35AB0DAC0D0A
:102A0200AD0D890BFE2C23082702031D122D22086F
:102A12002602031D122D21082502031D122D200856
:102A22002402031C1D2D2008A4022108A53B220814
:102A3200A63B2308A73B2A140130A336A20CA10C03
:102A4200A00C890B1E2D0130A802031DFD2C2908A4
:102A52000319362DAA09AB09AC09AD09AA0A031953
:102A6200AB0A0319AC0A0319AD0A2D08A3002C08FE
:102A7200A2002B08A1002A08A00008004001AF0014
:102A820041016B084001A30041016A084001A20014
:102A9200410169084001A100410168084001A0000C
:102AA200B530F0007008A5006230F0007008A60092
:102AB2000530F0007008A700A801A80A0230F00053
:102AC2007008A900AA012F08860002308700023090
:102AD200423FAB002F088600023087000230433F9E
:102AE200AC00AD01AE010230F0007008B100310857
:102AF200253E860087012D080107F0007008AD0011
:102B02002E082D07F0007008AE000130F0007008AA
:102B1200B10708303102031C782DB0010A304001A0
:102B22003002031C962D0130080020084101680282
:102B3200F000400121084101693BF10040012208F7
:102B420041016A3BF2004001230841016B3BF30063
:102B52007308031DB52D7208031DB52DB93070021F
:102B62000B30713B031CB72D003008009831002058
:102B72009531003A03198F2DA63104269531F000C4
:102B820070084001A4003008253E86008701010834
:102B92002406031D8E2D0130F0007008B0078F2D22
:102BA200FD007008093EF1007108FC007D0A8400F6
:102BB20085010008F1007D08840085017C08193E2A
:102BC2008600013087000008C03F7108C13F7D08C0
:102BD200023E860087010108F1007C081B3E860048
:102BE20001308700710881007D08033E860087015D
:102BF2000108F100F201F11BF203F10EF20EF030C6
:102C0200F20571080F39F204F030F1057108F6008F
:102C12007208F7007D08043E8600870101080F391B
:102C2200F100F2017108F4007208F50074087604EC
:102C3200F10075087704F2007C081C3E8600013022
:102C420087007108C03F7208C13F7D08053E8600BB
:102C520087010108F100F201F11BF203F10EF20EFD
:102C6200F030F20571080F39F204F030F105710805
:102C7200FA007208FB007D08043E86008701010805
:102C8200F1000430F136890B432E7108F200F30192
:102C92007208F8007308F90078087A04F1007908DC
:102CA2007B04F2007C081E3E86000130870071081A
:102CB200C03F7208C13F7D08063E860087010108B9
:102CC200F1007C08203E86000130870071088100F7
:102CD20008004001D2000B303502031C742E0A306A
:102CE200B7003708B5003608A73190279631400162
:102CF200B7003708D1005108031D072F52080319E6
:102D0200072F34080319072F35080319022F340837
:102D1200860087010108B7003708BA003608023E6C
:102D220086000130870001030319B22ED001350855
:102D320050020318B22E50085207B7003708860017
:102D4200870101087F39B80050085207B9003908D5
:102D520086008701380881000130B7003708D007A4
:102D6200982E02303502031CD22E3A30B7003708B3
:102D7200F0003408B8003808F1003508B900390805
:102D8200F200520899319821963140013508B70076
:102D9200B801B735B80D3708FF3ECE00FF30383DD9
:102DA200D82E3508B700B8013708CE003808CF0052
:102DB20036088600013087000130413FAB005208DF
:102DC200860087010108B7003708AC003A30B80026
:102DD2003808AD004F08AF004E08AE003608053E79
:102DE200860001308700413F8A00403F0A00963149
:102DF2004001B9003908D10051080319092FFC30EC
:102E0200032FFD30B7003708D100092FD101D103BC
:102E120051080800F3007008093EF1007108F20041
:102E2200730A840085010008F1007308840085019B
:102E320072088600013087000008C03F7108C13F58
:102E42007308033E840085010008F1007308023E06
:102E5200840085017208023E860001308700000866
:102E6200C03F7108C13F7308053E84008501000818
:102E7200F1007308043E840085017208043E860056
:102E8200013087000008C03F7108C13F7308073E48
:102E9200840085010008F1007308063E8400850164
:102EA2007208063E8600013087000008C03F7108A4
:102EB200C13F7308093E840085010008F1007308D0
:102EC200083E840085017208083E860001308700B2
:102ED2000008C03F7108C13F73080B3E84008501A2
:102EE2000008F10073080A3E8400850172080A3E58
:102EF2008600013087000008C03F7108C13F730897
:102F02000D3E840085010008F10073080C3E840028
:102F1200850172080C3E8600013087000008C03F20
:102F22007108C13F73080F3E840085010008F1005B
:102F320073080E3E8400850172080E3E8600013041
:102F420087000008C03F7108C13F7308113E84002A
:102F520085010008F1007308103E840085017208A3
:102F6200103E8600013087000008C03F7108C13F53
:102F72007308133E840085010008F1007308123EB5
:102F8200840085017208123E860001308700000825
:102F9200C03F7108C13F7308153E840085010008D7
:102FA200F1007308143E840085017208143E860005
:102FB200013087000008C03F7108C13F7308173E07
:102FC200840085010008F1007308163E8400850123
:102FD2007208163E8600013087000008C03F710863
:102FE200C13F7308193E860087010108F10072088B
:102FF200183E8600013087007108810008004E01EA
:103002000F0E890C01390800F201F301D830F000EB
:103012002630F1007208700786007308713D870040
:1030220081010130F2070030F33D7308803AF0006D
:1030320080307002031D1F288C30720203180800B2
:103042000728FA00F801F9017A08F0000130F100CE
:10305200A631A02698317108F7007008F6007908A9
:10306200803AF5007708803A7502031D3A287608FF
:1030720078020318080078087A07F50075088600B8
:103082000130870081010130F8070030F93D302816
:10309200F900F701F8017908A63152269831710832
:1030A200F6007008F5007808803AF4007608803A55
:1030B2007402031D5E28750877020318080077085A
:1030C2007907F40074088600023087000108A531F0
:1030D200D42598310130F7070030F83D5428FA0121
:1030E200FB017608F1007508F000A631A0269831A0
:1030F2007108F9007008F8007908803AF7007B0837
:10310200803A7702031D87287A087802031C080098
:1031120075087A07840076087B3D85000008A53192
:10312200D42598310130FA070030FB3D7D2840015B
:10313200980199019A010B30920070309300DF30B0
:103142009400FF307E01CE008030C3003730B800DB
:10315200C401B901CF01BA01C501D0013730BB00AA
:10316200F030C600FF30D1003F30BC00F030C70065
:10317200FF30D2000F309F000D307D01CB000800E0
:103182004001A501A6012608803AFC0080307C029D
:10319200031DCD28240825020318080040019A16B1
:1031A2002008F0002108F100F201F3019931152104
:1031B200983140019A122208F0002308F100F2012E
:1031C200F30199311521983101304001A5070030F2
:1031D200A63DC4284001E300E201E20A631D002982
:1031E2005E08D4005D08D3005F08E0006008D500E7
:1031F2009E31B52698314001E1006108E200630882
:103202000339031913295E08D4005D08D3005F084F
:10321200E0006008D50063089C31EC244001E10025
:103222006108E2006208080041016B08FB006A08BD
:10323200FA006908F9006808F80078084101680294
:10324200F4007908693BF5007A086A3BF6007B08CE
:103252006B3BF70073087702031D39297208760267
:10326200031D392971087502031D3929700874027A
:10327200031808005330890B3C2900001E29400125
:10328200A801A9012408F1002308F000A631A02614
:10329200993171084001A7007008A6002908803AF8
:1032A200A5002708803A2502031D5929260828026D
:1032B2000318080040012308280784002408293D38
:1032C200850000089A318022993101304001A80717
:1032D2000030A93D4F29B5346234063424342434F5
:1032E2000034FF34FF340634033400340034003435
:1032F2000034103427340034003405340034FA34F6
:103302000034FA340034643400342C340134003490
:10331200003400340034003400340034003400340B
:10332200003400340034003400341634DC34F60047
:10333200F701F70A72087702031808007708760780
:10334200F3007308860087010108F40077357007DF
:10335200F5007508FF3E8600870174088100770832
:103362007107F3007308860087010108F4007735BE
:103372007007F50075088600870174088100013026
:10338200F3007308F7079B294001C5004008A731E5
:10339200902799314001C1004108C4004408031D2F
:1033A200F0294508C1004108B7000130B8000030DB
:1033B200B9004008C2004208BA00F4309C311D2412
:1033C2004001C3004308C400450886008701010884
:1033D2000339C1004508860087014108810044087D
:1033E20008004001A800042A28088600013087004E
:1033F20001080319122A0130FD007D08A8070130D7
:10340200FB070030FC3D7B0884007C088500000837
:10341200FD00280886000130870001087D06031997
:10342200F52928088600013087007B0884007C0883
:10343200850000080102FB00FC01031CFC030800DC
:103442000030FB000030FA000030F9000030F800D4
:10345200701C332A7408F8077508F93D7608FA3D9E
:103462007708FB3D0130F435F50DF60DF70D890BAC
:10347200342A0130F336F20CF10CF00C890B3B2AA2
:103482007308720471047004031D292A7B08F30077
:103492007A08F2007908F1007808F0000800643038
:1034A2004001A9002730AA00D830F6002630F700E4
:1034B2003808F9003708F8009031D9209A314001D4
:1034C200AB000130AC003608AE003508AD008C30E0
:1034D200AF000030B0009F3107279A3140012A081F
:1034E200B6002908B5003608FD003508FC00A631F3
:1034F200B7267D084001B6007C08B50008004001EF
:10350200A0000030A63177269A314001A101A20124
:1035120040012008FD00210A8F2AFD36890B8E2AE0
:103522007D1C952A0130962A0030A63177269A31E1
:1035320001304001A1070030A23D2208803AFD007F
:1035420080307D02031DA72A07302102031C892A2D
:103552000130A63177269A310130A631772608004C
:103562004001B1014E010F10430111149D3132256A
:103572009A3140012B35A63135269A3140012C086B
:10358200A63135269A314001B201B3012F08330228
:10359200031DCD2A2E0832020318DF2A32082D0716
:1035A200B0003008860087010108A63135269A311D
:1035B20001304001B2070030B33DC72AA531AF2523
:1035C2004001310808004001D700F430D40054080B
:1035D200D9005A30D4005408B7000130B800003086
:1035E200B9005308D5005508BA0059089C311D246A
:1035F2009A314001D6005608D8005808031D1B2BEB
:1036020003305705D4005A08FC395404D500550834
:10361200DA005A30D4005408B400B501B50A530890
:10362200D5005508B600593096316A264001D600B9
:103632005608D800580808004001D900E030D300ED
:103642005308D800B630D3005308D6005908A73122
:1036520090279B314001D3005308D7005708031D20
:10366200562B5630D3005308B400B501B50A590899
:10367200D4005408B600583096316A269B31400176
:10368200D5005508D7000030F3000030F2000030BA
:10369200F1000230F0005908073E86000130870031
:1036A200413F8A00403F0A009B3140015708080011
:1036B2004101AB0040016C08A73190279B314001CA
:1036C200ED006D084101AD002D08031D972B40014F
:1036D2006C08ED006D08C000AC309931C5219B31FA
:1036E2004001EE006E084101AD002D08031D862B3E
:1036F2002C080319862B40016C089B3199239B31BE
:103702004001ED006D084101AD002D08031D972B0E
:1037120040016C08ED006D08D30041012B089A317D
:10372200E4224001EE006E084101AD002D080800C0
:103732004101A400A0304001E9006908B70004304B
:10374200B8000030B900410124084001EA006A08CB
:10375200BA00F2309C311D249B314001EB006B0812
:103762004101A5002508031DD92BA6304001E9001F
:103772006908F000A030903122209B3141012408D9
:103782009B311D239B314001E90069084101A500DD
:103792002508031DD92B24084001E9006908E4002B
:1037A200A630A731DA274001EA006A084101A500E4
:1037B2002508080073087204710470040319142C9C
:1037C200F901F90AF31BF12B0130F035F10DF20D7D
:1037D200F30D890BE62B0130F8007808F907E32B8B
:1037E20073087702031DFF2B72087602031DFF2B5D
:1037F20071087502031DFF2B70087402031C092C4B
:103802007008F4027108F53B7208F63B7308F73B47
:103812000130F336F20CF10CF00C890B0A2C01305A
:10382200F902031DF12B7708F3007608F200750800
:10383200F1007408F00008004001BE003A08A73108
:1038420090279C314001BB003B08BF003F08031D8D
:103852005F2C3A08023E86000130870001030319FB
:10386200372C3E088038BB003B08BE003A08860071
:10387200013087000130413FAD003E08BB003B08EC
:10388200AE003708BC003C08AF003908B100380868
:10389200B0003A08033E860001308700413F8A00AB
:1038A200403F0A009C314001BD003D08BF003F0877
:1038B20003195F2CFC30BB003B08BF003F08080027
:1038C200F601F31F6B2CF209F309F20A0319F30A4A
:1038D200F601F60AF11F722CF009F109F00A031938
:1038E200F10A700871040319992CF501F50AF11B0C
:1038F200842C0130F035F10D890B7B2C0130F40062
:103902007408F507782C71087302031D8A2C70085D
:103912007202031C902C7008F2027108F33B013012
:10392200F136F00C890B912C0130F502031D842C29
:1039320076080319A12CF209F309F20A0319F30A12
:103942007308F1007208F00008004001D900F53058
:10395200D6005608DB005C30D6005608B7000130AE
:10396200B8000030B9005508D7005708BA005B0804
:103972009C311D249C314001D8005808DA005A08B5
:10398200031DEA2CD91DCD2C5408F1005308F00078
:103992005C30A73103279C314001591ED82C5408B2
:1039A200F1005308F0005C30A7311F279C315C30D6
:1039B2004001D6005608B400B501B50A5508D70033
:1039C2005708B6005B3096316A264001D800580885
:1039D200DA005A0808004001D900F430D60056082F
:1039E200DB005C30D6005608B7000130B80000306A
:1039F200B9005508D7005708BA005B089C311D244E
:103A02009C314001D8005808DA005A08031D302DB5
:103A1200591C132D5408F1005308F0005C30A631F4
:103A2200E8269C314001D91C1E2D5408F100530890
:103A3200F0005C30A7313B279C315C304001D6005E
:103A42005608B400B501B50A5508D7005708B600A4
:103A52005B3096316A264001D8005808DA005A08CD
:103A6200080041016B084201C70041016A08420196
:103A7200C600410169084201C500410168084201CE
:103A8200C4004E010F18772D42014408410168021B
:103A92004001A700420145084101693B4001A800DD
:103AA2004201460841016A3B4001A9004201470820
:103AB20041016B3B4001AA002A08031D692D290818
:103AC200031D692DE93027020330283B031C422DD8
:103AD200C830A0000030A100C830A2000030A3000E
:103AE2000330A7002708A4009831C1204E010F100F
:103AF20008004001981241016C08031D982D2030E6
:103B0200983149209D31203095313F259D31FC006F
:103B12007C084101EC000030F3000030F20001307B
:103B2200F100F430F000993115219D317C2D4001D6
:103B320098164101EC014E30F500A830F60098319C
:103B420070209D313430F500A830F6009831702095
:103B52009D318230F500A830F600983170209D31F9
:103B62001A30F500A830F600983170209D31683087
:103B7200F500A830F600983170209D310030F50034
:103B8200A830F6009831702008004001DF00433071
:103B92008600003087001A30C00000301E00C00BC3
:103BA200CF2D4330C0004008B7001A30B8000030B3
:103BB200B9005F08C1004108BA0088309C311D2459
:103BC2009D314001C2004208DE005E08031D102E36
:103BD2005F08C0004008F000433097310B279D3149
:103BE20043304001C0004008B7000730B800003041
:103BF200B9005F08C1004108BA00E1309C311D24C0
:103C02009D314001C2004208DE005E08031D102EF5
:103C12005F08C0004008F00043309531D1254001D3
:103C22005E0808004001B4014E010F104301111457
:103C32009D3132259E3140012D35A63135269E31EA
:103C420040012E08A63135269E31430191149D3143
:103C520032259E31031440012D0DA63135269E31A9
:103C62004001B501B60131083602031D3A2E300873
:103C7200350203185F2E3008FF3EB200FF30313D9F
:103C8200B30036083306031D482E35083206031DDD
:103C92004C2E01304D2E0030A631CF269E314001F0
:103CA200B20035082F07B3003308860087013208B7
:103CB20081000130B5070030B63D342EA531AF2565
:103CC200400134080800F601F11F6E2EF009F109D7
:103CD200F00A0319F10AF601F60AF31F792EF20926
:103CE200F309F20A0319F30A0130F4007408F60624
:103CF200F701F801700871040319A82EF501F50AFD
:103D0200F11B8D2E0130F035F10D890B842E01301F
:103D1200F4007408F507812E0130F735F80D890B90
:103D22008E2E71087302031D982E70087202031CF6
:103D32009F2E7008F2027108F33B77140130F136BE
:103D4200F00C890BA02E0130F502031D8D2E760892
:103D52000319B02EF709F809F70A0319F80A7808C7
:103D6200F1007708F0000800F2304001D600560852
:103D7200DC005308860054088700423101080739E5
:103D8200D6005608D9005930D6005608B400B501FD
:103D9200B50A5508D7005708B6005C3096316A2636
:103DA2009E314001D8005808DB005B08031D052F37
:103DB200F430D6005608DC005A30D6005608B70058
:103DC2000130B8000030B9005508D7005708BA00D2
:103DD2005C089C311D249E314001D8005808DB004C
:103DE2005B08031D052F5A30D6005608B400B501F2
:103DF200B50A5508D7005708B6005C3096316A26D6
:103E02004001D8005808DB005B0808004001B301FC
:103E1200B4012C08F1002B08F000A631A0269F3136
:103E220071084001B2007008B100472F40012E080E
:103E3200803AFC003008803A7C02031D222F2F08B2
:103E42002D020318532F40012A08F6002908F50015
:103E52002B08330784002C08343D85000008FC0041
:103E62007C08F7002E08F9002D08F8003008FB0046
:103E72002F08FA009231E1229F3176084001AE000C
:103E82007508AD000130B3070030B43D3408803A04
:103E9200FC003208803A7C02031D512F31083302A4
:103EA200031C172F40012E08AA002D08A9000800A4
:103EB2000030FC000030FB000030FA000030F90056
:103EC20073087204710470040319A22FFD01FD0A24
:103ED200F31B772F0130F035F10DF20DF30D890B45
:103EE2006C2F0130F8007808FD07692F0130F93591
:103EF200FA0DFB0DFC0D890B782F73087702031D59
:103F02008C2F72087602031D8C2F71087502031D17
:103F12008C2F70087402031C972F7008F40271082A
:103F2200F53B7208F63B7308F73B79140130F33620
:103F3200F20CF10CF00C890B982F0130FD02031DDD
:103F4200772F7C08F3007B08F2007A08F1007908E9
:103F5200F00008004001B001B1010030F300003070
:103F6200F2000030F1000A30F0002C08F7002B08B4
:103F7200F6002A08F5002908F4009B31DB239F3163
:103F82007008303E4001AE0030082D07AF002F0808
:103F92008600013087002E0881000130B007003012
:103FA200B13D0030F3000030F2000030F1000A3081
:103FB200F0002C08F7002B08F6002A08F500290863
:103FC200F4009F3159279F3173084001AC007208F9
:103FD200AB007108AA007008A9002C082B042A045F
:103FE2002904031DAE2F30082D07AE002E088600CF
:0E3FF2000130870081012D0891313B2108002C
:104B5800A531AF250800430111159D313225080004
:104B680071084101EF007008EE0008007108430168
:104B7800E8007008E700080071084301EC007008BD
:104B8800EB00080071084301EA007008E90008001A
:104B98008B17E530F0002530F100A531B425080069
:104BA800F0004E010F1ED52D700842019A00080032
:104BB800623051018D008F01910102309300920102
:104BC800080001304101E8070030E93D0030EA3DC6
:104BD8000030EB3D08004F019601970198019901BB
:104BE8009A019B019C019D010800F1007108700564
:104BF8000319012EF201F20A022EF20172080800CE
:104C08004E018F1E042E4101ED0142019D1C0E2E06
:104C18001D121D16190808006400800101310130B9
:104C2800FE020030FF3B7F087E0403190034112E7A
:104C3800FE0012001E000130FE020030FF3B7F081C
:104C48007E04031900341D2E4E018C1241016E089A
:104C58006F04031908006F088A006E080A00A6315D
:104C68000800FD007D0843018C009D313225A631E6
:104C78004301111F08000130A531AC250800A531FA
:104C8800EF25A63198319820A631A531DC25A6312B
:104C9800A6316426A631903101200800F30073087C
:104CA800053E8600023087007308043E8400023007
:104CB80085000008083EF0000030013DF1000800C2
:104CC80040304B019F00F9309D009C014E018C1231
:104CD80096160330F0000030F100A531B42580307D
:104CE8004B019E000800FC007C0803197E2E400141
:104CF8001816802E400118120030F3000030F20020
:104D08000030F1001430F0009931152108000E3000
:104D18007D01C5000C30C60013307E019E001430A2
:104D28009C00803043018F0028309000910192014F
:104D380003308D00901608007108F4007008F30025
:104D4800700884007108850012000319B02E013024
:104D5800F0070030F13DA42E73087002F0007408CB
:104D6800713BF10008006430F5002730F6002C3064
:104D78004001A9002908F7007D08F9007C08F8001F
:104D88008C30FA000030FB009231E1227608FD00F9
:104D98007508FC0008004001AB00430191159D31E6
:104DA8003225A63143010C08FD007D084001AC0006
:104DB8002B0C4301031C91120318911611169D31F7
:104DC800322540012C080800F5007008860071089B
:104DD80087000108F2000230F235890BF02E1C30F2
:104DE8007205F3007508860087010108E33973042A
:104DF800F400750886008701740881000800F50032
:104E0800700886007108870043310108F2000230FB
:104E1800F235890B0C2F1C307205F30075088600DB
:104E280087010108E3397304F400750886008701D7
:104E3800740881000800F500700886007108870072
:104E480044310108F2000530F235890B282FE03093
:104E58007205F30075088600870101081F3973047D
:104E6800F400750886008701740881000800F500C1
:104E7800700886007108870041310108F20005308A
:104E8800F235890B442FE0307205F300750886006F
:104E9800870101081F397304F4007508860087012B
:104EA800740881000800F300F401F5017508803AE0
:104EB800F2007108803A7202031D642F70087402B0
:104EC8000318080074087307F2007208860001309E
:104ED800870081010130F4070030F53D5A2FF201B7
:104EE800F3016430F0002730F10072087007860083
:104EF8007308713D870081010130F2070030F33DEE
:104F08007308803AF00080307002031D8D2F8C30BA
:104F1800720203180800752FF30073080319AF2FE6
:104F28007308033E86000130870016000104031948
:104F3800AF2F7308053E8600013087001600010474
:104F48000319AF2F7308073E86000130870016004B
:104F58000104031DB22FF201F203B32FF20172080C
:104F68000800FF304001A300FF30A4002208F6002B
:104F78002108F5002208F1002108F000A631A0263A
:104F8800A7317108F8007008F70040012408FA00FA
:104F98002308F9008831012076084001A40075082B
:104FA800A3002408A2002308A10008004001E7008C
:104FB8006708DD000030DE006408E5006508DF00F2
:104FC8001F309831EB20A7314001E6006608E80061
:104FD8006808031DFE2F6708D3000030D40064085A
:104FE800E5006508D5001F309C31A6244001E60085
:104FF8006608E80068080800243450345534423400
:1050080058342C34343430342C3452344D34433402
:105018002C3430342C3430342C3430342C34303478
:105028002A34343437340D340A34003424345034B8
:105038005534423458342C34343430342C344734D6
:10504800533456342C3430342C3430342C343034FB
:105058002C3430342A34353439340D340A3400349D
:10506800243450345534423458342C3434343034A5
:105078002C344734473441342C3430342C343034D5
:105088002C3430342C3430342A34353441340D3413
:105098000A340034243450345534423458342C34CF
:1050A800343430342C3447344C344C342C3430348D
:1050B8002C3430342C3430342C3430342A343534D5
:1050C80043340D340A3400342434503455344234D3
:1050D80058342C34343430342C3447345334413439
:1050E8002C3430342C3430342C3430342C343034A8
:1050F8002A34343445340D340A34003424345034DA
:105108005534423458342C34343430342C345634F6
:10511800543447342C3430342C3430342C34303438
:105128002C3430342A34353445340D340A340034C0
:10513800243450345534423458342C3430343034D8
:105148002A34333433340D340A3400345734693450
:10515800733470342D34313400342434243400341E
:0C5168000A34003453340034573400344F
:020000040001F9
:0A000E00EC3FFF3F9F3FFF3FFF3F25
:00000001FF
