:020000040000FA
:1000000080310D282034A0347E1480318B1A0B1DD2
:100010000B289B31C8237E10090080310F28220055
:10002000803102208031E100803103208031E20004
:10003000E83084000030850008309B31792380311E
:1000400042308400013085001C309B31792380319F
:10005000A0308400013085004D309B317923803100
:10006000203084000230850046309B317923803176
:10007000A03084000230850049309B3179237E1006
:10008000200085318B2D2100B4000030B8000130F4
:10009000B700AD30B600B030B50000302000A3008E
:1000A0000030A2000030A1000230A0002E08213E46
:1000B000860001308700403FA400413FA500423F39
:1000C000A600433FA70097317F27803100302007EB
:1000D0002100C90006302000213D2100CA00FF3068
:1000E0002000223D2100CB00FF302000233D2100D5
:1000F000CC0000302000A3000030A2000030A1009E
:100100000430A00021004C082000A70021004B086B
:100110002000A60021004A082000A500210049086F
:100120002000A40097317F2780312308F3002208A4
:10013000F2002108F1002008F0000030A300003098
:10014000A2000030A1000430A00021004C082000D3
:10015000A70021004B082000A60021004A0820002B
:10016000A500210049082000A40097317F27803195
:100170002308F7002208F6002108F5002008F40003
:100180009E31A926803173082100BC007208BB0093
:100190007108BA007008B90000302000A3000030D8
:1001A000A2000830A1000030A00021003C0820007F
:1001B000A70021003B082000A60021003A082000EB
:1001C000A500210039082000A40097317F27803145
:1001D0002308F3002208F2002108F1002008F000B3
:1001E0002E08103E860001308700403FB200413F9C
:1001F000B3003208F4003308F500890D893B890902
:10020000F600F7009E31A926803173082100C40052
:100210007208C3007108C2007008C10041082000C4
:10022000B200210042082000B30021004308200052
:10023000B400210044082000B5002E080E3E8600C0
:1002400001308700403FB600413FB7003608F0005C
:100250003708F100890D893B8909F200F30021007C
:100260004C08F7004B08F6004A08F5004908F4006E
:100270009E31A926803170082000B8007108B900AD
:100280007208BA007308BB000130B835B90DBA0D59
:10029000BB0D890B45293808B2073908B33D3A0828
:1002A000B43D3B08B53D35082100C40020003408AA
:1002B0002100C300200033082100C20020003208C2
:1002C0002100C10020002E080C3E8600013087006E
:1002D000403FB200413FB3003208B4003308B500DC
:1002E000B601B7011030B435B50DB60DB70D890B99
:1002F00073290030A3000030A2000030A1000430B8
:10030000A000210044082000A7002100430820008D
:10031000A600210042082000A5002100410820007D
:10032000A40097317F2780312008B4072108B53D0C
:100330002208B63D2308B73D37082100C40020003D
:1003400036082100C300200035082100C20020002B
:1003500034082100C10000302000A3000030A200BA
:100360000030A1000430A00021004C082000A700AC
:1003700021004B082000A60021004A082000A5000B
:10038000210049082000A40097317F2780312308ED
:10039000F3002208F2002108F1002008F0000030EC
:1003A000A3000030A2000030A1000430A000210012
:1003B0004C082000A70021004B082000A6002100C7
:1003C0004A082000A500210049082000A400973118
:1003D0007F2780312308F7002208F6002108F50066
:1003E0002008F4009E31A926803173082100BC004A
:1003F0007208BB007108BA007008B90020002E080E
:100400000A3E860001308700403FB200413FB30002
:100410003208F0003308F100890D893B8909F200A8
:10042000F3000030A3000030A2002030A100003013
:10043000A00021003C082000A70021003B0820006C
:10044000A60021003A082000A5002100390820005C
:10045000A40097317F2780312308F7002208F60097
:100460002108F5002008F4009E31A9268031730888
:100470002100AF007208AE007108AD007008AC003A
:1004800000302000A3000030A2000030A10008309E
:10049000A00021002F082000A70021002E08200026
:1004A000A60021002D082000A50021002C08200016
:1004B000A40097317F27803123082100A30020006A
:1004C00022082100A200200021082100A100200014
:1004D00020082100A00000302000A3000030A2006E
:1004E0000030A1000230A0002E08083E8600013036
:1004F0008700403FB200413FB3003208F0003308AC
:10050000F100890D893B8909F200F30021004C08B4
:10051000F7004B08F6004A08F5004908F4009E3140
:10052000A926803173082000A7007208A600710870
:10053000A5007008A40097317F278031230821008F
:10054000A700200022082100A60020002108210089
:10055000A500200020082100A40000302000A300F6
:100560000430A2000030A1000030A00021002008CB
:1005700024072000B20021002108253D2000B300FF
:1005800021002208263D2000B40021002308273D39
:100590002000B5003508A7003408A6003308A500E0
:1005A0003208A40097317F27803123082100CC0036
:1005B000200022082100CB00200021082100CA00D1
:1005C000200020082100C90000302000A3000030D6
:1005D000A2008030A1000030A000003021004907B7
:1005E000F00080304A3DF10000304B3DF200003019
:1005F0004C3DF30020002E08063E860001308700A7
:10060000403FB200413FB3003208F4003308F50028
:10061000F601F7019E31A926803173082000A7005A
:100620007208A6007108A5007008A40097317F2702
:10063000803123082100CC00200022082100CB00BB
:10064000200021082100CA00200020082100C90044
:100650004C084B044A0449040319602D34088600F1
:100660008701403F2000B200413FB300423FB40049
:10067000433FB5000030B6000030B7001030B8007E
:100680000030B9003208B6023308B73B3408B83B33
:100690003508B93B39082100AB002000380821009B
:1006A000AA00200037082100A900200036082100F8
:1006B000A80000302000A3000030A2001030A100EC
:1006C0000030A000210044082000A70021004308BA
:1006D0002000A600210042082000A50021004108BA
:1006E0002000A40097317F278031200821002802B4
:1006F0002000B20021082100293B2000B30022087D
:1007000021002A3B2000B400230821002B3B2000BD
:10071000B5003508F3003408F2003308F100320860
:10072000F0000030F7000030F6000C30F5003530F6
:10073000F4009E31A926803173082100C800720898
:10074000C7007108C6007008C50080304802031851
:10075000C62B4C08F3004B08F2004A08F100490888
:10076000F0004535F400460DF500470DF600480D44
:10077000F70093311723803173082100C8007208F5
:10078000C7007108C6007008C500E22B4C08F300D2
:100790004B08F2004A08F1004908F0004808F70049
:1007A0004708F6004608F5004508F4009331172382
:1007B000803170352100C500710DC600720DC70073
:1007C000730DC80045082000B20021004608200033
:1007D000B300210047082000B40021004808200091
:1007E000B5000330B536B40CB30CB20C890BF22B48
:1007F0003508F7003408F6003308F5003208F40035
:10080000210045082000B600210046082000B7005E
:10081000210047082000B800210048082000B90046
:100820000330B936B80CB70CB60C890B112C39084B
:10083000F3003808F2003708F1003608F0009E3166
:10084000A926803170082000BA007108BB00720828
:10085000BC007308BD000D30BD36BC0CBB0CBA0C1F
:10086000890B2C2C3D082100B30020003C082100FE
:10087000B20020003B082100B10020003A0821000E
:10088000B00000302000A3000030A2001030A10012
:100890000030A0002E08163E860001308700403F41
:1008A000B200413FB3003208F0003308F100890D77
:1008B000893B8909F200F30021003308F700320870
:1008C000F6003108F5003008F4009E31A926803189
:1008D00073082000A7007208A6007108A500700820
:1008E000A40097317F27803123082100CC0020000D
:1008F00022082100CB00200021082100CA0020008E
:1009000020082100C90000302000A3000030A20010
:100910002030A1000030A000210045082000B200D6
:10092000210046082000B300210047082000B40041
:10093000210048082000B5000230B536B40CB30CD5
:10094000B20C890B9D2C3508F3003408F2003308F3
:10095000F1003208F0002E08143E860001308700B6
:10096000403FB600413FB7003608F4003708F500B5
:10097000890D893B8909F600F7009E31A92680314F
:1009800073082000A7007208A6007108A50070086F
:10099000A40097317F27803123082100C400200064
:1009A00022082100C300200021082100C2002000ED
:1009B00020082100C10000302000A3000030A20068
:1009C0000030A1001030A000210041082000B2003A
:1009D000210042082000B300210043082000B40099
:1009E000210044082000B500210049082000B6007D
:1009F00021004A082000B70021004B082000B80061
:100A000021004C082000B9002E08123E860001305B
:100A10008700403FBA00413FBB003A08BC003B089A
:100A2000BD000030BD1BFF30BE00BF003C08B60754
:100A30003D08B73D3E08B83D3F08B93D3608B2070E
:100A40003708B33D3808B43D3908B53D3508A7002F
:100A50003408A6003308A5003208A40097317F2788
:100A600080312008210045072000C0002108210016
:100A7000463D2000C10022082100473D2000C20061
:100A800023082100483D2000C30043082100C8007E
:100A9000200042082100C700200041082100C600B4
:100AA000200040082100C5004808031D682D4708A4
:100AB000031D682D303045027530463B0318682D04
:100AC0000030C8000030C7007530C60030307A2DC5
:100AD0004808031D732DB1304502AD30463B01304F
:100AE000473B031C7B2D0030C8000130C700AD30F0
:100AF000C600B030C50048082000B10021004708FA
:100B00002000B000210046082000AF002100450869
:100B10002000AE0008009B31AE2385319B31862337
:100B200085319531B82585319031012085313430BA
:100B30002100E30063082000E100BA302100E40056
:100B400064082000E20007309331C12385319031E1
:100B5000012085312200AF012030F5000130F60080
:100B60009C31FF24853122003908FC003808FB0045
:100B700020302100E3006308FD009431E724853133
:100B800022006208F0000230F1009C311924853106
:100B900071082200C1007008C00020302000A000B1
:100BA0000130A100220041082000A30022004008DB
:100BB0002000A2004630A4000030A50022006208F8
:100BC00092317622853121082200C10020002008C0
:100BD0002200C0002C302100E3006308F000220056
:100BE0004108F2004008F1004630F3000030F40004
:100BF000620895314F25853171082200C1007008C7
:100C0000C0002030F5000130F6009C31FF24853112
:100C1000220037082000AC00220036082000AB007C
:100C2000220035082000AA00220034082000A90074
:100C300020302100E30063082000AD00883102204D
:100C400085312030A0000130A100220041082000A1
:100C5000A300220040082000A2004630A40000307B
:100C6000A5002200620892317622853121082200F7
:100C7000C100200020082200C0002C302100E30029
:100C80006308F00022004108F2004008F1004630FD
:100C9000F3000030F400620895314F25853171086A
:100CA0002200C1007008C0002030F5000130F600BD
:100CB0009C31FF2485310830343E860001308700A6
:100CC000403F2000A900413FAA00423FAB00433F04
:100CD000AC0020302100E30063082000AD00883123
:100CE000022085312030A0000130A10022004108FF
:100CF0002000A300220040082000A2004630A400EB
:100D00000030A50022006208923176228531210848
:100D10002200C100200020082200C0004108B100CC
:100D20004008B00000302000A0009830A100003042
:100D3000A200A3004630A4000030A50022006108F4
:100D400092317622853121082200C100200020083E
:100D50002200C0002C302100E3006308F0002200D4
:100D60004108F2004008F1004630F3000030F40082
:100D7000610895314F25853171082200C100700846
:100D8000C0002030F5000130F6009C31FF24853191
:100D900022005708FC005608FB0020302100E30029
:100DA0006308FD009431E72485312030A000013034
:100DB000A100220041082000A300220040082000DA
:100DC000A2004630A4000030A50022006108923144
:100DD0007622853121082200C1002000200822004F
:100DE000C0002C302100E3006308F000220041081D
:100DF000F2004008F1004630F3000030F4006108D2
:100E000095314F25853102302000A0000030A1002F
:100E1000613091319B21853120082100E3002000C1
:100E200021082100E400E501E60166082000AC008D
:100E3000210065082000AB00210064082000AA0002
:100E4000210063082000A90058302100E70067084E
:100E50002000AD009731082785310730A000983079
:100E6000A1000030A200A3004630A4000030A5007D
:100E7000220061089231762285312A302100E30078
:100E80006308F00022003108F2003008F10046301B
:100E9000F3000030F400620895314F258531710868
:100EA0002200C1007008C00058302000A0000130AE
:100EB000A100220041082000A300220040082000D9
:100EC000A2004630A4000030A50022006208923142
:100ED0007622853121082200C1002000200822004E
:100EE000C0000A302100E3006308F000220041083E
:100EF000F2004008F1004630F3000030F4006208D0
:100F000095314F25853171082200C1007008C0005D
:100F10000130D6070030D73D0C1561089D31A02562
:100F20008531220062089D31A025853122000C11F7
:100F3000B201B30107302100E3007D30890B9E2F01
:100F4000E30B9E2F01302200B2070030B33D33087F
:100F5000803A2100E30083306302031DB22FE830A2
:100F6000220032020318972D9A2FB4019011240009
:100F700016149F31492787312D359B31BA2387318C
:100F800020002E089B31BA238731240096149F310C
:100F90004927873103142D0D9B31BA238731200057
:100FA000B501B60131083602031DD82F30083502CD
:100FB0000318FC2F3008FF3EB200FF30313DB30074
:100FC00036083306031DE62F35083206031DEA2FC7
:100FD0000130EB2F00309C3102248731B2003508FC
:100FE0002F07B300330886008701320881000130E3
:100FF000B5070030B63DD22F9B316E233408080070
:101002000800B001B1010030F3000030F2000030FE
:10101200F1000A30F0002C08F7002B08F6002A082D
:10102200F5002908F4009131142188317008303E0E
:10103200AE0030082D07AF002F0886000130870070
:101042002E0881000130B0070030B13D0030F300BE
:101052000030F2000030F1000A30F0002C08F700F6
:101062002B08F6002A08F5002908F400933117230B
:10107200883173082000AC007208AB007108AA0026
:101082007008A9002C082B042A042904031D042833
:1010920030082D07AE002E0886000130870081013E
:1010A2002D0894311D240800FD007008093EF1004E
:1010B2007108FC007D0A840085010008F1007D08AA
:1010C200840085017C08193E8600013087000008F3
:1010D200C03F7108C13F7D08023E860087010108BA
:1010E200F1007C081B3E86000130870071088100F8
:1010F2007D08033E860087010108F100F201F11B21
:10110200F203F10EF20EF030F20571080F39F2041B
:10111200F030F1057108F6007208F7007D08043E10
:101122008600870101080F39F100F2017108F4000D
:101132007208F50074087604F10075087704F2006D
:101142007C081C3E8600013087007108C03F72088F
:10115200C13F7D08053E860087010108F100F201CA
:10116200F11BF203F10EF20EF030F20571080F39A5
:10117200F204F030F1057108FA007208FB007D08F4
:10118200043E860087010108F1000430F136890B24
:10119200C7287108F200F3017208F8007308F90019
:1011A20078087A04F10079087B04F2007C081E3E7C
:1011B2008600013087007108C03F7208C13F7D0878
:1011C200063E860087010108F1007C08203E860069
:1011D20001308700710881000800D2000B3035020F
:1011E200031CF7280A30B7003708B50036089C31CF
:1011F200DA248831B7003708D1005108031D872946
:101202005208031987293408031987293508031955
:1012120082293408860087010108B7003708BA001E
:101222003608023E86000130870001030319342983
:10123200D001350850020318342950085207B7006C
:1012420037088600870101087F39B8005008520725
:10125200B900390886008701380881000130B700DB
:101262003708D0071A2902303502031C53293A30B5
:10127200B7003708F0003408B8003808F100350824
:10128200B9003908F20052089E312026883135080B
:10129200B700B801B735B80D3708FF3ECE00FF30B2
:1012A200383D59293508B700B8013708CE0038084B
:1012B200CF0036088600013087000130413FAB0085
:1012C2005208860087010108B7003708AC003A309F
:1012D200B8003808AD004F08AF004E08AE0036081F
:1012E200053E860001308700413F8A00403F0A00E8
:1012F2008931B9003908D100510803198929FC3014
:101302008329FD30B7003708D1008929D101D103E3
:1013120051080800F3007008093EF1007108F2005C
:10132200730A840085010008F100730884008501B6
:1013320072088600013087000008C03F7108C13F73
:101342007308033E840085010008F1007308023E21
:10135200840085017208023E860001308700000881
:10136200C03F7108C13F7308053E84008501000833
:10137200F1007308043E840085017208043E860071
:10138200013087000008C03F7108C13F7308073E63
:10139200840085010008F1007308063E840085017F
:1013A2007208063E8600013087000008C03F7108BF
:1013B200C13F7308093E840085010008F1007308EB
:1013C200083E840085017208083E860001308700CD
:1013D2000008C03F7108C13F73080B3E84008501BD
:1013E2000008F10073080A3E8400850172080A3E73
:1013F2008600013087000008C03F7108C13F7308B2
:101402000D3E840085010008F10073080C3E840043
:10141200850172080C3E8600013087000008C03F3B
:101422007108C13F73080F3E840085010008F10076
:1014320073080E3E8400850172080E3E860001305C
:1014420087000008C03F7108C13F7308113E840045
:1014520085010008F1007308103E840085017208BE
:10146200103E8600013087000008C03F7108C13F6E
:101472007308133E840085010008F1007308123ED0
:10148200840085017208123E860001308700000840
:10149200C03F7108C13F7308153E840085010008F2
:1014A200F1007308143E840085017208143E860020
:1014B200013087000008C03F7108C13F7308173E22
:1014C200840085010008F1007308163E840085013E
:1014D2007208163E8600013087000008C03F71087E
:1014E200C13F7308193E860087010108F1007208A6
:1014F200183E860001308700710881000800AC00A8
:101502002C08860087010108F100F201F301F401C1
:101512000C30F135F20DF30DF40D890B8A2A7408A3
:10152200AB007308AA007208A9007108A8002C0A6F
:10153200860087010108F100F201F301F401043091
:10154200F135F20DF30DF40D890BA12A7408A700F1
:101552007308A6007208A5007108A4002C08023EB8
:10156200860087010108F1000430F136890BB62AA2
:101572007108F200F301F401F5017508A300740883
:10158200A2007308A1007208A0002008F10021083F
:10159200F2002208F3002308F40028082404F500CE
:1015A20029082504F6002A082604F7002B08270438
:1015B200F8007508F1047608F2047708F304780855
:1015C200F4047008860087017108C03F7208C13FA9
:1015D2007308C23F7408C33F2C08033E860087018C
:1015E2000108F100F201F301F4010C30F135F20DC2
:1015F200F30DF40D890BF72A7408AB007308AA00E7
:101602007208A9007108A8002C08043E8600870110
:101612000108F100F201F301F4010430F135F20D99
:10162200F30DF40D890B0F2B7408A7007308A600A5
:101632007208A5007108A4002C08053E86008701E7
:101642000108F1000430F136890B242B7108F200F5
:10165200F301F401F5017508A3007408A2007308F0
:10166200A1007208A0002008F1002108F20022085F
:10167200F3002308F40028082404F50029082504AF
:10168200F6002A082604F7002B082704F80075083C
:10169200F1047608F2047708F3047808F404700879
:1016A200043E860087017108C03F7208C13F73087B
:1016B200C23F7408C33F2C08063E8600870101081A
:1016C200F100F201F301F4010830F135F20DF30DEE
:1016D200F40D890B662B7408A7007308A600720824
:1016E200A5007108A4002C08073E860087010108A6
:1016F200F100F201F301F4017408AB007308AA00CF
:101702007208A9007108A80028082404F100290819
:101712002504F2002A082604F3002B082704F4000B
:101722007008083E860087017108C03F7208C13FF9
:101732007308C23F7408C33F0800CC000030C700E2
:101742000030C6002130C5003430C4002E088600A7
:1017520001308700403FB200413FB3003208B4007D
:101762003308B500B601B7010130B435B50DB60D79
:10177200B70D890BB62B4C08043E86008701403F0B
:10178200B800413FB900423FBA00433FBB000330BB
:10179200BB36BA0CB90CB80C890BC92B3408B80289
:1017A2003508B93B3608BA3B3708BB3B3B08CB0090
:1017B2003A08CA003908C9003808C8000030A30036
:1017C2000030A2000830A1000030A0002E08023E26
:1017D200860001308700403FB200413FB30032082B
:1017E200F0003308F100890D893B8909F200F3000A
:1017F2004B08F7004A08F6004908F5004808F400CB
:101802009E31A9268B3173082000A7007208A6001A
:101812007108A5007008A40097317F278B31230837
:10182200CB002208CA002108C9002008C8002E08DF
:10183200860001308700403FB200413FB3003208CA
:10184200B4003308B500B601B7014C08043E860067
:101852008701403FB800413FB900423FBA00433FD1
:10186200BB000430BB36BA0CB90CB80C890B332C54
:101872003408B8023508B93B3608BA3B3708BB3BD7
:101882003B08D0003A08CF003908CE003808CD0016
:101892000030A3000030A2001030A1000030A000F0
:1018A2005008F3004F08F2004E08F1004D08F00016
:1018B2005008F7004F08F6004E08F5004D08F400F6
:1018C2009E31A9268B3173082000A7007208A6005A
:1018D2007108A5007008A40097317F278B31230877
:1018E200BF002208BE002108BD002008BC00003055
:1018F200A3000030A2004030A1000030A0003F0849
:10190200F3003E08F2003D08F1003C08F0002E080A
:10191200043E860001308700403FB200413FB300E1
:101922003208F4003308F500890D893B8909F60075
:10193200F7009E31A9268B3173082000A700720898
:10194200A6007108A5007008A40097317F278B318B
:101952002308D0002208CF002108CE002008CD00A5
:1019620048084D07B20049084E3DB3004A084F3DB2
:10197200B4004B08503DB5002E08213E86000130D0
:1019820087003208C03F3308C13F3408C23F3508E0
:10199200C33F0030A3000030A2000130A10000309C
:1019A200A0008030B2000030B3000030B40000303C
:1019B200B5002E08213E860001308700403FF0002E
:1019C200413FF100423FF200433FF3000030F70095
:1019D2000030F6000030F5000530F4009E31A926F3
:1019E2008B3170082000B2077108B33D7208B43D14
:1019F2007308B53D3508A7003408A6003308A500D2
:101A02003208A40097317F278B312308D4002208A3
:101A1200D3002108D2002008D100D41F222D60302B
:101A22005102F030523BFF30533BFF30543B03181E
:101A3200222DFF30D400FF30D300F030D2006030CE
:101A4200372DD41B382D5408031D302D5308031D88
:101A5200302D353051022130523B031C382D0030DD
:101A6200D4000030D3002130D2003430D1005408E9
:101A7200B1005308B0005208AF005108AE00080090
:101A8200BE002E08213E860001308700403FB20092
:101A9200413FB300423FB400433FB500003032073C
:101AA200C700D430333DC800FE30343DC900FF309A
:101AB200353DCA003E08083E86008701403FB2001D
:101AC200413FB300423FB400433FB5000E30B23550
:101AD200B30DB40DB50D890B682D3508CE00340851
:101AE200CD003308CC003208CB002E081C3E860005
:101AF20001308700403FB200413FB3003208B400DA
:101B02003308B500B601B7011430B435B50DB60DC2
:101B1200B70D890B862D3708DA003608D90035084B
:101B2200D8003408D7002E081E3E860001308700F8
:101B3200403FB200413FB3003208F0003308F100E9
:101B4200890D893B8909F200F3004A08F700490828
:101B5200F6004808F5004708F4009E31A9268D31A9
:101B620073082000D2007208D1007108D0007008FA
:101B7200CF000030A3000030A2008030A10000306E
:101B8200A0004B08B2004C08B3004D08B4004E0848
:101B9200B5005709B6005809B7005909B8005A09E3
:101BA200B900B60A0319B70A0319B80A0319B90A20
:101BB2004F08B6025008B73B5108B83B5208B93B30
:101BC2003608B2073708B33D3808B43D3908B53D89
:101BD20000303207A4004030333DA5000030343DD0
:101BE200A6000030353DA70097317F278D312308AD
:101BF200D6002208D5002108D4002008D3000030E6
:101C0200A3000030A2000430A1000030A0002E0882
:101C1200203E8600013087000108F0008039031D54
:101C2200FF30F100F200F3004A08F7004908F6001D
:101C32004808F5004708F4009E31A9268D31730843
:101C42002000A7007208A6007108A5007008A40071
:101C520097317F278D312308CE002208CD0021083D
:101C6200CC002008CB000030A3000030A2000830D6
:101C7200A1000030A0002E081B3E86000130870024
:101C82000108B200B301B401B5013508F30034080C
:101C9200F2003308F1003208F0004A08F700490860
:101CA200F6004808F5004708F4009E31A9268D3158
:101CB20073082000A7007208A6007108A50070082A
:101CC200A40097317F278D312308DA002208D9003A
:101CD2002108D8002008D7000030A3000030A2005D
:101CE2000430A1000030A00000305707F00080301F
:101CF200583DF1000030593DF20000305A3DF300EA
:101D02004E08F7004D08F6004C08F5004B08F400A9
:101D12009E31A9268D3173082000A7007208A60003
:101D22007108A5007008A40097317F278D3100301B
:101D32002007CF000030213DD0002030223DD100CD
:101D42000030233DD2000030A3000030A20040301A
:101D5200A1000030A0000030B2002030B3000030FB
:101D6200B4000030B5002E08193E8600013087000D
:101D7200403FB600413FB7003608F0003708F10097
:101D8200890D893B8909F200F3005208F7005108D6
:101D9200F6005008F5004F08F4009E31A9268D3157
:101DA20070082000B2077108B33D7208B43D730891
:101DB200B53D3508A7003408A6003308A50032084F
:101DC200A40097317F278D312308CE002208CD0051
:101DD2002108CC002008CB005608F3005508F20079
:101DE2005408F1005308F0004E08F7004D08F600C1
:101DF2004C08F5004B08F4009E31A9268D3173087A
:101E02002000DA007208D9007108D8007008D700E3
:101E12000030A3000030A2008030A1000030A000FA
:101E22005A08A7005908A6005808A5005708A40098
:101E320097317F278D312308F3002208F200210811
:101E4200F1002008F0000030A3000030A200803032
:101E5200A1000030A0005A08A7005908A60058089F
:101E6200A5005708A40097317F278D312308F7007A
:101E72002208F6002108F5002008F4009E31A92668
:101E82008D3173082000BD007208BC007108BB00D0
:101E92007008BA000030A3000030A2000030A10098
:101EA2008030A0003D08A7003C08A6003B08A50022
:101EB2003A08A40097317F278D312308D2002208E7
:101EC200D1002108D0002008CF000030A30000304C
:101ED200A2000030A1001030A0002E08183E86009B
:101EE200013087000108B200B301B401B501350821
:101EF200F3003408F2003308F1003208F00052080F
:101F0200F7005108F6005008F5004F08F4009E3122
:101F1200A9268D3173082000A7007208A600710857
:101F2200A5007008A40097317F278D312008570241
:101F3200B6002108583BB7002208593BB8002308D5
:101F42005A3BB9003908D6003808D5003708D40002
:101F52003608D300D61FB52F0030D6000030D5008A
:101F62000030D4000030D300D61BC92F01305302F9
:101F72000030543B0030553B1930563B031CC92FEF
:101F82001930D6000030D5000030D4000030D30024
:101F92000030A3000030A2001030A1000030A000E9
:101FA2005608A7005508A6005408A5005308A40027
:101FB20097317F278D312308C6002208C5002108EA
:101FC200C4002008C3004608031DEF2F013043025E
:101FD2009030443B0130453B031CF72F0030C600D4
:101FE2000130C5009030C4000030C3004608B10083
:0E1FF2004508B0004408AF004308AE000800E8
:1020020022006108F5000230F6009C31FF24903175
:1020120022006208F5000230F6009C31FF2408001D
:102022002100A500A0302000E9006908B7000430B3
:10203200B8000030B900210025082000EA006A0833
:10204200BA00F230903150209031EB006B08210041
:10205200A4002408031D4E28A6302000E9006908C8
:10206200F000A030933169239031210025089F317F
:102072000F279031E90069082100A4002408031DFC
:102082004E2825082000E9006908E400A6309C31AA
:10209200B724EA006A082100A40024080800BE0050
:1020A2003A089C31DA249031BB003B08BF003F085C
:1020B200031D8F283A08023E860001308700010383
:1020C200031968283E088038BB003B08BE003A0866
:1020D2008600013087000130413FAD003E08BB0061
:1020E2003B08AE003708BC003C08AF003908B1001D
:1020F2003808B0003A08033E860001308700413FAD
:102102008A00403F0A009031BD003D08BF003F08F1
:1021120003198F28FC30BB003B08BF003F080800B2
:10212200D900F430D6005608DB005C30D6005608E1
:10213200B7000130B8000030B9005508D700570881
:10214200BA005B08903150209031D8005808DA006C
:102152005A08031DD028591CB6285408F100530808
:10216200F0005C309C3148249031D91CC0285408BE
:10217200F1005308F0005C309C319B2490315C30BC
:10218200D6005608B400B501B50A5508D70057085D
:10219200B6005B308831EE20D8005808DA005A08C1
:1021A20008002000D900F530D6005608DB005C306C
:1021B200D6005608B7000130B8000030B900550803
:1021C200D7005708BA005B08903150209031D800F0
:1021D2005808DA005A08031D1229D91DF828540894
:1021E200F1005308F0005C309C3163249031591E99
:1021F20002295408F1005308F0005C309C317F241E
:1022020090315C30D6005608B400B501B50A5508C5
:10221200D7005708B6005B308831EE20D800580846
:10222200DA005A0808007308720471047004031972
:102232004D29F901F90AF31B2A290130F035F10D74
:10224200F20DF30D890B1F290130F8007808F90708
:102252001C2973087702031D382972087602031DB0
:10226200382971087502031D382970087402031C8D
:1022720042297008F4027108F53B7208F63B7308B4
:10228200F73B0130F336F20CF10CF00C890B4329C9
:102292000130F902031D2A297708F3007608F200BB
:1022A2007508F1007408F0000800F601F31F6029B8
:1022B200F209F309F20A0319F30AF601F60AF11F09
:1022C2006729F009F109F00A0319F10A700871048B
:1022D20003198E29F501F50AF11B79290130F03530
:1022E200F10D890B70290130F4007408F5076D298E
:1022F20071087302031D7F2970087202031C85296D
:102302007008F2027108F33B0130F136F00C890BD0
:1023120086290130F502031D7929760803199629C9
:10232200F209F309F20A0319F30A7308F1007208B9
:10233200F0000800A600FF30A400FF30A500A701AE
:10234200A8012808803AA2002108803A2202031D2F
:10235200AC29200827020318DA29200027082607BB
:10236200A20022088600013087000108F000023036
:10237200F1009C31192491317108F6007008F500C2
:1023820020002508F8002408F70027082607A300E4
:10239200230886000130870001089F31C32791314D
:1023A2007608A5007508A4000130A7070030A83DF3
:1023B200A22920002508A1002408A0000800DF00AF
:1023C20043308600003087001A30C00000301E0003
:1023D200C00BE8294330C0004008B7001A30B800EB
:1023E2000030B9005F08C1004108BA00883090315E
:1023F20050209131C2004208DE005E08031D262AE9
:102402005F08C0004008F000433089318B219131D0
:102412004330C0004008B7000730B8000030B900B0
:102422005F08C1004108BA00E1309031502091317B
:10243200C2004208DE005E08031D262A5F08C000B3
:102442004008F0004330883155205E080800F23021
:10245200D6005608DC005308860054088700423133
:1024620001080739D6005608D9005930D600560857
:10247200B400B501B50A5508D7005708B6005C305C
:102482008831EE209231D8005808DB005B08031D2A
:10249200742AF430D6005608DC005A30D6005608AA
:1024A200B7000130B8000030B9005508D70057080E
:1024B200BA005C08903150209231D8005808DB00F5
:1024C2005B08031D742A5A30D6005608B400B501C1
:1024D200B50A5508D7005708B6005C308831EE209F
:1024E200D8005808DB005B0808002000AA00A801F9
:1024F200A9012108F1002008F0009C311924923131
:1025020071082000A7007008A600B42A2000230842
:10251200803AFA002508803A7A02031D922A24089A
:1025220022020318C02A200020082807840021085C
:10253200293D85000008FA007A08F0002308F2001D
:102542002208F1002508F4002408F3002A08953136
:102552004F25923101302000A2070030A33D013007
:10256200A8070030A93D2908803AFA002708803AD6
:102572007A02031DBE2A26082802031C872A20008D
:102582002308A1002208A0000800F601F11FD02AAA
:10259200F009F109F00A0319F10AF601F60AF31F2C
:1025A200DB2AF209F309F20A0319F30A0130F400F3
:1025B2007408F606F701F8017008710403190A2B72
:1025C200F501F50AF11BEF2A0130F035F10D890B07
:1025D200E62A0130F4007408F507E32A0130F735E2
:1025E200F80D890BF02A71087302031DFA2A70088C
:1025F2007202031C012B7008F2027108F33B77147C
:102602000130F136F00C890B022B0130F502031D6B
:10261200EF2A76080319122BF709F809F70A0319AA
:10262200F80A7808F1007708F00008000030FC0092
:102632000030FB000030FA000030F9007308720429
:10264200710470040319602BFD01FD0AF31B352B85
:102652000130F035F10DF20DF30D890B2A2B01300B
:10266200F8007808FD07272B0130F935FA0DFB0D2C
:10267200FC0D890B362B73087702031D4A2B720857
:102682007602031D4A2B71087502031D4A2B70083E
:102692007402031C552B7008F4027108F53B720892
:1026A200F63B7308F73B79140130F336F20CF10C68
:1026B200F00C890B562B0130FD02031D352B7C08D3
:1026C200F3007B08F2007A08F1007908F0000800B4
:1026D200F30073088600870101080739F1007008CA
:1026E200023E86008701710881007308023E86005F
:1026F20087010108F1000230F136890B7D2B710848
:102702000739F20070088600870172088100730899
:10271200023E860087010108F1000530F136890B7F
:102722008F2B71080739F200700A86008701720840
:1027320081007308033E860087010108F100023020
:10274200F136890BA12B71080739F2007008033E9C
:1027520086008701720881007308033E86008701A4
:102762000108F1000530F136890BB42B71080739E5
:10277200F2007008043E860087017208810008009A
:102782002100D500CD3086000030870008302000BF
:10279200E30000301E00E30BCB2B423086000130F9
:1027A2008700D7308400003085000C30E30016002B
:1027B2001A00E30BD82B62089C31DA249331E30030
:1027C20063082100D6005608031D08002000610896
:1027D20003190800CD30E3006308B7000830B800E1
:1027E2000030B9006208E4006408BA00F7309031A2
:1027F20050209331E50065082100D6005608031DDC
:102802000800D7302000E3006308F000CD308A31A1
:1028120080229331D730E3006308DB006108E400D3
:102822006408DC006208093EE5006508DD0021005D
:102832005508963192260800A8002808F0000130B9
:10284200F1009C311924943171082000A500700810
:10285200A400A601A7010230F0000030F100250813
:10286200F3002408F2009231C62294317108A100CB
:102872007008A0002708803AF9002108803A7902FE
:10288200031D452C200826020318762C200026085A
:102892002807F90079088600013087000108FA004C
:1028A2007A08A200260828022407FF3EF9007908C8
:1028B200A30023088600013087000108F9002608DA
:1028C2002807FA007A08860001308700790881001B
:1028D2002208F90023088600013087007908810068
:1028E2000130A6070030A73D3B2C20002408280712
:1028F200F900790886000130870081010800200074
:10290200E6000530E0006008E300E40166089C315F
:10291200DA249431E0006008E50065080319DB2C35
:10292200E52C6430E0006008B7000130B8000030E8
:10293200B9006608E1006108BA00D0309031502039
:102942009431E2006208E5006508031DC62C603080
:102952006406031DC62C6408E00066088600013088
:1029620087006008810066089F310F279431E000DC
:102972006008E5006508031DDE2C66089131E02140
:102982009431E0006008E500DE2C0030F3000030F6
:10299200F2000030F1000130F0006608073E8600C8
:1029A20001308700413F8A00403F0A0094310130E4
:1029B2002000E3026308031D922C6308031DE52C2B
:1029C200FE30E0006008E500650808002000AC0168
:1029D200AD01FC1FEE2C0130EF2C0030A9002908BC
:1029E200AB002B080319FA2CFB09FC09FB0A03199B
:1029F200FC0A0A30F0000030F1007C08F3007B088A
:102A0200F2009131562194317008303E2000A90025
:102A12002C087D07AA002A088600013087002908B1
:102A220081000130AC070030AD3D0A30F0000030CB
:102A3200F1007C08F3007B08F2009231C622943147
:102A42007108FC007008FB007C08803AA900803005
:102A52002902031D2E2D01307B020318FA2C2000BF
:102A62002B080319432D2D30A9002C087D07AA003D
:102A72002A08860001308700290881000130AC074E
:102A82000030AD3D2C087D07A900290886000130E1
:102A9200870081017D0894311D240800F900710826
:102AA2007907F50075088600023087000108F600F4
:102AB2007608F7007008F50071087907F6007608C5
:102AC2008600023087007508810071087907F500D9
:102AD200750A8600023087000108031D772D7108F0
:102AE200013EF0000030723DF10008000130F107B4
:102AF2000030F23D7208803AF5007408803A75029F
:102B0200031D852D730871020318B32D710879070F
:102B1200F50075088600023087000108F600760885
:102B2200F8007708F50071087907F6007608860044
:102B320002308700750881007808F5007508F700F3
:102B42000130F1070030F23D7808031D7B2D780833
:102B5200F50071087907F6007608860002308700D2
:102B6200750881007108F0007208F10008009B31BD
:102B7200D823953176302100AE002E082300BB0009
:102B8200BC01BC0AB530BD000730BE007A30BF00C0
:102B92001E30C000CA30C1001D30C200BA309431AC
:102BA200802495312100AE002E08B1003108031DAA
:102BB200112E2300EA01EA0A05302100AE002E0898
:102BC2002300E80002302100AE002E082300E900B5
:102BD20004302100AE002E082300EB00EC01EC0AC9
:102BE2002100B001B00AB01430153016B015BA3059
:102BF200AE002E082000EC0021003008963123267A
:102C02009531BA30AE002E082000EC0003309F311F
:102C120086279531AF002F08B1003108031908004B
:102C2200C8302000A0000030A100C830A20000304F
:102C3200A30003302100AE002E082000A4009D3125
:102C4200F5250800AB0020006C089C31DA2496318F
:102C5200ED006D082100AD002D08031D8F2E200010
:102C62006C08ED006D08C000AC309D314C259631EA
:102C7200EE006E082100AD002D08031D4D2E2C081C
:102C820003194D2E20006C0890311120963120003E
:102C9200ED006D082100AD002D08031D8F2E2B08BD
:102CA2002000ED006D08F00007309B31982396312B
:102CB200003A03196E2E6C082E3EDD000130DE0054
:102CC2006C08ED006D08DF0021002B089D312425E2
:102CD2009631EE006E082100AD0021002D08031D83
:102CE2008F2E2B082000ED006D08F00018309B316C
:102CF20098239631003A03198F2E6C082E3ED3008A
:102D02000130D4006C08ED006D08D50021002B08BD
:102D12009031D220EE006E082100AD0021002D0876
:102D220008002000E000DF015B080319042F5C08A3
:102D32000319042F5D080319042F5C08043E860062
:102D4200013087000030C03F0030C13FC23FC33F67
:102D52005C088600013087000030C03FC13FC23F9F
:102D6200C33F5C08083E8600013087000030C03F48
:102D72000030C13FC23FC33F600807390319D62E56
:102D82005D08DE005E08AE005B088B319E23963143
:102D92005C08043E8600013087002E08C03F2F08E1
:102DA200C13F3008C23F3108C33F601CEC2E5D08B2
:102DB200DE005E08AE005B088031432096315C087D
:102DC2008600013087002E08C03F2F08C13F30081F
:102DD200C23F3108C33F601D062F5D08DE005E085A
:102DE200AE005B088D31412596315C08083E8600B5
:102DF200013087002E08C03F2F08C13F3008C23F74
:102E02003108C33F062FDF01DF035F0808000030EF
:102E1200BB000030BA000030B9000030B8000F30FB
:102E22002905B40000302A05B50000302B05B60094
:102E320000302C05B7003708031D312F3608031D5B
:102E4200312F3508031D312F0A3034020318312F78
:102E52000030B3000030B2000030B1003030382F03
:102E62000030B3000030B2000030B1003730B000A3
:102E720030083407AE0038082D07AF002F0886004F
:102E8200013087002E0881000130B8070030B93DBB
:102E92000030BA3D0030BB3D0430AC36AB0CAA0C5E
:102EA200A90C890B4E2F2C082B042A042904031980
:102EB2006E2F102F3030AE0038082D07AF002F08CC
:102EC2008600013087002E0881000130B8070030EB
:102ED200B93D0030BA3D0030BB3D3B08031D7B2F9E
:102EE2003A08031D7B2F3908031D7B2F043038025B
:102EF200031C5B2F2D0894311D240800A901A31F78
:102F02008F2FA009A109A209A309A00A0319A10AE6
:102F12000319A20A0319A30AA901A90AA71FA02F2C
:102F2200A409A509A609A709A40A0319A50A031950
:102F3200A60A0319A70A0130FC007C08A906003082
:102F4200AD000030AC000030AB000030AA00230816
:102F52002204210420040319E92FA801A80AA31BB3
:102F6200BE2F0130A035A10DA20DA30D890BB32FE9
:102F72000130FC007C08A807B02F0130AA35AB0D48
:102F8200AC0DAD0D890BBF2F23082702031DD32FD4
:102F920022082602031DD32F21082502031DD32F49
:102FA20020082402031CDE2F2008A4022108A53BCE
:102FB2002208A63B2308A73B2A140130A336A20C01
:102FC200A10CA00C890BDF2F0130A802031DBE2F1C
:102FD20029080319F72FAA09AB09AC09AD09AA0AF6
:102FE2000319AB0A0319AC0A0319AD0A2D08A30091
:102FF2002C08A2002B08A1002A08A00008005734C0
:103002006934733470342D3431340034243424342C
:02301200003488
:1036D6009B316E230800240016159F3149270800E8
:1036E60071082200DF007008DE0008006400800117
:1036F6000131890B7A2B003468302100990098013A
:103706002200960108008B178E30F0001B30F10066
:103716009B317323080001302100E8070030E93DA2
:103726000030EA3D0030EB3D0800F10071087005FD
:103736000319A02BF201F20AA12BF201720808006C
:10374600083023009F0090309D0024309E00673093
:103756009B009C0108009D3176259B319B317F2380
:103766009B319B31EC239B319B31A3230800FD0049
:103776007D08240091009F3149279B312400161FA4
:10378600080001309B316B2308000B1122006008F2
:103796002000950022005E085F04031908005F08F8
:1037A6008A005E080A009B3108000E303C00A0002B
:1037B6000C30A10010303D009E0011309C0080307E
:1037C600240094002830950096014F3092009516FB
:1037D600080021001508C0391238950083302000F2
:1037E60095008330F20072082200E0000B118B1660
:1037F6000130F0000830F1009B3173230800AB0064
:10380600240096159F3149279C3124001108FD009C
:103816007D082000AC002B0C2400031C9612031814
:10382600961616169F3149272C0808007108F400D1
:103836007008F300700884007108850012000319EF
:10384600292C0130F0070030F13D1D2C7308700261
:10385600F0007408713BF1000800F10071080319CB
:10386600372C22000C16392C22000C120D30F000D9
:10387600FC30890B3C2CF00B3C2C0D30F000FC305E
:10388600890B432CF00B432C0800F50070088600CA
:10389600710887000108F2000230F235890B502CBE
:1038A6001C307205F3007508860087010108E339AC
:1038B6007304F40075088600870174088100080007
:1038C600F500700886007108870043310108F20090
:1038D6000230F235890B6C2C1C307205F30075082A
:1038E600860087010108E3397304F4007508860031
:1038F6008701740881000800F500700886007108C9
:10390600870044310108F2000530F235890B882C16
:10391600E0307205F30075088600870101081F393B
:103926007304F40075088600870174088100080096
:10393600F500700886007108870041310108F20021
:103946000530F235890BA42CE0307205F3007508BA
:103956008600870101081F397304F4007508860084
:103966008701740881000800E7006708DD00003061
:10397600DE006408E5006508DF001F309D31242560
:103986009C31E6006608E8006808031DD82C670825
:10399600D3000030D4006408E5006508D5001F3068
:1039A6009031D220E6006608E80068080800F300B7
:1039B60073080319F92C7308033E8600013087004B
:1039C600160001040319F92C7308053E8600013020
:1039D6008700160001040319F92C7308073E8600B8
:1039E6000130870016000104031DFC2CF201F203CE
:1039F600FD2CF20172080800FA01FB017608F100BD
:103A06007508F0009C3119249C317108F900700882
:103A1600F8007B08803AF7007908803A7702031DA0
:103A2600162D78087A02031808007A0875078600AA
:103A36007B08763D870081010130FA070030FB3DA7
:103A46000C2D2000E300E201E20A631D382D5E081A
:103A5600D4005D08D3005F08E0006008D50092310D
:103A660028229D31E1006108E20063080339031949
:103A76004A2D5E08D4005D08D3005F08E0006008A8
:103A8600D500630890319120E1006108E2006208E8
:103A96000800C50040089C31DA249D31C100410868
:103AA600C4004408031D742D4508C1004108B70031
:103AB6000130B8000030B9004008C2004208BA0020
:103AC600F43090315020C3004308C40045088600F6
:103AD600870101080339C1004508860087014108AE
:103AE60081004408080022008C018D018E010330FC
:103AF60021008C0070308D00DF308E004F302300A7
:103B06008E0080308D0003308C0024008D018C01E6
:103B16008E012100951725008C018D018E0137300D
:103B260026008C00F0308D00FF308E000D303C00FA
:103B3600A40012303D009F000800FB00F901FA01C5
:103B46007B08F0000230F1009C3119249D31710888
:103B5600F8007008F7007A08803AF6007808803A8C
:103B66007602031DB82D7708790203180800790834
:103B76007B07F600760886000230870001089E3132
:103B86004D269D310130F9070030FA3DAE2D21005A
:103B96006B08FB006A08FA006908F9006808F80073
:103BA600780821006802F4007908693BF5007A0874
:103BB6006A3BF6007B086B3BF70073087702031D30
:103BC600EE2D72087602031DEE2D71087502031D97
:103BD600EE2D7008740203180800C8300032890BF5
:103BE600F12DD32DA501A6012608803AFC008030D0
:103BF6007C02031D002E240825020318080022005B
:103C06008E1620002008F0002108F100F201F301D1
:103C16009D31CA259D3122008E1220002208F00017
:103C26002308F100F201F3019D31CA259D310130CF
:103C36002000A5070030A63DF72DF600F701F70A8C
:103C4600720877020318080077087607F3007308EE
:103C5600860087010108F40077357007F5007508BE
:103C6600FF3E860087017408810077087107F3001C
:103C76007308860087010108F40077357007F500A0
:103C8600750886008701740881000130F300730807
:103C9600F707232EF30000309C3130249E31F401C7
:103CA600F5017308F200740A592EF236890B582E64
:103CB600721C5F2E0130602E00309C3130249E3104
:103CC6000130F4070030F53D7508803AF200803087
:103CD6007202031D702E07307402031C542E01302D
:103CE6009C3130249E3101309C3130240800B101D2
:103CF6009011240016149F3149279E312B359B3194
:103D0600BA239E3120002C089B31BA239E31200015
:103D1600B201B3012F083302031D932E2E0832027F
:103D26000318A52E32082D07B0003008860087013B
:103D360001089B31BA239E3101302000B2070030C2
:103D4600B33D8D2E9B316E23310808000030FB00F9
:103D56000030FA000030F9000030F800701CBB2E6D
:103D66007408F8077508F93D7608FA3D7708FB3DB3
:103D76000130F435F50DF60DF70D890BBC2E01302B
:103D8600F336F20CF10CF00C890BC32E7308720497
:103D960071047004031DB12E7B08F3007A08F2004B
:103DA6007908F1007808F00008002000D700F43008
:103DB600D4005408D9005A30D4005408B700013052
:103DC600B8000030B9005308D5005508BA005908A4
:103DD600903150209E31D6005608D8005808031D51
:103DE6000D2F03305705D4005A08FC395404D5006A
:103DF6005508DA005A30D4005408B400B501B50AA3
:103E06005308D5005508B60059308831EE20D60043
:103E16005608D800580808002000D900E030D30022
:103E26005308D800B630D3005308D60059089C3141
:103E3600DA249F31D3005308D7005708031D462FB5
:103E46005630D3005308B400B501B50A5908D4005A
:103E56005408B60058308831EE209F31D5005508F9
:103E6600D7000030F3000030F2000030F1000230DD
:103E7600F0005908073E860001308700413F8A005E
:103E8600403F0A009F3120005708080021006B08B8
:103E9600EF006A08EE006908ED006808EC002000F3
:103EA6009019832F21006C0868022000A7002100CA
:103EB6006D08693B2000A80021006E086A3B2000BF
:103EC600A90021006F086B3B2000AA002A08031DE9
:103ED600752F2908031D752FE93027020330283B6B
:103EE600031C522FC830A0000030A100C830A20029
:103EF6000030A3000330A7002708A4009D31F52554
:103F06002000901108002100AB0020006C089C31B5
:103F1600DA249F31ED006D082100AD002D08031D48
:103F2600C12F20006C08ED006D08C000AC309D313B
:103F36004C259F31EE006E082100AD002D08031DB3
:103F4600B12F2C080319B12F20006C0890311120D5
:103F56009F312000ED006D082100AD002D08031DE6
:103F6600C12F20006C08ED006D08D30021002B083E
:103F76009E31D826EE006E082100AD002D080800FF
:103F8600FC00FF30F507FF30F63D750A0319760A87
:103F96000319FB2F7C088600023087000108F90010
:103FA600FA017908FA00F9017908F7067A08F8069D
:103FB6000130F9007908FC07FD01F81BE62F77357B
:103FC600F700780DF12F7808FA007708F900F9352F
:103FD600FA0D21307906F70010307A06F800013024
:103FE600F9007908FD0708307D020318C42FE02F79
:0A3FF6007808F6007708F5000800CF
:020000040001F9
:06000E00FC3FFF3E9F3F96
:00000001FF
